{
	"contracts/Vault.sol": {
		"LiquidityVault": {
			"abi": [
				{
					"inputs": [
						{
							"internalType": "address",
							"name": "assetAddress_",
							"type": "address"
						}
					],
					"stateMutability": "nonpayable",
					"type": "constructor"
				},
				{
					"inputs": [
						{
							"internalType": "address",
							"name": "target",
							"type": "address"
						}
					],
					"name": "AddressEmptyCode",
					"type": "error"
				},
				{
					"inputs": [
						{
							"internalType": "address",
							"name": "account",
							"type": "address"
						}
					],
					"name": "AddressInsufficientBalance",
					"type": "error"
				},
				{
					"inputs": [
						{
							"internalType": "address",
							"name": "spender",
							"type": "address"
						},
						{
							"internalType": "uint256",
							"name": "allowance",
							"type": "uint256"
						},
						{
							"internalType": "uint256",
							"name": "needed",
							"type": "uint256"
						}
					],
					"name": "ERC20InsufficientAllowance",
					"type": "error"
				},
				{
					"inputs": [
						{
							"internalType": "address",
							"name": "sender",
							"type": "address"
						},
						{
							"internalType": "uint256",
							"name": "balance",
							"type": "uint256"
						},
						{
							"internalType": "uint256",
							"name": "needed",
							"type": "uint256"
						}
					],
					"name": "ERC20InsufficientBalance",
					"type": "error"
				},
				{
					"inputs": [
						{
							"internalType": "address",
							"name": "approver",
							"type": "address"
						}
					],
					"name": "ERC20InvalidApprover",
					"type": "error"
				},
				{
					"inputs": [
						{
							"internalType": "address",
							"name": "receiver",
							"type": "address"
						}
					],
					"name": "ERC20InvalidReceiver",
					"type": "error"
				},
				{
					"inputs": [
						{
							"internalType": "address",
							"name": "sender",
							"type": "address"
						}
					],
					"name": "ERC20InvalidSender",
					"type": "error"
				},
				{
					"inputs": [
						{
							"internalType": "address",
							"name": "spender",
							"type": "address"
						}
					],
					"name": "ERC20InvalidSpender",
					"type": "error"
				},
				{
					"inputs": [
						{
							"internalType": "address",
							"name": "receiver",
							"type": "address"
						},
						{
							"internalType": "uint256",
							"name": "assets",
							"type": "uint256"
						},
						{
							"internalType": "uint256",
							"name": "max",
							"type": "uint256"
						}
					],
					"name": "ERC4626ExceededMaxDeposit",
					"type": "error"
				},
				{
					"inputs": [
						{
							"internalType": "address",
							"name": "receiver",
							"type": "address"
						},
						{
							"internalType": "uint256",
							"name": "shares",
							"type": "uint256"
						},
						{
							"internalType": "uint256",
							"name": "max",
							"type": "uint256"
						}
					],
					"name": "ERC4626ExceededMaxMint",
					"type": "error"
				},
				{
					"inputs": [
						{
							"internalType": "address",
							"name": "owner",
							"type": "address"
						},
						{
							"internalType": "uint256",
							"name": "shares",
							"type": "uint256"
						},
						{
							"internalType": "uint256",
							"name": "max",
							"type": "uint256"
						}
					],
					"name": "ERC4626ExceededMaxRedeem",
					"type": "error"
				},
				{
					"inputs": [
						{
							"internalType": "address",
							"name": "owner",
							"type": "address"
						},
						{
							"internalType": "uint256",
							"name": "assets",
							"type": "uint256"
						},
						{
							"internalType": "uint256",
							"name": "max",
							"type": "uint256"
						}
					],
					"name": "ERC4626ExceededMaxWithdraw",
					"type": "error"
				},
				{
					"inputs": [],
					"name": "FailedInnerCall",
					"type": "error"
				},
				{
					"inputs": [],
					"name": "MathOverflowedMulDiv",
					"type": "error"
				},
				{
					"inputs": [
						{
							"internalType": "address",
							"name": "token",
							"type": "address"
						}
					],
					"name": "SafeERC20FailedOperation",
					"type": "error"
				},
				{
					"anonymous": false,
					"inputs": [
						{
							"indexed": true,
							"internalType": "address",
							"name": "owner",
							"type": "address"
						},
						{
							"indexed": true,
							"internalType": "address",
							"name": "spender",
							"type": "address"
						},
						{
							"indexed": false,
							"internalType": "uint256",
							"name": "value",
							"type": "uint256"
						}
					],
					"name": "Approval",
					"type": "event"
				},
				{
					"anonymous": false,
					"inputs": [
						{
							"indexed": true,
							"internalType": "address",
							"name": "user",
							"type": "address"
						},
						{
							"indexed": false,
							"internalType": "uint256",
							"name": "amount",
							"type": "uint256"
						}
					],
					"name": "CollateralLocked",
					"type": "event"
				},
				{
					"anonymous": false,
					"inputs": [
						{
							"indexed": true,
							"internalType": "address",
							"name": "user",
							"type": "address"
						},
						{
							"indexed": false,
							"internalType": "uint256",
							"name": "amount",
							"type": "uint256"
						}
					],
					"name": "CollateralUnlocked",
					"type": "event"
				},
				{
					"anonymous": false,
					"inputs": [
						{
							"indexed": true,
							"internalType": "address",
							"name": "sender",
							"type": "address"
						},
						{
							"indexed": true,
							"internalType": "address",
							"name": "owner",
							"type": "address"
						},
						{
							"indexed": false,
							"internalType": "uint256",
							"name": "assets",
							"type": "uint256"
						},
						{
							"indexed": false,
							"internalType": "uint256",
							"name": "shares",
							"type": "uint256"
						}
					],
					"name": "Deposit",
					"type": "event"
				},
				{
					"anonymous": false,
					"inputs": [
						{
							"indexed": true,
							"internalType": "address",
							"name": "from",
							"type": "address"
						},
						{
							"indexed": true,
							"internalType": "address",
							"name": "to",
							"type": "address"
						},
						{
							"indexed": false,
							"internalType": "uint256",
							"name": "value",
							"type": "uint256"
						}
					],
					"name": "Transfer",
					"type": "event"
				},
				{
					"anonymous": false,
					"inputs": [
						{
							"indexed": true,
							"internalType": "address",
							"name": "sender",
							"type": "address"
						},
						{
							"indexed": true,
							"internalType": "address",
							"name": "receiver",
							"type": "address"
						},
						{
							"indexed": true,
							"internalType": "address",
							"name": "owner",
							"type": "address"
						},
						{
							"indexed": false,
							"internalType": "uint256",
							"name": "assets",
							"type": "uint256"
						},
						{
							"indexed": false,
							"internalType": "uint256",
							"name": "shares",
							"type": "uint256"
						}
					],
					"name": "Withdraw",
					"type": "event"
				},
				{
					"inputs": [
						{
							"internalType": "address",
							"name": "owner",
							"type": "address"
						},
						{
							"internalType": "address",
							"name": "spender",
							"type": "address"
						}
					],
					"name": "allowance",
					"outputs": [
						{
							"internalType": "uint256",
							"name": "",
							"type": "uint256"
						}
					],
					"stateMutability": "view",
					"type": "function"
				},
				{
					"inputs": [
						{
							"internalType": "address",
							"name": "spender",
							"type": "address"
						},
						{
							"internalType": "uint256",
							"name": "value",
							"type": "uint256"
						}
					],
					"name": "approve",
					"outputs": [
						{
							"internalType": "bool",
							"name": "",
							"type": "bool"
						}
					],
					"stateMutability": "nonpayable",
					"type": "function"
				},
				{
					"inputs": [],
					"name": "asset",
					"outputs": [
						{
							"internalType": "address",
							"name": "",
							"type": "address"
						}
					],
					"stateMutability": "view",
					"type": "function"
				},
				{
					"inputs": [
						{
							"internalType": "address",
							"name": "account",
							"type": "address"
						}
					],
					"name": "balanceOf",
					"outputs": [
						{
							"internalType": "uint256",
							"name": "",
							"type": "uint256"
						}
					],
					"stateMutability": "view",
					"type": "function"
				},
				{
					"inputs": [
						{
							"internalType": "uint256",
							"name": "shares",
							"type": "uint256"
						}
					],
					"name": "convertToAssets",
					"outputs": [
						{
							"internalType": "uint256",
							"name": "",
							"type": "uint256"
						}
					],
					"stateMutability": "view",
					"type": "function"
				},
				{
					"inputs": [
						{
							"internalType": "uint256",
							"name": "assets",
							"type": "uint256"
						}
					],
					"name": "convertToShares",
					"outputs": [
						{
							"internalType": "uint256",
							"name": "",
							"type": "uint256"
						}
					],
					"stateMutability": "view",
					"type": "function"
				},
				{
					"inputs": [],
					"name": "decimals",
					"outputs": [
						{
							"internalType": "uint8",
							"name": "",
							"type": "uint8"
						}
					],
					"stateMutability": "view",
					"type": "function"
				},
				{
					"inputs": [
						{
							"internalType": "uint256",
							"name": "assets",
							"type": "uint256"
						},
						{
							"internalType": "address",
							"name": "receiver",
							"type": "address"
						}
					],
					"name": "deposit",
					"outputs": [
						{
							"internalType": "uint256",
							"name": "",
							"type": "uint256"
						}
					],
					"stateMutability": "nonpayable",
					"type": "function"
				},
				{
					"inputs": [
						{
							"internalType": "address",
							"name": "",
							"type": "address"
						}
					],
					"name": "lockedCollateral",
					"outputs": [
						{
							"internalType": "uint256",
							"name": "",
							"type": "uint256"
						}
					],
					"stateMutability": "view",
					"type": "function"
				},
				{
					"inputs": [
						{
							"internalType": "address",
							"name": "",
							"type": "address"
						}
					],
					"name": "maxDeposit",
					"outputs": [
						{
							"internalType": "uint256",
							"name": "",
							"type": "uint256"
						}
					],
					"stateMutability": "view",
					"type": "function"
				},
				{
					"inputs": [
						{
							"internalType": "address",
							"name": "",
							"type": "address"
						}
					],
					"name": "maxMint",
					"outputs": [
						{
							"internalType": "uint256",
							"name": "",
							"type": "uint256"
						}
					],
					"stateMutability": "view",
					"type": "function"
				},
				{
					"inputs": [
						{
							"internalType": "address",
							"name": "owner",
							"type": "address"
						}
					],
					"name": "maxRedeem",
					"outputs": [
						{
							"internalType": "uint256",
							"name": "",
							"type": "uint256"
						}
					],
					"stateMutability": "view",
					"type": "function"
				},
				{
					"inputs": [
						{
							"internalType": "address",
							"name": "owner",
							"type": "address"
						}
					],
					"name": "maxWithdraw",
					"outputs": [
						{
							"internalType": "uint256",
							"name": "",
							"type": "uint256"
						}
					],
					"stateMutability": "view",
					"type": "function"
				},
				{
					"inputs": [
						{
							"internalType": "uint256",
							"name": "shares",
							"type": "uint256"
						},
						{
							"internalType": "address",
							"name": "receiver",
							"type": "address"
						}
					],
					"name": "mint",
					"outputs": [
						{
							"internalType": "uint256",
							"name": "",
							"type": "uint256"
						}
					],
					"stateMutability": "nonpayable",
					"type": "function"
				},
				{
					"inputs": [],
					"name": "name",
					"outputs": [
						{
							"internalType": "string",
							"name": "",
							"type": "string"
						}
					],
					"stateMutability": "view",
					"type": "function"
				},
				{
					"inputs": [
						{
							"internalType": "uint256",
							"name": "assets",
							"type": "uint256"
						}
					],
					"name": "previewDeposit",
					"outputs": [
						{
							"internalType": "uint256",
							"name": "",
							"type": "uint256"
						}
					],
					"stateMutability": "view",
					"type": "function"
				},
				{
					"inputs": [
						{
							"internalType": "uint256",
							"name": "shares",
							"type": "uint256"
						}
					],
					"name": "previewMint",
					"outputs": [
						{
							"internalType": "uint256",
							"name": "",
							"type": "uint256"
						}
					],
					"stateMutability": "view",
					"type": "function"
				},
				{
					"inputs": [
						{
							"internalType": "uint256",
							"name": "shares",
							"type": "uint256"
						}
					],
					"name": "previewRedeem",
					"outputs": [
						{
							"internalType": "uint256",
							"name": "",
							"type": "uint256"
						}
					],
					"stateMutability": "view",
					"type": "function"
				},
				{
					"inputs": [
						{
							"internalType": "uint256",
							"name": "assets",
							"type": "uint256"
						}
					],
					"name": "previewWithdraw",
					"outputs": [
						{
							"internalType": "uint256",
							"name": "",
							"type": "uint256"
						}
					],
					"stateMutability": "view",
					"type": "function"
				},
				{
					"inputs": [
						{
							"internalType": "uint256",
							"name": "shares",
							"type": "uint256"
						},
						{
							"internalType": "address",
							"name": "receiver",
							"type": "address"
						},
						{
							"internalType": "address",
							"name": "owner",
							"type": "address"
						}
					],
					"name": "redeem",
					"outputs": [
						{
							"internalType": "uint256",
							"name": "",
							"type": "uint256"
						}
					],
					"stateMutability": "nonpayable",
					"type": "function"
				},
				{
					"inputs": [],
					"name": "symbol",
					"outputs": [
						{
							"internalType": "string",
							"name": "",
							"type": "string"
						}
					],
					"stateMutability": "view",
					"type": "function"
				},
				{
					"inputs": [],
					"name": "tokenAddress",
					"outputs": [
						{
							"internalType": "address",
							"name": "",
							"type": "address"
						}
					],
					"stateMutability": "view",
					"type": "function"
				},
				{
					"inputs": [],
					"name": "totalAssets",
					"outputs": [
						{
							"internalType": "uint256",
							"name": "",
							"type": "uint256"
						}
					],
					"stateMutability": "view",
					"type": "function"
				},
				{
					"inputs": [],
					"name": "totalSupply",
					"outputs": [
						{
							"internalType": "uint256",
							"name": "",
							"type": "uint256"
						}
					],
					"stateMutability": "view",
					"type": "function"
				},
				{
					"inputs": [
						{
							"internalType": "address",
							"name": "to",
							"type": "address"
						},
						{
							"internalType": "uint256",
							"name": "value",
							"type": "uint256"
						}
					],
					"name": "transfer",
					"outputs": [
						{
							"internalType": "bool",
							"name": "",
							"type": "bool"
						}
					],
					"stateMutability": "nonpayable",
					"type": "function"
				},
				{
					"inputs": [
						{
							"internalType": "address",
							"name": "from",
							"type": "address"
						},
						{
							"internalType": "address",
							"name": "to",
							"type": "address"
						},
						{
							"internalType": "uint256",
							"name": "value",
							"type": "uint256"
						}
					],
					"name": "transferFrom",
					"outputs": [
						{
							"internalType": "bool",
							"name": "",
							"type": "bool"
						}
					],
					"stateMutability": "nonpayable",
					"type": "function"
				},
				{
					"inputs": [
						{
							"internalType": "uint256",
							"name": "assets",
							"type": "uint256"
						},
						{
							"internalType": "address",
							"name": "receiver",
							"type": "address"
						},
						{
							"internalType": "address",
							"name": "owner",
							"type": "address"
						}
					],
					"name": "withdraw",
					"outputs": [
						{
							"internalType": "uint256",
							"name": "",
							"type": "uint256"
						}
					],
					"stateMutability": "nonpayable",
					"type": "function"
				}
			],
			"devdoc": {
				"errors": {
					"AddressEmptyCode(address)": [
						{
							"details": "There's no code at `target` (it is not a contract)."
						}
					],
					"AddressInsufficientBalance(address)": [
						{
							"details": "The ETH balance of the account is not enough to perform the operation."
						}
					],
					"ERC20InsufficientAllowance(address,uint256,uint256)": [
						{
							"details": "Indicates a failure with the `spender`’s `allowance`. Used in transfers.",
							"params": {
								"allowance": "Amount of tokens a `spender` is allowed to operate with.",
								"needed": "Minimum amount required to perform a transfer.",
								"spender": "Address that may be allowed to operate on tokens without being their owner."
							}
						}
					],
					"ERC20InsufficientBalance(address,uint256,uint256)": [
						{
							"details": "Indicates an error related to the current `balance` of a `sender`. Used in transfers.",
							"params": {
								"balance": "Current balance for the interacting account.",
								"needed": "Minimum amount required to perform a transfer.",
								"sender": "Address whose tokens are being transferred."
							}
						}
					],
					"ERC20InvalidApprover(address)": [
						{
							"details": "Indicates a failure with the `approver` of a token to be approved. Used in approvals.",
							"params": {
								"approver": "Address initiating an approval operation."
							}
						}
					],
					"ERC20InvalidReceiver(address)": [
						{
							"details": "Indicates a failure with the token `receiver`. Used in transfers.",
							"params": {
								"receiver": "Address to which tokens are being transferred."
							}
						}
					],
					"ERC20InvalidSender(address)": [
						{
							"details": "Indicates a failure with the token `sender`. Used in transfers.",
							"params": {
								"sender": "Address whose tokens are being transferred."
							}
						}
					],
					"ERC20InvalidSpender(address)": [
						{
							"details": "Indicates a failure with the `spender` to be approved. Used in approvals.",
							"params": {
								"spender": "Address that may be allowed to operate on tokens without being their owner."
							}
						}
					],
					"ERC4626ExceededMaxDeposit(address,uint256,uint256)": [
						{
							"details": "Attempted to deposit more assets than the max amount for `receiver`."
						}
					],
					"ERC4626ExceededMaxMint(address,uint256,uint256)": [
						{
							"details": "Attempted to mint more shares than the max amount for `receiver`."
						}
					],
					"ERC4626ExceededMaxRedeem(address,uint256,uint256)": [
						{
							"details": "Attempted to redeem more shares than the max amount for `receiver`."
						}
					],
					"ERC4626ExceededMaxWithdraw(address,uint256,uint256)": [
						{
							"details": "Attempted to withdraw more assets than the max amount for `receiver`."
						}
					],
					"FailedInnerCall()": [
						{
							"details": "A call to an address target failed. The target may have reverted."
						}
					],
					"MathOverflowedMulDiv()": [
						{
							"details": "Muldiv operation overflow."
						}
					],
					"SafeERC20FailedOperation(address)": [
						{
							"details": "An operation with an ERC20 token failed."
						}
					]
				},
				"events": {
					"Approval(address,address,uint256)": {
						"details": "Emitted when the allowance of a `spender` for an `owner` is set by a call to {approve}. `value` is the new allowance."
					},
					"Transfer(address,address,uint256)": {
						"details": "Emitted when `value` tokens are moved from one account (`from`) to another (`to`). Note that `value` may be zero."
					}
				},
				"kind": "dev",
				"methods": {
					"allowance(address,address)": {
						"details": "See {IERC20-allowance}."
					},
					"approve(address,uint256)": {
						"details": "See {IERC20-approve}. NOTE: If `value` is the maximum `uint256`, the allowance is not updated on `transferFrom`. This is semantically equivalent to an infinite approval. Requirements: - `spender` cannot be the zero address."
					},
					"asset()": {
						"details": "See {IERC4626-asset}. "
					},
					"balanceOf(address)": {
						"details": "See {IERC20-balanceOf}."
					},
					"convertToAssets(uint256)": {
						"details": "See {IERC4626-convertToAssets}. "
					},
					"convertToShares(uint256)": {
						"details": "See {IERC4626-convertToShares}. "
					},
					"decimals()": {
						"details": "Decimals are computed by adding the decimal offset on top of the underlying asset's decimals. This \"original\" value is cached during construction of the vault contract. If this read operation fails (e.g., the asset has not been created yet), a default of 18 is used to represent the underlying asset's decimals. See {IERC20Metadata-decimals}."
					},
					"deposit(uint256,address)": {
						"details": "See {IERC4626-deposit}. "
					},
					"maxDeposit(address)": {
						"details": "See {IERC4626-maxDeposit}. "
					},
					"maxMint(address)": {
						"details": "See {IERC4626-maxMint}. "
					},
					"maxRedeem(address)": {
						"details": "See {IERC4626-maxRedeem}. "
					},
					"maxWithdraw(address)": {
						"details": "See {IERC4626-maxWithdraw}. "
					},
					"mint(uint256,address)": {
						"details": "See {IERC4626-mint}. As opposed to {deposit}, minting is allowed even if the vault is in a state where the price of a share is zero. In this case, the shares will be minted without requiring any assets to be deposited."
					},
					"name()": {
						"details": "Returns the name of the token."
					},
					"previewDeposit(uint256)": {
						"details": "See {IERC4626-previewDeposit}. "
					},
					"previewMint(uint256)": {
						"details": "See {IERC4626-previewMint}. "
					},
					"previewRedeem(uint256)": {
						"details": "See {IERC4626-previewRedeem}. "
					},
					"previewWithdraw(uint256)": {
						"details": "See {IERC4626-previewWithdraw}. "
					},
					"redeem(uint256,address,address)": {
						"details": "See {IERC4626-redeem}. "
					},
					"symbol()": {
						"details": "Returns the symbol of the token, usually a shorter version of the name."
					},
					"totalAssets()": {
						"details": "See {IERC4626-totalAssets}. "
					},
					"totalSupply()": {
						"details": "See {IERC20-totalSupply}."
					},
					"transfer(address,uint256)": {
						"details": "See {IERC20-transfer}. Requirements: - `to` cannot be the zero address. - the caller must have a balance of at least `value`."
					},
					"transferFrom(address,address,uint256)": {
						"details": "See {IERC20-transferFrom}. Emits an {Approval} event indicating the updated allowance. This is not required by the EIP. See the note at the beginning of {ERC20}. NOTE: Does not update the allowance if the current allowance is the maximum `uint256`. Requirements: - `from` and `to` cannot be the zero address. - `from` must have a balance of at least `value`. - the caller must have allowance for ``from``'s tokens of at least `value`."
					},
					"withdraw(uint256,address,address)": {
						"details": "See {IERC4626-withdraw}. "
					}
				},
				"version": 1
			},
			"evm": {
				"assembly": "    /* \"contracts/Vault.sol\":193:2835  contract LiquidityVault is ERC4626 {... */\n  mstore(0x40, 0xc0)\n    /* \"contracts/Vault.sol\":603:701  constructor(address assetAddress_) ERC4626(IERC20(assetAddress_)) ERC20(\"MyVaultShares\", \"MVS\"){ } */\n  callvalue\n  dup1\n  iszero\n  tag_1\n  jumpi\n  0x00\n  dup1\n  revert\ntag_1:\n  pop\n  mload(0x40)\n  sub(codesize, bytecodeSize)\n  dup1\n  bytecodeSize\n  dup4\n  codecopy\n  dup2\n  dup2\n  add\n  0x40\n  mstore\n  dup2\n  add\n  swap1\n  tag_2\n  swap2\n  swap1\n  tag_3\n  jump\t// in\ntag_2:\n    /* \"contracts/Vault.sol\":653:666  assetAddress_ */\n  dup1\n    /* \"@openzeppelin/contracts/token/ERC20/ERC20.sol\":1896:2009  constructor(string memory name_, string memory symbol_) {... */\n  mload(0x40)\n  dup1\n  0x40\n  add\n  0x40\n  mstore\n  dup1\n  0x0d\n  dup2\n  mstore\n  0x20\n  add\n  0x4d795661756c7453686172657300000000000000000000000000000000000000\n  dup2\n  mstore\n  pop\n  mload(0x40)\n  dup1\n  0x40\n  add\n  0x40\n  mstore\n  dup1\n  0x03\n  dup2\n  mstore\n  0x20\n  add\n  0x4d56530000000000000000000000000000000000000000000000000000000000\n  dup2\n  mstore\n  pop\n    /* \"@openzeppelin/contracts/token/ERC20/ERC20.sol\":1970:1975  name_ */\n  dup2\n    /* \"@openzeppelin/contracts/token/ERC20/ERC20.sol\":1962:1967  _name */\n  0x03\n    /* \"@openzeppelin/contracts/token/ERC20/ERC20.sol\":1962:1975  _name = name_ */\n  swap1\n  dup2\n  tag_8\n  swap2\n  swap1\n  tag_9\n  jump\t// in\ntag_8:\n  pop\n    /* \"@openzeppelin/contracts/token/ERC20/ERC20.sol\":1995:2002  symbol_ */\n  dup1\n    /* \"@openzeppelin/contracts/token/ERC20/ERC20.sol\":1985:1992  _symbol */\n  0x04\n    /* \"@openzeppelin/contracts/token/ERC20/ERC20.sol\":1985:2002  _symbol = symbol_ */\n  swap1\n  dup2\n  tag_10\n  swap2\n  swap1\n  tag_9\n  jump\t// in\ntag_10:\n  pop\n    /* \"@openzeppelin/contracts/token/ERC20/ERC20.sol\":1896:2009  constructor(string memory name_, string memory symbol_) {... */\n  pop\n  pop\n    /* \"@openzeppelin/contracts/token/ERC20/extensions/ERC4626.sol\":4203:4215  bool success */\n  0x00\n    /* \"@openzeppelin/contracts/token/ERC20/extensions/ERC4626.sol\":4217:4236  uint8 assetDecimals */\n  dup1\n    /* \"@openzeppelin/contracts/token/ERC20/extensions/ERC4626.sol\":4240:4268  _tryGetAssetDecimals(asset_) */\n  tag_12\n    /* \"@openzeppelin/contracts/token/ERC20/extensions/ERC4626.sol\":4261:4267  asset_ */\n  dup4\n    /* \"@openzeppelin/contracts/token/ERC20/extensions/ERC4626.sol\":4240:4260  _tryGetAssetDecimals */\n  shl(0x20, tag_13)\n    /* \"@openzeppelin/contracts/token/ERC20/extensions/ERC4626.sol\":4240:4268  _tryGetAssetDecimals(asset_) */\n  0x20\n  shr\n  jump\t// in\ntag_12:\n    /* \"@openzeppelin/contracts/token/ERC20/extensions/ERC4626.sol\":4202:4268  (bool success, uint8 assetDecimals) = _tryGetAssetDecimals(asset_) */\n  swap2\n  pop\n  swap2\n  pop\n    /* \"@openzeppelin/contracts/token/ERC20/extensions/ERC4626.sol\":4300:4307  success */\n  dup2\n    /* \"@openzeppelin/contracts/token/ERC20/extensions/ERC4626.sol\":4300:4328  success ? assetDecimals : 18 */\n  tag_14\n  jumpi\n    /* \"@openzeppelin/contracts/token/ERC20/extensions/ERC4626.sol\":4326:4328  18 */\n  0x12\n    /* \"@openzeppelin/contracts/token/ERC20/extensions/ERC4626.sol\":4300:4328  success ? assetDecimals : 18 */\n  jump(tag_15)\ntag_14:\n    /* \"@openzeppelin/contracts/token/ERC20/extensions/ERC4626.sol\":4310:4323  assetDecimals */\n  dup1\n    /* \"@openzeppelin/contracts/token/ERC20/extensions/ERC4626.sol\":4300:4328  success ? assetDecimals : 18 */\ntag_15:\n    /* \"@openzeppelin/contracts/token/ERC20/extensions/ERC4626.sol\":4278:4328  _underlyingDecimals = success ? assetDecimals : 18 */\n  0xff\n  and\n  0xa0\n  dup2\n  0xff\n  and\n  dup2\n  mstore\n  pop\n  pop\n    /* \"@openzeppelin/contracts/token/ERC20/extensions/ERC4626.sol\":4347:4353  asset_ */\n  dup3\n    /* \"@openzeppelin/contracts/token/ERC20/extensions/ERC4626.sol\":4338:4353  _asset = asset_ */\n  0xffffffffffffffffffffffffffffffffffffffff\n  and\n  0x80\n  dup2\n  0xffffffffffffffffffffffffffffffffffffffff\n  and\n  dup2\n  mstore\n  pop\n  pop\n    /* \"@openzeppelin/contracts/token/ERC20/extensions/ERC4626.sol\":4192:4360  {... */\n  pop\n  pop\n    /* \"@openzeppelin/contracts/token/ERC20/extensions/ERC4626.sol\":4165:4360  constructor(IERC20 asset_) {... */\n  pop\n    /* \"contracts/Vault.sol\":603:701  constructor(address assetAddress_) ERC4626(IERC20(assetAddress_)) ERC20(\"MyVaultShares\", \"MVS\"){ } */\n  pop\n    /* \"contracts/Vault.sol\":193:2835  contract LiquidityVault is ERC4626 {... */\n  jump(tag_17)\n    /* \"@openzeppelin/contracts/token/ERC20/extensions/ERC4626.sol\":4503:5036  function _tryGetAssetDecimals(IERC20 asset_) private view returns (bool, uint8) {... */\ntag_13:\n    /* \"@openzeppelin/contracts/token/ERC20/extensions/ERC4626.sol\":4570:4574  bool */\n  0x00\n    /* \"@openzeppelin/contracts/token/ERC20/extensions/ERC4626.sol\":4576:4581  uint8 */\n  dup1\n    /* \"@openzeppelin/contracts/token/ERC20/extensions/ERC4626.sol\":4594:4606  bool success */\n  0x00\n    /* \"@openzeppelin/contracts/token/ERC20/extensions/ERC4626.sol\":4608:4636  bytes memory encodedDecimals */\n  dup1\n    /* \"@openzeppelin/contracts/token/ERC20/extensions/ERC4626.sol\":4648:4654  asset_ */\n  dup5\n    /* \"@openzeppelin/contracts/token/ERC20/extensions/ERC4626.sol\":4640:4666  address(asset_).staticcall */\n  0xffffffffffffffffffffffffffffffffffffffff\n  and\n    /* \"@openzeppelin/contracts/token/ERC20/extensions/ERC4626.sol\":4680:4723  abi.encodeCall(IERC20Metadata.decimals, ()) */\n  add(0x24, mload(0x40))\n  mload(0x40)\n  0x20\n  dup2\n  dup4\n  sub\n  sub\n  dup2\n  mstore\n  swap1\n  0x40\n  mstore\n  shl(0xe0, 0x313ce567)\n  0x20\n  dup3\n  add\n  dup1\n  mload\n  0xffffffffffffffffffffffffffffffffffffffffffffffffffffffff\n  dup4\n  dup2\n  dup4\n  and\n  or\n  dup4\n  mstore\n  pop\n  pop\n  pop\n  pop\n    /* \"@openzeppelin/contracts/token/ERC20/extensions/ERC4626.sol\":4640:4733  address(asset_).staticcall(... */\n  mload(0x40)\n  tag_19\n  swap2\n  swap1\n  tag_20\n  jump\t// in\ntag_19:\n  0x00\n  mload(0x40)\n  dup1\n  dup4\n  sub\n  dup2\n  dup6\n  gas\n  staticcall\n  swap2\n  pop\n  pop\n  returndatasize\n  dup1\n  0x00\n  dup2\n  eq\n  tag_23\n  jumpi\n  mload(0x40)\n  swap2\n  pop\n  and(add(returndatasize, 0x3f), not(0x1f))\n  dup3\n  add\n  0x40\n  mstore\n  returndatasize\n  dup3\n  mstore\n  returndatasize\n  0x00\n  0x20\n  dup5\n  add\n  returndatacopy\n  jump(tag_22)\ntag_23:\n  0x60\n  swap2\n  pop\ntag_22:\n  pop\n    /* \"@openzeppelin/contracts/token/ERC20/extensions/ERC4626.sol\":4593:4733  (bool success, bytes memory encodedDecimals) = address(asset_).staticcall(... */\n  swap2\n  pop\n  swap2\n  pop\n    /* \"@openzeppelin/contracts/token/ERC20/extensions/ERC4626.sol\":4747:4754  success */\n  dup2\n    /* \"@openzeppelin/contracts/token/ERC20/extensions/ERC4626.sol\":4747:4786  success && encodedDecimals.length >= 32 */\n  dup1\n  iszero\n  tag_24\n  jumpi\n  pop\n    /* \"@openzeppelin/contracts/token/ERC20/extensions/ERC4626.sol\":4784:4786  32 */\n  0x20\n    /* \"@openzeppelin/contracts/token/ERC20/extensions/ERC4626.sol\":4758:4773  encodedDecimals */\n  dup2\n    /* \"@openzeppelin/contracts/token/ERC20/extensions/ERC4626.sol\":4758:4780  encodedDecimals.length */\n  mload\n    /* \"@openzeppelin/contracts/token/ERC20/extensions/ERC4626.sol\":4758:4786  encodedDecimals.length >= 32 */\n  lt\n  iszero\n    /* \"@openzeppelin/contracts/token/ERC20/extensions/ERC4626.sol\":4747:4786  success && encodedDecimals.length >= 32 */\ntag_24:\n    /* \"@openzeppelin/contracts/token/ERC20/extensions/ERC4626.sol\":4743:5003  if (success && encodedDecimals.length >= 32) {... */\n  iszero\n  tag_25\n  jumpi\n    /* \"@openzeppelin/contracts/token/ERC20/extensions/ERC4626.sol\":4802:4826  uint256 returnedDecimals */\n  0x00\n    /* \"@openzeppelin/contracts/token/ERC20/extensions/ERC4626.sol\":4840:4855  encodedDecimals */\n  dup2\n    /* \"@openzeppelin/contracts/token/ERC20/extensions/ERC4626.sol\":4829:4867  abi.decode(encodedDecimals, (uint256)) */\n  dup1\n  0x20\n  add\n  swap1\n  mload\n  dup2\n  add\n  swap1\n  tag_26\n  swap2\n  swap1\n  tag_27\n  jump\t// in\ntag_26:\n    /* \"@openzeppelin/contracts/token/ERC20/extensions/ERC4626.sol\":4802:4867  uint256 returnedDecimals = abi.decode(encodedDecimals, (uint256)) */\n  swap1\n  pop\n    /* \"@openzeppelin/contracts/token/ERC20/extensions/ERC4626.sol\":4905:4920  type(uint8).max */\n  0xff\n    /* \"@openzeppelin/contracts/token/ERC20/extensions/ERC4626.sol\":4885:4920  returnedDecimals <= type(uint8).max */\n  dup1\n  and\n    /* \"@openzeppelin/contracts/token/ERC20/extensions/ERC4626.sol\":4885:4901  returnedDecimals */\n  dup2\n    /* \"@openzeppelin/contracts/token/ERC20/extensions/ERC4626.sol\":4885:4920  returnedDecimals <= type(uint8).max */\n  gt\n    /* \"@openzeppelin/contracts/token/ERC20/extensions/ERC4626.sol\":4881:4993  if (returnedDecimals <= type(uint8).max) {... */\n  tag_28\n  jumpi\n    /* \"@openzeppelin/contracts/token/ERC20/extensions/ERC4626.sol\":4948:4952  true */\n  0x01\n    /* \"@openzeppelin/contracts/token/ERC20/extensions/ERC4626.sol\":4960:4976  returnedDecimals */\n  dup2\n    /* \"@openzeppelin/contracts/token/ERC20/extensions/ERC4626.sol\":4940:4978  return (true, uint8(returnedDecimals)) */\n  swap5\n  pop\n  swap5\n  pop\n  pop\n  pop\n  pop\n  jump(tag_18)\n    /* \"@openzeppelin/contracts/token/ERC20/extensions/ERC4626.sol\":4881:4993  if (returnedDecimals <= type(uint8).max) {... */\ntag_28:\n    /* \"@openzeppelin/contracts/token/ERC20/extensions/ERC4626.sol\":4788:5003  {... */\n  pop\n    /* \"@openzeppelin/contracts/token/ERC20/extensions/ERC4626.sol\":4743:5003  if (success && encodedDecimals.length >= 32) {... */\ntag_25:\n    /* \"@openzeppelin/contracts/token/ERC20/extensions/ERC4626.sol\":5020:5025  false */\n  0x00\n    /* \"@openzeppelin/contracts/token/ERC20/extensions/ERC4626.sol\":5027:5028  0 */\n  dup1\n    /* \"@openzeppelin/contracts/token/ERC20/extensions/ERC4626.sol\":5012:5029  return (false, 0) */\n  swap4\n  pop\n  swap4\n  pop\n  pop\n  pop\n    /* \"@openzeppelin/contracts/token/ERC20/extensions/ERC4626.sol\":4503:5036  function _tryGetAssetDecimals(IERC20 asset_) private view returns (bool, uint8) {... */\ntag_18:\n  swap2\n  pop\n  swap2\n  jump\t// out\n    /* \"#utility.yul\":88:205   */\ntag_30:\n    /* \"#utility.yul\":197:198   */\n  0x00\n    /* \"#utility.yul\":194:195   */\n  dup1\n    /* \"#utility.yul\":187:199   */\n  revert\n    /* \"#utility.yul\":334:460   */\ntag_32:\n    /* \"#utility.yul\":371:378   */\n  0x00\n    /* \"#utility.yul\":411:453   */\n  0xffffffffffffffffffffffffffffffffffffffff\n    /* \"#utility.yul\":404:409   */\n  dup3\n    /* \"#utility.yul\":400:454   */\n  and\n    /* \"#utility.yul\":389:454   */\n  swap1\n  pop\n    /* \"#utility.yul\":334:460   */\n  swap2\n  swap1\n  pop\n  jump\t// out\n    /* \"#utility.yul\":466:562   */\ntag_33:\n    /* \"#utility.yul\":503:510   */\n  0x00\n    /* \"#utility.yul\":532:556   */\n  tag_68\n    /* \"#utility.yul\":550:555   */\n  dup3\n    /* \"#utility.yul\":532:556   */\n  tag_32\n  jump\t// in\ntag_68:\n    /* \"#utility.yul\":521:556   */\n  swap1\n  pop\n    /* \"#utility.yul\":466:562   */\n  swap2\n  swap1\n  pop\n  jump\t// out\n    /* \"#utility.yul\":568:690   */\ntag_34:\n    /* \"#utility.yul\":641:665   */\n  tag_70\n    /* \"#utility.yul\":659:664   */\n  dup2\n    /* \"#utility.yul\":641:665   */\n  tag_33\n  jump\t// in\ntag_70:\n    /* \"#utility.yul\":634:639   */\n  dup2\n    /* \"#utility.yul\":631:666   */\n  eq\n    /* \"#utility.yul\":621:684   */\n  tag_71\n  jumpi\n    /* \"#utility.yul\":680:681   */\n  0x00\n    /* \"#utility.yul\":677:678   */\n  dup1\n    /* \"#utility.yul\":670:682   */\n  revert\n    /* \"#utility.yul\":621:684   */\ntag_71:\n    /* \"#utility.yul\":568:690   */\n  pop\n  jump\t// out\n    /* \"#utility.yul\":696:839   */\ntag_35:\n    /* \"#utility.yul\":753:758   */\n  0x00\n    /* \"#utility.yul\":784:790   */\n  dup2\n    /* \"#utility.yul\":778:791   */\n  mload\n    /* \"#utility.yul\":769:791   */\n  swap1\n  pop\n    /* \"#utility.yul\":800:833   */\n  tag_73\n    /* \"#utility.yul\":827:832   */\n  dup2\n    /* \"#utility.yul\":800:833   */\n  tag_34\n  jump\t// in\ntag_73:\n    /* \"#utility.yul\":696:839   */\n  swap3\n  swap2\n  pop\n  pop\n  jump\t// out\n    /* \"#utility.yul\":845:1196   */\ntag_3:\n    /* \"#utility.yul\":915:921   */\n  0x00\n    /* \"#utility.yul\":964:966   */\n  0x20\n    /* \"#utility.yul\":952:961   */\n  dup3\n    /* \"#utility.yul\":943:950   */\n  dup5\n    /* \"#utility.yul\":939:962   */\n  sub\n    /* \"#utility.yul\":935:967   */\n  slt\n    /* \"#utility.yul\":932:1051   */\n  iszero\n  tag_75\n  jumpi\n    /* \"#utility.yul\":970:1049   */\n  tag_76\n  tag_30\n  jump\t// in\ntag_76:\n    /* \"#utility.yul\":932:1051   */\ntag_75:\n    /* \"#utility.yul\":1090:1091   */\n  0x00\n    /* \"#utility.yul\":1115:1179   */\n  tag_77\n    /* \"#utility.yul\":1171:1178   */\n  dup5\n    /* \"#utility.yul\":1162:1168   */\n  dup3\n    /* \"#utility.yul\":1151:1160   */\n  dup6\n    /* \"#utility.yul\":1147:1169   */\n  add\n    /* \"#utility.yul\":1115:1179   */\n  tag_35\n  jump\t// in\ntag_77:\n    /* \"#utility.yul\":1105:1179   */\n  swap2\n  pop\n    /* \"#utility.yul\":1061:1189   */\n  pop\n    /* \"#utility.yul\":845:1196   */\n  swap3\n  swap2\n  pop\n  pop\n  jump\t// out\n    /* \"#utility.yul\":1202:1301   */\ntag_36:\n    /* \"#utility.yul\":1254:1260   */\n  0x00\n    /* \"#utility.yul\":1288:1293   */\n  dup2\n    /* \"#utility.yul\":1282:1294   */\n  mload\n    /* \"#utility.yul\":1272:1294   */\n  swap1\n  pop\n    /* \"#utility.yul\":1202:1301   */\n  swap2\n  swap1\n  pop\n  jump\t// out\n    /* \"#utility.yul\":1307:1487   */\ntag_37:\n    /* \"#utility.yul\":1355:1432   */\n  0x4e487b7100000000000000000000000000000000000000000000000000000000\n    /* \"#utility.yul\":1352:1353   */\n  0x00\n    /* \"#utility.yul\":1345:1433   */\n  mstore\n    /* \"#utility.yul\":1452:1456   */\n  0x41\n    /* \"#utility.yul\":1449:1450   */\n  0x04\n    /* \"#utility.yul\":1442:1457   */\n  mstore\n    /* \"#utility.yul\":1476:1480   */\n  0x24\n    /* \"#utility.yul\":1473:1474   */\n  0x00\n    /* \"#utility.yul\":1466:1481   */\n  revert\n    /* \"#utility.yul\":1493:1673   */\ntag_38:\n    /* \"#utility.yul\":1541:1618   */\n  0x4e487b7100000000000000000000000000000000000000000000000000000000\n    /* \"#utility.yul\":1538:1539   */\n  0x00\n    /* \"#utility.yul\":1531:1619   */\n  mstore\n    /* \"#utility.yul\":1638:1642   */\n  0x22\n    /* \"#utility.yul\":1635:1636   */\n  0x04\n    /* \"#utility.yul\":1628:1643   */\n  mstore\n    /* \"#utility.yul\":1662:1666   */\n  0x24\n    /* \"#utility.yul\":1659:1660   */\n  0x00\n    /* \"#utility.yul\":1652:1667   */\n  revert\n    /* \"#utility.yul\":1679:1999   */\ntag_39:\n    /* \"#utility.yul\":1723:1729   */\n  0x00\n    /* \"#utility.yul\":1760:1761   */\n  0x02\n    /* \"#utility.yul\":1754:1758   */\n  dup3\n    /* \"#utility.yul\":1750:1762   */\n  div\n    /* \"#utility.yul\":1740:1762   */\n  swap1\n  pop\n    /* \"#utility.yul\":1807:1808   */\n  0x01\n    /* \"#utility.yul\":1801:1805   */\n  dup3\n    /* \"#utility.yul\":1797:1809   */\n  and\n    /* \"#utility.yul\":1828:1846   */\n  dup1\n    /* \"#utility.yul\":1818:1899   */\n  tag_82\n  jumpi\n    /* \"#utility.yul\":1884:1888   */\n  0x7f\n    /* \"#utility.yul\":1876:1882   */\n  dup3\n    /* \"#utility.yul\":1872:1889   */\n  and\n    /* \"#utility.yul\":1862:1889   */\n  swap2\n  pop\n    /* \"#utility.yul\":1818:1899   */\ntag_82:\n    /* \"#utility.yul\":1946:1948   */\n  0x20\n    /* \"#utility.yul\":1938:1944   */\n  dup3\n    /* \"#utility.yul\":1935:1949   */\n  lt\n    /* \"#utility.yul\":1915:1933   */\n  dup2\n    /* \"#utility.yul\":1912:1950   */\n  sub\n    /* \"#utility.yul\":1909:1993   */\n  tag_83\n  jumpi\n    /* \"#utility.yul\":1965:1983   */\n  tag_84\n  tag_38\n  jump\t// in\ntag_84:\n    /* \"#utility.yul\":1909:1993   */\ntag_83:\n    /* \"#utility.yul\":1730:1999   */\n  pop\n    /* \"#utility.yul\":1679:1999   */\n  swap2\n  swap1\n  pop\n  jump\t// out\n    /* \"#utility.yul\":2005:2146   */\ntag_40:\n    /* \"#utility.yul\":2054:2058   */\n  0x00\n    /* \"#utility.yul\":2077:2080   */\n  dup2\n    /* \"#utility.yul\":2069:2080   */\n  swap1\n  pop\n    /* \"#utility.yul\":2100:2103   */\n  dup2\n    /* \"#utility.yul\":2097:2098   */\n  0x00\n    /* \"#utility.yul\":2090:2104   */\n  mstore\n    /* \"#utility.yul\":2134:2138   */\n  0x20\n    /* \"#utility.yul\":2131:2132   */\n  0x00\n    /* \"#utility.yul\":2121:2139   */\n  keccak256\n    /* \"#utility.yul\":2113:2139   */\n  swap1\n  pop\n    /* \"#utility.yul\":2005:2146   */\n  swap2\n  swap1\n  pop\n  jump\t// out\n    /* \"#utility.yul\":2152:2245   */\ntag_41:\n    /* \"#utility.yul\":2189:2195   */\n  0x00\n    /* \"#utility.yul\":2236:2238   */\n  0x20\n    /* \"#utility.yul\":2231:2233   */\n  0x1f\n    /* \"#utility.yul\":2224:2229   */\n  dup4\n    /* \"#utility.yul\":2220:2234   */\n  add\n    /* \"#utility.yul\":2216:2239   */\n  div\n    /* \"#utility.yul\":2206:2239   */\n  swap1\n  pop\n    /* \"#utility.yul\":2152:2245   */\n  swap2\n  swap1\n  pop\n  jump\t// out\n    /* \"#utility.yul\":2251:2358   */\ntag_42:\n    /* \"#utility.yul\":2295:2303   */\n  0x00\n    /* \"#utility.yul\":2345:2350   */\n  dup3\n    /* \"#utility.yul\":2339:2343   */\n  dup3\n    /* \"#utility.yul\":2335:2351   */\n  shl\n    /* \"#utility.yul\":2314:2351   */\n  swap1\n  pop\n    /* \"#utility.yul\":2251:2358   */\n  swap3\n  swap2\n  pop\n  pop\n  jump\t// out\n    /* \"#utility.yul\":2364:2757   */\ntag_43:\n    /* \"#utility.yul\":2433:2439   */\n  0x00\n    /* \"#utility.yul\":2483:2484   */\n  0x08\n    /* \"#utility.yul\":2471:2481   */\n  dup4\n    /* \"#utility.yul\":2467:2485   */\n  mul\n    /* \"#utility.yul\":2506:2603   */\n  tag_89\n    /* \"#utility.yul\":2536:2602   */\n  0xffffffffffffffffffffffffffffffffffffffffffffffffffffffffffffffff\n    /* \"#utility.yul\":2525:2534   */\n  dup3\n    /* \"#utility.yul\":2506:2603   */\n  tag_42\n  jump\t// in\ntag_89:\n    /* \"#utility.yul\":2624:2663   */\n  tag_90\n    /* \"#utility.yul\":2654:2662   */\n  dup7\n    /* \"#utility.yul\":2643:2652   */\n  dup4\n    /* \"#utility.yul\":2624:2663   */\n  tag_42\n  jump\t// in\ntag_90:\n    /* \"#utility.yul\":2612:2663   */\n  swap6\n  pop\n    /* \"#utility.yul\":2696:2700   */\n  dup1\n    /* \"#utility.yul\":2692:2701   */\n  not\n    /* \"#utility.yul\":2685:2690   */\n  dup5\n    /* \"#utility.yul\":2681:2702   */\n  and\n    /* \"#utility.yul\":2672:2702   */\n  swap4\n  pop\n    /* \"#utility.yul\":2745:2749   */\n  dup1\n    /* \"#utility.yul\":2735:2743   */\n  dup7\n    /* \"#utility.yul\":2731:2750   */\n  and\n    /* \"#utility.yul\":2724:2729   */\n  dup5\n    /* \"#utility.yul\":2721:2751   */\n  or\n    /* \"#utility.yul\":2711:2751   */\n  swap3\n  pop\n    /* \"#utility.yul\":2440:2757   */\n  pop\n  pop\n    /* \"#utility.yul\":2364:2757   */\n  swap4\n  swap3\n  pop\n  pop\n  pop\n  jump\t// out\n    /* \"#utility.yul\":2763:2840   */\ntag_44:\n    /* \"#utility.yul\":2800:2807   */\n  0x00\n    /* \"#utility.yul\":2829:2834   */\n  dup2\n    /* \"#utility.yul\":2818:2834   */\n  swap1\n  pop\n    /* \"#utility.yul\":2763:2840   */\n  swap2\n  swap1\n  pop\n  jump\t// out\n    /* \"#utility.yul\":2846:2906   */\ntag_45:\n    /* \"#utility.yul\":2874:2877   */\n  0x00\n    /* \"#utility.yul\":2895:2900   */\n  dup2\n    /* \"#utility.yul\":2888:2900   */\n  swap1\n  pop\n    /* \"#utility.yul\":2846:2906   */\n  swap2\n  swap1\n  pop\n  jump\t// out\n    /* \"#utility.yul\":2912:3054   */\ntag_46:\n    /* \"#utility.yul\":2962:2971   */\n  0x00\n    /* \"#utility.yul\":2995:3048   */\n  tag_94\n    /* \"#utility.yul\":3013:3047   */\n  tag_95\n    /* \"#utility.yul\":3022:3046   */\n  tag_96\n    /* \"#utility.yul\":3040:3045   */\n  dup5\n    /* \"#utility.yul\":3022:3046   */\n  tag_44\n  jump\t// in\ntag_96:\n    /* \"#utility.yul\":3013:3047   */\n  tag_45\n  jump\t// in\ntag_95:\n    /* \"#utility.yul\":2995:3048   */\n  tag_44\n  jump\t// in\ntag_94:\n    /* \"#utility.yul\":2982:3048   */\n  swap1\n  pop\n    /* \"#utility.yul\":2912:3054   */\n  swap2\n  swap1\n  pop\n  jump\t// out\n    /* \"#utility.yul\":3060:3135   */\ntag_47:\n    /* \"#utility.yul\":3103:3106   */\n  0x00\n    /* \"#utility.yul\":3124:3129   */\n  dup2\n    /* \"#utility.yul\":3117:3129   */\n  swap1\n  pop\n    /* \"#utility.yul\":3060:3135   */\n  swap2\n  swap1\n  pop\n  jump\t// out\n    /* \"#utility.yul\":3141:3410   */\ntag_48:\n    /* \"#utility.yul\":3251:3290   */\n  tag_99\n    /* \"#utility.yul\":3282:3289   */\n  dup4\n    /* \"#utility.yul\":3251:3290   */\n  tag_46\n  jump\t// in\ntag_99:\n    /* \"#utility.yul\":3312:3403   */\n  tag_100\n    /* \"#utility.yul\":3361:3402   */\n  tag_101\n    /* \"#utility.yul\":3385:3401   */\n  dup3\n    /* \"#utility.yul\":3361:3402   */\n  tag_47\n  jump\t// in\ntag_101:\n    /* \"#utility.yul\":3353:3359   */\n  dup5\n    /* \"#utility.yul\":3346:3350   */\n  dup5\n    /* \"#utility.yul\":3340:3351   */\n  sload\n    /* \"#utility.yul\":3312:3403   */\n  tag_43\n  jump\t// in\ntag_100:\n    /* \"#utility.yul\":3306:3310   */\n  dup3\n    /* \"#utility.yul\":3299:3404   */\n  sstore\n    /* \"#utility.yul\":3217:3410   */\n  pop\n    /* \"#utility.yul\":3141:3410   */\n  pop\n  pop\n  pop\n  jump\t// out\n    /* \"#utility.yul\":3416:3489   */\ntag_49:\n    /* \"#utility.yul\":3461:3464   */\n  0x00\n    /* \"#utility.yul\":3416:3489   */\n  swap1\n  jump\t// out\n    /* \"#utility.yul\":3495:3684   */\ntag_50:\n    /* \"#utility.yul\":3572:3604   */\n  tag_104\n  tag_49\n  jump\t// in\ntag_104:\n    /* \"#utility.yul\":3613:3678   */\n  tag_105\n    /* \"#utility.yul\":3671:3677   */\n  dup2\n    /* \"#utility.yul\":3663:3669   */\n  dup5\n    /* \"#utility.yul\":3657:3661   */\n  dup5\n    /* \"#utility.yul\":3613:3678   */\n  tag_48\n  jump\t// in\ntag_105:\n    /* \"#utility.yul\":3548:3684   */\n  pop\n    /* \"#utility.yul\":3495:3684   */\n  pop\n  pop\n  jump\t// out\n    /* \"#utility.yul\":3690:3876   */\ntag_51:\n    /* \"#utility.yul\":3750:3870   */\ntag_107:\n    /* \"#utility.yul\":3767:3770   */\n  dup2\n    /* \"#utility.yul\":3760:3765   */\n  dup2\n    /* \"#utility.yul\":3757:3771   */\n  lt\n    /* \"#utility.yul\":3750:3870   */\n  iszero\n  tag_109\n  jumpi\n    /* \"#utility.yul\":3821:3860   */\n  tag_110\n    /* \"#utility.yul\":3858:3859   */\n  0x00\n    /* \"#utility.yul\":3851:3856   */\n  dup3\n    /* \"#utility.yul\":3821:3860   */\n  tag_50\n  jump\t// in\ntag_110:\n    /* \"#utility.yul\":3794:3795   */\n  0x01\n    /* \"#utility.yul\":3787:3792   */\n  dup2\n    /* \"#utility.yul\":3783:3796   */\n  add\n    /* \"#utility.yul\":3774:3796   */\n  swap1\n  pop\n    /* \"#utility.yul\":3750:3870   */\n  jump(tag_107)\ntag_109:\n    /* \"#utility.yul\":3690:3876   */\n  pop\n  pop\n  jump\t// out\n    /* \"#utility.yul\":3882:4425   */\ntag_52:\n    /* \"#utility.yul\":3983:3985   */\n  0x1f\n    /* \"#utility.yul\":3978:3981   */\n  dup3\n    /* \"#utility.yul\":3975:3986   */\n  gt\n    /* \"#utility.yul\":3972:4418   */\n  iszero\n  tag_112\n  jumpi\n    /* \"#utility.yul\":4017:4055   */\n  tag_113\n    /* \"#utility.yul\":4049:4054   */\n  dup2\n    /* \"#utility.yul\":4017:4055   */\n  tag_40\n  jump\t// in\ntag_113:\n    /* \"#utility.yul\":4101:4130   */\n  tag_114\n    /* \"#utility.yul\":4119:4129   */\n  dup5\n    /* \"#utility.yul\":4101:4130   */\n  tag_41\n  jump\t// in\ntag_114:\n    /* \"#utility.yul\":4091:4099   */\n  dup2\n    /* \"#utility.yul\":4087:4131   */\n  add\n    /* \"#utility.yul\":4284:4286   */\n  0x20\n    /* \"#utility.yul\":4272:4282   */\n  dup6\n    /* \"#utility.yul\":4269:4287   */\n  lt\n    /* \"#utility.yul\":4266:4315   */\n  iszero\n  tag_115\n  jumpi\n    /* \"#utility.yul\":4305:4313   */\n  dup2\n    /* \"#utility.yul\":4290:4313   */\n  swap1\n  pop\n    /* \"#utility.yul\":4266:4315   */\ntag_115:\n    /* \"#utility.yul\":4328:4408   */\n  tag_116\n    /* \"#utility.yul\":4384:4406   */\n  tag_117\n    /* \"#utility.yul\":4402:4405   */\n  dup6\n    /* \"#utility.yul\":4384:4406   */\n  tag_41\n  jump\t// in\ntag_117:\n    /* \"#utility.yul\":4374:4382   */\n  dup4\n    /* \"#utility.yul\":4370:4407   */\n  add\n    /* \"#utility.yul\":4357:4368   */\n  dup3\n    /* \"#utility.yul\":4328:4408   */\n  tag_51\n  jump\t// in\ntag_116:\n    /* \"#utility.yul\":3987:4418   */\n  pop\n  pop\n    /* \"#utility.yul\":3972:4418   */\ntag_112:\n    /* \"#utility.yul\":3882:4425   */\n  pop\n  pop\n  pop\n  jump\t// out\n    /* \"#utility.yul\":4431:4548   */\ntag_53:\n    /* \"#utility.yul\":4485:4493   */\n  0x00\n    /* \"#utility.yul\":4535:4540   */\n  dup3\n    /* \"#utility.yul\":4529:4533   */\n  dup3\n    /* \"#utility.yul\":4525:4541   */\n  shr\n    /* \"#utility.yul\":4504:4541   */\n  swap1\n  pop\n    /* \"#utility.yul\":4431:4548   */\n  swap3\n  swap2\n  pop\n  pop\n  jump\t// out\n    /* \"#utility.yul\":4554:4723   */\ntag_54:\n    /* \"#utility.yul\":4598:4604   */\n  0x00\n    /* \"#utility.yul\":4631:4682   */\n  tag_120\n    /* \"#utility.yul\":4679:4680   */\n  0x00\n    /* \"#utility.yul\":4675:4681   */\n  not\n    /* \"#utility.yul\":4667:4672   */\n  dup5\n    /* \"#utility.yul\":4664:4665   */\n  0x08\n    /* \"#utility.yul\":4660:4673   */\n  mul\n    /* \"#utility.yul\":4631:4682   */\n  tag_53\n  jump\t// in\ntag_120:\n    /* \"#utility.yul\":4627:4683   */\n  not\n    /* \"#utility.yul\":4712:4716   */\n  dup1\n    /* \"#utility.yul\":4706:4710   */\n  dup4\n    /* \"#utility.yul\":4702:4717   */\n  and\n    /* \"#utility.yul\":4692:4717   */\n  swap2\n  pop\n    /* \"#utility.yul\":4605:4723   */\n  pop\n    /* \"#utility.yul\":4554:4723   */\n  swap3\n  swap2\n  pop\n  pop\n  jump\t// out\n    /* \"#utility.yul\":4728:5023   */\ntag_55:\n    /* \"#utility.yul\":4804:4808   */\n  0x00\n    /* \"#utility.yul\":4950:4979   */\n  tag_122\n    /* \"#utility.yul\":4975:4978   */\n  dup4\n    /* \"#utility.yul\":4969:4973   */\n  dup4\n    /* \"#utility.yul\":4950:4979   */\n  tag_54\n  jump\t// in\ntag_122:\n    /* \"#utility.yul\":4942:4979   */\n  swap2\n  pop\n    /* \"#utility.yul\":5012:5015   */\n  dup3\n    /* \"#utility.yul\":5009:5010   */\n  0x02\n    /* \"#utility.yul\":5005:5016   */\n  mul\n    /* \"#utility.yul\":4999:5003   */\n  dup3\n    /* \"#utility.yul\":4996:5017   */\n  or\n    /* \"#utility.yul\":4988:5017   */\n  swap1\n  pop\n    /* \"#utility.yul\":4728:5023   */\n  swap3\n  swap2\n  pop\n  pop\n  jump\t// out\n    /* \"#utility.yul\":5028:6423   */\ntag_9:\n    /* \"#utility.yul\":5145:5182   */\n  tag_124\n    /* \"#utility.yul\":5178:5181   */\n  dup3\n    /* \"#utility.yul\":5145:5182   */\n  tag_36\n  jump\t// in\ntag_124:\n    /* \"#utility.yul\":5247:5265   */\n  0xffffffffffffffff\n    /* \"#utility.yul\":5239:5245   */\n  dup2\n    /* \"#utility.yul\":5236:5266   */\n  gt\n    /* \"#utility.yul\":5233:5289   */\n  iszero\n  tag_125\n  jumpi\n    /* \"#utility.yul\":5269:5287   */\n  tag_126\n  tag_37\n  jump\t// in\ntag_126:\n    /* \"#utility.yul\":5233:5289   */\ntag_125:\n    /* \"#utility.yul\":5313:5351   */\n  tag_127\n    /* \"#utility.yul\":5345:5349   */\n  dup3\n    /* \"#utility.yul\":5339:5350   */\n  sload\n    /* \"#utility.yul\":5313:5351   */\n  tag_39\n  jump\t// in\ntag_127:\n    /* \"#utility.yul\":5398:5465   */\n  tag_128\n    /* \"#utility.yul\":5458:5464   */\n  dup3\n    /* \"#utility.yul\":5450:5456   */\n  dup3\n    /* \"#utility.yul\":5444:5448   */\n  dup6\n    /* \"#utility.yul\":5398:5465   */\n  tag_52\n  jump\t// in\ntag_128:\n    /* \"#utility.yul\":5492:5493   */\n  0x00\n    /* \"#utility.yul\":5516:5520   */\n  0x20\n    /* \"#utility.yul\":5503:5520   */\n  swap1\n  pop\n    /* \"#utility.yul\":5548:5550   */\n  0x1f\n    /* \"#utility.yul\":5540:5546   */\n  dup4\n    /* \"#utility.yul\":5537:5551   */\n  gt\n    /* \"#utility.yul\":5565:5566   */\n  0x01\n    /* \"#utility.yul\":5560:6178   */\n  dup2\n  eq\n  tag_130\n  jumpi\n    /* \"#utility.yul\":6222:6223   */\n  0x00\n    /* \"#utility.yul\":6239:6245   */\n  dup5\n    /* \"#utility.yul\":6236:6313   */\n  iszero\n  tag_131\n  jumpi\n    /* \"#utility.yul\":6288:6297   */\n  dup3\n    /* \"#utility.yul\":6283:6286   */\n  dup8\n    /* \"#utility.yul\":6279:6298   */\n  add\n    /* \"#utility.yul\":6273:6299   */\n  mload\n    /* \"#utility.yul\":6264:6299   */\n  swap1\n  pop\n    /* \"#utility.yul\":6236:6313   */\ntag_131:\n    /* \"#utility.yul\":6339:6406   */\n  tag_132\n    /* \"#utility.yul\":6399:6405   */\n  dup6\n    /* \"#utility.yul\":6392:6397   */\n  dup3\n    /* \"#utility.yul\":6339:6406   */\n  tag_55\n  jump\t// in\ntag_132:\n    /* \"#utility.yul\":6333:6337   */\n  dup7\n    /* \"#utility.yul\":6326:6407   */\n  sstore\n    /* \"#utility.yul\":6195:6417   */\n  pop\n    /* \"#utility.yul\":5530:6417   */\n  jump(tag_129)\n    /* \"#utility.yul\":5560:6178   */\ntag_130:\n    /* \"#utility.yul\":5612:5616   */\n  0x1f\n    /* \"#utility.yul\":5608:5617   */\n  not\n    /* \"#utility.yul\":5600:5606   */\n  dup5\n    /* \"#utility.yul\":5596:5618   */\n  and\n    /* \"#utility.yul\":5646:5683   */\n  tag_133\n    /* \"#utility.yul\":5678:5682   */\n  dup7\n    /* \"#utility.yul\":5646:5683   */\n  tag_40\n  jump\t// in\ntag_133:\n    /* \"#utility.yul\":5705:5706   */\n  0x00\n    /* \"#utility.yul\":5719:5927   */\ntag_134:\n    /* \"#utility.yul\":5733:5740   */\n  dup3\n    /* \"#utility.yul\":5730:5731   */\n  dup2\n    /* \"#utility.yul\":5727:5741   */\n  lt\n    /* \"#utility.yul\":5719:5927   */\n  iszero\n  tag_136\n  jumpi\n    /* \"#utility.yul\":5812:5821   */\n  dup5\n    /* \"#utility.yul\":5807:5810   */\n  dup10\n    /* \"#utility.yul\":5803:5822   */\n  add\n    /* \"#utility.yul\":5797:5823   */\n  mload\n    /* \"#utility.yul\":5789:5795   */\n  dup3\n    /* \"#utility.yul\":5782:5824   */\n  sstore\n    /* \"#utility.yul\":5863:5864   */\n  0x01\n    /* \"#utility.yul\":5855:5861   */\n  dup3\n    /* \"#utility.yul\":5851:5865   */\n  add\n    /* \"#utility.yul\":5841:5865   */\n  swap2\n  pop\n    /* \"#utility.yul\":5910:5912   */\n  0x20\n    /* \"#utility.yul\":5899:5908   */\n  dup6\n    /* \"#utility.yul\":5895:5913   */\n  add\n    /* \"#utility.yul\":5882:5913   */\n  swap5\n  pop\n    /* \"#utility.yul\":5756:5760   */\n  0x20\n    /* \"#utility.yul\":5753:5754   */\n  dup2\n    /* \"#utility.yul\":5749:5761   */\n  add\n    /* \"#utility.yul\":5744:5761   */\n  swap1\n  pop\n    /* \"#utility.yul\":5719:5927   */\n  jump(tag_134)\ntag_136:\n    /* \"#utility.yul\":5955:5961   */\n  dup7\n    /* \"#utility.yul\":5946:5953   */\n  dup4\n    /* \"#utility.yul\":5943:5962   */\n  lt\n    /* \"#utility.yul\":5940:6119   */\n  iszero\n  tag_137\n  jumpi\n    /* \"#utility.yul\":6013:6022   */\n  dup5\n    /* \"#utility.yul\":6008:6011   */\n  dup10\n    /* \"#utility.yul\":6004:6023   */\n  add\n    /* \"#utility.yul\":5998:6024   */\n  mload\n    /* \"#utility.yul\":6056:6104   */\n  tag_138\n    /* \"#utility.yul\":6098:6102   */\n  0x1f\n    /* \"#utility.yul\":6090:6096   */\n  dup10\n    /* \"#utility.yul\":6086:6103   */\n  and\n    /* \"#utility.yul\":6075:6084   */\n  dup3\n    /* \"#utility.yul\":6056:6104   */\n  tag_54\n  jump\t// in\ntag_138:\n    /* \"#utility.yul\":6048:6054   */\n  dup4\n    /* \"#utility.yul\":6041:6105   */\n  sstore\n    /* \"#utility.yul\":5963:6119   */\n  pop\n    /* \"#utility.yul\":5940:6119   */\ntag_137:\n    /* \"#utility.yul\":6165:6166   */\n  0x01\n    /* \"#utility.yul\":6161:6162   */\n  0x02\n    /* \"#utility.yul\":6153:6159   */\n  dup9\n    /* \"#utility.yul\":6149:6163   */\n  mul\n    /* \"#utility.yul\":6145:6167   */\n  add\n    /* \"#utility.yul\":6139:6143   */\n  dup9\n    /* \"#utility.yul\":6132:6168   */\n  sstore\n    /* \"#utility.yul\":5567:6178   */\n  pop\n  pop\n  pop\n    /* \"#utility.yul\":5530:6417   */\ntag_129:\n  pop\n    /* \"#utility.yul\":5120:6423   */\n  pop\n  pop\n  pop\n    /* \"#utility.yul\":5028:6423   */\n  pop\n  pop\n  jump\t// out\n    /* \"#utility.yul\":6429:6527   */\ntag_56:\n    /* \"#utility.yul\":6480:6486   */\n  0x00\n    /* \"#utility.yul\":6514:6519   */\n  dup2\n    /* \"#utility.yul\":6508:6520   */\n  mload\n    /* \"#utility.yul\":6498:6520   */\n  swap1\n  pop\n    /* \"#utility.yul\":6429:6527   */\n  swap2\n  swap1\n  pop\n  jump\t// out\n    /* \"#utility.yul\":6533:6680   */\ntag_57:\n    /* \"#utility.yul\":6634:6645   */\n  0x00\n    /* \"#utility.yul\":6671:6674   */\n  dup2\n    /* \"#utility.yul\":6656:6674   */\n  swap1\n  pop\n    /* \"#utility.yul\":6533:6680   */\n  swap3\n  swap2\n  pop\n  pop\n  jump\t// out\n    /* \"#utility.yul\":6686:6825   */\ntag_58:\n    /* \"#utility.yul\":6775:6781   */\n  dup3\n    /* \"#utility.yul\":6770:6773   */\n  dup2\n    /* \"#utility.yul\":6765:6768   */\n  dup4\n    /* \"#utility.yul\":6759:6782   */\n  mcopy\n    /* \"#utility.yul\":6816:6817   */\n  0x00\n    /* \"#utility.yul\":6807:6813   */\n  dup4\n    /* \"#utility.yul\":6802:6805   */\n  dup4\n    /* \"#utility.yul\":6798:6814   */\n  add\n    /* \"#utility.yul\":6791:6818   */\n  mstore\n    /* \"#utility.yul\":6686:6825   */\n  pop\n  pop\n  pop\n  jump\t// out\n    /* \"#utility.yul\":6831:7217   */\ntag_59:\n    /* \"#utility.yul\":6935:6938   */\n  0x00\n    /* \"#utility.yul\":6963:7001   */\n  tag_143\n    /* \"#utility.yul\":6995:7000   */\n  dup3\n    /* \"#utility.yul\":6963:7001   */\n  tag_56\n  jump\t// in\ntag_143:\n    /* \"#utility.yul\":7017:7105   */\n  tag_144\n    /* \"#utility.yul\":7098:7104   */\n  dup2\n    /* \"#utility.yul\":7093:7096   */\n  dup6\n    /* \"#utility.yul\":7017:7105   */\n  tag_57\n  jump\t// in\ntag_144:\n    /* \"#utility.yul\":7010:7105   */\n  swap4\n  pop\n    /* \"#utility.yul\":7114:7179   */\n  tag_145\n    /* \"#utility.yul\":7172:7178   */\n  dup2\n    /* \"#utility.yul\":7167:7170   */\n  dup6\n    /* \"#utility.yul\":7160:7164   */\n  0x20\n    /* \"#utility.yul\":7153:7158   */\n  dup7\n    /* \"#utility.yul\":7149:7165   */\n  add\n    /* \"#utility.yul\":7114:7179   */\n  tag_58\n  jump\t// in\ntag_145:\n    /* \"#utility.yul\":7204:7210   */\n  dup1\n    /* \"#utility.yul\":7199:7202   */\n  dup5\n    /* \"#utility.yul\":7195:7211   */\n  add\n    /* \"#utility.yul\":7188:7211   */\n  swap2\n  pop\n    /* \"#utility.yul\":6939:7217   */\n  pop\n    /* \"#utility.yul\":6831:7217   */\n  swap3\n  swap2\n  pop\n  pop\n  jump\t// out\n    /* \"#utility.yul\":7223:7494   */\ntag_20:\n    /* \"#utility.yul\":7353:7356   */\n  0x00\n    /* \"#utility.yul\":7375:7468   */\n  tag_147\n    /* \"#utility.yul\":7464:7467   */\n  dup3\n    /* \"#utility.yul\":7455:7461   */\n  dup5\n    /* \"#utility.yul\":7375:7468   */\n  tag_59\n  jump\t// in\ntag_147:\n    /* \"#utility.yul\":7368:7468   */\n  swap2\n  pop\n    /* \"#utility.yul\":7485:7488   */\n  dup2\n    /* \"#utility.yul\":7478:7488   */\n  swap1\n  pop\n    /* \"#utility.yul\":7223:7494   */\n  swap3\n  swap2\n  pop\n  pop\n  jump\t// out\n    /* \"#utility.yul\":7500:7622   */\ntag_60:\n    /* \"#utility.yul\":7573:7597   */\n  tag_149\n    /* \"#utility.yul\":7591:7596   */\n  dup2\n    /* \"#utility.yul\":7573:7597   */\n  tag_44\n  jump\t// in\ntag_149:\n    /* \"#utility.yul\":7566:7571   */\n  dup2\n    /* \"#utility.yul\":7563:7598   */\n  eq\n    /* \"#utility.yul\":7553:7616   */\n  tag_150\n  jumpi\n    /* \"#utility.yul\":7612:7613   */\n  0x00\n    /* \"#utility.yul\":7609:7610   */\n  dup1\n    /* \"#utility.yul\":7602:7614   */\n  revert\n    /* \"#utility.yul\":7553:7616   */\ntag_150:\n    /* \"#utility.yul\":7500:7622   */\n  pop\n  jump\t// out\n    /* \"#utility.yul\":7628:7771   */\ntag_61:\n    /* \"#utility.yul\":7685:7690   */\n  0x00\n    /* \"#utility.yul\":7716:7722   */\n  dup2\n    /* \"#utility.yul\":7710:7723   */\n  mload\n    /* \"#utility.yul\":7701:7723   */\n  swap1\n  pop\n    /* \"#utility.yul\":7732:7765   */\n  tag_152\n    /* \"#utility.yul\":7759:7764   */\n  dup2\n    /* \"#utility.yul\":7732:7765   */\n  tag_60\n  jump\t// in\ntag_152:\n    /* \"#utility.yul\":7628:7771   */\n  swap3\n  swap2\n  pop\n  pop\n  jump\t// out\n    /* \"#utility.yul\":7777:8128   */\ntag_27:\n    /* \"#utility.yul\":7847:7853   */\n  0x00\n    /* \"#utility.yul\":7896:7898   */\n  0x20\n    /* \"#utility.yul\":7884:7893   */\n  dup3\n    /* \"#utility.yul\":7875:7882   */\n  dup5\n    /* \"#utility.yul\":7871:7894   */\n  sub\n    /* \"#utility.yul\":7867:7899   */\n  slt\n    /* \"#utility.yul\":7864:7983   */\n  iszero\n  tag_154\n  jumpi\n    /* \"#utility.yul\":7902:7981   */\n  tag_155\n  tag_30\n  jump\t// in\ntag_155:\n    /* \"#utility.yul\":7864:7983   */\ntag_154:\n    /* \"#utility.yul\":8022:8023   */\n  0x00\n    /* \"#utility.yul\":8047:8111   */\n  tag_156\n    /* \"#utility.yul\":8103:8110   */\n  dup5\n    /* \"#utility.yul\":8094:8100   */\n  dup3\n    /* \"#utility.yul\":8083:8092   */\n  dup6\n    /* \"#utility.yul\":8079:8101   */\n  add\n    /* \"#utility.yul\":8047:8111   */\n  tag_61\n  jump\t// in\ntag_156:\n    /* \"#utility.yul\":8037:8111   */\n  swap2\n  pop\n    /* \"#utility.yul\":7993:8121   */\n  pop\n    /* \"#utility.yul\":7777:8128   */\n  swap3\n  swap2\n  pop\n  pop\n  jump\t// out\n    /* \"contracts/Vault.sol\":193:2835  contract LiquidityVault is ERC4626 {... */\ntag_17:\n  mload(0x80)\n  mload(0xa0)\n  codecopy(0x00, dataOffset(sub_0), dataSize(sub_0))\n  0x00\n  assignImmutable(\"0x795dcf830090319074c4e36a23e7ad6013124a9e4afc765f3f324f667dfac3a5\")\n  0x00\n  assignImmutable(\"0xe3fb6c7a68b97a1574f1623712f47cd0a60a3212aae0a2101a56c312e7330127\")\n  return(0x00, dataSize(sub_0))\nstop\n\nsub_0: assembly {\n        /* \"contracts/Vault.sol\":193:2835  contract LiquidityVault is ERC4626 {... */\n      mstore(0x40, 0x80)\n      callvalue\n      dup1\n      iszero\n      tag_1\n      jumpi\n      0x00\n      dup1\n      revert\n    tag_1:\n      pop\n      jumpi(tag_2, lt(calldatasize, 0x04))\n      shr(0xe0, calldataload(0x00))\n      dup1\n      0x92bdf9ba\n      gt\n      tag_30\n      jumpi\n      dup1\n      0xba087652\n      gt\n      tag_31\n      jumpi\n      dup1\n      0xce96cb77\n      gt\n      tag_32\n      jumpi\n      dup1\n      0xce96cb77\n      eq\n      tag_26\n      jumpi\n      dup1\n      0xd905777e\n      eq\n      tag_27\n      jumpi\n      dup1\n      0xdd62ed3e\n      eq\n      tag_28\n      jumpi\n      dup1\n      0xef8b30f7\n      eq\n      tag_29\n      jumpi\n      jump(tag_2)\n    tag_32:\n      dup1\n      0xba087652\n      eq\n      tag_23\n      jumpi\n      dup1\n      0xc63d75b6\n      eq\n      tag_24\n      jumpi\n      dup1\n      0xc6e6f592\n      eq\n      tag_25\n      jumpi\n      jump(tag_2)\n    tag_31:\n      dup1\n      0x9d76ea58\n      gt\n      tag_33\n      jumpi\n      dup1\n      0x9d76ea58\n      eq\n      tag_19\n      jumpi\n      dup1\n      0xa9059cbb\n      eq\n      tag_20\n      jumpi\n      dup1\n      0xb3d7f6b9\n      eq\n      tag_21\n      jumpi\n      dup1\n      0xb460af94\n      eq\n      tag_22\n      jumpi\n      jump(tag_2)\n    tag_33:\n      dup1\n      0x92bdf9ba\n      eq\n      tag_16\n      jumpi\n      dup1\n      0x94bf804d\n      eq\n      tag_17\n      jumpi\n      dup1\n      0x95d89b41\n      eq\n      tag_18\n      jumpi\n      jump(tag_2)\n    tag_30:\n      dup1\n      0x23b872dd\n      gt\n      tag_34\n      jumpi\n      dup1\n      0x402d267d\n      gt\n      tag_35\n      jumpi\n      dup1\n      0x402d267d\n      eq\n      tag_12\n      jumpi\n      dup1\n      0x4cdad506\n      eq\n      tag_13\n      jumpi\n      dup1\n      0x6e553f65\n      eq\n      tag_14\n      jumpi\n      dup1\n      0x70a08231\n      eq\n      tag_15\n      jumpi\n      jump(tag_2)\n    tag_35:\n      dup1\n      0x23b872dd\n      eq\n      tag_9\n      jumpi\n      dup1\n      0x313ce567\n      eq\n      tag_10\n      jumpi\n      dup1\n      0x38d52e0f\n      eq\n      tag_11\n      jumpi\n      jump(tag_2)\n    tag_34:\n      dup1\n      0x01e1d114\n      eq\n      tag_3\n      jumpi\n      dup1\n      0x06fdde03\n      eq\n      tag_4\n      jumpi\n      dup1\n      0x07a2d13a\n      eq\n      tag_5\n      jumpi\n      dup1\n      0x095ea7b3\n      eq\n      tag_6\n      jumpi\n      dup1\n      0x0a28a477\n      eq\n      tag_7\n      jumpi\n      dup1\n      0x18160ddd\n      eq\n      tag_8\n      jumpi\n    tag_2:\n      0x00\n      dup1\n      revert\n        /* \"@openzeppelin/contracts/token/ERC20/extensions/ERC4626.sol\":5780:5896  function totalAssets() public view virtual returns (uint256) {... */\n    tag_3:\n      tag_36\n      tag_37\n      jump\t// in\n    tag_36:\n      mload(0x40)\n      tag_38\n      swap2\n      swap1\n      tag_39\n      jump\t// in\n    tag_38:\n      mload(0x40)\n      dup1\n      swap2\n      sub\n      swap1\n      return\n        /* \"@openzeppelin/contracts/token/ERC20/ERC20.sol\":2074:2163  function name() public view virtual returns (string memory) {... */\n    tag_4:\n      tag_40\n      tag_41\n      jump\t// in\n    tag_40:\n      mload(0x40)\n      tag_42\n      swap2\n      swap1\n      tag_43\n      jump\t// in\n    tag_42:\n      mload(0x40)\n      dup1\n      swap2\n      sub\n      swap1\n      return\n        /* \"@openzeppelin/contracts/token/ERC20/extensions/ERC4626.sol\":6152:6300  function convertToAssets(uint256 shares) public view virtual returns (uint256) {... */\n    tag_5:\n      tag_44\n      0x04\n      dup1\n      calldatasize\n      sub\n      dup2\n      add\n      swap1\n      tag_45\n      swap2\n      swap1\n      tag_46\n      jump\t// in\n    tag_45:\n      tag_47\n      jump\t// in\n    tag_44:\n      mload(0x40)\n      tag_48\n      swap2\n      swap1\n      tag_39\n      jump\t// in\n    tag_48:\n      mload(0x40)\n      dup1\n      swap2\n      sub\n      swap1\n      return\n        /* \"@openzeppelin/contracts/token/ERC20/ERC20.sol\":4293:4479  function approve(address spender, uint256 value) public virtual returns (bool) {... */\n    tag_6:\n      tag_49\n      0x04\n      dup1\n      calldatasize\n      sub\n      dup2\n      add\n      swap1\n      tag_50\n      swap2\n      swap1\n      tag_51\n      jump\t// in\n    tag_50:\n      tag_52\n      jump\t// in\n    tag_49:\n      mload(0x40)\n      tag_53\n      swap2\n      swap1\n      tag_54\n      jump\t// in\n    tag_53:\n      mload(0x40)\n      dup1\n      swap2\n      sub\n      swap1\n      return\n        /* \"contracts/Vault.sol\":1667:2005  function previewWithdraw(uint256 assets) public view override returns (uint256) {... */\n    tag_7:\n      tag_55\n      0x04\n      dup1\n      calldatasize\n      sub\n      dup2\n      add\n      swap1\n      tag_56\n      swap2\n      swap1\n      tag_46\n      jump\t// in\n    tag_56:\n      tag_57\n      jump\t// in\n    tag_55:\n      mload(0x40)\n      tag_58\n      swap2\n      swap1\n      tag_39\n      jump\t// in\n    tag_58:\n      mload(0x40)\n      dup1\n      swap2\n      sub\n      swap1\n      return\n        /* \"@openzeppelin/contracts/token/ERC20/ERC20.sol\":3144:3241  function totalSupply() public view virtual returns (uint256) {... */\n    tag_8:\n      tag_59\n      tag_60\n      jump\t// in\n    tag_59:\n      mload(0x40)\n      tag_61\n      swap2\n      swap1\n      tag_39\n      jump\t// in\n    tag_61:\n      mload(0x40)\n      dup1\n      swap2\n      sub\n      swap1\n      return\n        /* \"@openzeppelin/contracts/token/ERC20/ERC20.sol\":5039:5283  function transferFrom(address from, address to, uint256 value) public virtual returns (bool) {... */\n    tag_9:\n      tag_62\n      0x04\n      dup1\n      calldatasize\n      sub\n      dup2\n      add\n      swap1\n      tag_63\n      swap2\n      swap1\n      tag_64\n      jump\t// in\n    tag_63:\n      tag_65\n      jump\t// in\n    tag_62:\n      mload(0x40)\n      tag_66\n      swap2\n      swap1\n      tag_54\n      jump\t// in\n    tag_66:\n      mload(0x40)\n      dup1\n      swap2\n      sub\n      swap1\n      return\n        /* \"@openzeppelin/contracts/token/ERC20/extensions/ERC4626.sol\":5441:5592  function decimals() public view virtual override(IERC20Metadata, ERC20) returns (uint8) {... */\n    tag_10:\n      tag_67\n      tag_68\n      jump\t// in\n    tag_67:\n      mload(0x40)\n      tag_69\n      swap2\n      swap1\n      tag_70\n      jump\t// in\n    tag_69:\n      mload(0x40)\n      dup1\n      swap2\n      sub\n      swap1\n      return\n        /* \"@openzeppelin/contracts/token/ERC20/extensions/ERC4626.sol\":5636:5730  function asset() public view virtual returns (address) {... */\n    tag_11:\n      tag_71\n      tag_72\n      jump\t// in\n    tag_71:\n      mload(0x40)\n      tag_73\n      swap2\n      swap1\n      tag_74\n      jump\t// in\n    tag_73:\n      mload(0x40)\n      dup1\n      swap2\n      sub\n      swap1\n      return\n        /* \"@openzeppelin/contracts/token/ERC20/extensions/ERC4626.sol\":6349:6457  function maxDeposit(address) public view virtual returns (uint256) {... */\n    tag_12:\n      tag_75\n      0x04\n      dup1\n      calldatasize\n      sub\n      dup2\n      add\n      swap1\n      tag_76\n      swap2\n      swap1\n      tag_77\n      jump\t// in\n    tag_76:\n      tag_78\n      jump\t// in\n    tag_75:\n      mload(0x40)\n      tag_79\n      swap2\n      swap1\n      tag_39\n      jump\t// in\n    tag_79:\n      mload(0x40)\n      dup1\n      swap2\n      sub\n      swap1\n      return\n        /* \"@openzeppelin/contracts/token/ERC20/extensions/ERC4626.sol\":7617:7763  function previewRedeem(uint256 shares) public view virtual returns (uint256) {... */\n    tag_13:\n      tag_80\n      0x04\n      dup1\n      calldatasize\n      sub\n      dup2\n      add\n      swap1\n      tag_81\n      swap2\n      swap1\n      tag_46\n      jump\t// in\n    tag_81:\n      tag_82\n      jump\t// in\n    tag_80:\n      mload(0x40)\n      tag_83\n      swap2\n      swap1\n      tag_39\n      jump\t// in\n    tag_83:\n      mload(0x40)\n      dup1\n      swap2\n      sub\n      swap1\n      return\n        /* \"contracts/Vault.sol\":759:1046  function deposit(uint256 assets, address receiver) public override returns (uint256) {... */\n    tag_14:\n      tag_84\n      0x04\n      dup1\n      calldatasize\n      sub\n      dup2\n      add\n      swap1\n      tag_85\n      swap2\n      swap1\n      tag_86\n      jump\t// in\n    tag_85:\n      tag_87\n      jump\t// in\n    tag_84:\n      mload(0x40)\n      tag_88\n      swap2\n      swap1\n      tag_39\n      jump\t// in\n    tag_88:\n      mload(0x40)\n      dup1\n      swap2\n      sub\n      swap1\n      return\n        /* \"@openzeppelin/contracts/token/ERC20/ERC20.sol\":3299:3415  function balanceOf(address account) public view virtual returns (uint256) {... */\n    tag_15:\n      tag_89\n      0x04\n      dup1\n      calldatasize\n      sub\n      dup2\n      add\n      swap1\n      tag_90\n      swap2\n      swap1\n      tag_77\n      jump\t// in\n    tag_90:\n      tag_91\n      jump\t// in\n    tag_89:\n      mload(0x40)\n      tag_92\n      swap2\n      swap1\n      tag_39\n      jump\t// in\n    tag_92:\n      mload(0x40)\n      dup1\n      swap2\n      sub\n      swap1\n      return\n        /* \"contracts/Vault.sol\":279:330  mapping(address => uint256) public lockedCollateral */\n    tag_16:\n      tag_93\n      0x04\n      dup1\n      calldatasize\n      sub\n      dup2\n      add\n      swap1\n      tag_94\n      swap2\n      swap1\n      tag_77\n      jump\t// in\n    tag_94:\n      tag_95\n      jump\t// in\n    tag_93:\n      mload(0x40)\n      tag_96\n      swap2\n      swap1\n      tag_39\n      jump\t// in\n    tag_96:\n      mload(0x40)\n      dup1\n      swap2\n      sub\n      swap1\n      return\n        /* \"@openzeppelin/contracts/token/ERC20/extensions/ERC4626.sol\":8468:8848  function mint(uint256 shares, address receiver) public virtual returns (uint256) {... */\n    tag_17:\n      tag_97\n      0x04\n      dup1\n      calldatasize\n      sub\n      dup2\n      add\n      swap1\n      tag_98\n      swap2\n      swap1\n      tag_86\n      jump\t// in\n    tag_98:\n      tag_99\n      jump\t// in\n    tag_97:\n      mload(0x40)\n      tag_100\n      swap2\n      swap1\n      tag_39\n      jump\t// in\n    tag_100:\n      mload(0x40)\n      dup1\n      swap2\n      sub\n      swap1\n      return\n        /* \"@openzeppelin/contracts/token/ERC20/ERC20.sol\":2276:2369  function symbol() public view virtual returns (string memory) {... */\n    tag_18:\n      tag_101\n      tag_102\n      jump\t// in\n    tag_101:\n      mload(0x40)\n      tag_103\n      swap2\n      swap1\n      tag_43\n      jump\t// in\n    tag_103:\n      mload(0x40)\n      dup1\n      swap2\n      sub\n      swap1\n      return\n        /* \"contracts/Vault.sol\":337:364  address public tokenAddress */\n    tag_19:\n      tag_104\n      tag_105\n      jump\t// in\n    tag_104:\n      mload(0x40)\n      tag_106\n      swap2\n      swap1\n      tag_74\n      jump\t// in\n    tag_106:\n      mload(0x40)\n      dup1\n      swap2\n      sub\n      swap1\n      return\n        /* \"@openzeppelin/contracts/token/ERC20/ERC20.sol\":3610:3788  function transfer(address to, uint256 value) public virtual returns (bool) {... */\n    tag_20:\n      tag_107\n      0x04\n      dup1\n      calldatasize\n      sub\n      dup2\n      add\n      swap1\n      tag_108\n      swap2\n      swap1\n      tag_51\n      jump\t// in\n    tag_108:\n      tag_109\n      jump\t// in\n    tag_107:\n      mload(0x40)\n      tag_110\n      swap2\n      swap1\n      tag_54\n      jump\t// in\n    tag_110:\n      mload(0x40)\n      dup1\n      swap2\n      sub\n      swap1\n      return\n        /* \"@openzeppelin/contracts/token/ERC20/extensions/ERC4626.sol\":7221:7364  function previewMint(uint256 shares) public view virtual returns (uint256) {... */\n    tag_21:\n      tag_111\n      0x04\n      dup1\n      calldatasize\n      sub\n      dup2\n      add\n      swap1\n      tag_112\n      swap2\n      swap1\n      tag_46\n      jump\t// in\n    tag_112:\n      tag_113\n      jump\t// in\n    tag_111:\n      mload(0x40)\n      tag_114\n      swap2\n      swap1\n      tag_39\n      jump\t// in\n    tag_114:\n      mload(0x40)\n      dup1\n      swap2\n      sub\n      swap1\n      return\n        /* \"contracts/Vault.sol\":1114:1590  function withdraw(uint256 assets, address receiver, address owner) public override returns (uint256) {... */\n    tag_22:\n      tag_115\n      0x04\n      dup1\n      calldatasize\n      sub\n      dup2\n      add\n      swap1\n      tag_116\n      swap2\n      swap1\n      tag_117\n      jump\t// in\n    tag_116:\n      tag_118\n      jump\t// in\n    tag_115:\n      mload(0x40)\n      tag_119\n      swap2\n      swap1\n      tag_39\n      jump\t// in\n    tag_119:\n      mload(0x40)\n      dup1\n      swap2\n      sub\n      swap1\n      return\n        /* \"@openzeppelin/contracts/token/ERC20/extensions/ERC4626.sol\":9353:9758  function redeem(uint256 shares, address receiver, address owner) public virtual returns (uint256) {... */\n    tag_23:\n      tag_120\n      0x04\n      dup1\n      calldatasize\n      sub\n      dup2\n      add\n      swap1\n      tag_121\n      swap2\n      swap1\n      tag_117\n      jump\t// in\n    tag_121:\n      tag_122\n      jump\t// in\n    tag_120:\n      mload(0x40)\n      tag_123\n      swap2\n      swap1\n      tag_39\n      jump\t// in\n    tag_123:\n      mload(0x40)\n      dup1\n      swap2\n      sub\n      swap1\n      return\n        /* \"@openzeppelin/contracts/token/ERC20/extensions/ERC4626.sol\":6503:6608  function maxMint(address) public view virtual returns (uint256) {... */\n    tag_24:\n      tag_124\n      0x04\n      dup1\n      calldatasize\n      sub\n      dup2\n      add\n      swap1\n      tag_125\n      swap2\n      swap1\n      tag_77\n      jump\t// in\n    tag_125:\n      tag_126\n      jump\t// in\n    tag_124:\n      mload(0x40)\n      tag_127\n      swap2\n      swap1\n      tag_39\n      jump\t// in\n    tag_127:\n      mload(0x40)\n      dup1\n      swap2\n      sub\n      swap1\n      return\n        /* \"@openzeppelin/contracts/token/ERC20/extensions/ERC4626.sol\":5950:6098  function convertToShares(uint256 assets) public view virtual returns (uint256) {... */\n    tag_25:\n      tag_128\n      0x04\n      dup1\n      calldatasize\n      sub\n      dup2\n      add\n      swap1\n      tag_129\n      swap2\n      swap1\n      tag_46\n      jump\t// in\n    tag_129:\n      tag_130\n      jump\t// in\n    tag_128:\n      mload(0x40)\n      tag_131\n      swap2\n      swap1\n      tag_39\n      jump\t// in\n    tag_131:\n      mload(0x40)\n      dup1\n      swap2\n      sub\n      swap1\n      return\n        /* \"contracts/Vault.sol\":2504:2833  function maxWithdraw(address owner) public view override returns (uint256) {... */\n    tag_26:\n      tag_132\n      0x04\n      dup1\n      calldatasize\n      sub\n      dup2\n      add\n      swap1\n      tag_133\n      swap2\n      swap1\n      tag_77\n      jump\t// in\n    tag_133:\n      tag_134\n      jump\t// in\n    tag_132:\n      mload(0x40)\n      tag_135\n      swap2\n      swap1\n      tag_39\n      jump\t// in\n    tag_135:\n      mload(0x40)\n      dup1\n      swap2\n      sub\n      swap1\n      return\n        /* \"@openzeppelin/contracts/token/ERC20/extensions/ERC4626.sol\":6859:6971  function maxRedeem(address owner) public view virtual returns (uint256) {... */\n    tag_27:\n      tag_136\n      0x04\n      dup1\n      calldatasize\n      sub\n      dup2\n      add\n      swap1\n      tag_137\n      swap2\n      swap1\n      tag_77\n      jump\t// in\n    tag_137:\n      tag_138\n      jump\t// in\n    tag_136:\n      mload(0x40)\n      tag_139\n      swap2\n      swap1\n      tag_39\n      jump\t// in\n    tag_139:\n      mload(0x40)\n      dup1\n      swap2\n      sub\n      swap1\n      return\n        /* \"@openzeppelin/contracts/token/ERC20/ERC20.sol\":3846:3986  function allowance(address owner, address spender) public view virtual returns (uint256) {... */\n    tag_28:\n      tag_140\n      0x04\n      dup1\n      calldatasize\n      sub\n      dup2\n      add\n      swap1\n      tag_141\n      swap2\n      swap1\n      tag_142\n      jump\t// in\n    tag_141:\n      tag_143\n      jump\t// in\n    tag_140:\n      mload(0x40)\n      tag_144\n      swap2\n      swap1\n      tag_39\n      jump\t// in\n    tag_144:\n      mload(0x40)\n      dup1\n      swap2\n      sub\n      swap1\n      return\n        /* \"@openzeppelin/contracts/token/ERC20/extensions/ERC4626.sol\":7024:7171  function previewDeposit(uint256 assets) public view virtual returns (uint256) {... */\n    tag_29:\n      tag_145\n      0x04\n      dup1\n      calldatasize\n      sub\n      dup2\n      add\n      swap1\n      tag_146\n      swap2\n      swap1\n      tag_46\n      jump\t// in\n    tag_146:\n      tag_147\n      jump\t// in\n    tag_145:\n      mload(0x40)\n      tag_148\n      swap2\n      swap1\n      tag_39\n      jump\t// in\n    tag_148:\n      mload(0x40)\n      dup1\n      swap2\n      sub\n      swap1\n      return\n        /* \"@openzeppelin/contracts/token/ERC20/extensions/ERC4626.sol\":5780:5896  function totalAssets() public view virtual returns (uint256) {... */\n    tag_37:\n        /* \"@openzeppelin/contracts/token/ERC20/extensions/ERC4626.sol\":5832:5839  uint256 */\n      0x00\n        /* \"@openzeppelin/contracts/token/ERC20/extensions/ERC4626.sol\":5858:5864  _asset */\n      immutable(\"0xe3fb6c7a68b97a1574f1623712f47cd0a60a3212aae0a2101a56c312e7330127\")\n        /* \"@openzeppelin/contracts/token/ERC20/extensions/ERC4626.sol\":5858:5874  _asset.balanceOf */\n      0xffffffffffffffffffffffffffffffffffffffff\n      and\n      0x70a08231\n        /* \"@openzeppelin/contracts/token/ERC20/extensions/ERC4626.sol\":5883:5887  this */\n      address\n        /* \"@openzeppelin/contracts/token/ERC20/extensions/ERC4626.sol\":5858:5889  _asset.balanceOf(address(this)) */\n      mload(0x40)\n      dup3\n      0xffffffff\n      and\n      0xe0\n      shl\n      dup2\n      mstore\n      0x04\n      add\n      tag_150\n      swap2\n      swap1\n      tag_74\n      jump\t// in\n    tag_150:\n      0x20\n      mload(0x40)\n      dup1\n      dup4\n      sub\n      dup2\n      dup7\n      gas\n      staticcall\n      iszero\n      dup1\n      iszero\n      tag_152\n      jumpi\n      returndatasize\n      0x00\n      dup1\n      returndatacopy\n      revert(0x00, returndatasize)\n    tag_152:\n      pop\n      pop\n      pop\n      pop\n      mload(0x40)\n      returndatasize\n      not(0x1f)\n      0x1f\n      dup3\n      add\n      and\n      dup3\n      add\n      dup1\n      0x40\n      mstore\n      pop\n      dup2\n      add\n      swap1\n      tag_153\n      swap2\n      swap1\n      tag_154\n      jump\t// in\n    tag_153:\n        /* \"@openzeppelin/contracts/token/ERC20/extensions/ERC4626.sol\":5851:5889  return _asset.balanceOf(address(this)) */\n      swap1\n      pop\n        /* \"@openzeppelin/contracts/token/ERC20/extensions/ERC4626.sol\":5780:5896  function totalAssets() public view virtual returns (uint256) {... */\n      swap1\n      jump\t// out\n        /* \"@openzeppelin/contracts/token/ERC20/ERC20.sol\":2074:2163  function name() public view virtual returns (string memory) {... */\n    tag_41:\n        /* \"@openzeppelin/contracts/token/ERC20/ERC20.sol\":2119:2132  string memory */\n      0x60\n        /* \"@openzeppelin/contracts/token/ERC20/ERC20.sol\":2151:2156  _name */\n      0x03\n        /* \"@openzeppelin/contracts/token/ERC20/ERC20.sol\":2144:2156  return _name */\n      dup1\n      sload\n      tag_156\n      swap1\n      tag_157\n      jump\t// in\n    tag_156:\n      dup1\n      0x1f\n      add\n      0x20\n      dup1\n      swap2\n      div\n      mul\n      0x20\n      add\n      mload(0x40)\n      swap1\n      dup2\n      add\n      0x40\n      mstore\n      dup1\n      swap3\n      swap2\n      swap1\n      dup2\n      dup2\n      mstore\n      0x20\n      add\n      dup3\n      dup1\n      sload\n      tag_158\n      swap1\n      tag_157\n      jump\t// in\n    tag_158:\n      dup1\n      iszero\n      tag_159\n      jumpi\n      dup1\n      0x1f\n      lt\n      tag_160\n      jumpi\n      0x0100\n      dup1\n      dup4\n      sload\n      div\n      mul\n      dup4\n      mstore\n      swap2\n      0x20\n      add\n      swap2\n      jump(tag_159)\n    tag_160:\n      dup3\n      add\n      swap2\n      swap1\n      0x00\n      mstore\n      keccak256(0x00, 0x20)\n      swap1\n    tag_161:\n      dup2\n      sload\n      dup2\n      mstore\n      swap1\n      0x01\n      add\n      swap1\n      0x20\n      add\n      dup1\n      dup4\n      gt\n      tag_161\n      jumpi\n      dup3\n      swap1\n      sub\n      0x1f\n      and\n      dup3\n      add\n      swap2\n    tag_159:\n      pop\n      pop\n      pop\n      pop\n      pop\n      swap1\n      pop\n        /* \"@openzeppelin/contracts/token/ERC20/ERC20.sol\":2074:2163  function name() public view virtual returns (string memory) {... */\n      swap1\n      jump\t// out\n        /* \"@openzeppelin/contracts/token/ERC20/extensions/ERC4626.sol\":6152:6300  function convertToAssets(uint256 shares) public view virtual returns (uint256) {... */\n    tag_47:\n        /* \"@openzeppelin/contracts/token/ERC20/extensions/ERC4626.sol\":6222:6229  uint256 */\n      0x00\n        /* \"@openzeppelin/contracts/token/ERC20/extensions/ERC4626.sol\":6248:6293  _convertToAssets(shares, Math.Rounding.Floor) */\n      tag_163\n        /* \"@openzeppelin/contracts/token/ERC20/extensions/ERC4626.sol\":6265:6271  shares */\n      dup3\n        /* \"@openzeppelin/contracts/token/ERC20/extensions/ERC4626.sol\":6273:6292  Math.Rounding.Floor */\n      0x00\n        /* \"@openzeppelin/contracts/token/ERC20/extensions/ERC4626.sol\":6248:6264  _convertToAssets */\n      tag_164\n        /* \"@openzeppelin/contracts/token/ERC20/extensions/ERC4626.sol\":6248:6293  _convertToAssets(shares, Math.Rounding.Floor) */\n      jump\t// in\n    tag_163:\n        /* \"@openzeppelin/contracts/token/ERC20/extensions/ERC4626.sol\":6241:6293  return _convertToAssets(shares, Math.Rounding.Floor) */\n      swap1\n      pop\n        /* \"@openzeppelin/contracts/token/ERC20/extensions/ERC4626.sol\":6152:6300  function convertToAssets(uint256 shares) public view virtual returns (uint256) {... */\n      swap2\n      swap1\n      pop\n      jump\t// out\n        /* \"@openzeppelin/contracts/token/ERC20/ERC20.sol\":4293:4479  function approve(address spender, uint256 value) public virtual returns (bool) {... */\n    tag_52:\n        /* \"@openzeppelin/contracts/token/ERC20/ERC20.sol\":4366:4370  bool */\n      0x00\n        /* \"@openzeppelin/contracts/token/ERC20/ERC20.sol\":4382:4395  address owner */\n      dup1\n        /* \"@openzeppelin/contracts/token/ERC20/ERC20.sol\":4398:4410  _msgSender() */\n      tag_166\n        /* \"@openzeppelin/contracts/token/ERC20/ERC20.sol\":4398:4408  _msgSender */\n      tag_167\n        /* \"@openzeppelin/contracts/token/ERC20/ERC20.sol\":4398:4410  _msgSender() */\n      jump\t// in\n    tag_166:\n        /* \"@openzeppelin/contracts/token/ERC20/ERC20.sol\":4382:4410  address owner = _msgSender() */\n      swap1\n      pop\n        /* \"@openzeppelin/contracts/token/ERC20/ERC20.sol\":4420:4451  _approve(owner, spender, value) */\n      tag_168\n        /* \"@openzeppelin/contracts/token/ERC20/ERC20.sol\":4429:4434  owner */\n      dup2\n        /* \"@openzeppelin/contracts/token/ERC20/ERC20.sol\":4436:4443  spender */\n      dup6\n        /* \"@openzeppelin/contracts/token/ERC20/ERC20.sol\":4445:4450  value */\n      dup6\n        /* \"@openzeppelin/contracts/token/ERC20/ERC20.sol\":4420:4428  _approve */\n      tag_169\n        /* \"@openzeppelin/contracts/token/ERC20/ERC20.sol\":4420:4451  _approve(owner, spender, value) */\n      jump\t// in\n    tag_168:\n        /* \"@openzeppelin/contracts/token/ERC20/ERC20.sol\":4468:4472  true */\n      0x01\n        /* \"@openzeppelin/contracts/token/ERC20/ERC20.sol\":4461:4472  return true */\n      swap2\n      pop\n      pop\n        /* \"@openzeppelin/contracts/token/ERC20/ERC20.sol\":4293:4479  function approve(address spender, uint256 value) public virtual returns (bool) {... */\n      swap3\n      swap2\n      pop\n      pop\n      jump\t// out\n        /* \"contracts/Vault.sol\":1667:2005  function previewWithdraw(uint256 assets) public view override returns (uint256) {... */\n    tag_57:\n        /* \"contracts/Vault.sol\":1738:1745  uint256 */\n      0x00\n        /* \"contracts/Vault.sol\":1757:1780  uint256 availableAssets */\n      dup1\n        /* \"contracts/Vault.sol\":1783:1812  super.previewWithdraw(assets) */\n      tag_171\n        /* \"contracts/Vault.sol\":1805:1811  assets */\n      dup4\n        /* \"contracts/Vault.sol\":1783:1804  super.previewWithdraw */\n      tag_172\n        /* \"contracts/Vault.sol\":1783:1812  super.previewWithdraw(assets) */\n      jump\t// in\n    tag_171:\n        /* \"contracts/Vault.sol\":1757:1812  uint256 availableAssets = super.previewWithdraw(assets) */\n      swap1\n      pop\n        /* \"contracts/Vault.sol\":1822:1842  uint256 lockedAssets */\n      0x00\n        /* \"contracts/Vault.sol\":1845:1861  lockedCollateral */\n      0x05\n        /* \"contracts/Vault.sol\":1845:1873  lockedCollateral[msg.sender] */\n      0x00\n        /* \"contracts/Vault.sol\":1862:1872  msg.sender */\n      caller\n        /* \"contracts/Vault.sol\":1845:1873  lockedCollateral[msg.sender] */\n      0xffffffffffffffffffffffffffffffffffffffff\n      and\n      0xffffffffffffffffffffffffffffffffffffffff\n      and\n      dup2\n      mstore\n      0x20\n      add\n      swap1\n      dup2\n      mstore\n      0x20\n      add\n      0x00\n      keccak256\n      sload\n        /* \"contracts/Vault.sol\":1822:1873  uint256 lockedAssets = lockedCollateral[msg.sender] */\n      swap1\n      pop\n        /* \"contracts/Vault.sol\":1905:1917  lockedAssets */\n      dup1\n        /* \"contracts/Vault.sol\":1887:1902  availableAssets */\n      dup3\n        /* \"contracts/Vault.sol\":1887:1917  availableAssets > lockedAssets */\n      gt\n        /* \"contracts/Vault.sol\":1883:1981  if (availableAssets > lockedAssets) {... */\n      iszero\n      tag_173\n      jumpi\n        /* \"contracts/Vault.sol\":1958:1970  lockedAssets */\n      dup1\n        /* \"contracts/Vault.sol\":1940:1955  availableAssets */\n      dup3\n        /* \"contracts/Vault.sol\":1940:1970  availableAssets - lockedAssets */\n      tag_174\n      swap2\n      swap1\n      tag_175\n      jump\t// in\n    tag_174:\n        /* \"contracts/Vault.sol\":1933:1970  return availableAssets - lockedAssets */\n      swap3\n      pop\n      pop\n      pop\n      jump(tag_170)\n        /* \"contracts/Vault.sol\":1883:1981  if (availableAssets > lockedAssets) {... */\n    tag_173:\n        /* \"contracts/Vault.sol\":1997:1998  0 */\n      0x00\n        /* \"contracts/Vault.sol\":1990:1998  return 0 */\n      swap3\n      pop\n      pop\n      pop\n        /* \"contracts/Vault.sol\":1667:2005  function previewWithdraw(uint256 assets) public view override returns (uint256) {... */\n    tag_170:\n      swap2\n      swap1\n      pop\n      jump\t// out\n        /* \"@openzeppelin/contracts/token/ERC20/ERC20.sol\":3144:3241  function totalSupply() public view virtual returns (uint256) {... */\n    tag_60:\n        /* \"@openzeppelin/contracts/token/ERC20/ERC20.sol\":3196:3203  uint256 */\n      0x00\n        /* \"@openzeppelin/contracts/token/ERC20/ERC20.sol\":3222:3234  _totalSupply */\n      sload(0x02)\n        /* \"@openzeppelin/contracts/token/ERC20/ERC20.sol\":3215:3234  return _totalSupply */\n      swap1\n      pop\n        /* \"@openzeppelin/contracts/token/ERC20/ERC20.sol\":3144:3241  function totalSupply() public view virtual returns (uint256) {... */\n      swap1\n      jump\t// out\n        /* \"@openzeppelin/contracts/token/ERC20/ERC20.sol\":5039:5283  function transferFrom(address from, address to, uint256 value) public virtual returns (bool) {... */\n    tag_65:\n        /* \"@openzeppelin/contracts/token/ERC20/ERC20.sol\":5126:5130  bool */\n      0x00\n        /* \"@openzeppelin/contracts/token/ERC20/ERC20.sol\":5142:5157  address spender */\n      dup1\n        /* \"@openzeppelin/contracts/token/ERC20/ERC20.sol\":5160:5172  _msgSender() */\n      tag_178\n        /* \"@openzeppelin/contracts/token/ERC20/ERC20.sol\":5160:5170  _msgSender */\n      tag_167\n        /* \"@openzeppelin/contracts/token/ERC20/ERC20.sol\":5160:5172  _msgSender() */\n      jump\t// in\n    tag_178:\n        /* \"@openzeppelin/contracts/token/ERC20/ERC20.sol\":5142:5172  address spender = _msgSender() */\n      swap1\n      pop\n        /* \"@openzeppelin/contracts/token/ERC20/ERC20.sol\":5182:5219  _spendAllowance(from, spender, value) */\n      tag_179\n        /* \"@openzeppelin/contracts/token/ERC20/ERC20.sol\":5198:5202  from */\n      dup6\n        /* \"@openzeppelin/contracts/token/ERC20/ERC20.sol\":5204:5211  spender */\n      dup3\n        /* \"@openzeppelin/contracts/token/ERC20/ERC20.sol\":5213:5218  value */\n      dup6\n        /* \"@openzeppelin/contracts/token/ERC20/ERC20.sol\":5182:5197  _spendAllowance */\n      tag_180\n        /* \"@openzeppelin/contracts/token/ERC20/ERC20.sol\":5182:5219  _spendAllowance(from, spender, value) */\n      jump\t// in\n    tag_179:\n        /* \"@openzeppelin/contracts/token/ERC20/ERC20.sol\":5229:5255  _transfer(from, to, value) */\n      tag_181\n        /* \"@openzeppelin/contracts/token/ERC20/ERC20.sol\":5239:5243  from */\n      dup6\n        /* \"@openzeppelin/contracts/token/ERC20/ERC20.sol\":5245:5247  to */\n      dup6\n        /* \"@openzeppelin/contracts/token/ERC20/ERC20.sol\":5249:5254  value */\n      dup6\n        /* \"@openzeppelin/contracts/token/ERC20/ERC20.sol\":5229:5238  _transfer */\n      tag_182\n        /* \"@openzeppelin/contracts/token/ERC20/ERC20.sol\":5229:5255  _transfer(from, to, value) */\n      jump\t// in\n    tag_181:\n        /* \"@openzeppelin/contracts/token/ERC20/ERC20.sol\":5272:5276  true */\n      0x01\n        /* \"@openzeppelin/contracts/token/ERC20/ERC20.sol\":5265:5276  return true */\n      swap2\n      pop\n      pop\n        /* \"@openzeppelin/contracts/token/ERC20/ERC20.sol\":5039:5283  function transferFrom(address from, address to, uint256 value) public virtual returns (bool) {... */\n      swap4\n      swap3\n      pop\n      pop\n      pop\n      jump\t// out\n        /* \"@openzeppelin/contracts/token/ERC20/extensions/ERC4626.sol\":5441:5592  function decimals() public view virtual override(IERC20Metadata, ERC20) returns (uint8) {... */\n    tag_68:\n        /* \"@openzeppelin/contracts/token/ERC20/extensions/ERC4626.sol\":5522:5527  uint8 */\n      0x00\n        /* \"@openzeppelin/contracts/token/ERC20/extensions/ERC4626.sol\":5568:5585  _decimalsOffset() */\n      tag_184\n        /* \"@openzeppelin/contracts/token/ERC20/extensions/ERC4626.sol\":5568:5583  _decimalsOffset */\n      tag_185\n        /* \"@openzeppelin/contracts/token/ERC20/extensions/ERC4626.sol\":5568:5585  _decimalsOffset() */\n      jump\t// in\n    tag_184:\n        /* \"@openzeppelin/contracts/token/ERC20/extensions/ERC4626.sol\":5546:5565  _underlyingDecimals */\n      immutable(\"0x795dcf830090319074c4e36a23e7ad6013124a9e4afc765f3f324f667dfac3a5\")\n        /* \"@openzeppelin/contracts/token/ERC20/extensions/ERC4626.sol\":5546:5585  _underlyingDecimals + _decimalsOffset() */\n      tag_186\n      swap2\n      swap1\n      tag_187\n      jump\t// in\n    tag_186:\n        /* \"@openzeppelin/contracts/token/ERC20/extensions/ERC4626.sol\":5539:5585  return _underlyingDecimals + _decimalsOffset() */\n      swap1\n      pop\n        /* \"@openzeppelin/contracts/token/ERC20/extensions/ERC4626.sol\":5441:5592  function decimals() public view virtual override(IERC20Metadata, ERC20) returns (uint8) {... */\n      swap1\n      jump\t// out\n        /* \"@openzeppelin/contracts/token/ERC20/extensions/ERC4626.sol\":5636:5730  function asset() public view virtual returns (address) {... */\n    tag_72:\n        /* \"@openzeppelin/contracts/token/ERC20/extensions/ERC4626.sol\":5682:5689  address */\n      0x00\n        /* \"@openzeppelin/contracts/token/ERC20/extensions/ERC4626.sol\":5716:5722  _asset */\n      immutable(\"0xe3fb6c7a68b97a1574f1623712f47cd0a60a3212aae0a2101a56c312e7330127\")\n        /* \"@openzeppelin/contracts/token/ERC20/extensions/ERC4626.sol\":5701:5723  return address(_asset) */\n      swap1\n      pop\n        /* \"@openzeppelin/contracts/token/ERC20/extensions/ERC4626.sol\":5636:5730  function asset() public view virtual returns (address) {... */\n      swap1\n      jump\t// out\n        /* \"@openzeppelin/contracts/token/ERC20/extensions/ERC4626.sol\":6349:6457  function maxDeposit(address) public view virtual returns (uint256) {... */\n    tag_78:\n        /* \"@openzeppelin/contracts/token/ERC20/extensions/ERC4626.sol\":6407:6414  uint256 */\n      0x00\n        /* \"@openzeppelin/contracts/token/ERC20/extensions/ERC4626.sol\":6433:6450  type(uint256).max */\n      0xffffffffffffffffffffffffffffffffffffffffffffffffffffffffffffffff\n        /* \"@openzeppelin/contracts/token/ERC20/extensions/ERC4626.sol\":6426:6450  return type(uint256).max */\n      swap1\n      pop\n        /* \"@openzeppelin/contracts/token/ERC20/extensions/ERC4626.sol\":6349:6457  function maxDeposit(address) public view virtual returns (uint256) {... */\n      swap2\n      swap1\n      pop\n      jump\t// out\n        /* \"@openzeppelin/contracts/token/ERC20/extensions/ERC4626.sol\":7617:7763  function previewRedeem(uint256 shares) public view virtual returns (uint256) {... */\n    tag_82:\n        /* \"@openzeppelin/contracts/token/ERC20/extensions/ERC4626.sol\":7685:7692  uint256 */\n      0x00\n        /* \"@openzeppelin/contracts/token/ERC20/extensions/ERC4626.sol\":7711:7756  _convertToAssets(shares, Math.Rounding.Floor) */\n      tag_191\n        /* \"@openzeppelin/contracts/token/ERC20/extensions/ERC4626.sol\":7728:7734  shares */\n      dup3\n        /* \"@openzeppelin/contracts/token/ERC20/extensions/ERC4626.sol\":7736:7755  Math.Rounding.Floor */\n      0x00\n        /* \"@openzeppelin/contracts/token/ERC20/extensions/ERC4626.sol\":7711:7727  _convertToAssets */\n      tag_164\n        /* \"@openzeppelin/contracts/token/ERC20/extensions/ERC4626.sol\":7711:7756  _convertToAssets(shares, Math.Rounding.Floor) */\n      jump\t// in\n    tag_191:\n        /* \"@openzeppelin/contracts/token/ERC20/extensions/ERC4626.sol\":7704:7756  return _convertToAssets(shares, Math.Rounding.Floor) */\n      swap1\n      pop\n        /* \"@openzeppelin/contracts/token/ERC20/extensions/ERC4626.sol\":7617:7763  function previewRedeem(uint256 shares) public view virtual returns (uint256) {... */\n      swap2\n      swap1\n      pop\n      jump\t// out\n        /* \"contracts/Vault.sol\":759:1046  function deposit(uint256 assets, address receiver) public override returns (uint256) {... */\n    tag_87:\n        /* \"contracts/Vault.sol\":835:842  uint256 */\n      0x00\n        /* \"contracts/Vault.sol\":854:868  uint256 shares */\n      dup1\n        /* \"contracts/Vault.sol\":871:902  super.deposit(assets, receiver) */\n      tag_193\n        /* \"contracts/Vault.sol\":885:891  assets */\n      dup5\n        /* \"contracts/Vault.sol\":893:901  receiver */\n      dup5\n        /* \"contracts/Vault.sol\":871:884  super.deposit */\n      tag_194\n        /* \"contracts/Vault.sol\":871:902  super.deposit(assets, receiver) */\n      jump\t// in\n    tag_193:\n        /* \"contracts/Vault.sol\":854:902  uint256 shares = super.deposit(assets, receiver) */\n      swap1\n      pop\n        /* \"contracts/Vault.sol\":942:948  assets */\n      dup4\n        /* \"contracts/Vault.sol\":912:928  lockedCollateral */\n      0x05\n        /* \"contracts/Vault.sol\":912:938  lockedCollateral[receiver] */\n      0x00\n        /* \"contracts/Vault.sol\":929:937  receiver */\n      dup6\n        /* \"contracts/Vault.sol\":912:938  lockedCollateral[receiver] */\n      0xffffffffffffffffffffffffffffffffffffffff\n      and\n      0xffffffffffffffffffffffffffffffffffffffff\n      and\n      dup2\n      mstore\n      0x20\n      add\n      swap1\n      dup2\n      mstore\n      0x20\n      add\n      0x00\n      keccak256\n      0x00\n        /* \"contracts/Vault.sol\":912:948  lockedCollateral[receiver] += assets */\n      dup3\n      dup3\n      sload\n      tag_195\n      swap2\n      swap1\n      tag_196\n      jump\t// in\n    tag_195:\n      swap3\n      pop\n      pop\n      dup2\n      swap1\n      sstore\n      pop\n        /* \"contracts/Vault.sol\":999:1007  receiver */\n      dup3\n        /* \"contracts/Vault.sol\":982:1016  CollateralLocked(receiver, assets) */\n      0xffffffffffffffffffffffffffffffffffffffff\n      and\n      0x2251f6a4ed7fe619e9e8ce557d05a63dd484284f9c95c9ab334f6a7707cd0800\n        /* \"contracts/Vault.sol\":1009:1015  assets */\n      dup6\n        /* \"contracts/Vault.sol\":982:1016  CollateralLocked(receiver, assets) */\n      mload(0x40)\n      tag_197\n      swap2\n      swap1\n      tag_39\n      jump\t// in\n    tag_197:\n      mload(0x40)\n      dup1\n      swap2\n      sub\n      swap1\n      log2\n        /* \"contracts/Vault.sol\":1033:1039  shares */\n      dup1\n        /* \"contracts/Vault.sol\":1026:1039  return shares */\n      swap2\n      pop\n      pop\n        /* \"contracts/Vault.sol\":759:1046  function deposit(uint256 assets, address receiver) public override returns (uint256) {... */\n      swap3\n      swap2\n      pop\n      pop\n      jump\t// out\n        /* \"@openzeppelin/contracts/token/ERC20/ERC20.sol\":3299:3415  function balanceOf(address account) public view virtual returns (uint256) {... */\n    tag_91:\n        /* \"@openzeppelin/contracts/token/ERC20/ERC20.sol\":3364:3371  uint256 */\n      0x00\n        /* \"@openzeppelin/contracts/token/ERC20/ERC20.sol\":3390:3399  _balances */\n      dup1\n        /* \"@openzeppelin/contracts/token/ERC20/ERC20.sol\":3390:3408  _balances[account] */\n      0x00\n        /* \"@openzeppelin/contracts/token/ERC20/ERC20.sol\":3400:3407  account */\n      dup4\n        /* \"@openzeppelin/contracts/token/ERC20/ERC20.sol\":3390:3408  _balances[account] */\n      0xffffffffffffffffffffffffffffffffffffffff\n      and\n      0xffffffffffffffffffffffffffffffffffffffff\n      and\n      dup2\n      mstore\n      0x20\n      add\n      swap1\n      dup2\n      mstore\n      0x20\n      add\n      0x00\n      keccak256\n      sload\n        /* \"@openzeppelin/contracts/token/ERC20/ERC20.sol\":3383:3408  return _balances[account] */\n      swap1\n      pop\n        /* \"@openzeppelin/contracts/token/ERC20/ERC20.sol\":3299:3415  function balanceOf(address account) public view virtual returns (uint256) {... */\n      swap2\n      swap1\n      pop\n      jump\t// out\n        /* \"contracts/Vault.sol\":279:330  mapping(address => uint256) public lockedCollateral */\n    tag_95:\n      mstore(0x20, 0x05)\n      dup1\n      0x00\n      mstore\n      keccak256(0x00, 0x40)\n      0x00\n      swap2\n      pop\n      swap1\n      pop\n      sload\n      dup2\n      jump\t// out\n        /* \"@openzeppelin/contracts/token/ERC20/extensions/ERC4626.sol\":8468:8848  function mint(uint256 shares, address receiver) public virtual returns (uint256) {... */\n    tag_99:\n        /* \"@openzeppelin/contracts/token/ERC20/extensions/ERC4626.sol\":8540:8547  uint256 */\n      0x00\n        /* \"@openzeppelin/contracts/token/ERC20/extensions/ERC4626.sol\":8559:8576  uint256 maxShares */\n      dup1\n        /* \"@openzeppelin/contracts/token/ERC20/extensions/ERC4626.sol\":8579:8596  maxMint(receiver) */\n      tag_200\n        /* \"@openzeppelin/contracts/token/ERC20/extensions/ERC4626.sol\":8587:8595  receiver */\n      dup4\n        /* \"@openzeppelin/contracts/token/ERC20/extensions/ERC4626.sol\":8579:8586  maxMint */\n      tag_126\n        /* \"@openzeppelin/contracts/token/ERC20/extensions/ERC4626.sol\":8579:8596  maxMint(receiver) */\n      jump\t// in\n    tag_200:\n        /* \"@openzeppelin/contracts/token/ERC20/extensions/ERC4626.sol\":8559:8596  uint256 maxShares = maxMint(receiver) */\n      swap1\n      pop\n        /* \"@openzeppelin/contracts/token/ERC20/extensions/ERC4626.sol\":8619:8628  maxShares */\n      dup1\n        /* \"@openzeppelin/contracts/token/ERC20/extensions/ERC4626.sol\":8610:8616  shares */\n      dup5\n        /* \"@openzeppelin/contracts/token/ERC20/extensions/ERC4626.sol\":8610:8628  shares > maxShares */\n      gt\n        /* \"@openzeppelin/contracts/token/ERC20/extensions/ERC4626.sol\":8606:8713  if (shares > maxShares) {... */\n      iszero\n      tag_201\n      jumpi\n        /* \"@openzeppelin/contracts/token/ERC20/extensions/ERC4626.sol\":8674:8682  receiver */\n      dup3\n        /* \"@openzeppelin/contracts/token/ERC20/extensions/ERC4626.sol\":8684:8690  shares */\n      dup5\n        /* \"@openzeppelin/contracts/token/ERC20/extensions/ERC4626.sol\":8692:8701  maxShares */\n      dup3\n        /* \"@openzeppelin/contracts/token/ERC20/extensions/ERC4626.sol\":8651:8702  ERC4626ExceededMaxMint(receiver, shares, maxShares) */\n      mload(0x40)\n      0x284ff66700000000000000000000000000000000000000000000000000000000\n      dup2\n      mstore\n      0x04\n      add\n      tag_202\n      swap4\n      swap3\n      swap2\n      swap1\n      tag_203\n      jump\t// in\n    tag_202:\n      mload(0x40)\n      dup1\n      swap2\n      sub\n      swap1\n      revert\n        /* \"@openzeppelin/contracts/token/ERC20/extensions/ERC4626.sol\":8606:8713  if (shares > maxShares) {... */\n    tag_201:\n        /* \"@openzeppelin/contracts/token/ERC20/extensions/ERC4626.sol\":8723:8737  uint256 assets */\n      0x00\n        /* \"@openzeppelin/contracts/token/ERC20/extensions/ERC4626.sol\":8740:8759  previewMint(shares) */\n      tag_204\n        /* \"@openzeppelin/contracts/token/ERC20/extensions/ERC4626.sol\":8752:8758  shares */\n      dup6\n        /* \"@openzeppelin/contracts/token/ERC20/extensions/ERC4626.sol\":8740:8751  previewMint */\n      tag_113\n        /* \"@openzeppelin/contracts/token/ERC20/extensions/ERC4626.sol\":8740:8759  previewMint(shares) */\n      jump\t// in\n    tag_204:\n        /* \"@openzeppelin/contracts/token/ERC20/extensions/ERC4626.sol\":8723:8759  uint256 assets = previewMint(shares) */\n      swap1\n      pop\n        /* \"@openzeppelin/contracts/token/ERC20/extensions/ERC4626.sol\":8769:8817  _deposit(_msgSender(), receiver, assets, shares) */\n      tag_205\n        /* \"@openzeppelin/contracts/token/ERC20/extensions/ERC4626.sol\":8778:8790  _msgSender() */\n      tag_206\n        /* \"@openzeppelin/contracts/token/ERC20/extensions/ERC4626.sol\":8778:8788  _msgSender */\n      tag_167\n        /* \"@openzeppelin/contracts/token/ERC20/extensions/ERC4626.sol\":8778:8790  _msgSender() */\n      jump\t// in\n    tag_206:\n        /* \"@openzeppelin/contracts/token/ERC20/extensions/ERC4626.sol\":8792:8800  receiver */\n      dup6\n        /* \"@openzeppelin/contracts/token/ERC20/extensions/ERC4626.sol\":8802:8808  assets */\n      dup4\n        /* \"@openzeppelin/contracts/token/ERC20/extensions/ERC4626.sol\":8810:8816  shares */\n      dup9\n        /* \"@openzeppelin/contracts/token/ERC20/extensions/ERC4626.sol\":8769:8777  _deposit */\n      tag_207\n        /* \"@openzeppelin/contracts/token/ERC20/extensions/ERC4626.sol\":8769:8817  _deposit(_msgSender(), receiver, assets, shares) */\n      jump\t// in\n    tag_205:\n        /* \"@openzeppelin/contracts/token/ERC20/extensions/ERC4626.sol\":8835:8841  assets */\n      dup1\n        /* \"@openzeppelin/contracts/token/ERC20/extensions/ERC4626.sol\":8828:8841  return assets */\n      swap3\n      pop\n      pop\n      pop\n        /* \"@openzeppelin/contracts/token/ERC20/extensions/ERC4626.sol\":8468:8848  function mint(uint256 shares, address receiver) public virtual returns (uint256) {... */\n      swap3\n      swap2\n      pop\n      pop\n      jump\t// out\n        /* \"@openzeppelin/contracts/token/ERC20/ERC20.sol\":2276:2369  function symbol() public view virtual returns (string memory) {... */\n    tag_102:\n        /* \"@openzeppelin/contracts/token/ERC20/ERC20.sol\":2323:2336  string memory */\n      0x60\n        /* \"@openzeppelin/contracts/token/ERC20/ERC20.sol\":2355:2362  _symbol */\n      0x04\n        /* \"@openzeppelin/contracts/token/ERC20/ERC20.sol\":2348:2362  return _symbol */\n      dup1\n      sload\n      tag_209\n      swap1\n      tag_157\n      jump\t// in\n    tag_209:\n      dup1\n      0x1f\n      add\n      0x20\n      dup1\n      swap2\n      div\n      mul\n      0x20\n      add\n      mload(0x40)\n      swap1\n      dup2\n      add\n      0x40\n      mstore\n      dup1\n      swap3\n      swap2\n      swap1\n      dup2\n      dup2\n      mstore\n      0x20\n      add\n      dup3\n      dup1\n      sload\n      tag_210\n      swap1\n      tag_157\n      jump\t// in\n    tag_210:\n      dup1\n      iszero\n      tag_211\n      jumpi\n      dup1\n      0x1f\n      lt\n      tag_212\n      jumpi\n      0x0100\n      dup1\n      dup4\n      sload\n      div\n      mul\n      dup4\n      mstore\n      swap2\n      0x20\n      add\n      swap2\n      jump(tag_211)\n    tag_212:\n      dup3\n      add\n      swap2\n      swap1\n      0x00\n      mstore\n      keccak256(0x00, 0x20)\n      swap1\n    tag_213:\n      dup2\n      sload\n      dup2\n      mstore\n      swap1\n      0x01\n      add\n      swap1\n      0x20\n      add\n      dup1\n      dup4\n      gt\n      tag_213\n      jumpi\n      dup3\n      swap1\n      sub\n      0x1f\n      and\n      dup3\n      add\n      swap2\n    tag_211:\n      pop\n      pop\n      pop\n      pop\n      pop\n      swap1\n      pop\n        /* \"@openzeppelin/contracts/token/ERC20/ERC20.sol\":2276:2369  function symbol() public view virtual returns (string memory) {... */\n      swap1\n      jump\t// out\n        /* \"contracts/Vault.sol\":337:364  address public tokenAddress */\n    tag_105:\n      0x06\n      0x00\n      swap1\n      sload\n      swap1\n      0x0100\n      exp\n      swap1\n      div\n      0xffffffffffffffffffffffffffffffffffffffff\n      and\n      dup2\n      jump\t// out\n        /* \"@openzeppelin/contracts/token/ERC20/ERC20.sol\":3610:3788  function transfer(address to, uint256 value) public virtual returns (bool) {... */\n    tag_109:\n        /* \"@openzeppelin/contracts/token/ERC20/ERC20.sol\":3679:3683  bool */\n      0x00\n        /* \"@openzeppelin/contracts/token/ERC20/ERC20.sol\":3695:3708  address owner */\n      dup1\n        /* \"@openzeppelin/contracts/token/ERC20/ERC20.sol\":3711:3723  _msgSender() */\n      tag_215\n        /* \"@openzeppelin/contracts/token/ERC20/ERC20.sol\":3711:3721  _msgSender */\n      tag_167\n        /* \"@openzeppelin/contracts/token/ERC20/ERC20.sol\":3711:3723  _msgSender() */\n      jump\t// in\n    tag_215:\n        /* \"@openzeppelin/contracts/token/ERC20/ERC20.sol\":3695:3723  address owner = _msgSender() */\n      swap1\n      pop\n        /* \"@openzeppelin/contracts/token/ERC20/ERC20.sol\":3733:3760  _transfer(owner, to, value) */\n      tag_216\n        /* \"@openzeppelin/contracts/token/ERC20/ERC20.sol\":3743:3748  owner */\n      dup2\n        /* \"@openzeppelin/contracts/token/ERC20/ERC20.sol\":3750:3752  to */\n      dup6\n        /* \"@openzeppelin/contracts/token/ERC20/ERC20.sol\":3754:3759  value */\n      dup6\n        /* \"@openzeppelin/contracts/token/ERC20/ERC20.sol\":3733:3742  _transfer */\n      tag_182\n        /* \"@openzeppelin/contracts/token/ERC20/ERC20.sol\":3733:3760  _transfer(owner, to, value) */\n      jump\t// in\n    tag_216:\n        /* \"@openzeppelin/contracts/token/ERC20/ERC20.sol\":3777:3781  true */\n      0x01\n        /* \"@openzeppelin/contracts/token/ERC20/ERC20.sol\":3770:3781  return true */\n      swap2\n      pop\n      pop\n        /* \"@openzeppelin/contracts/token/ERC20/ERC20.sol\":3610:3788  function transfer(address to, uint256 value) public virtual returns (bool) {... */\n      swap3\n      swap2\n      pop\n      pop\n      jump\t// out\n        /* \"@openzeppelin/contracts/token/ERC20/extensions/ERC4626.sol\":7221:7364  function previewMint(uint256 shares) public view virtual returns (uint256) {... */\n    tag_113:\n        /* \"@openzeppelin/contracts/token/ERC20/extensions/ERC4626.sol\":7287:7294  uint256 */\n      0x00\n        /* \"@openzeppelin/contracts/token/ERC20/extensions/ERC4626.sol\":7313:7357  _convertToAssets(shares, Math.Rounding.Ceil) */\n      tag_218\n        /* \"@openzeppelin/contracts/token/ERC20/extensions/ERC4626.sol\":7330:7336  shares */\n      dup3\n        /* \"@openzeppelin/contracts/token/ERC20/extensions/ERC4626.sol\":7338:7356  Math.Rounding.Ceil */\n      0x01\n        /* \"@openzeppelin/contracts/token/ERC20/extensions/ERC4626.sol\":7313:7329  _convertToAssets */\n      tag_164\n        /* \"@openzeppelin/contracts/token/ERC20/extensions/ERC4626.sol\":7313:7357  _convertToAssets(shares, Math.Rounding.Ceil) */\n      jump\t// in\n    tag_218:\n        /* \"@openzeppelin/contracts/token/ERC20/extensions/ERC4626.sol\":7306:7357  return _convertToAssets(shares, Math.Rounding.Ceil) */\n      swap1\n      pop\n        /* \"@openzeppelin/contracts/token/ERC20/extensions/ERC4626.sol\":7221:7364  function previewMint(uint256 shares) public view virtual returns (uint256) {... */\n      swap2\n      swap1\n      pop\n      jump\t// out\n        /* \"contracts/Vault.sol\":1114:1590  function withdraw(uint256 assets, address receiver, address owner) public override returns (uint256) {... */\n    tag_118:\n        /* \"contracts/Vault.sol\":1206:1213  uint256 */\n      0x00\n        /* \"contracts/Vault.sol\":1243:1261  maxWithdraw(owner) */\n      tag_220\n        /* \"contracts/Vault.sol\":1255:1260  owner */\n      dup3\n        /* \"contracts/Vault.sol\":1243:1254  maxWithdraw */\n      tag_134\n        /* \"contracts/Vault.sol\":1243:1261  maxWithdraw(owner) */\n      jump\t// in\n    tag_220:\n        /* \"contracts/Vault.sol\":1233:1239  assets */\n      dup5\n        /* \"contracts/Vault.sol\":1233:1261  assets <= maxWithdraw(owner) */\n      gt\n      iszero\n        /* \"contracts/Vault.sol\":1225:1293  require(assets <= maxWithdraw(owner), \"Exceeds max withdraw amount\") */\n      tag_221\n      jumpi\n      mload(0x40)\n      0x08c379a000000000000000000000000000000000000000000000000000000000\n      dup2\n      mstore\n      0x04\n      add\n      tag_222\n      swap1\n      tag_223\n      jump\t// in\n    tag_222:\n      mload(0x40)\n      dup1\n      swap2\n      sub\n      swap1\n      revert\n    tag_221:\n        /* \"contracts/Vault.sol\":1321:1337  lockedCollateral */\n      0x05\n        /* \"contracts/Vault.sol\":1321:1344  lockedCollateral[owner] */\n      0x00\n        /* \"contracts/Vault.sol\":1338:1343  owner */\n      dup4\n        /* \"contracts/Vault.sol\":1321:1344  lockedCollateral[owner] */\n      0xffffffffffffffffffffffffffffffffffffffff\n      and\n      0xffffffffffffffffffffffffffffffffffffffff\n      and\n      dup2\n      mstore\n      0x20\n      add\n      swap1\n      dup2\n      mstore\n      0x20\n      add\n      0x00\n      keccak256\n      sload\n        /* \"contracts/Vault.sol\":1311:1317  assets */\n      dup5\n        /* \"contracts/Vault.sol\":1311:1344  assets <= lockedCollateral[owner] */\n      gt\n      iszero\n        /* \"contracts/Vault.sol\":1303:1382  require(assets <= lockedCollateral[owner], \"Cannot withdraw locked collateral\") */\n      tag_224\n      jumpi\n      mload(0x40)\n      0x08c379a000000000000000000000000000000000000000000000000000000000\n      dup2\n      mstore\n      0x04\n      add\n      tag_225\n      swap1\n      tag_226\n      jump\t// in\n    tag_225:\n      mload(0x40)\n      dup1\n      swap2\n      sub\n      swap1\n      revert\n    tag_224:\n        /* \"contracts/Vault.sol\":1392:1406  uint256 shares */\n      0x00\n        /* \"contracts/Vault.sol\":1409:1448  super.withdraw(assets, receiver, owner) */\n      tag_227\n        /* \"contracts/Vault.sol\":1424:1430  assets */\n      dup6\n        /* \"contracts/Vault.sol\":1432:1440  receiver */\n      dup6\n        /* \"contracts/Vault.sol\":1442:1447  owner */\n      dup6\n        /* \"contracts/Vault.sol\":1409:1423  super.withdraw */\n      tag_228\n        /* \"contracts/Vault.sol\":1409:1448  super.withdraw(assets, receiver, owner) */\n      jump\t// in\n    tag_227:\n        /* \"contracts/Vault.sol\":1392:1448  uint256 shares = super.withdraw(assets, receiver, owner) */\n      swap1\n      pop\n        /* \"contracts/Vault.sol\":1485:1491  assets */\n      dup5\n        /* \"contracts/Vault.sol\":1458:1474  lockedCollateral */\n      0x05\n        /* \"contracts/Vault.sol\":1458:1481  lockedCollateral[owner] */\n      0x00\n        /* \"contracts/Vault.sol\":1475:1480  owner */\n      dup6\n        /* \"contracts/Vault.sol\":1458:1481  lockedCollateral[owner] */\n      0xffffffffffffffffffffffffffffffffffffffff\n      and\n      0xffffffffffffffffffffffffffffffffffffffff\n      and\n      dup2\n      mstore\n      0x20\n      add\n      swap1\n      dup2\n      mstore\n      0x20\n      add\n      0x00\n      keccak256\n      0x00\n        /* \"contracts/Vault.sol\":1458:1491  lockedCollateral[owner] -= assets */\n      dup3\n      dup3\n      sload\n      tag_229\n      swap2\n      swap1\n      tag_175\n      jump\t// in\n    tag_229:\n      swap3\n      pop\n      pop\n      dup2\n      swap1\n      sstore\n      pop\n        /* \"contracts/Vault.sol\":1546:1551  owner */\n      dup3\n        /* \"contracts/Vault.sol\":1527:1560  CollateralUnlocked(owner, assets) */\n      0xffffffffffffffffffffffffffffffffffffffff\n      and\n      0xb4eaf47ecd4bc76248f192433e8067c96cb3e17aced42fbc47a512742fb74216\n        /* \"contracts/Vault.sol\":1553:1559  assets */\n      dup7\n        /* \"contracts/Vault.sol\":1527:1560  CollateralUnlocked(owner, assets) */\n      mload(0x40)\n      tag_230\n      swap2\n      swap1\n      tag_39\n      jump\t// in\n    tag_230:\n      mload(0x40)\n      dup1\n      swap2\n      sub\n      swap1\n      log2\n        /* \"contracts/Vault.sol\":1577:1583  shares */\n      dup1\n        /* \"contracts/Vault.sol\":1570:1583  return shares */\n      swap2\n      pop\n      pop\n        /* \"contracts/Vault.sol\":1114:1590  function withdraw(uint256 assets, address receiver, address owner) public override returns (uint256) {... */\n      swap4\n      swap3\n      pop\n      pop\n      pop\n      jump\t// out\n        /* \"@openzeppelin/contracts/token/ERC20/extensions/ERC4626.sol\":9353:9758  function redeem(uint256 shares, address receiver, address owner) public virtual returns (uint256) {... */\n    tag_122:\n        /* \"@openzeppelin/contracts/token/ERC20/extensions/ERC4626.sol\":9442:9449  uint256 */\n      0x00\n        /* \"@openzeppelin/contracts/token/ERC20/extensions/ERC4626.sol\":9461:9478  uint256 maxShares */\n      dup1\n        /* \"@openzeppelin/contracts/token/ERC20/extensions/ERC4626.sol\":9481:9497  maxRedeem(owner) */\n      tag_232\n        /* \"@openzeppelin/contracts/token/ERC20/extensions/ERC4626.sol\":9491:9496  owner */\n      dup4\n        /* \"@openzeppelin/contracts/token/ERC20/extensions/ERC4626.sol\":9481:9490  maxRedeem */\n      tag_138\n        /* \"@openzeppelin/contracts/token/ERC20/extensions/ERC4626.sol\":9481:9497  maxRedeem(owner) */\n      jump\t// in\n    tag_232:\n        /* \"@openzeppelin/contracts/token/ERC20/extensions/ERC4626.sol\":9461:9497  uint256 maxShares = maxRedeem(owner) */\n      swap1\n      pop\n        /* \"@openzeppelin/contracts/token/ERC20/extensions/ERC4626.sol\":9520:9529  maxShares */\n      dup1\n        /* \"@openzeppelin/contracts/token/ERC20/extensions/ERC4626.sol\":9511:9517  shares */\n      dup6\n        /* \"@openzeppelin/contracts/token/ERC20/extensions/ERC4626.sol\":9511:9529  shares > maxShares */\n      gt\n        /* \"@openzeppelin/contracts/token/ERC20/extensions/ERC4626.sol\":9507:9613  if (shares > maxShares) {... */\n      iszero\n      tag_233\n      jumpi\n        /* \"@openzeppelin/contracts/token/ERC20/extensions/ERC4626.sol\":9577:9582  owner */\n      dup3\n        /* \"@openzeppelin/contracts/token/ERC20/extensions/ERC4626.sol\":9584:9590  shares */\n      dup6\n        /* \"@openzeppelin/contracts/token/ERC20/extensions/ERC4626.sol\":9592:9601  maxShares */\n      dup3\n        /* \"@openzeppelin/contracts/token/ERC20/extensions/ERC4626.sol\":9552:9602  ERC4626ExceededMaxRedeem(owner, shares, maxShares) */\n      mload(0x40)\n      0xb94abeec00000000000000000000000000000000000000000000000000000000\n      dup2\n      mstore\n      0x04\n      add\n      tag_234\n      swap4\n      swap3\n      swap2\n      swap1\n      tag_203\n      jump\t// in\n    tag_234:\n      mload(0x40)\n      dup1\n      swap2\n      sub\n      swap1\n      revert\n        /* \"@openzeppelin/contracts/token/ERC20/extensions/ERC4626.sol\":9507:9613  if (shares > maxShares) {... */\n    tag_233:\n        /* \"@openzeppelin/contracts/token/ERC20/extensions/ERC4626.sol\":9623:9637  uint256 assets */\n      0x00\n        /* \"@openzeppelin/contracts/token/ERC20/extensions/ERC4626.sol\":9640:9661  previewRedeem(shares) */\n      tag_235\n        /* \"@openzeppelin/contracts/token/ERC20/extensions/ERC4626.sol\":9654:9660  shares */\n      dup7\n        /* \"@openzeppelin/contracts/token/ERC20/extensions/ERC4626.sol\":9640:9653  previewRedeem */\n      tag_82\n        /* \"@openzeppelin/contracts/token/ERC20/extensions/ERC4626.sol\":9640:9661  previewRedeem(shares) */\n      jump\t// in\n    tag_235:\n        /* \"@openzeppelin/contracts/token/ERC20/extensions/ERC4626.sol\":9623:9661  uint256 assets = previewRedeem(shares) */\n      swap1\n      pop\n        /* \"@openzeppelin/contracts/token/ERC20/extensions/ERC4626.sol\":9671:9727  _withdraw(_msgSender(), receiver, owner, assets, shares) */\n      tag_236\n        /* \"@openzeppelin/contracts/token/ERC20/extensions/ERC4626.sol\":9681:9693  _msgSender() */\n      tag_237\n        /* \"@openzeppelin/contracts/token/ERC20/extensions/ERC4626.sol\":9681:9691  _msgSender */\n      tag_167\n        /* \"@openzeppelin/contracts/token/ERC20/extensions/ERC4626.sol\":9681:9693  _msgSender() */\n      jump\t// in\n    tag_237:\n        /* \"@openzeppelin/contracts/token/ERC20/extensions/ERC4626.sol\":9695:9703  receiver */\n      dup7\n        /* \"@openzeppelin/contracts/token/ERC20/extensions/ERC4626.sol\":9705:9710  owner */\n      dup7\n        /* \"@openzeppelin/contracts/token/ERC20/extensions/ERC4626.sol\":9712:9718  assets */\n      dup5\n        /* \"@openzeppelin/contracts/token/ERC20/extensions/ERC4626.sol\":9720:9726  shares */\n      dup11\n        /* \"@openzeppelin/contracts/token/ERC20/extensions/ERC4626.sol\":9671:9680  _withdraw */\n      tag_238\n        /* \"@openzeppelin/contracts/token/ERC20/extensions/ERC4626.sol\":9671:9727  _withdraw(_msgSender(), receiver, owner, assets, shares) */\n      jump\t// in\n    tag_236:\n        /* \"@openzeppelin/contracts/token/ERC20/extensions/ERC4626.sol\":9745:9751  assets */\n      dup1\n        /* \"@openzeppelin/contracts/token/ERC20/extensions/ERC4626.sol\":9738:9751  return assets */\n      swap3\n      pop\n      pop\n      pop\n        /* \"@openzeppelin/contracts/token/ERC20/extensions/ERC4626.sol\":9353:9758  function redeem(uint256 shares, address receiver, address owner) public virtual returns (uint256) {... */\n      swap4\n      swap3\n      pop\n      pop\n      pop\n      jump\t// out\n        /* \"@openzeppelin/contracts/token/ERC20/extensions/ERC4626.sol\":6503:6608  function maxMint(address) public view virtual returns (uint256) {... */\n    tag_126:\n        /* \"@openzeppelin/contracts/token/ERC20/extensions/ERC4626.sol\":6558:6565  uint256 */\n      0x00\n        /* \"@openzeppelin/contracts/token/ERC20/extensions/ERC4626.sol\":6584:6601  type(uint256).max */\n      0xffffffffffffffffffffffffffffffffffffffffffffffffffffffffffffffff\n        /* \"@openzeppelin/contracts/token/ERC20/extensions/ERC4626.sol\":6577:6601  return type(uint256).max */\n      swap1\n      pop\n        /* \"@openzeppelin/contracts/token/ERC20/extensions/ERC4626.sol\":6503:6608  function maxMint(address) public view virtual returns (uint256) {... */\n      swap2\n      swap1\n      pop\n      jump\t// out\n        /* \"@openzeppelin/contracts/token/ERC20/extensions/ERC4626.sol\":5950:6098  function convertToShares(uint256 assets) public view virtual returns (uint256) {... */\n    tag_130:\n        /* \"@openzeppelin/contracts/token/ERC20/extensions/ERC4626.sol\":6020:6027  uint256 */\n      0x00\n        /* \"@openzeppelin/contracts/token/ERC20/extensions/ERC4626.sol\":6046:6091  _convertToShares(assets, Math.Rounding.Floor) */\n      tag_241\n        /* \"@openzeppelin/contracts/token/ERC20/extensions/ERC4626.sol\":6063:6069  assets */\n      dup3\n        /* \"@openzeppelin/contracts/token/ERC20/extensions/ERC4626.sol\":6071:6090  Math.Rounding.Floor */\n      0x00\n        /* \"@openzeppelin/contracts/token/ERC20/extensions/ERC4626.sol\":6046:6062  _convertToShares */\n      tag_242\n        /* \"@openzeppelin/contracts/token/ERC20/extensions/ERC4626.sol\":6046:6091  _convertToShares(assets, Math.Rounding.Floor) */\n      jump\t// in\n    tag_241:\n        /* \"@openzeppelin/contracts/token/ERC20/extensions/ERC4626.sol\":6039:6091  return _convertToShares(assets, Math.Rounding.Floor) */\n      swap1\n      pop\n        /* \"@openzeppelin/contracts/token/ERC20/extensions/ERC4626.sol\":5950:6098  function convertToShares(uint256 assets) public view virtual returns (uint256) {... */\n      swap2\n      swap1\n      pop\n      jump\t// out\n        /* \"contracts/Vault.sol\":2504:2833  function maxWithdraw(address owner) public view override returns (uint256) {... */\n    tag_134:\n        /* \"contracts/Vault.sol\":2570:2577  uint256 */\n      0x00\n        /* \"contracts/Vault.sol\":2589:2614  uint256 maxWithdrawAmount */\n      dup1\n        /* \"contracts/Vault.sol\":2617:2641  super.maxWithdraw(owner) */\n      tag_244\n        /* \"contracts/Vault.sol\":2635:2640  owner */\n      dup4\n        /* \"contracts/Vault.sol\":2617:2634  super.maxWithdraw */\n      tag_245\n        /* \"contracts/Vault.sol\":2617:2641  super.maxWithdraw(owner) */\n      jump\t// in\n    tag_244:\n        /* \"contracts/Vault.sol\":2589:2641  uint256 maxWithdrawAmount = super.maxWithdraw(owner) */\n      swap1\n      pop\n        /* \"contracts/Vault.sol\":2651:2671  uint256 lockedAssets */\n      0x00\n        /* \"contracts/Vault.sol\":2674:2690  lockedCollateral */\n      0x05\n        /* \"contracts/Vault.sol\":2674:2697  lockedCollateral[owner] */\n      0x00\n        /* \"contracts/Vault.sol\":2691:2696  owner */\n      dup6\n        /* \"contracts/Vault.sol\":2674:2697  lockedCollateral[owner] */\n      0xffffffffffffffffffffffffffffffffffffffff\n      and\n      0xffffffffffffffffffffffffffffffffffffffff\n      and\n      dup2\n      mstore\n      0x20\n      add\n      swap1\n      dup2\n      mstore\n      0x20\n      add\n      0x00\n      keccak256\n      sload\n        /* \"contracts/Vault.sol\":2651:2697  uint256 lockedAssets = lockedCollateral[owner] */\n      swap1\n      pop\n        /* \"contracts/Vault.sol\":2731:2743  lockedAssets */\n      dup1\n        /* \"contracts/Vault.sol\":2711:2728  maxWithdrawAmount */\n      dup3\n        /* \"contracts/Vault.sol\":2711:2743  maxWithdrawAmount > lockedAssets */\n      gt\n        /* \"contracts/Vault.sol\":2707:2809  if (maxWithdrawAmount > lockedAssets) {... */\n      iszero\n      tag_246\n      jumpi\n        /* \"contracts/Vault.sol\":2786:2798  lockedAssets */\n      dup1\n        /* \"contracts/Vault.sol\":2766:2783  maxWithdrawAmount */\n      dup3\n        /* \"contracts/Vault.sol\":2766:2798  maxWithdrawAmount - lockedAssets */\n      tag_247\n      swap2\n      swap1\n      tag_175\n      jump\t// in\n    tag_247:\n        /* \"contracts/Vault.sol\":2759:2798  return maxWithdrawAmount - lockedAssets */\n      swap3\n      pop\n      pop\n      pop\n      jump(tag_243)\n        /* \"contracts/Vault.sol\":2707:2809  if (maxWithdrawAmount > lockedAssets) {... */\n    tag_246:\n        /* \"contracts/Vault.sol\":2825:2826  0 */\n      0x00\n        /* \"contracts/Vault.sol\":2818:2826  return 0 */\n      swap3\n      pop\n      pop\n      pop\n        /* \"contracts/Vault.sol\":2504:2833  function maxWithdraw(address owner) public view override returns (uint256) {... */\n    tag_243:\n      swap2\n      swap1\n      pop\n      jump\t// out\n        /* \"@openzeppelin/contracts/token/ERC20/extensions/ERC4626.sol\":6859:6971  function maxRedeem(address owner) public view virtual returns (uint256) {... */\n    tag_138:\n        /* \"@openzeppelin/contracts/token/ERC20/extensions/ERC4626.sol\":6922:6929  uint256 */\n      0x00\n        /* \"@openzeppelin/contracts/token/ERC20/extensions/ERC4626.sol\":6948:6964  balanceOf(owner) */\n      tag_249\n        /* \"@openzeppelin/contracts/token/ERC20/extensions/ERC4626.sol\":6958:6963  owner */\n      dup3\n        /* \"@openzeppelin/contracts/token/ERC20/extensions/ERC4626.sol\":6948:6957  balanceOf */\n      tag_91\n        /* \"@openzeppelin/contracts/token/ERC20/extensions/ERC4626.sol\":6948:6964  balanceOf(owner) */\n      jump\t// in\n    tag_249:\n        /* \"@openzeppelin/contracts/token/ERC20/extensions/ERC4626.sol\":6941:6964  return balanceOf(owner) */\n      swap1\n      pop\n        /* \"@openzeppelin/contracts/token/ERC20/extensions/ERC4626.sol\":6859:6971  function maxRedeem(address owner) public view virtual returns (uint256) {... */\n      swap2\n      swap1\n      pop\n      jump\t// out\n        /* \"@openzeppelin/contracts/token/ERC20/ERC20.sol\":3846:3986  function allowance(address owner, address spender) public view virtual returns (uint256) {... */\n    tag_143:\n        /* \"@openzeppelin/contracts/token/ERC20/ERC20.sol\":3926:3933  uint256 */\n      0x00\n        /* \"@openzeppelin/contracts/token/ERC20/ERC20.sol\":3952:3963  _allowances */\n      0x01\n        /* \"@openzeppelin/contracts/token/ERC20/ERC20.sol\":3952:3970  _allowances[owner] */\n      0x00\n        /* \"@openzeppelin/contracts/token/ERC20/ERC20.sol\":3964:3969  owner */\n      dup5\n        /* \"@openzeppelin/contracts/token/ERC20/ERC20.sol\":3952:3970  _allowances[owner] */\n      0xffffffffffffffffffffffffffffffffffffffff\n      and\n      0xffffffffffffffffffffffffffffffffffffffff\n      and\n      dup2\n      mstore\n      0x20\n      add\n      swap1\n      dup2\n      mstore\n      0x20\n      add\n      0x00\n      keccak256\n        /* \"@openzeppelin/contracts/token/ERC20/ERC20.sol\":3952:3979  _allowances[owner][spender] */\n      0x00\n        /* \"@openzeppelin/contracts/token/ERC20/ERC20.sol\":3971:3978  spender */\n      dup4\n        /* \"@openzeppelin/contracts/token/ERC20/ERC20.sol\":3952:3979  _allowances[owner][spender] */\n      0xffffffffffffffffffffffffffffffffffffffff\n      and\n      0xffffffffffffffffffffffffffffffffffffffff\n      and\n      dup2\n      mstore\n      0x20\n      add\n      swap1\n      dup2\n      mstore\n      0x20\n      add\n      0x00\n      keccak256\n      sload\n        /* \"@openzeppelin/contracts/token/ERC20/ERC20.sol\":3945:3979  return _allowances[owner][spender] */\n      swap1\n      pop\n        /* \"@openzeppelin/contracts/token/ERC20/ERC20.sol\":3846:3986  function allowance(address owner, address spender) public view virtual returns (uint256) {... */\n      swap3\n      swap2\n      pop\n      pop\n      jump\t// out\n        /* \"@openzeppelin/contracts/token/ERC20/extensions/ERC4626.sol\":7024:7171  function previewDeposit(uint256 assets) public view virtual returns (uint256) {... */\n    tag_147:\n        /* \"@openzeppelin/contracts/token/ERC20/extensions/ERC4626.sol\":7093:7100  uint256 */\n      0x00\n        /* \"@openzeppelin/contracts/token/ERC20/extensions/ERC4626.sol\":7119:7164  _convertToShares(assets, Math.Rounding.Floor) */\n      tag_252\n        /* \"@openzeppelin/contracts/token/ERC20/extensions/ERC4626.sol\":7136:7142  assets */\n      dup3\n        /* \"@openzeppelin/contracts/token/ERC20/extensions/ERC4626.sol\":7144:7163  Math.Rounding.Floor */\n      0x00\n        /* \"@openzeppelin/contracts/token/ERC20/extensions/ERC4626.sol\":7119:7135  _convertToShares */\n      tag_242\n        /* \"@openzeppelin/contracts/token/ERC20/extensions/ERC4626.sol\":7119:7164  _convertToShares(assets, Math.Rounding.Floor) */\n      jump\t// in\n    tag_252:\n        /* \"@openzeppelin/contracts/token/ERC20/extensions/ERC4626.sol\":7112:7164  return _convertToShares(assets, Math.Rounding.Floor) */\n      swap1\n      pop\n        /* \"@openzeppelin/contracts/token/ERC20/extensions/ERC4626.sol\":7024:7171  function previewDeposit(uint256 assets) public view virtual returns (uint256) {... */\n      swap2\n      swap1\n      pop\n      jump\t// out\n        /* \"@openzeppelin/contracts/token/ERC20/extensions/ERC4626.sol\":10219:10432  function _convertToAssets(uint256 shares, Math.Rounding rounding) internal view virtual returns (uint256) {... */\n    tag_164:\n        /* \"@openzeppelin/contracts/token/ERC20/extensions/ERC4626.sol\":10316:10323  uint256 */\n      0x00\n        /* \"@openzeppelin/contracts/token/ERC20/extensions/ERC4626.sol\":10342:10425  shares.mulDiv(totalAssets() + 1, totalSupply() + 10 ** _decimalsOffset(), rounding) */\n      tag_254\n        /* \"@openzeppelin/contracts/token/ERC20/extensions/ERC4626.sol\":10372:10373  1 */\n      0x01\n        /* \"@openzeppelin/contracts/token/ERC20/extensions/ERC4626.sol\":10356:10369  totalAssets() */\n      tag_255\n        /* \"@openzeppelin/contracts/token/ERC20/extensions/ERC4626.sol\":10356:10367  totalAssets */\n      tag_37\n        /* \"@openzeppelin/contracts/token/ERC20/extensions/ERC4626.sol\":10356:10369  totalAssets() */\n      jump\t// in\n    tag_255:\n        /* \"@openzeppelin/contracts/token/ERC20/extensions/ERC4626.sol\":10356:10373  totalAssets() + 1 */\n      tag_256\n      swap2\n      swap1\n      tag_196\n      jump\t// in\n    tag_256:\n        /* \"@openzeppelin/contracts/token/ERC20/extensions/ERC4626.sol\":10397:10414  _decimalsOffset() */\n      tag_257\n        /* \"@openzeppelin/contracts/token/ERC20/extensions/ERC4626.sol\":10397:10412  _decimalsOffset */\n      tag_185\n        /* \"@openzeppelin/contracts/token/ERC20/extensions/ERC4626.sol\":10397:10414  _decimalsOffset() */\n      jump\t// in\n    tag_257:\n        /* \"@openzeppelin/contracts/token/ERC20/extensions/ERC4626.sol\":10391:10393  10 */\n      0x0a\n        /* \"@openzeppelin/contracts/token/ERC20/extensions/ERC4626.sol\":10391:10414  10 ** _decimalsOffset() */\n      tag_258\n      swap2\n      swap1\n      tag_259\n      jump\t// in\n    tag_258:\n        /* \"@openzeppelin/contracts/token/ERC20/extensions/ERC4626.sol\":10375:10388  totalSupply() */\n      tag_260\n        /* \"@openzeppelin/contracts/token/ERC20/extensions/ERC4626.sol\":10375:10386  totalSupply */\n      tag_60\n        /* \"@openzeppelin/contracts/token/ERC20/extensions/ERC4626.sol\":10375:10388  totalSupply() */\n      jump\t// in\n    tag_260:\n        /* \"@openzeppelin/contracts/token/ERC20/extensions/ERC4626.sol\":10375:10414  totalSupply() + 10 ** _decimalsOffset() */\n      tag_261\n      swap2\n      swap1\n      tag_196\n      jump\t// in\n    tag_261:\n        /* \"@openzeppelin/contracts/token/ERC20/extensions/ERC4626.sol\":10416:10424  rounding */\n      dup5\n        /* \"@openzeppelin/contracts/token/ERC20/extensions/ERC4626.sol\":10342:10348  shares */\n      dup7\n        /* \"@openzeppelin/contracts/token/ERC20/extensions/ERC4626.sol\":10342:10355  shares.mulDiv */\n      tag_262\n      swap1\n        /* \"@openzeppelin/contracts/token/ERC20/extensions/ERC4626.sol\":10342:10425  shares.mulDiv(totalAssets() + 1, totalSupply() + 10 ** _decimalsOffset(), rounding) */\n      swap4\n      swap3\n      swap2\n      swap1\n      0xffffffff\n      and\n      jump\t// in\n    tag_254:\n        /* \"@openzeppelin/contracts/token/ERC20/extensions/ERC4626.sol\":10335:10425  return shares.mulDiv(totalAssets() + 1, totalSupply() + 10 ** _decimalsOffset(), rounding) */\n      swap1\n      pop\n        /* \"@openzeppelin/contracts/token/ERC20/extensions/ERC4626.sol\":10219:10432  function _convertToAssets(uint256 shares, Math.Rounding rounding) internal view virtual returns (uint256) {... */\n      swap3\n      swap2\n      pop\n      pop\n      jump\t// out\n        /* \"@openzeppelin/contracts/utils/Context.sol\":656:752  function _msgSender() internal view virtual returns (address) {... */\n    tag_167:\n        /* \"@openzeppelin/contracts/utils/Context.sol\":709:716  address */\n      0x00\n        /* \"@openzeppelin/contracts/utils/Context.sol\":735:745  msg.sender */\n      caller\n        /* \"@openzeppelin/contracts/utils/Context.sol\":728:745  return msg.sender */\n      swap1\n      pop\n        /* \"@openzeppelin/contracts/utils/Context.sol\":656:752  function _msgSender() internal view virtual returns (address) {... */\n      swap1\n      jump\t// out\n        /* \"@openzeppelin/contracts/token/ERC20/ERC20.sol\":8989:9117  function _approve(address owner, address spender, uint256 value) internal {... */\n    tag_169:\n        /* \"@openzeppelin/contracts/token/ERC20/ERC20.sol\":9073:9110  _approve(owner, spender, value, true) */\n      tag_265\n        /* \"@openzeppelin/contracts/token/ERC20/ERC20.sol\":9082:9087  owner */\n      dup4\n        /* \"@openzeppelin/contracts/token/ERC20/ERC20.sol\":9089:9096  spender */\n      dup4\n        /* \"@openzeppelin/contracts/token/ERC20/ERC20.sol\":9098:9103  value */\n      dup4\n        /* \"@openzeppelin/contracts/token/ERC20/ERC20.sol\":9105:9109  true */\n      0x01\n        /* \"@openzeppelin/contracts/token/ERC20/ERC20.sol\":9073:9081  _approve */\n      tag_266\n        /* \"@openzeppelin/contracts/token/ERC20/ERC20.sol\":9073:9110  _approve(owner, spender, value, true) */\n      jump\t// in\n    tag_265:\n        /* \"@openzeppelin/contracts/token/ERC20/ERC20.sol\":8989:9117  function _approve(address owner, address spender, uint256 value) internal {... */\n      pop\n      pop\n      pop\n      jump\t// out\n        /* \"@openzeppelin/contracts/token/ERC20/extensions/ERC4626.sol\":7418:7565  function previewWithdraw(uint256 assets) public view virtual returns (uint256) {... */\n    tag_172:\n        /* \"@openzeppelin/contracts/token/ERC20/extensions/ERC4626.sol\":7488:7495  uint256 */\n      0x00\n        /* \"@openzeppelin/contracts/token/ERC20/extensions/ERC4626.sol\":7514:7558  _convertToShares(assets, Math.Rounding.Ceil) */\n      tag_268\n        /* \"@openzeppelin/contracts/token/ERC20/extensions/ERC4626.sol\":7531:7537  assets */\n      dup3\n        /* \"@openzeppelin/contracts/token/ERC20/extensions/ERC4626.sol\":7539:7557  Math.Rounding.Ceil */\n      0x01\n        /* \"@openzeppelin/contracts/token/ERC20/extensions/ERC4626.sol\":7514:7530  _convertToShares */\n      tag_242\n        /* \"@openzeppelin/contracts/token/ERC20/extensions/ERC4626.sol\":7514:7558  _convertToShares(assets, Math.Rounding.Ceil) */\n      jump\t// in\n    tag_268:\n        /* \"@openzeppelin/contracts/token/ERC20/extensions/ERC4626.sol\":7507:7558  return _convertToShares(assets, Math.Rounding.Ceil) */\n      swap1\n      pop\n        /* \"@openzeppelin/contracts/token/ERC20/extensions/ERC4626.sol\":7418:7565  function previewWithdraw(uint256 assets) public view virtual returns (uint256) {... */\n      swap2\n      swap1\n      pop\n      jump\t// out\n        /* \"@openzeppelin/contracts/token/ERC20/ERC20.sol\":10663:11140  function _spendAllowance(address owner, address spender, uint256 value) internal virtual {... */\n    tag_180:\n        /* \"@openzeppelin/contracts/token/ERC20/ERC20.sol\":10762:10786  uint256 currentAllowance */\n      0x00\n        /* \"@openzeppelin/contracts/token/ERC20/ERC20.sol\":10789:10814  allowance(owner, spender) */\n      tag_270\n        /* \"@openzeppelin/contracts/token/ERC20/ERC20.sol\":10799:10804  owner */\n      dup5\n        /* \"@openzeppelin/contracts/token/ERC20/ERC20.sol\":10806:10813  spender */\n      dup5\n        /* \"@openzeppelin/contracts/token/ERC20/ERC20.sol\":10789:10798  allowance */\n      tag_143\n        /* \"@openzeppelin/contracts/token/ERC20/ERC20.sol\":10789:10814  allowance(owner, spender) */\n      jump\t// in\n    tag_270:\n        /* \"@openzeppelin/contracts/token/ERC20/ERC20.sol\":10762:10814  uint256 currentAllowance = allowance(owner, spender) */\n      swap1\n      pop\n        /* \"@openzeppelin/contracts/token/ERC20/ERC20.sol\":10848:10865  type(uint256).max */\n      0xffffffffffffffffffffffffffffffffffffffffffffffffffffffffffffffff\n        /* \"@openzeppelin/contracts/token/ERC20/ERC20.sol\":10828:10844  currentAllowance */\n      dup2\n        /* \"@openzeppelin/contracts/token/ERC20/ERC20.sol\":10828:10865  currentAllowance != type(uint256).max */\n      eq\n        /* \"@openzeppelin/contracts/token/ERC20/ERC20.sol\":10824:11134  if (currentAllowance != type(uint256).max) {... */\n      tag_271\n      jumpi\n        /* \"@openzeppelin/contracts/token/ERC20/ERC20.sol\":10904:10909  value */\n      dup2\n        /* \"@openzeppelin/contracts/token/ERC20/ERC20.sol\":10885:10901  currentAllowance */\n      dup2\n        /* \"@openzeppelin/contracts/token/ERC20/ERC20.sol\":10885:10909  currentAllowance < value */\n      lt\n        /* \"@openzeppelin/contracts/token/ERC20/ERC20.sol\":10881:11011  if (currentAllowance < value) {... */\n      iszero\n      tag_272\n      jumpi\n        /* \"@openzeppelin/contracts/token/ERC20/ERC20.sol\":10963:10970  spender */\n      dup3\n        /* \"@openzeppelin/contracts/token/ERC20/ERC20.sol\":10972:10988  currentAllowance */\n      dup2\n        /* \"@openzeppelin/contracts/token/ERC20/ERC20.sol\":10990:10995  value */\n      dup4\n        /* \"@openzeppelin/contracts/token/ERC20/ERC20.sol\":10936:10996  ERC20InsufficientAllowance(spender, currentAllowance, value) */\n      mload(0x40)\n      0xfb8f41b200000000000000000000000000000000000000000000000000000000\n      dup2\n      mstore\n      0x04\n      add\n      tag_273\n      swap4\n      swap3\n      swap2\n      swap1\n      tag_203\n      jump\t// in\n    tag_273:\n      mload(0x40)\n      dup1\n      swap2\n      sub\n      swap1\n      revert\n        /* \"@openzeppelin/contracts/token/ERC20/ERC20.sol\":10881:11011  if (currentAllowance < value) {... */\n    tag_272:\n        /* \"@openzeppelin/contracts/token/ERC20/ERC20.sol\":11052:11109  _approve(owner, spender, currentAllowance - value, false) */\n      tag_274\n        /* \"@openzeppelin/contracts/token/ERC20/ERC20.sol\":11061:11066  owner */\n      dup5\n        /* \"@openzeppelin/contracts/token/ERC20/ERC20.sol\":11068:11075  spender */\n      dup5\n        /* \"@openzeppelin/contracts/token/ERC20/ERC20.sol\":11096:11101  value */\n      dup5\n        /* \"@openzeppelin/contracts/token/ERC20/ERC20.sol\":11077:11093  currentAllowance */\n      dup5\n        /* \"@openzeppelin/contracts/token/ERC20/ERC20.sol\":11077:11101  currentAllowance - value */\n      sub\n        /* \"@openzeppelin/contracts/token/ERC20/ERC20.sol\":11103:11108  false */\n      0x00\n        /* \"@openzeppelin/contracts/token/ERC20/ERC20.sol\":11052:11060  _approve */\n      tag_266\n        /* \"@openzeppelin/contracts/token/ERC20/ERC20.sol\":11052:11109  _approve(owner, spender, currentAllowance - value, false) */\n      jump\t// in\n    tag_274:\n        /* \"@openzeppelin/contracts/token/ERC20/ERC20.sol\":10824:11134  if (currentAllowance != type(uint256).max) {... */\n    tag_271:\n        /* \"@openzeppelin/contracts/token/ERC20/ERC20.sol\":10752:11140  {... */\n      pop\n        /* \"@openzeppelin/contracts/token/ERC20/ERC20.sol\":10663:11140  function _spendAllowance(address owner, address spender, uint256 value) internal virtual {... */\n      pop\n      pop\n      pop\n      jump\t// out\n        /* \"@openzeppelin/contracts/token/ERC20/ERC20.sol\":5656:5956  function _transfer(address from, address to, uint256 value) internal {... */\n    tag_182:\n        /* \"@openzeppelin/contracts/token/ERC20/ERC20.sol\":5755:5756  0 */\n      0x00\n        /* \"@openzeppelin/contracts/token/ERC20/ERC20.sol\":5739:5757  from == address(0) */\n      0xffffffffffffffffffffffffffffffffffffffff\n      and\n        /* \"@openzeppelin/contracts/token/ERC20/ERC20.sol\":5739:5743  from */\n      dup4\n        /* \"@openzeppelin/contracts/token/ERC20/ERC20.sol\":5739:5757  from == address(0) */\n      0xffffffffffffffffffffffffffffffffffffffff\n      and\n      sub\n        /* \"@openzeppelin/contracts/token/ERC20/ERC20.sol\":5735:5821  if (from == address(0)) {... */\n      tag_276\n      jumpi\n        /* \"@openzeppelin/contracts/token/ERC20/ERC20.sol\":5807:5808  0 */\n      0x00\n        /* \"@openzeppelin/contracts/token/ERC20/ERC20.sol\":5780:5810  ERC20InvalidSender(address(0)) */\n      mload(0x40)\n      0x96c6fd1e00000000000000000000000000000000000000000000000000000000\n      dup2\n      mstore\n      0x04\n      add\n      tag_277\n      swap2\n      swap1\n      tag_74\n      jump\t// in\n    tag_277:\n      mload(0x40)\n      dup1\n      swap2\n      sub\n      swap1\n      revert\n        /* \"@openzeppelin/contracts/token/ERC20/ERC20.sol\":5735:5821  if (from == address(0)) {... */\n    tag_276:\n        /* \"@openzeppelin/contracts/token/ERC20/ERC20.sol\":5848:5849  0 */\n      0x00\n        /* \"@openzeppelin/contracts/token/ERC20/ERC20.sol\":5834:5850  to == address(0) */\n      0xffffffffffffffffffffffffffffffffffffffff\n      and\n        /* \"@openzeppelin/contracts/token/ERC20/ERC20.sol\":5834:5836  to */\n      dup3\n        /* \"@openzeppelin/contracts/token/ERC20/ERC20.sol\":5834:5850  to == address(0) */\n      0xffffffffffffffffffffffffffffffffffffffff\n      and\n      sub\n        /* \"@openzeppelin/contracts/token/ERC20/ERC20.sol\":5830:5916  if (to == address(0)) {... */\n      tag_278\n      jumpi\n        /* \"@openzeppelin/contracts/token/ERC20/ERC20.sol\":5902:5903  0 */\n      0x00\n        /* \"@openzeppelin/contracts/token/ERC20/ERC20.sol\":5873:5905  ERC20InvalidReceiver(address(0)) */\n      mload(0x40)\n      0xec442f0500000000000000000000000000000000000000000000000000000000\n      dup2\n      mstore\n      0x04\n      add\n      tag_279\n      swap2\n      swap1\n      tag_74\n      jump\t// in\n    tag_279:\n      mload(0x40)\n      dup1\n      swap2\n      sub\n      swap1\n      revert\n        /* \"@openzeppelin/contracts/token/ERC20/ERC20.sol\":5830:5916  if (to == address(0)) {... */\n    tag_278:\n        /* \"@openzeppelin/contracts/token/ERC20/ERC20.sol\":5925:5949  _update(from, to, value) */\n      tag_280\n        /* \"@openzeppelin/contracts/token/ERC20/ERC20.sol\":5933:5937  from */\n      dup4\n        /* \"@openzeppelin/contracts/token/ERC20/ERC20.sol\":5939:5941  to */\n      dup4\n        /* \"@openzeppelin/contracts/token/ERC20/ERC20.sol\":5943:5948  value */\n      dup4\n        /* \"@openzeppelin/contracts/token/ERC20/ERC20.sol\":5925:5932  _update */\n      tag_281\n        /* \"@openzeppelin/contracts/token/ERC20/ERC20.sol\":5925:5949  _update(from, to, value) */\n      jump\t// in\n    tag_280:\n        /* \"@openzeppelin/contracts/token/ERC20/ERC20.sol\":5656:5956  function _transfer(address from, address to, uint256 value) internal {... */\n      pop\n      pop\n      pop\n      jump\t// out\n        /* \"@openzeppelin/contracts/token/ERC20/extensions/ERC4626.sol\":12313:12403  function _decimalsOffset() internal view virtual returns (uint8) {... */\n    tag_185:\n        /* \"@openzeppelin/contracts/token/ERC20/extensions/ERC4626.sol\":12371:12376  uint8 */\n      0x00\n        /* \"@openzeppelin/contracts/token/ERC20/extensions/ERC4626.sol\":12313:12403  function _decimalsOffset() internal view virtual returns (uint8) {... */\n      swap1\n      jump\t// out\n        /* \"@openzeppelin/contracts/token/ERC20/extensions/ERC4626.sol\":7809:8201  function deposit(uint256 assets, address receiver) public virtual returns (uint256) {... */\n    tag_194:\n        /* \"@openzeppelin/contracts/token/ERC20/extensions/ERC4626.sol\":7884:7891  uint256 */\n      0x00\n        /* \"@openzeppelin/contracts/token/ERC20/extensions/ERC4626.sol\":7903:7920  uint256 maxAssets */\n      dup1\n        /* \"@openzeppelin/contracts/token/ERC20/extensions/ERC4626.sol\":7923:7943  maxDeposit(receiver) */\n      tag_284\n        /* \"@openzeppelin/contracts/token/ERC20/extensions/ERC4626.sol\":7934:7942  receiver */\n      dup4\n        /* \"@openzeppelin/contracts/token/ERC20/extensions/ERC4626.sol\":7923:7933  maxDeposit */\n      tag_78\n        /* \"@openzeppelin/contracts/token/ERC20/extensions/ERC4626.sol\":7923:7943  maxDeposit(receiver) */\n      jump\t// in\n    tag_284:\n        /* \"@openzeppelin/contracts/token/ERC20/extensions/ERC4626.sol\":7903:7943  uint256 maxAssets = maxDeposit(receiver) */\n      swap1\n      pop\n        /* \"@openzeppelin/contracts/token/ERC20/extensions/ERC4626.sol\":7966:7975  maxAssets */\n      dup1\n        /* \"@openzeppelin/contracts/token/ERC20/extensions/ERC4626.sol\":7957:7963  assets */\n      dup5\n        /* \"@openzeppelin/contracts/token/ERC20/extensions/ERC4626.sol\":7957:7975  assets > maxAssets */\n      gt\n        /* \"@openzeppelin/contracts/token/ERC20/extensions/ERC4626.sol\":7953:8063  if (assets > maxAssets) {... */\n      iszero\n      tag_285\n      jumpi\n        /* \"@openzeppelin/contracts/token/ERC20/extensions/ERC4626.sol\":8024:8032  receiver */\n      dup3\n        /* \"@openzeppelin/contracts/token/ERC20/extensions/ERC4626.sol\":8034:8040  assets */\n      dup5\n        /* \"@openzeppelin/contracts/token/ERC20/extensions/ERC4626.sol\":8042:8051  maxAssets */\n      dup3\n        /* \"@openzeppelin/contracts/token/ERC20/extensions/ERC4626.sol\":7998:8052  ERC4626ExceededMaxDeposit(receiver, assets, maxAssets) */\n      mload(0x40)\n      0x79012fb200000000000000000000000000000000000000000000000000000000\n      dup2\n      mstore\n      0x04\n      add\n      tag_286\n      swap4\n      swap3\n      swap2\n      swap1\n      tag_203\n      jump\t// in\n    tag_286:\n      mload(0x40)\n      dup1\n      swap2\n      sub\n      swap1\n      revert\n        /* \"@openzeppelin/contracts/token/ERC20/extensions/ERC4626.sol\":7953:8063  if (assets > maxAssets) {... */\n    tag_285:\n        /* \"@openzeppelin/contracts/token/ERC20/extensions/ERC4626.sol\":8073:8087  uint256 shares */\n      0x00\n        /* \"@openzeppelin/contracts/token/ERC20/extensions/ERC4626.sol\":8090:8112  previewDeposit(assets) */\n      tag_287\n        /* \"@openzeppelin/contracts/token/ERC20/extensions/ERC4626.sol\":8105:8111  assets */\n      dup6\n        /* \"@openzeppelin/contracts/token/ERC20/extensions/ERC4626.sol\":8090:8104  previewDeposit */\n      tag_147\n        /* \"@openzeppelin/contracts/token/ERC20/extensions/ERC4626.sol\":8090:8112  previewDeposit(assets) */\n      jump\t// in\n    tag_287:\n        /* \"@openzeppelin/contracts/token/ERC20/extensions/ERC4626.sol\":8073:8112  uint256 shares = previewDeposit(assets) */\n      swap1\n      pop\n        /* \"@openzeppelin/contracts/token/ERC20/extensions/ERC4626.sol\":8122:8170  _deposit(_msgSender(), receiver, assets, shares) */\n      tag_288\n        /* \"@openzeppelin/contracts/token/ERC20/extensions/ERC4626.sol\":8131:8143  _msgSender() */\n      tag_289\n        /* \"@openzeppelin/contracts/token/ERC20/extensions/ERC4626.sol\":8131:8141  _msgSender */\n      tag_167\n        /* \"@openzeppelin/contracts/token/ERC20/extensions/ERC4626.sol\":8131:8143  _msgSender() */\n      jump\t// in\n    tag_289:\n        /* \"@openzeppelin/contracts/token/ERC20/extensions/ERC4626.sol\":8145:8153  receiver */\n      dup6\n        /* \"@openzeppelin/contracts/token/ERC20/extensions/ERC4626.sol\":8155:8161  assets */\n      dup8\n        /* \"@openzeppelin/contracts/token/ERC20/extensions/ERC4626.sol\":8163:8169  shares */\n      dup5\n        /* \"@openzeppelin/contracts/token/ERC20/extensions/ERC4626.sol\":8122:8130  _deposit */\n      tag_207\n        /* \"@openzeppelin/contracts/token/ERC20/extensions/ERC4626.sol\":8122:8170  _deposit(_msgSender(), receiver, assets, shares) */\n      jump\t// in\n    tag_288:\n        /* \"@openzeppelin/contracts/token/ERC20/extensions/ERC4626.sol\":8188:8194  shares */\n      dup1\n        /* \"@openzeppelin/contracts/token/ERC20/extensions/ERC4626.sol\":8181:8194  return shares */\n      swap3\n      pop\n      pop\n      pop\n        /* \"@openzeppelin/contracts/token/ERC20/extensions/ERC4626.sol\":7809:8201  function deposit(uint256 assets, address receiver) public virtual returns (uint256) {... */\n      swap3\n      swap2\n      pop\n      pop\n      jump\t// out\n        /* \"@openzeppelin/contracts/token/ERC20/extensions/ERC4626.sol\":10496:11326  function _deposit(address caller, address receiver, uint256 assets, uint256 shares) internal virtual {... */\n    tag_207:\n        /* \"@openzeppelin/contracts/token/ERC20/extensions/ERC4626.sol\":11164:11229  SafeERC20.safeTransferFrom(_asset, caller, address(this), assets) */\n      tag_291\n        /* \"@openzeppelin/contracts/token/ERC20/extensions/ERC4626.sol\":11191:11197  _asset */\n      immutable(\"0xe3fb6c7a68b97a1574f1623712f47cd0a60a3212aae0a2101a56c312e7330127\")\n        /* \"@openzeppelin/contracts/token/ERC20/extensions/ERC4626.sol\":11199:11205  caller */\n      dup6\n        /* \"@openzeppelin/contracts/token/ERC20/extensions/ERC4626.sol\":11215:11219  this */\n      address\n        /* \"@openzeppelin/contracts/token/ERC20/extensions/ERC4626.sol\":11222:11228  assets */\n      dup6\n        /* \"@openzeppelin/contracts/token/ERC20/extensions/ERC4626.sol\":11164:11190  SafeERC20.safeTransferFrom */\n      tag_292\n        /* \"@openzeppelin/contracts/token/ERC20/extensions/ERC4626.sol\":11164:11229  SafeERC20.safeTransferFrom(_asset, caller, address(this), assets) */\n      jump\t// in\n    tag_291:\n        /* \"@openzeppelin/contracts/token/ERC20/extensions/ERC4626.sol\":11239:11262  _mint(receiver, shares) */\n      tag_293\n        /* \"@openzeppelin/contracts/token/ERC20/extensions/ERC4626.sol\":11245:11253  receiver */\n      dup4\n        /* \"@openzeppelin/contracts/token/ERC20/extensions/ERC4626.sol\":11255:11261  shares */\n      dup3\n        /* \"@openzeppelin/contracts/token/ERC20/extensions/ERC4626.sol\":11239:11244  _mint */\n      tag_294\n        /* \"@openzeppelin/contracts/token/ERC20/extensions/ERC4626.sol\":11239:11262  _mint(receiver, shares) */\n      jump\t// in\n    tag_293:\n        /* \"@openzeppelin/contracts/token/ERC20/extensions/ERC4626.sol\":11294:11302  receiver */\n      dup3\n        /* \"@openzeppelin/contracts/token/ERC20/extensions/ERC4626.sol\":11278:11319  Deposit(caller, receiver, assets, shares) */\n      0xffffffffffffffffffffffffffffffffffffffff\n      and\n        /* \"@openzeppelin/contracts/token/ERC20/extensions/ERC4626.sol\":11286:11292  caller */\n      dup5\n        /* \"@openzeppelin/contracts/token/ERC20/extensions/ERC4626.sol\":11278:11319  Deposit(caller, receiver, assets, shares) */\n      0xffffffffffffffffffffffffffffffffffffffff\n      and\n      0xdcbc1c05240f31ff3ad067ef1ee35ce4997762752e3a095284754544f4c709d7\n        /* \"@openzeppelin/contracts/token/ERC20/extensions/ERC4626.sol\":11304:11310  assets */\n      dup5\n        /* \"@openzeppelin/contracts/token/ERC20/extensions/ERC4626.sol\":11312:11318  shares */\n      dup5\n        /* \"@openzeppelin/contracts/token/ERC20/extensions/ERC4626.sol\":11278:11319  Deposit(caller, receiver, assets, shares) */\n      mload(0x40)\n      tag_295\n      swap3\n      swap2\n      swap1\n      tag_296\n      jump\t// in\n    tag_295:\n      mload(0x40)\n      dup1\n      swap2\n      sub\n      swap1\n      log3\n        /* \"@openzeppelin/contracts/token/ERC20/extensions/ERC4626.sol\":10496:11326  function _deposit(address caller, address receiver, uint256 assets, uint256 shares) internal virtual {... */\n      pop\n      pop\n      pop\n      pop\n      jump\t// out\n        /* \"@openzeppelin/contracts/token/ERC20/extensions/ERC4626.sol\":8895:9308  function withdraw(uint256 assets, address receiver, address owner) public virtual returns (uint256) {... */\n    tag_228:\n        /* \"@openzeppelin/contracts/token/ERC20/extensions/ERC4626.sol\":8986:8993  uint256 */\n      0x00\n        /* \"@openzeppelin/contracts/token/ERC20/extensions/ERC4626.sol\":9005:9022  uint256 maxAssets */\n      dup1\n        /* \"@openzeppelin/contracts/token/ERC20/extensions/ERC4626.sol\":9025:9043  maxWithdraw(owner) */\n      tag_298\n        /* \"@openzeppelin/contracts/token/ERC20/extensions/ERC4626.sol\":9037:9042  owner */\n      dup4\n        /* \"@openzeppelin/contracts/token/ERC20/extensions/ERC4626.sol\":9025:9036  maxWithdraw */\n      tag_134\n        /* \"@openzeppelin/contracts/token/ERC20/extensions/ERC4626.sol\":9025:9043  maxWithdraw(owner) */\n      jump\t// in\n    tag_298:\n        /* \"@openzeppelin/contracts/token/ERC20/extensions/ERC4626.sol\":9005:9043  uint256 maxAssets = maxWithdraw(owner) */\n      swap1\n      pop\n        /* \"@openzeppelin/contracts/token/ERC20/extensions/ERC4626.sol\":9066:9075  maxAssets */\n      dup1\n        /* \"@openzeppelin/contracts/token/ERC20/extensions/ERC4626.sol\":9057:9063  assets */\n      dup6\n        /* \"@openzeppelin/contracts/token/ERC20/extensions/ERC4626.sol\":9057:9075  assets > maxAssets */\n      gt\n        /* \"@openzeppelin/contracts/token/ERC20/extensions/ERC4626.sol\":9053:9161  if (assets > maxAssets) {... */\n      iszero\n      tag_299\n      jumpi\n        /* \"@openzeppelin/contracts/token/ERC20/extensions/ERC4626.sol\":9125:9130  owner */\n      dup3\n        /* \"@openzeppelin/contracts/token/ERC20/extensions/ERC4626.sol\":9132:9138  assets */\n      dup6\n        /* \"@openzeppelin/contracts/token/ERC20/extensions/ERC4626.sol\":9140:9149  maxAssets */\n      dup3\n        /* \"@openzeppelin/contracts/token/ERC20/extensions/ERC4626.sol\":9098:9150  ERC4626ExceededMaxWithdraw(owner, assets, maxAssets) */\n      mload(0x40)\n      0xfe9cceec00000000000000000000000000000000000000000000000000000000\n      dup2\n      mstore\n      0x04\n      add\n      tag_300\n      swap4\n      swap3\n      swap2\n      swap1\n      tag_203\n      jump\t// in\n    tag_300:\n      mload(0x40)\n      dup1\n      swap2\n      sub\n      swap1\n      revert\n        /* \"@openzeppelin/contracts/token/ERC20/extensions/ERC4626.sol\":9053:9161  if (assets > maxAssets) {... */\n    tag_299:\n        /* \"@openzeppelin/contracts/token/ERC20/extensions/ERC4626.sol\":9171:9185  uint256 shares */\n      0x00\n        /* \"@openzeppelin/contracts/token/ERC20/extensions/ERC4626.sol\":9188:9211  previewWithdraw(assets) */\n      tag_301\n        /* \"@openzeppelin/contracts/token/ERC20/extensions/ERC4626.sol\":9204:9210  assets */\n      dup7\n        /* \"@openzeppelin/contracts/token/ERC20/extensions/ERC4626.sol\":9188:9203  previewWithdraw */\n      tag_57\n        /* \"@openzeppelin/contracts/token/ERC20/extensions/ERC4626.sol\":9188:9211  previewWithdraw(assets) */\n      jump\t// in\n    tag_301:\n        /* \"@openzeppelin/contracts/token/ERC20/extensions/ERC4626.sol\":9171:9211  uint256 shares = previewWithdraw(assets) */\n      swap1\n      pop\n        /* \"@openzeppelin/contracts/token/ERC20/extensions/ERC4626.sol\":9221:9277  _withdraw(_msgSender(), receiver, owner, assets, shares) */\n      tag_302\n        /* \"@openzeppelin/contracts/token/ERC20/extensions/ERC4626.sol\":9231:9243  _msgSender() */\n      tag_303\n        /* \"@openzeppelin/contracts/token/ERC20/extensions/ERC4626.sol\":9231:9241  _msgSender */\n      tag_167\n        /* \"@openzeppelin/contracts/token/ERC20/extensions/ERC4626.sol\":9231:9243  _msgSender() */\n      jump\t// in\n    tag_303:\n        /* \"@openzeppelin/contracts/token/ERC20/extensions/ERC4626.sol\":9245:9253  receiver */\n      dup7\n        /* \"@openzeppelin/contracts/token/ERC20/extensions/ERC4626.sol\":9255:9260  owner */\n      dup7\n        /* \"@openzeppelin/contracts/token/ERC20/extensions/ERC4626.sol\":9262:9268  assets */\n      dup10\n        /* \"@openzeppelin/contracts/token/ERC20/extensions/ERC4626.sol\":9270:9276  shares */\n      dup6\n        /* \"@openzeppelin/contracts/token/ERC20/extensions/ERC4626.sol\":9221:9230  _withdraw */\n      tag_238\n        /* \"@openzeppelin/contracts/token/ERC20/extensions/ERC4626.sol\":9221:9277  _withdraw(_msgSender(), receiver, owner, assets, shares) */\n      jump\t// in\n    tag_302:\n        /* \"@openzeppelin/contracts/token/ERC20/extensions/ERC4626.sol\":9295:9301  shares */\n      dup1\n        /* \"@openzeppelin/contracts/token/ERC20/extensions/ERC4626.sol\":9288:9301  return shares */\n      swap3\n      pop\n      pop\n      pop\n        /* \"@openzeppelin/contracts/token/ERC20/extensions/ERC4626.sol\":8895:9308  function withdraw(uint256 assets, address receiver, address owner) public virtual returns (uint256) {... */\n      swap4\n      swap3\n      pop\n      pop\n      pop\n      jump\t// out\n        /* \"@openzeppelin/contracts/token/ERC20/extensions/ERC4626.sol\":11393:12307  function _withdraw(... */\n    tag_238:\n        /* \"@openzeppelin/contracts/token/ERC20/extensions/ERC4626.sol\":11580:11585  owner */\n      dup3\n        /* \"@openzeppelin/contracts/token/ERC20/extensions/ERC4626.sol\":11570:11585  caller != owner */\n      0xffffffffffffffffffffffffffffffffffffffff\n      and\n        /* \"@openzeppelin/contracts/token/ERC20/extensions/ERC4626.sol\":11570:11576  caller */\n      dup6\n        /* \"@openzeppelin/contracts/token/ERC20/extensions/ERC4626.sol\":11570:11585  caller != owner */\n      0xffffffffffffffffffffffffffffffffffffffff\n      and\n      eq\n        /* \"@openzeppelin/contracts/token/ERC20/extensions/ERC4626.sol\":11566:11650  if (caller != owner) {... */\n      tag_305\n      jumpi\n        /* \"@openzeppelin/contracts/token/ERC20/extensions/ERC4626.sol\":11601:11639  _spendAllowance(owner, caller, shares) */\n      tag_306\n        /* \"@openzeppelin/contracts/token/ERC20/extensions/ERC4626.sol\":11617:11622  owner */\n      dup4\n        /* \"@openzeppelin/contracts/token/ERC20/extensions/ERC4626.sol\":11624:11630  caller */\n      dup7\n        /* \"@openzeppelin/contracts/token/ERC20/extensions/ERC4626.sol\":11632:11638  shares */\n      dup4\n        /* \"@openzeppelin/contracts/token/ERC20/extensions/ERC4626.sol\":11601:11616  _spendAllowance */\n      tag_180\n        /* \"@openzeppelin/contracts/token/ERC20/extensions/ERC4626.sol\":11601:11639  _spendAllowance(owner, caller, shares) */\n      jump\t// in\n    tag_306:\n        /* \"@openzeppelin/contracts/token/ERC20/extensions/ERC4626.sol\":11566:11650  if (caller != owner) {... */\n    tag_305:\n        /* \"@openzeppelin/contracts/token/ERC20/extensions/ERC4626.sol\":12157:12177  _burn(owner, shares) */\n      tag_307\n        /* \"@openzeppelin/contracts/token/ERC20/extensions/ERC4626.sol\":12163:12168  owner */\n      dup4\n        /* \"@openzeppelin/contracts/token/ERC20/extensions/ERC4626.sol\":12170:12176  shares */\n      dup3\n        /* \"@openzeppelin/contracts/token/ERC20/extensions/ERC4626.sol\":12157:12162  _burn */\n      tag_308\n        /* \"@openzeppelin/contracts/token/ERC20/extensions/ERC4626.sol\":12157:12177  _burn(owner, shares) */\n      jump\t// in\n    tag_307:\n        /* \"@openzeppelin/contracts/token/ERC20/extensions/ERC4626.sol\":12187:12235  SafeERC20.safeTransfer(_asset, receiver, assets) */\n      tag_309\n        /* \"@openzeppelin/contracts/token/ERC20/extensions/ERC4626.sol\":12210:12216  _asset */\n      immutable(\"0xe3fb6c7a68b97a1574f1623712f47cd0a60a3212aae0a2101a56c312e7330127\")\n        /* \"@openzeppelin/contracts/token/ERC20/extensions/ERC4626.sol\":12218:12226  receiver */\n      dup6\n        /* \"@openzeppelin/contracts/token/ERC20/extensions/ERC4626.sol\":12228:12234  assets */\n      dup5\n        /* \"@openzeppelin/contracts/token/ERC20/extensions/ERC4626.sol\":12187:12209  SafeERC20.safeTransfer */\n      tag_310\n        /* \"@openzeppelin/contracts/token/ERC20/extensions/ERC4626.sol\":12187:12235  SafeERC20.safeTransfer(_asset, receiver, assets) */\n      jump\t// in\n    tag_309:\n        /* \"@openzeppelin/contracts/token/ERC20/extensions/ERC4626.sol\":12278:12283  owner */\n      dup3\n        /* \"@openzeppelin/contracts/token/ERC20/extensions/ERC4626.sol\":12251:12300  Withdraw(caller, receiver, owner, assets, shares) */\n      0xffffffffffffffffffffffffffffffffffffffff\n      and\n        /* \"@openzeppelin/contracts/token/ERC20/extensions/ERC4626.sol\":12268:12276  receiver */\n      dup5\n        /* \"@openzeppelin/contracts/token/ERC20/extensions/ERC4626.sol\":12251:12300  Withdraw(caller, receiver, owner, assets, shares) */\n      0xffffffffffffffffffffffffffffffffffffffff\n      and\n        /* \"@openzeppelin/contracts/token/ERC20/extensions/ERC4626.sol\":12260:12266  caller */\n      dup7\n        /* \"@openzeppelin/contracts/token/ERC20/extensions/ERC4626.sol\":12251:12300  Withdraw(caller, receiver, owner, assets, shares) */\n      0xffffffffffffffffffffffffffffffffffffffff\n      and\n      0xfbde797d201c681b91056529119e0b02407c7bb96a4a2c75c01fc9667232c8db\n        /* \"@openzeppelin/contracts/token/ERC20/extensions/ERC4626.sol\":12285:12291  assets */\n      dup6\n        /* \"@openzeppelin/contracts/token/ERC20/extensions/ERC4626.sol\":12293:12299  shares */\n      dup6\n        /* \"@openzeppelin/contracts/token/ERC20/extensions/ERC4626.sol\":12251:12300  Withdraw(caller, receiver, owner, assets, shares) */\n      mload(0x40)\n      tag_311\n      swap3\n      swap2\n      swap1\n      tag_296\n      jump\t// in\n    tag_311:\n      mload(0x40)\n      dup1\n      swap2\n      sub\n      swap1\n      log4\n        /* \"@openzeppelin/contracts/token/ERC20/extensions/ERC4626.sol\":11393:12307  function _withdraw(... */\n      pop\n      pop\n      pop\n      pop\n      pop\n      jump\t// out\n        /* \"@openzeppelin/contracts/token/ERC20/extensions/ERC4626.sol\":9882:10095  function _convertToShares(uint256 assets, Math.Rounding rounding) internal view virtual returns (uint256) {... */\n    tag_242:\n        /* \"@openzeppelin/contracts/token/ERC20/extensions/ERC4626.sol\":9979:9986  uint256 */\n      0x00\n        /* \"@openzeppelin/contracts/token/ERC20/extensions/ERC4626.sol\":10005:10088  assets.mulDiv(totalSupply() + 10 ** _decimalsOffset(), totalAssets() + 1, rounding) */\n      tag_313\n        /* \"@openzeppelin/contracts/token/ERC20/extensions/ERC4626.sol\":10041:10058  _decimalsOffset() */\n      tag_314\n        /* \"@openzeppelin/contracts/token/ERC20/extensions/ERC4626.sol\":10041:10056  _decimalsOffset */\n      tag_185\n        /* \"@openzeppelin/contracts/token/ERC20/extensions/ERC4626.sol\":10041:10058  _decimalsOffset() */\n      jump\t// in\n    tag_314:\n        /* \"@openzeppelin/contracts/token/ERC20/extensions/ERC4626.sol\":10035:10037  10 */\n      0x0a\n        /* \"@openzeppelin/contracts/token/ERC20/extensions/ERC4626.sol\":10035:10058  10 ** _decimalsOffset() */\n      tag_315\n      swap2\n      swap1\n      tag_259\n      jump\t// in\n    tag_315:\n        /* \"@openzeppelin/contracts/token/ERC20/extensions/ERC4626.sol\":10019:10032  totalSupply() */\n      tag_316\n        /* \"@openzeppelin/contracts/token/ERC20/extensions/ERC4626.sol\":10019:10030  totalSupply */\n      tag_60\n        /* \"@openzeppelin/contracts/token/ERC20/extensions/ERC4626.sol\":10019:10032  totalSupply() */\n      jump\t// in\n    tag_316:\n        /* \"@openzeppelin/contracts/token/ERC20/extensions/ERC4626.sol\":10019:10058  totalSupply() + 10 ** _decimalsOffset() */\n      tag_317\n      swap2\n      swap1\n      tag_196\n      jump\t// in\n    tag_317:\n        /* \"@openzeppelin/contracts/token/ERC20/extensions/ERC4626.sol\":10076:10077  1 */\n      0x01\n        /* \"@openzeppelin/contracts/token/ERC20/extensions/ERC4626.sol\":10060:10073  totalAssets() */\n      tag_318\n        /* \"@openzeppelin/contracts/token/ERC20/extensions/ERC4626.sol\":10060:10071  totalAssets */\n      tag_37\n        /* \"@openzeppelin/contracts/token/ERC20/extensions/ERC4626.sol\":10060:10073  totalAssets() */\n      jump\t// in\n    tag_318:\n        /* \"@openzeppelin/contracts/token/ERC20/extensions/ERC4626.sol\":10060:10077  totalAssets() + 1 */\n      tag_319\n      swap2\n      swap1\n      tag_196\n      jump\t// in\n    tag_319:\n        /* \"@openzeppelin/contracts/token/ERC20/extensions/ERC4626.sol\":10079:10087  rounding */\n      dup5\n        /* \"@openzeppelin/contracts/token/ERC20/extensions/ERC4626.sol\":10005:10011  assets */\n      dup7\n        /* \"@openzeppelin/contracts/token/ERC20/extensions/ERC4626.sol\":10005:10018  assets.mulDiv */\n      tag_262\n      swap1\n        /* \"@openzeppelin/contracts/token/ERC20/extensions/ERC4626.sol\":10005:10088  assets.mulDiv(totalSupply() + 10 ** _decimalsOffset(), totalAssets() + 1, rounding) */\n      swap4\n      swap3\n      swap2\n      swap1\n      0xffffffff\n      and\n      jump\t// in\n    tag_313:\n        /* \"@openzeppelin/contracts/token/ERC20/extensions/ERC4626.sol\":9998:10088  return assets.mulDiv(totalSupply() + 10 ** _decimalsOffset(), totalAssets() + 1, rounding) */\n      swap1\n      pop\n        /* \"@openzeppelin/contracts/token/ERC20/extensions/ERC4626.sol\":9882:10095  function _convertToShares(uint256 assets, Math.Rounding rounding) internal view virtual returns (uint256) {... */\n      swap3\n      swap2\n      pop\n      pop\n      jump\t// out\n        /* \"@openzeppelin/contracts/token/ERC20/extensions/ERC4626.sol\":6658:6811  function maxWithdraw(address owner) public view virtual returns (uint256) {... */\n    tag_245:\n        /* \"@openzeppelin/contracts/token/ERC20/extensions/ERC4626.sol\":6723:6730  uint256 */\n      0x00\n        /* \"@openzeppelin/contracts/token/ERC20/extensions/ERC4626.sol\":6749:6804  _convertToAssets(balanceOf(owner), Math.Rounding.Floor) */\n      tag_321\n        /* \"@openzeppelin/contracts/token/ERC20/extensions/ERC4626.sol\":6766:6782  balanceOf(owner) */\n      tag_322\n        /* \"@openzeppelin/contracts/token/ERC20/extensions/ERC4626.sol\":6776:6781  owner */\n      dup4\n        /* \"@openzeppelin/contracts/token/ERC20/extensions/ERC4626.sol\":6766:6775  balanceOf */\n      tag_91\n        /* \"@openzeppelin/contracts/token/ERC20/extensions/ERC4626.sol\":6766:6782  balanceOf(owner) */\n      jump\t// in\n    tag_322:\n        /* \"@openzeppelin/contracts/token/ERC20/extensions/ERC4626.sol\":6784:6803  Math.Rounding.Floor */\n      0x00\n        /* \"@openzeppelin/contracts/token/ERC20/extensions/ERC4626.sol\":6749:6765  _convertToAssets */\n      tag_164\n        /* \"@openzeppelin/contracts/token/ERC20/extensions/ERC4626.sol\":6749:6804  _convertToAssets(balanceOf(owner), Math.Rounding.Floor) */\n      jump\t// in\n    tag_321:\n        /* \"@openzeppelin/contracts/token/ERC20/extensions/ERC4626.sol\":6742:6804  return _convertToAssets(balanceOf(owner), Math.Rounding.Floor) */\n      swap1\n      pop\n        /* \"@openzeppelin/contracts/token/ERC20/extensions/ERC4626.sol\":6658:6811  function maxWithdraw(address owner) public view virtual returns (uint256) {... */\n      swap2\n      swap1\n      pop\n      jump\t// out\n        /* \"@openzeppelin/contracts/utils/math/Math.sol\":8051:8353  function mulDiv(uint256 x, uint256 y, uint256 denominator, Rounding rounding) internal pure returns (uint256) {... */\n    tag_262:\n        /* \"@openzeppelin/contracts/utils/math/Math.sol\":8152:8159  uint256 */\n      0x00\n        /* \"@openzeppelin/contracts/utils/math/Math.sol\":8171:8185  uint256 result */\n      dup1\n        /* \"@openzeppelin/contracts/utils/math/Math.sol\":8188:8213  mulDiv(x, y, denominator) */\n      tag_324\n        /* \"@openzeppelin/contracts/utils/math/Math.sol\":8195:8196  x */\n      dup7\n        /* \"@openzeppelin/contracts/utils/math/Math.sol\":8198:8199  y */\n      dup7\n        /* \"@openzeppelin/contracts/utils/math/Math.sol\":8201:8212  denominator */\n      dup7\n        /* \"@openzeppelin/contracts/utils/math/Math.sol\":8188:8194  mulDiv */\n      tag_325\n        /* \"@openzeppelin/contracts/utils/math/Math.sol\":8188:8213  mulDiv(x, y, denominator) */\n      jump\t// in\n    tag_324:\n        /* \"@openzeppelin/contracts/utils/math/Math.sol\":8171:8213  uint256 result = mulDiv(x, y, denominator) */\n      swap1\n      pop\n        /* \"@openzeppelin/contracts/utils/math/Math.sol\":8227:8253  unsignedRoundsUp(rounding) */\n      tag_326\n        /* \"@openzeppelin/contracts/utils/math/Math.sol\":8244:8252  rounding */\n      dup4\n        /* \"@openzeppelin/contracts/utils/math/Math.sol\":8227:8243  unsignedRoundsUp */\n      tag_327\n        /* \"@openzeppelin/contracts/utils/math/Math.sol\":8227:8253  unsignedRoundsUp(rounding) */\n      jump\t// in\n    tag_326:\n        /* \"@openzeppelin/contracts/utils/math/Math.sol\":8227:8286  unsignedRoundsUp(rounding) && mulmod(x, y, denominator) > 0 */\n      dup1\n      iszero\n      tag_328\n      jumpi\n      pop\n        /* \"@openzeppelin/contracts/utils/math/Math.sol\":8285:8286  0 */\n      0x00\n        /* \"@openzeppelin/contracts/utils/math/Math.sol\":8270:8281  denominator */\n      dup5\n        /* \"@openzeppelin/contracts/utils/math/Math.sol\":8257:8282  mulmod(x, y, denominator) */\n      dup1\n      tag_329\n      jumpi\n      tag_330\n      tag_331\n      jump\t// in\n    tag_330:\n    tag_329:\n        /* \"@openzeppelin/contracts/utils/math/Math.sol\":8267:8268  y */\n      dup7\n        /* \"@openzeppelin/contracts/utils/math/Math.sol\":8264:8265  x */\n      dup9\n        /* \"@openzeppelin/contracts/utils/math/Math.sol\":8257:8282  mulmod(x, y, denominator) */\n      mulmod\n        /* \"@openzeppelin/contracts/utils/math/Math.sol\":8257:8286  mulmod(x, y, denominator) > 0 */\n      gt\n        /* \"@openzeppelin/contracts/utils/math/Math.sol\":8227:8286  unsignedRoundsUp(rounding) && mulmod(x, y, denominator) > 0 */\n    tag_328:\n        /* \"@openzeppelin/contracts/utils/math/Math.sol\":8223:8324  if (unsignedRoundsUp(rounding) && mulmod(x, y, denominator) > 0) {... */\n      iszero\n      tag_332\n      jumpi\n        /* \"@openzeppelin/contracts/utils/math/Math.sol\":8312:8313  1 */\n      0x01\n        /* \"@openzeppelin/contracts/utils/math/Math.sol\":8302:8313  result += 1 */\n      dup2\n      tag_333\n      swap2\n      swap1\n      tag_196\n      jump\t// in\n    tag_333:\n      swap1\n      pop\n        /* \"@openzeppelin/contracts/utils/math/Math.sol\":8223:8324  if (unsignedRoundsUp(rounding) && mulmod(x, y, denominator) > 0) {... */\n    tag_332:\n        /* \"@openzeppelin/contracts/utils/math/Math.sol\":8340:8346  result */\n      dup1\n        /* \"@openzeppelin/contracts/utils/math/Math.sol\":8333:8346  return result */\n      swap2\n      pop\n      pop\n        /* \"@openzeppelin/contracts/utils/math/Math.sol\":8051:8353  function mulDiv(uint256 x, uint256 y, uint256 denominator, Rounding rounding) internal pure returns (uint256) {... */\n      swap5\n      swap4\n      pop\n      pop\n      pop\n      pop\n      jump\t// out\n        /* \"@openzeppelin/contracts/token/ERC20/ERC20.sol\":9949:10381  function _approve(address owner, address spender, uint256 value, bool emitEvent) internal virtual {... */\n    tag_266:\n        /* \"@openzeppelin/contracts/token/ERC20/ERC20.sol\":10078:10079  0 */\n      0x00\n        /* \"@openzeppelin/contracts/token/ERC20/ERC20.sol\":10061:10080  owner == address(0) */\n      0xffffffffffffffffffffffffffffffffffffffff\n      and\n        /* \"@openzeppelin/contracts/token/ERC20/ERC20.sol\":10061:10066  owner */\n      dup5\n        /* \"@openzeppelin/contracts/token/ERC20/ERC20.sol\":10061:10080  owner == address(0) */\n      0xffffffffffffffffffffffffffffffffffffffff\n      and\n      sub\n        /* \"@openzeppelin/contracts/token/ERC20/ERC20.sol\":10057:10146  if (owner == address(0)) {... */\n      tag_335\n      jumpi\n        /* \"@openzeppelin/contracts/token/ERC20/ERC20.sol\":10132:10133  0 */\n      0x00\n        /* \"@openzeppelin/contracts/token/ERC20/ERC20.sol\":10103:10135  ERC20InvalidApprover(address(0)) */\n      mload(0x40)\n      0xe602df0500000000000000000000000000000000000000000000000000000000\n      dup2\n      mstore\n      0x04\n      add\n      tag_336\n      swap2\n      swap1\n      tag_74\n      jump\t// in\n    tag_336:\n      mload(0x40)\n      dup1\n      swap2\n      sub\n      swap1\n      revert\n        /* \"@openzeppelin/contracts/token/ERC20/ERC20.sol\":10057:10146  if (owner == address(0)) {... */\n    tag_335:\n        /* \"@openzeppelin/contracts/token/ERC20/ERC20.sol\":10178:10179  0 */\n      0x00\n        /* \"@openzeppelin/contracts/token/ERC20/ERC20.sol\":10159:10180  spender == address(0) */\n      0xffffffffffffffffffffffffffffffffffffffff\n      and\n        /* \"@openzeppelin/contracts/token/ERC20/ERC20.sol\":10159:10166  spender */\n      dup4\n        /* \"@openzeppelin/contracts/token/ERC20/ERC20.sol\":10159:10180  spender == address(0) */\n      0xffffffffffffffffffffffffffffffffffffffff\n      and\n      sub\n        /* \"@openzeppelin/contracts/token/ERC20/ERC20.sol\":10155:10245  if (spender == address(0)) {... */\n      tag_337\n      jumpi\n        /* \"@openzeppelin/contracts/token/ERC20/ERC20.sol\":10231:10232  0 */\n      0x00\n        /* \"@openzeppelin/contracts/token/ERC20/ERC20.sol\":10203:10234  ERC20InvalidSpender(address(0)) */\n      mload(0x40)\n      0x94280d6200000000000000000000000000000000000000000000000000000000\n      dup2\n      mstore\n      0x04\n      add\n      tag_338\n      swap2\n      swap1\n      tag_74\n      jump\t// in\n    tag_338:\n      mload(0x40)\n      dup1\n      swap2\n      sub\n      swap1\n      revert\n        /* \"@openzeppelin/contracts/token/ERC20/ERC20.sol\":10155:10245  if (spender == address(0)) {... */\n    tag_337:\n        /* \"@openzeppelin/contracts/token/ERC20/ERC20.sol\":10284:10289  value */\n      dup2\n        /* \"@openzeppelin/contracts/token/ERC20/ERC20.sol\":10254:10265  _allowances */\n      0x01\n        /* \"@openzeppelin/contracts/token/ERC20/ERC20.sol\":10254:10272  _allowances[owner] */\n      0x00\n        /* \"@openzeppelin/contracts/token/ERC20/ERC20.sol\":10266:10271  owner */\n      dup7\n        /* \"@openzeppelin/contracts/token/ERC20/ERC20.sol\":10254:10272  _allowances[owner] */\n      0xffffffffffffffffffffffffffffffffffffffff\n      and\n      0xffffffffffffffffffffffffffffffffffffffff\n      and\n      dup2\n      mstore\n      0x20\n      add\n      swap1\n      dup2\n      mstore\n      0x20\n      add\n      0x00\n      keccak256\n        /* \"@openzeppelin/contracts/token/ERC20/ERC20.sol\":10254:10281  _allowances[owner][spender] */\n      0x00\n        /* \"@openzeppelin/contracts/token/ERC20/ERC20.sol\":10273:10280  spender */\n      dup6\n        /* \"@openzeppelin/contracts/token/ERC20/ERC20.sol\":10254:10281  _allowances[owner][spender] */\n      0xffffffffffffffffffffffffffffffffffffffff\n      and\n      0xffffffffffffffffffffffffffffffffffffffff\n      and\n      dup2\n      mstore\n      0x20\n      add\n      swap1\n      dup2\n      mstore\n      0x20\n      add\n      0x00\n      keccak256\n        /* \"@openzeppelin/contracts/token/ERC20/ERC20.sol\":10254:10289  _allowances[owner][spender] = value */\n      dup2\n      swap1\n      sstore\n      pop\n        /* \"@openzeppelin/contracts/token/ERC20/ERC20.sol\":10303:10312  emitEvent */\n      dup1\n        /* \"@openzeppelin/contracts/token/ERC20/ERC20.sol\":10299:10375  if (emitEvent) {... */\n      iszero\n      tag_339\n      jumpi\n        /* \"@openzeppelin/contracts/token/ERC20/ERC20.sol\":10349:10356  spender */\n      dup3\n        /* \"@openzeppelin/contracts/token/ERC20/ERC20.sol\":10333:10364  Approval(owner, spender, value) */\n      0xffffffffffffffffffffffffffffffffffffffff\n      and\n        /* \"@openzeppelin/contracts/token/ERC20/ERC20.sol\":10342:10347  owner */\n      dup5\n        /* \"@openzeppelin/contracts/token/ERC20/ERC20.sol\":10333:10364  Approval(owner, spender, value) */\n      0xffffffffffffffffffffffffffffffffffffffff\n      and\n      0x8c5be1e5ebec7d5bd14f71427d1e84f3dd0314c0f7b2291e5b200ac8c7c3b925\n        /* \"@openzeppelin/contracts/token/ERC20/ERC20.sol\":10358:10363  value */\n      dup5\n        /* \"@openzeppelin/contracts/token/ERC20/ERC20.sol\":10333:10364  Approval(owner, spender, value) */\n      mload(0x40)\n      tag_340\n      swap2\n      swap1\n      tag_39\n      jump\t// in\n    tag_340:\n      mload(0x40)\n      dup1\n      swap2\n      sub\n      swap1\n      log3\n        /* \"@openzeppelin/contracts/token/ERC20/ERC20.sol\":10299:10375  if (emitEvent) {... */\n    tag_339:\n        /* \"@openzeppelin/contracts/token/ERC20/ERC20.sol\":9949:10381  function _approve(address owner, address spender, uint256 value, bool emitEvent) internal virtual {... */\n      pop\n      pop\n      pop\n      pop\n      jump\t// out\n        /* \"@openzeppelin/contracts/token/ERC20/ERC20.sol\":6271:7378  function _update(address from, address to, uint256 value) internal virtual {... */\n    tag_281:\n        /* \"@openzeppelin/contracts/token/ERC20/ERC20.sol\":6376:6377  0 */\n      0x00\n        /* \"@openzeppelin/contracts/token/ERC20/ERC20.sol\":6360:6378  from == address(0) */\n      0xffffffffffffffffffffffffffffffffffffffff\n      and\n        /* \"@openzeppelin/contracts/token/ERC20/ERC20.sol\":6360:6364  from */\n      dup4\n        /* \"@openzeppelin/contracts/token/ERC20/ERC20.sol\":6360:6378  from == address(0) */\n      0xffffffffffffffffffffffffffffffffffffffff\n      and\n      sub\n        /* \"@openzeppelin/contracts/token/ERC20/ERC20.sol\":6356:6896  if (from == address(0)) {... */\n      tag_342\n      jumpi\n        /* \"@openzeppelin/contracts/token/ERC20/ERC20.sol\":6512:6517  value */\n      dup1\n        /* \"@openzeppelin/contracts/token/ERC20/ERC20.sol\":6496:6508  _totalSupply */\n      0x02\n      0x00\n        /* \"@openzeppelin/contracts/token/ERC20/ERC20.sol\":6496:6517  _totalSupply += value */\n      dup3\n      dup3\n      sload\n      tag_343\n      swap2\n      swap1\n      tag_196\n      jump\t// in\n    tag_343:\n      swap3\n      pop\n      pop\n      dup2\n      swap1\n      sstore\n      pop\n        /* \"@openzeppelin/contracts/token/ERC20/ERC20.sol\":6356:6896  if (from == address(0)) {... */\n      jump(tag_344)\n    tag_342:\n        /* \"@openzeppelin/contracts/token/ERC20/ERC20.sol\":6548:6567  uint256 fromBalance */\n      0x00\n        /* \"@openzeppelin/contracts/token/ERC20/ERC20.sol\":6570:6579  _balances */\n      dup1\n        /* \"@openzeppelin/contracts/token/ERC20/ERC20.sol\":6570:6585  _balances[from] */\n      0x00\n        /* \"@openzeppelin/contracts/token/ERC20/ERC20.sol\":6580:6584  from */\n      dup6\n        /* \"@openzeppelin/contracts/token/ERC20/ERC20.sol\":6570:6585  _balances[from] */\n      0xffffffffffffffffffffffffffffffffffffffff\n      and\n      0xffffffffffffffffffffffffffffffffffffffff\n      and\n      dup2\n      mstore\n      0x20\n      add\n      swap1\n      dup2\n      mstore\n      0x20\n      add\n      0x00\n      keccak256\n      sload\n        /* \"@openzeppelin/contracts/token/ERC20/ERC20.sol\":6548:6585  uint256 fromBalance = _balances[from] */\n      swap1\n      pop\n        /* \"@openzeppelin/contracts/token/ERC20/ERC20.sol\":6617:6622  value */\n      dup2\n        /* \"@openzeppelin/contracts/token/ERC20/ERC20.sol\":6603:6614  fromBalance */\n      dup2\n        /* \"@openzeppelin/contracts/token/ERC20/ERC20.sol\":6603:6622  fromBalance < value */\n      lt\n        /* \"@openzeppelin/contracts/token/ERC20/ERC20.sol\":6599:6714  if (fromBalance < value) {... */\n      iszero\n      tag_345\n      jumpi\n        /* \"@openzeppelin/contracts/token/ERC20/ERC20.sol\":6674:6678  from */\n      dup4\n        /* \"@openzeppelin/contracts/token/ERC20/ERC20.sol\":6680:6691  fromBalance */\n      dup2\n        /* \"@openzeppelin/contracts/token/ERC20/ERC20.sol\":6693:6698  value */\n      dup4\n        /* \"@openzeppelin/contracts/token/ERC20/ERC20.sol\":6649:6699  ERC20InsufficientBalance(from, fromBalance, value) */\n      mload(0x40)\n      0xe450d38c00000000000000000000000000000000000000000000000000000000\n      dup2\n      mstore\n      0x04\n      add\n      tag_346\n      swap4\n      swap3\n      swap2\n      swap1\n      tag_203\n      jump\t// in\n    tag_346:\n      mload(0x40)\n      dup1\n      swap2\n      sub\n      swap1\n      revert\n        /* \"@openzeppelin/contracts/token/ERC20/ERC20.sol\":6599:6714  if (fromBalance < value) {... */\n    tag_345:\n        /* \"@openzeppelin/contracts/token/ERC20/ERC20.sol\":6866:6871  value */\n      dup2\n        /* \"@openzeppelin/contracts/token/ERC20/ERC20.sol\":6852:6863  fromBalance */\n      dup2\n        /* \"@openzeppelin/contracts/token/ERC20/ERC20.sol\":6852:6871  fromBalance - value */\n      sub\n        /* \"@openzeppelin/contracts/token/ERC20/ERC20.sol\":6834:6843  _balances */\n      0x00\n        /* \"@openzeppelin/contracts/token/ERC20/ERC20.sol\":6834:6849  _balances[from] */\n      dup1\n        /* \"@openzeppelin/contracts/token/ERC20/ERC20.sol\":6844:6848  from */\n      dup7\n        /* \"@openzeppelin/contracts/token/ERC20/ERC20.sol\":6834:6849  _balances[from] */\n      0xffffffffffffffffffffffffffffffffffffffff\n      and\n      0xffffffffffffffffffffffffffffffffffffffff\n      and\n      dup2\n      mstore\n      0x20\n      add\n      swap1\n      dup2\n      mstore\n      0x20\n      add\n      0x00\n      keccak256\n        /* \"@openzeppelin/contracts/token/ERC20/ERC20.sol\":6834:6871  _balances[from] = fromBalance - value */\n      dup2\n      swap1\n      sstore\n      pop\n        /* \"@openzeppelin/contracts/token/ERC20/ERC20.sol\":6534:6896  {... */\n      pop\n        /* \"@openzeppelin/contracts/token/ERC20/ERC20.sol\":6356:6896  if (from == address(0)) {... */\n    tag_344:\n        /* \"@openzeppelin/contracts/token/ERC20/ERC20.sol\":6924:6925  0 */\n      0x00\n        /* \"@openzeppelin/contracts/token/ERC20/ERC20.sol\":6910:6926  to == address(0) */\n      0xffffffffffffffffffffffffffffffffffffffff\n      and\n        /* \"@openzeppelin/contracts/token/ERC20/ERC20.sol\":6910:6912  to */\n      dup3\n        /* \"@openzeppelin/contracts/token/ERC20/ERC20.sol\":6910:6926  to == address(0) */\n      0xffffffffffffffffffffffffffffffffffffffff\n      and\n      sub\n        /* \"@openzeppelin/contracts/token/ERC20/ERC20.sol\":6906:7331  if (to == address(0)) {... */\n      tag_347\n      jumpi\n        /* \"@openzeppelin/contracts/token/ERC20/ERC20.sol\":7089:7094  value */\n      dup1\n        /* \"@openzeppelin/contracts/token/ERC20/ERC20.sol\":7073:7085  _totalSupply */\n      0x02\n      0x00\n        /* \"@openzeppelin/contracts/token/ERC20/ERC20.sol\":7073:7094  _totalSupply -= value */\n      dup3\n      dup3\n      sload\n      sub\n      swap3\n      pop\n      pop\n      dup2\n      swap1\n      sstore\n      pop\n        /* \"@openzeppelin/contracts/token/ERC20/ERC20.sol\":6906:7331  if (to == address(0)) {... */\n      jump(tag_348)\n    tag_347:\n        /* \"@openzeppelin/contracts/token/ERC20/ERC20.sol\":7301:7306  value */\n      dup1\n        /* \"@openzeppelin/contracts/token/ERC20/ERC20.sol\":7284:7293  _balances */\n      0x00\n        /* \"@openzeppelin/contracts/token/ERC20/ERC20.sol\":7284:7297  _balances[to] */\n      dup1\n        /* \"@openzeppelin/contracts/token/ERC20/ERC20.sol\":7294:7296  to */\n      dup5\n        /* \"@openzeppelin/contracts/token/ERC20/ERC20.sol\":7284:7297  _balances[to] */\n      0xffffffffffffffffffffffffffffffffffffffff\n      and\n      0xffffffffffffffffffffffffffffffffffffffff\n      and\n      dup2\n      mstore\n      0x20\n      add\n      swap1\n      dup2\n      mstore\n      0x20\n      add\n      0x00\n      keccak256\n      0x00\n        /* \"@openzeppelin/contracts/token/ERC20/ERC20.sol\":7284:7306  _balances[to] += value */\n      dup3\n      dup3\n      sload\n      add\n      swap3\n      pop\n      pop\n      dup2\n      swap1\n      sstore\n      pop\n        /* \"@openzeppelin/contracts/token/ERC20/ERC20.sol\":6906:7331  if (to == address(0)) {... */\n    tag_348:\n        /* \"@openzeppelin/contracts/token/ERC20/ERC20.sol\":7361:7363  to */\n      dup2\n        /* \"@openzeppelin/contracts/token/ERC20/ERC20.sol\":7346:7371  Transfer(from, to, value) */\n      0xffffffffffffffffffffffffffffffffffffffff\n      and\n        /* \"@openzeppelin/contracts/token/ERC20/ERC20.sol\":7355:7359  from */\n      dup4\n        /* \"@openzeppelin/contracts/token/ERC20/ERC20.sol\":7346:7371  Transfer(from, to, value) */\n      0xffffffffffffffffffffffffffffffffffffffff\n      and\n      0xddf252ad1be2c89b69c2b068fc378daa952ba7f163c4a11628f55a4df523b3ef\n        /* \"@openzeppelin/contracts/token/ERC20/ERC20.sol\":7365:7370  value */\n      dup4\n        /* \"@openzeppelin/contracts/token/ERC20/ERC20.sol\":7346:7371  Transfer(from, to, value) */\n      mload(0x40)\n      tag_349\n      swap2\n      swap1\n      tag_39\n      jump\t// in\n    tag_349:\n      mload(0x40)\n      dup1\n      swap2\n      sub\n      swap1\n      log3\n        /* \"@openzeppelin/contracts/token/ERC20/ERC20.sol\":6271:7378  function _update(address from, address to, uint256 value) internal virtual {... */\n      pop\n      pop\n      pop\n      jump\t// out\n        /* \"@openzeppelin/contracts/token/ERC20/utils/SafeERC20.sol\":1702:1890  function safeTransferFrom(IERC20 token, address from, address to, uint256 value) internal {... */\n    tag_292:\n        /* \"@openzeppelin/contracts/token/ERC20/utils/SafeERC20.sol\":1802:1883  _callOptionalReturn(token, abi.encodeCall(token.transferFrom, (from, to, value))) */\n      tag_351\n        /* \"@openzeppelin/contracts/token/ERC20/utils/SafeERC20.sol\":1822:1827  token */\n      dup5\n        /* \"@openzeppelin/contracts/token/ERC20/utils/SafeERC20.sol\":1844:1849  token */\n      dup6\n        /* \"@openzeppelin/contracts/token/ERC20/utils/SafeERC20.sol\":1844:1862  token.transferFrom */\n      0xffffffffffffffffffffffffffffffffffffffff\n      and\n      0x23b872dd\n        /* \"@openzeppelin/contracts/token/ERC20/utils/SafeERC20.sol\":1865:1869  from */\n      dup7\n        /* \"@openzeppelin/contracts/token/ERC20/utils/SafeERC20.sol\":1871:1873  to */\n      dup7\n        /* \"@openzeppelin/contracts/token/ERC20/utils/SafeERC20.sol\":1875:1880  value */\n      dup7\n        /* \"@openzeppelin/contracts/token/ERC20/utils/SafeERC20.sol\":1829:1882  abi.encodeCall(token.transferFrom, (from, to, value)) */\n      add(0x24, mload(0x40))\n      tag_352\n      swap4\n      swap3\n      swap2\n      swap1\n      tag_353\n      jump\t// in\n    tag_352:\n      mload(0x40)\n      0x20\n      dup2\n      dup4\n      sub\n      sub\n      dup2\n      mstore\n      swap1\n      0x40\n      mstore\n      swap2\n      pop\n      0xe0\n      shl\n      0x20\n      dup3\n      add\n      dup1\n      mload\n      0xffffffffffffffffffffffffffffffffffffffffffffffffffffffff\n      dup4\n      dup2\n      dup4\n      and\n      or\n      dup4\n      mstore\n      pop\n      pop\n      pop\n      pop\n        /* \"@openzeppelin/contracts/token/ERC20/utils/SafeERC20.sol\":1802:1821  _callOptionalReturn */\n      tag_354\n        /* \"@openzeppelin/contracts/token/ERC20/utils/SafeERC20.sol\":1802:1883  _callOptionalReturn(token, abi.encodeCall(token.transferFrom, (from, to, value))) */\n      jump\t// in\n    tag_351:\n        /* \"@openzeppelin/contracts/token/ERC20/utils/SafeERC20.sol\":1702:1890  function safeTransferFrom(IERC20 token, address from, address to, uint256 value) internal {... */\n      pop\n      pop\n      pop\n      pop\n      jump\t// out\n        /* \"@openzeppelin/contracts/token/ERC20/ERC20.sol\":7721:7929  function _mint(address account, uint256 value) internal {... */\n    tag_294:\n        /* \"@openzeppelin/contracts/token/ERC20/ERC20.sol\":7810:7811  0 */\n      0x00\n        /* \"@openzeppelin/contracts/token/ERC20/ERC20.sol\":7791:7812  account == address(0) */\n      0xffffffffffffffffffffffffffffffffffffffff\n      and\n        /* \"@openzeppelin/contracts/token/ERC20/ERC20.sol\":7791:7798  account */\n      dup3\n        /* \"@openzeppelin/contracts/token/ERC20/ERC20.sol\":7791:7812  account == address(0) */\n      0xffffffffffffffffffffffffffffffffffffffff\n      and\n      sub\n        /* \"@openzeppelin/contracts/token/ERC20/ERC20.sol\":7787:7878  if (account == address(0)) {... */\n      tag_356\n      jumpi\n        /* \"@openzeppelin/contracts/token/ERC20/ERC20.sol\":7864:7865  0 */\n      0x00\n        /* \"@openzeppelin/contracts/token/ERC20/ERC20.sol\":7835:7867  ERC20InvalidReceiver(address(0)) */\n      mload(0x40)\n      0xec442f0500000000000000000000000000000000000000000000000000000000\n      dup2\n      mstore\n      0x04\n      add\n      tag_357\n      swap2\n      swap1\n      tag_74\n      jump\t// in\n    tag_357:\n      mload(0x40)\n      dup1\n      swap2\n      sub\n      swap1\n      revert\n        /* \"@openzeppelin/contracts/token/ERC20/ERC20.sol\":7787:7878  if (account == address(0)) {... */\n    tag_356:\n        /* \"@openzeppelin/contracts/token/ERC20/ERC20.sol\":7887:7922  _update(address(0), account, value) */\n      tag_358\n        /* \"@openzeppelin/contracts/token/ERC20/ERC20.sol\":7903:7904  0 */\n      0x00\n        /* \"@openzeppelin/contracts/token/ERC20/ERC20.sol\":7907:7914  account */\n      dup4\n        /* \"@openzeppelin/contracts/token/ERC20/ERC20.sol\":7916:7921  value */\n      dup4\n        /* \"@openzeppelin/contracts/token/ERC20/ERC20.sol\":7887:7894  _update */\n      tag_281\n        /* \"@openzeppelin/contracts/token/ERC20/ERC20.sol\":7887:7922  _update(address(0), account, value) */\n      jump\t// in\n    tag_358:\n        /* \"@openzeppelin/contracts/token/ERC20/ERC20.sol\":7721:7929  function _mint(address account, uint256 value) internal {... */\n      pop\n      pop\n      jump\t// out\n        /* \"@openzeppelin/contracts/token/ERC20/ERC20.sol\":8247:8453  function _burn(address account, uint256 value) internal {... */\n    tag_308:\n        /* \"@openzeppelin/contracts/token/ERC20/ERC20.sol\":8336:8337  0 */\n      0x00\n        /* \"@openzeppelin/contracts/token/ERC20/ERC20.sol\":8317:8338  account == address(0) */\n      0xffffffffffffffffffffffffffffffffffffffff\n      and\n        /* \"@openzeppelin/contracts/token/ERC20/ERC20.sol\":8317:8324  account */\n      dup3\n        /* \"@openzeppelin/contracts/token/ERC20/ERC20.sol\":8317:8338  account == address(0) */\n      0xffffffffffffffffffffffffffffffffffffffff\n      and\n      sub\n        /* \"@openzeppelin/contracts/token/ERC20/ERC20.sol\":8313:8402  if (account == address(0)) {... */\n      tag_360\n      jumpi\n        /* \"@openzeppelin/contracts/token/ERC20/ERC20.sol\":8388:8389  0 */\n      0x00\n        /* \"@openzeppelin/contracts/token/ERC20/ERC20.sol\":8361:8391  ERC20InvalidSender(address(0)) */\n      mload(0x40)\n      0x96c6fd1e00000000000000000000000000000000000000000000000000000000\n      dup2\n      mstore\n      0x04\n      add\n      tag_361\n      swap2\n      swap1\n      tag_74\n      jump\t// in\n    tag_361:\n      mload(0x40)\n      dup1\n      swap2\n      sub\n      swap1\n      revert\n        /* \"@openzeppelin/contracts/token/ERC20/ERC20.sol\":8313:8402  if (account == address(0)) {... */\n    tag_360:\n        /* \"@openzeppelin/contracts/token/ERC20/ERC20.sol\":8411:8446  _update(account, address(0), value) */\n      tag_362\n        /* \"@openzeppelin/contracts/token/ERC20/ERC20.sol\":8419:8426  account */\n      dup3\n        /* \"@openzeppelin/contracts/token/ERC20/ERC20.sol\":8436:8437  0 */\n      0x00\n        /* \"@openzeppelin/contracts/token/ERC20/ERC20.sol\":8440:8445  value */\n      dup4\n        /* \"@openzeppelin/contracts/token/ERC20/ERC20.sol\":8411:8418  _update */\n      tag_281\n        /* \"@openzeppelin/contracts/token/ERC20/ERC20.sol\":8411:8446  _update(account, address(0), value) */\n      jump\t// in\n    tag_362:\n        /* \"@openzeppelin/contracts/token/ERC20/ERC20.sol\":8247:8453  function _burn(address account, uint256 value) internal {... */\n      pop\n      pop\n      jump\t// out\n        /* \"@openzeppelin/contracts/token/ERC20/utils/SafeERC20.sol\":1303:1463  function safeTransfer(IERC20 token, address to, uint256 value) internal {... */\n    tag_310:\n        /* \"@openzeppelin/contracts/token/ERC20/utils/SafeERC20.sol\":1385:1456  _callOptionalReturn(token, abi.encodeCall(token.transfer, (to, value))) */\n      tag_364\n        /* \"@openzeppelin/contracts/token/ERC20/utils/SafeERC20.sol\":1405:1410  token */\n      dup4\n        /* \"@openzeppelin/contracts/token/ERC20/utils/SafeERC20.sol\":1427:1432  token */\n      dup5\n        /* \"@openzeppelin/contracts/token/ERC20/utils/SafeERC20.sol\":1427:1441  token.transfer */\n      0xffffffffffffffffffffffffffffffffffffffff\n      and\n      0xa9059cbb\n        /* \"@openzeppelin/contracts/token/ERC20/utils/SafeERC20.sol\":1444:1446  to */\n      dup6\n        /* \"@openzeppelin/contracts/token/ERC20/utils/SafeERC20.sol\":1448:1453  value */\n      dup6\n        /* \"@openzeppelin/contracts/token/ERC20/utils/SafeERC20.sol\":1412:1455  abi.encodeCall(token.transfer, (to, value)) */\n      add(0x24, mload(0x40))\n      tag_365\n      swap3\n      swap2\n      swap1\n      tag_366\n      jump\t// in\n    tag_365:\n      mload(0x40)\n      0x20\n      dup2\n      dup4\n      sub\n      sub\n      dup2\n      mstore\n      swap1\n      0x40\n      mstore\n      swap2\n      pop\n      0xe0\n      shl\n      0x20\n      dup3\n      add\n      dup1\n      mload\n      0xffffffffffffffffffffffffffffffffffffffffffffffffffffffff\n      dup4\n      dup2\n      dup4\n      and\n      or\n      dup4\n      mstore\n      pop\n      pop\n      pop\n      pop\n        /* \"@openzeppelin/contracts/token/ERC20/utils/SafeERC20.sol\":1385:1404  _callOptionalReturn */\n      tag_354\n        /* \"@openzeppelin/contracts/token/ERC20/utils/SafeERC20.sol\":1385:1456  _callOptionalReturn(token, abi.encodeCall(token.transfer, (to, value))) */\n      jump\t// in\n    tag_364:\n        /* \"@openzeppelin/contracts/token/ERC20/utils/SafeERC20.sol\":1303:1463  function safeTransfer(IERC20 token, address to, uint256 value) internal {... */\n      pop\n      pop\n      pop\n      jump\t// out\n        /* \"@openzeppelin/contracts/utils/math/Math.sol\":3803:7919  function mulDiv(uint256 x, uint256 y, uint256 denominator) internal pure returns (uint256 result) {... */\n    tag_325:\n        /* \"@openzeppelin/contracts/utils/math/Math.sol\":3885:3899  uint256 result */\n      0x00\n        /* \"@openzeppelin/contracts/utils/math/Math.sol\":4232:4245  uint256 prod0 */\n      dup1\n        /* \"@openzeppelin/contracts/utils/math/Math.sol\":4252:4253  y */\n      dup4\n        /* \"@openzeppelin/contracts/utils/math/Math.sol\":4248:4249  x */\n      dup6\n        /* \"@openzeppelin/contracts/utils/math/Math.sol\":4248:4253  x * y */\n      mul\n        /* \"@openzeppelin/contracts/utils/math/Math.sol\":4232:4253  uint256 prod0 = x * y */\n      swap1\n      pop\n        /* \"@openzeppelin/contracts/utils/math/Math.sol\":4312:4325  uint256 prod1 */\n      0x00\n        /* \"@openzeppelin/contracts/utils/math/Math.sol\":4437:4438  0 */\n      dup1\n        /* \"@openzeppelin/contracts/utils/math/Math.sol\":4433:4439  not(0) */\n      not\n        /* \"@openzeppelin/contracts/utils/math/Math.sol\":4430:4431  y */\n      dup6\n        /* \"@openzeppelin/contracts/utils/math/Math.sol\":4427:4428  x */\n      dup8\n        /* \"@openzeppelin/contracts/utils/math/Math.sol\":4420:4440  mulmod(x, y, not(0)) */\n      mulmod\n        /* \"@openzeppelin/contracts/utils/math/Math.sol\":4493:4498  prod0 */\n      dup3\n        /* \"@openzeppelin/contracts/utils/math/Math.sol\":4489:4491  mm */\n      dup2\n        /* \"@openzeppelin/contracts/utils/math/Math.sol\":4486:4499  lt(mm, prod0) */\n      lt\n        /* \"@openzeppelin/contracts/utils/math/Math.sol\":4478:4483  prod0 */\n      dup4\n        /* \"@openzeppelin/contracts/utils/math/Math.sol\":4474:4476  mm */\n      dup3\n        /* \"@openzeppelin/contracts/utils/math/Math.sol\":4470:4484  sub(mm, prod0) */\n      sub\n        /* \"@openzeppelin/contracts/utils/math/Math.sol\":4466:4500  sub(sub(mm, prod0), lt(mm, prod0)) */\n      sub\n        /* \"@openzeppelin/contracts/utils/math/Math.sol\":4457:4500  prod1 := sub(sub(mm, prod0), lt(mm, prod0)) */\n      swap2\n      pop\n        /* \"@openzeppelin/contracts/utils/math/Math.sol\":4392:4514  {... */\n      pop\n        /* \"@openzeppelin/contracts/utils/math/Math.sol\":4604:4605  0 */\n      0x00\n        /* \"@openzeppelin/contracts/utils/math/Math.sol\":4595:4600  prod1 */\n      dup2\n        /* \"@openzeppelin/contracts/utils/math/Math.sol\":4595:4605  prod1 == 0 */\n      sub\n        /* \"@openzeppelin/contracts/utils/math/Math.sol\":4591:4959  if (prod1 == 0) {... */\n      tag_368\n      jumpi\n        /* \"@openzeppelin/contracts/utils/math/Math.sol\":4933:4944  denominator */\n      dup4\n        /* \"@openzeppelin/contracts/utils/math/Math.sol\":4925:4930  prod0 */\n      dup3\n        /* \"@openzeppelin/contracts/utils/math/Math.sol\":4925:4944  prod0 / denominator */\n      dup2\n      tag_369\n      jumpi\n      tag_370\n      tag_331\n      jump\t// in\n    tag_370:\n    tag_369:\n      div\n        /* \"@openzeppelin/contracts/utils/math/Math.sol\":4918:4944  return prod0 / denominator */\n      swap3\n      pop\n      pop\n      pop\n      jump(tag_367)\n        /* \"@openzeppelin/contracts/utils/math/Math.sol\":4591:4959  if (prod1 == 0) {... */\n    tag_368:\n        /* \"@openzeppelin/contracts/utils/math/Math.sol\":5080:5085  prod1 */\n      dup1\n        /* \"@openzeppelin/contracts/utils/math/Math.sol\":5065:5076  denominator */\n      dup5\n        /* \"@openzeppelin/contracts/utils/math/Math.sol\":5065:5085  denominator <= prod1 */\n      gt\n        /* \"@openzeppelin/contracts/utils/math/Math.sol\":5061:5149  if (denominator <= prod1) {... */\n      tag_371\n      jumpi\n        /* \"@openzeppelin/contracts/utils/math/Math.sol\":5112:5134  MathOverflowedMulDiv() */\n      mload(0x40)\n      0x227bc15300000000000000000000000000000000000000000000000000000000\n      dup2\n      mstore\n      0x04\n      add\n      mload(0x40)\n      dup1\n      swap2\n      sub\n      swap1\n      revert\n        /* \"@openzeppelin/contracts/utils/math/Math.sol\":5061:5149  if (denominator <= prod1) {... */\n    tag_371:\n        /* \"@openzeppelin/contracts/utils/math/Math.sol\":5404:5421  uint256 remainder */\n      0x00\n        /* \"@openzeppelin/contracts/utils/math/Math.sol\":5539:5550  denominator */\n      dup5\n        /* \"@openzeppelin/contracts/utils/math/Math.sol\":5536:5537  y */\n      dup7\n        /* \"@openzeppelin/contracts/utils/math/Math.sol\":5533:5534  x */\n      dup9\n        /* \"@openzeppelin/contracts/utils/math/Math.sol\":5526:5551  mulmod(x, y, denominator) */\n      mulmod\n        /* \"@openzeppelin/contracts/utils/math/Math.sol\":5513:5551  remainder := mulmod(x, y, denominator) */\n      swap1\n      pop\n        /* \"@openzeppelin/contracts/utils/math/Math.sol\":5667:5672  prod0 */\n      dup3\n        /* \"@openzeppelin/contracts/utils/math/Math.sol\":5656:5665  remainder */\n      dup2\n        /* \"@openzeppelin/contracts/utils/math/Math.sol\":5653:5673  gt(remainder, prod0) */\n      gt\n        /* \"@openzeppelin/contracts/utils/math/Math.sol\":5646:5651  prod1 */\n      dup3\n        /* \"@openzeppelin/contracts/utils/math/Math.sol\":5642:5674  sub(prod1, gt(remainder, prod0)) */\n      sub\n        /* \"@openzeppelin/contracts/utils/math/Math.sol\":5633:5674  prod1 := sub(prod1, gt(remainder, prod0)) */\n      swap2\n      pop\n        /* \"@openzeppelin/contracts/utils/math/Math.sol\":5711:5720  remainder */\n      dup1\n        /* \"@openzeppelin/contracts/utils/math/Math.sol\":5704:5709  prod0 */\n      dup4\n        /* \"@openzeppelin/contracts/utils/math/Math.sol\":5700:5721  sub(prod0, remainder) */\n      sub\n        /* \"@openzeppelin/contracts/utils/math/Math.sol\":5691:5721  prod0 := sub(prod0, remainder) */\n      swap3\n      pop\n        /* \"@openzeppelin/contracts/utils/math/Math.sol\":5939:5951  uint256 twos */\n      0x00\n        /* \"@openzeppelin/contracts/utils/math/Math.sol\":5973:5984  denominator */\n      dup6\n        /* \"@openzeppelin/contracts/utils/math/Math.sol\":5969:5970  0 */\n      0x00\n        /* \"@openzeppelin/contracts/utils/math/Math.sol\":5969:5984  0 - denominator */\n      sub\n        /* \"@openzeppelin/contracts/utils/math/Math.sol\":5954:5965  denominator */\n      dup7\n        /* \"@openzeppelin/contracts/utils/math/Math.sol\":5954:5985  denominator & (0 - denominator) */\n      and\n        /* \"@openzeppelin/contracts/utils/math/Math.sol\":5939:5985  uint256 twos = denominator & (0 - denominator) */\n      swap1\n      pop\n        /* \"@openzeppelin/contracts/utils/math/Math.sol\":6105:6109  twos */\n      dup1\n        /* \"@openzeppelin/contracts/utils/math/Math.sol\":6092:6103  denominator */\n      dup7\n        /* \"@openzeppelin/contracts/utils/math/Math.sol\":6088:6110  div(denominator, twos) */\n      div\n        /* \"@openzeppelin/contracts/utils/math/Math.sol\":6073:6110  denominator := div(denominator, twos) */\n      swap6\n      pop\n        /* \"@openzeppelin/contracts/utils/math/Math.sol\":6197:6201  twos */\n      dup1\n        /* \"@openzeppelin/contracts/utils/math/Math.sol\":6190:6195  prod0 */\n      dup5\n        /* \"@openzeppelin/contracts/utils/math/Math.sol\":6186:6202  div(prod0, twos) */\n      div\n        /* \"@openzeppelin/contracts/utils/math/Math.sol\":6177:6202  prod0 := div(prod0, twos) */\n      swap4\n      pop\n        /* \"@openzeppelin/contracts/utils/math/Math.sol\":6354:6355  1 */\n      0x01\n        /* \"@openzeppelin/contracts/utils/math/Math.sol\":6347:6351  twos */\n      dup2\n        /* \"@openzeppelin/contracts/utils/math/Math.sol\":6340:6344  twos */\n      dup3\n        /* \"@openzeppelin/contracts/utils/math/Math.sol\":6337:6338  0 */\n      0x00\n        /* \"@openzeppelin/contracts/utils/math/Math.sol\":6333:6345  sub(0, twos) */\n      sub\n        /* \"@openzeppelin/contracts/utils/math/Math.sol\":6329:6352  div(sub(0, twos), twos) */\n      div\n        /* \"@openzeppelin/contracts/utils/math/Math.sol\":6325:6356  add(div(sub(0, twos), twos), 1) */\n      add\n        /* \"@openzeppelin/contracts/utils/math/Math.sol\":6317:6356  twos := add(div(sub(0, twos), twos), 1) */\n      swap1\n      pop\n        /* \"@openzeppelin/contracts/utils/math/Math.sol\":6453:6457  twos */\n      dup1\n        /* \"@openzeppelin/contracts/utils/math/Math.sol\":6445:6450  prod1 */\n      dup4\n        /* \"@openzeppelin/contracts/utils/math/Math.sol\":6445:6457  prod1 * twos */\n      mul\n        /* \"@openzeppelin/contracts/utils/math/Math.sol\":6436:6457  prod0 |= prod1 * twos */\n      dup5\n      or\n      swap4\n      pop\n        /* \"@openzeppelin/contracts/utils/math/Math.sol\":6775:6790  uint256 inverse */\n      0x00\n        /* \"@openzeppelin/contracts/utils/math/Math.sol\":6813:6814  2 */\n      0x02\n        /* \"@openzeppelin/contracts/utils/math/Math.sol\":6798:6809  denominator */\n      dup8\n        /* \"@openzeppelin/contracts/utils/math/Math.sol\":6794:6795  3 */\n      0x03\n        /* \"@openzeppelin/contracts/utils/math/Math.sol\":6794:6809  3 * denominator */\n      mul\n        /* \"@openzeppelin/contracts/utils/math/Math.sol\":6793:6814  (3 * denominator) ^ 2 */\n      xor\n        /* \"@openzeppelin/contracts/utils/math/Math.sol\":6775:6814  uint256 inverse = (3 * denominator) ^ 2 */\n      swap1\n      pop\n        /* \"@openzeppelin/contracts/utils/math/Math.sol\":7060:7067  inverse */\n      dup1\n        /* \"@openzeppelin/contracts/utils/math/Math.sol\":7046:7057  denominator */\n      dup8\n        /* \"@openzeppelin/contracts/utils/math/Math.sol\":7046:7067  denominator * inverse */\n      mul\n        /* \"@openzeppelin/contracts/utils/math/Math.sol\":7042:7043  2 */\n      0x02\n        /* \"@openzeppelin/contracts/utils/math/Math.sol\":7042:7067  2 - denominator * inverse */\n      sub\n        /* \"@openzeppelin/contracts/utils/math/Math.sol\":7031:7067  inverse *= 2 - denominator * inverse */\n      dup2\n      mul\n      swap1\n      pop\n        /* \"@openzeppelin/contracts/utils/math/Math.sol\":7129:7136  inverse */\n      dup1\n        /* \"@openzeppelin/contracts/utils/math/Math.sol\":7115:7126  denominator */\n      dup8\n        /* \"@openzeppelin/contracts/utils/math/Math.sol\":7115:7136  denominator * inverse */\n      mul\n        /* \"@openzeppelin/contracts/utils/math/Math.sol\":7111:7112  2 */\n      0x02\n        /* \"@openzeppelin/contracts/utils/math/Math.sol\":7111:7136  2 - denominator * inverse */\n      sub\n        /* \"@openzeppelin/contracts/utils/math/Math.sol\":7100:7136  inverse *= 2 - denominator * inverse */\n      dup2\n      mul\n      swap1\n      pop\n        /* \"@openzeppelin/contracts/utils/math/Math.sol\":7199:7206  inverse */\n      dup1\n        /* \"@openzeppelin/contracts/utils/math/Math.sol\":7185:7196  denominator */\n      dup8\n        /* \"@openzeppelin/contracts/utils/math/Math.sol\":7185:7206  denominator * inverse */\n      mul\n        /* \"@openzeppelin/contracts/utils/math/Math.sol\":7181:7182  2 */\n      0x02\n        /* \"@openzeppelin/contracts/utils/math/Math.sol\":7181:7206  2 - denominator * inverse */\n      sub\n        /* \"@openzeppelin/contracts/utils/math/Math.sol\":7170:7206  inverse *= 2 - denominator * inverse */\n      dup2\n      mul\n      swap1\n      pop\n        /* \"@openzeppelin/contracts/utils/math/Math.sol\":7269:7276  inverse */\n      dup1\n        /* \"@openzeppelin/contracts/utils/math/Math.sol\":7255:7266  denominator */\n      dup8\n        /* \"@openzeppelin/contracts/utils/math/Math.sol\":7255:7276  denominator * inverse */\n      mul\n        /* \"@openzeppelin/contracts/utils/math/Math.sol\":7251:7252  2 */\n      0x02\n        /* \"@openzeppelin/contracts/utils/math/Math.sol\":7251:7276  2 - denominator * inverse */\n      sub\n        /* \"@openzeppelin/contracts/utils/math/Math.sol\":7240:7276  inverse *= 2 - denominator * inverse */\n      dup2\n      mul\n      swap1\n      pop\n        /* \"@openzeppelin/contracts/utils/math/Math.sol\":7339:7346  inverse */\n      dup1\n        /* \"@openzeppelin/contracts/utils/math/Math.sol\":7325:7336  denominator */\n      dup8\n        /* \"@openzeppelin/contracts/utils/math/Math.sol\":7325:7346  denominator * inverse */\n      mul\n        /* \"@openzeppelin/contracts/utils/math/Math.sol\":7321:7322  2 */\n      0x02\n        /* \"@openzeppelin/contracts/utils/math/Math.sol\":7321:7346  2 - denominator * inverse */\n      sub\n        /* \"@openzeppelin/contracts/utils/math/Math.sol\":7310:7346  inverse *= 2 - denominator * inverse */\n      dup2\n      mul\n      swap1\n      pop\n        /* \"@openzeppelin/contracts/utils/math/Math.sol\":7410:7417  inverse */\n      dup1\n        /* \"@openzeppelin/contracts/utils/math/Math.sol\":7396:7407  denominator */\n      dup8\n        /* \"@openzeppelin/contracts/utils/math/Math.sol\":7396:7417  denominator * inverse */\n      mul\n        /* \"@openzeppelin/contracts/utils/math/Math.sol\":7392:7393  2 */\n      0x02\n        /* \"@openzeppelin/contracts/utils/math/Math.sol\":7392:7417  2 - denominator * inverse */\n      sub\n        /* \"@openzeppelin/contracts/utils/math/Math.sol\":7381:7417  inverse *= 2 - denominator * inverse */\n      dup2\n      mul\n      swap1\n      pop\n        /* \"@openzeppelin/contracts/utils/math/Math.sol\":7868:7875  inverse */\n      dup1\n        /* \"@openzeppelin/contracts/utils/math/Math.sol\":7860:7865  prod0 */\n      dup6\n        /* \"@openzeppelin/contracts/utils/math/Math.sol\":7860:7875  prod0 * inverse */\n      mul\n        /* \"@openzeppelin/contracts/utils/math/Math.sol\":7851:7875  result = prod0 * inverse */\n      swap6\n      pop\n        /* \"@openzeppelin/contracts/utils/math/Math.sol\":7889:7902  return result */\n      pop\n      pop\n      pop\n      pop\n      pop\n        /* \"@openzeppelin/contracts/utils/math/Math.sol\":3803:7919  function mulDiv(uint256 x, uint256 y, uint256 denominator) internal pure returns (uint256 result) {... */\n    tag_367:\n      swap4\n      swap3\n      pop\n      pop\n      pop\n      jump\t// out\n        /* \"@openzeppelin/contracts/utils/math/Math.sol\":14993:15115  function unsignedRoundsUp(Rounding rounding) internal pure returns (bool) {... */\n    tag_327:\n        /* \"@openzeppelin/contracts/utils/math/Math.sol\":15061:15065  bool */\n      0x00\n        /* \"@openzeppelin/contracts/utils/math/Math.sol\":15107:15108  1 */\n      0x01\n        /* \"@openzeppelin/contracts/utils/math/Math.sol\":15102:15103  2 */\n      0x02\n        /* \"@openzeppelin/contracts/utils/math/Math.sol\":15090:15098  rounding */\n      dup4\n        /* \"@openzeppelin/contracts/utils/math/Math.sol\":15084:15099  uint8(rounding) */\n      0x03\n      dup2\n      gt\n      iszero\n      tag_373\n      jumpi\n      tag_374\n      tag_375\n      jump\t// in\n    tag_374:\n    tag_373:\n        /* \"@openzeppelin/contracts/utils/math/Math.sol\":15084:15103  uint8(rounding) % 2 */\n      tag_376\n      swap2\n      swap1\n      tag_377\n      jump\t// in\n    tag_376:\n        /* \"@openzeppelin/contracts/utils/math/Math.sol\":15084:15108  uint8(rounding) % 2 == 1 */\n      0xff\n      and\n      eq\n        /* \"@openzeppelin/contracts/utils/math/Math.sol\":15077:15108  return uint8(rounding) % 2 == 1 */\n      swap1\n      pop\n        /* \"@openzeppelin/contracts/utils/math/Math.sol\":14993:15115  function unsignedRoundsUp(Rounding rounding) internal pure returns (bool) {... */\n      swap2\n      swap1\n      pop\n      jump\t// out\n        /* \"@openzeppelin/contracts/token/ERC20/utils/SafeERC20.sol\":4059:4688  function _callOptionalReturn(IERC20 token, bytes memory data) private {... */\n    tag_354:\n        /* \"@openzeppelin/contracts/token/ERC20/utils/SafeERC20.sol\":4478:4501  bytes memory returndata */\n      0x00\n        /* \"@openzeppelin/contracts/token/ERC20/utils/SafeERC20.sol\":4504:4537  address(token).functionCall(data) */\n      tag_379\n        /* \"@openzeppelin/contracts/token/ERC20/utils/SafeERC20.sol\":4532:4536  data */\n      dup3\n        /* \"@openzeppelin/contracts/token/ERC20/utils/SafeERC20.sol\":4512:4517  token */\n      dup5\n        /* \"@openzeppelin/contracts/token/ERC20/utils/SafeERC20.sol\":4504:4531  address(token).functionCall */\n      0xffffffffffffffffffffffffffffffffffffffff\n      and\n      tag_380\n      swap1\n        /* \"@openzeppelin/contracts/token/ERC20/utils/SafeERC20.sol\":4504:4537  address(token).functionCall(data) */\n      swap2\n      swap1\n      0xffffffff\n      and\n      jump\t// in\n    tag_379:\n        /* \"@openzeppelin/contracts/token/ERC20/utils/SafeERC20.sol\":4478:4537  bytes memory returndata = address(token).functionCall(data) */\n      swap1\n      pop\n        /* \"@openzeppelin/contracts/token/ERC20/utils/SafeERC20.sol\":4572:4573  0 */\n      0x00\n        /* \"@openzeppelin/contracts/token/ERC20/utils/SafeERC20.sol\":4551:4561  returndata */\n      dup2\n        /* \"@openzeppelin/contracts/token/ERC20/utils/SafeERC20.sol\":4551:4568  returndata.length */\n      mload\n        /* \"@openzeppelin/contracts/token/ERC20/utils/SafeERC20.sol\":4551:4573  returndata.length != 0 */\n      eq\n      iszero\n        /* \"@openzeppelin/contracts/token/ERC20/utils/SafeERC20.sol\":4551:4608  returndata.length != 0 && !abi.decode(returndata, (bool)) */\n      dup1\n      iszero\n      tag_381\n      jumpi\n      pop\n        /* \"@openzeppelin/contracts/token/ERC20/utils/SafeERC20.sol\":4589:4599  returndata */\n      dup1\n        /* \"@openzeppelin/contracts/token/ERC20/utils/SafeERC20.sol\":4578:4608  abi.decode(returndata, (bool)) */\n      dup1\n      0x20\n      add\n      swap1\n      mload\n      dup2\n      add\n      swap1\n      tag_382\n      swap2\n      swap1\n      tag_383\n      jump\t// in\n    tag_382:\n        /* \"@openzeppelin/contracts/token/ERC20/utils/SafeERC20.sol\":4577:4608  !abi.decode(returndata, (bool)) */\n      iszero\n        /* \"@openzeppelin/contracts/token/ERC20/utils/SafeERC20.sol\":4551:4608  returndata.length != 0 && !abi.decode(returndata, (bool)) */\n    tag_381:\n        /* \"@openzeppelin/contracts/token/ERC20/utils/SafeERC20.sol\":4547:4682  if (returndata.length != 0 && !abi.decode(returndata, (bool))) {... */\n      iszero\n      tag_384\n      jumpi\n        /* \"@openzeppelin/contracts/token/ERC20/utils/SafeERC20.sol\":4664:4669  token */\n      dup3\n        /* \"@openzeppelin/contracts/token/ERC20/utils/SafeERC20.sol\":4631:4671  SafeERC20FailedOperation(address(token)) */\n      mload(0x40)\n      0x5274afe700000000000000000000000000000000000000000000000000000000\n      dup2\n      mstore\n      0x04\n      add\n      tag_385\n      swap2\n      swap1\n      tag_74\n      jump\t// in\n    tag_385:\n      mload(0x40)\n      dup1\n      swap2\n      sub\n      swap1\n      revert\n        /* \"@openzeppelin/contracts/token/ERC20/utils/SafeERC20.sol\":4547:4682  if (returndata.length != 0 && !abi.decode(returndata, (bool))) {... */\n    tag_384:\n        /* \"@openzeppelin/contracts/token/ERC20/utils/SafeERC20.sol\":4129:4688  {... */\n      pop\n        /* \"@openzeppelin/contracts/token/ERC20/utils/SafeERC20.sol\":4059:4688  function _callOptionalReturn(IERC20 token, bytes memory data) private {... */\n      pop\n      pop\n      jump\t// out\n        /* \"@openzeppelin/contracts/utils/Address.sol\":2705:2856  function functionCall(address target, bytes memory data) internal returns (bytes memory) {... */\n    tag_380:\n        /* \"@openzeppelin/contracts/utils/Address.sol\":2780:2792  bytes memory */\n      0x60\n        /* \"@openzeppelin/contracts/utils/Address.sol\":2811:2849  functionCallWithValue(target, data, 0) */\n      tag_387\n        /* \"@openzeppelin/contracts/utils/Address.sol\":2833:2839  target */\n      dup4\n        /* \"@openzeppelin/contracts/utils/Address.sol\":2841:2845  data */\n      dup4\n        /* \"@openzeppelin/contracts/utils/Address.sol\":2847:2848  0 */\n      0x00\n        /* \"@openzeppelin/contracts/utils/Address.sol\":2811:2832  functionCallWithValue */\n      tag_388\n        /* \"@openzeppelin/contracts/utils/Address.sol\":2811:2849  functionCallWithValue(target, data, 0) */\n      jump\t// in\n    tag_387:\n        /* \"@openzeppelin/contracts/utils/Address.sol\":2804:2849  return functionCallWithValue(target, data, 0) */\n      swap1\n      pop\n        /* \"@openzeppelin/contracts/utils/Address.sol\":2705:2856  function functionCall(address target, bytes memory data) internal returns (bytes memory) {... */\n      swap3\n      swap2\n      pop\n      pop\n      jump\t// out\n        /* \"@openzeppelin/contracts/utils/Address.sol\":3180:3572  function functionCallWithValue(address target, bytes memory data, uint256 value) internal returns (bytes memory) {... */\n    tag_388:\n        /* \"@openzeppelin/contracts/utils/Address.sol\":3279:3291  bytes memory */\n      0x60\n        /* \"@openzeppelin/contracts/utils/Address.sol\":3331:3336  value */\n      dup2\n        /* \"@openzeppelin/contracts/utils/Address.sol\":3307:3328  address(this).balance */\n      selfbalance\n        /* \"@openzeppelin/contracts/utils/Address.sol\":3307:3336  address(this).balance < value */\n      lt\n        /* \"@openzeppelin/contracts/utils/Address.sol\":3303:3411  if (address(this).balance < value) {... */\n      iszero\n      tag_390\n      jumpi\n        /* \"@openzeppelin/contracts/utils/Address.sol\":3394:3398  this */\n      address\n        /* \"@openzeppelin/contracts/utils/Address.sol\":3359:3400  AddressInsufficientBalance(address(this)) */\n      mload(0x40)\n      0xcd78605900000000000000000000000000000000000000000000000000000000\n      dup2\n      mstore\n      0x04\n      add\n      tag_391\n      swap2\n      swap1\n      tag_74\n      jump\t// in\n    tag_391:\n      mload(0x40)\n      dup1\n      swap2\n      sub\n      swap1\n      revert\n        /* \"@openzeppelin/contracts/utils/Address.sol\":3303:3411  if (address(this).balance < value) {... */\n    tag_390:\n        /* \"@openzeppelin/contracts/utils/Address.sol\":3421:3433  bool success */\n      0x00\n        /* \"@openzeppelin/contracts/utils/Address.sol\":3435:3458  bytes memory returndata */\n      dup1\n        /* \"@openzeppelin/contracts/utils/Address.sol\":3462:3468  target */\n      dup6\n        /* \"@openzeppelin/contracts/utils/Address.sol\":3462:3473  target.call */\n      0xffffffffffffffffffffffffffffffffffffffff\n      and\n        /* \"@openzeppelin/contracts/utils/Address.sol\":3481:3486  value */\n      dup5\n        /* \"@openzeppelin/contracts/utils/Address.sol\":3488:3492  data */\n      dup7\n        /* \"@openzeppelin/contracts/utils/Address.sol\":3462:3493  target.call{value: value}(data) */\n      mload(0x40)\n      tag_392\n      swap2\n      swap1\n      tag_393\n      jump\t// in\n    tag_392:\n      0x00\n      mload(0x40)\n      dup1\n      dup4\n      sub\n      dup2\n      dup6\n      dup8\n      gas\n      call\n      swap3\n      pop\n      pop\n      pop\n      returndatasize\n      dup1\n      0x00\n      dup2\n      eq\n      tag_396\n      jumpi\n      mload(0x40)\n      swap2\n      pop\n      and(add(returndatasize, 0x3f), not(0x1f))\n      dup3\n      add\n      0x40\n      mstore\n      returndatasize\n      dup3\n      mstore\n      returndatasize\n      0x00\n      0x20\n      dup5\n      add\n      returndatacopy\n      jump(tag_395)\n    tag_396:\n      0x60\n      swap2\n      pop\n    tag_395:\n      pop\n        /* \"@openzeppelin/contracts/utils/Address.sol\":3420:3493  (bool success, bytes memory returndata) = target.call{value: value}(data) */\n      swap2\n      pop\n      swap2\n      pop\n        /* \"@openzeppelin/contracts/utils/Address.sol\":3510:3565  verifyCallResultFromTarget(target, success, returndata) */\n      tag_397\n        /* \"@openzeppelin/contracts/utils/Address.sol\":3537:3543  target */\n      dup7\n        /* \"@openzeppelin/contracts/utils/Address.sol\":3545:3552  success */\n      dup4\n        /* \"@openzeppelin/contracts/utils/Address.sol\":3554:3564  returndata */\n      dup4\n        /* \"@openzeppelin/contracts/utils/Address.sol\":3510:3536  verifyCallResultFromTarget */\n      tag_398\n        /* \"@openzeppelin/contracts/utils/Address.sol\":3510:3565  verifyCallResultFromTarget(target, success, returndata) */\n      jump\t// in\n    tag_397:\n        /* \"@openzeppelin/contracts/utils/Address.sol\":3503:3565  return verifyCallResultFromTarget(target, success, returndata) */\n      swap3\n      pop\n      pop\n      pop\n        /* \"@openzeppelin/contracts/utils/Address.sol\":3180:3572  function functionCallWithValue(address target, bytes memory data, uint256 value) internal returns (bytes memory) {... */\n      swap4\n      swap3\n      pop\n      pop\n      pop\n      jump\t// out\n        /* \"@openzeppelin/contracts/utils/Address.sol\":4625:5207  function verifyCallResultFromTarget(... */\n    tag_398:\n        /* \"@openzeppelin/contracts/utils/Address.sol\":4769:4781  bytes memory */\n      0x60\n        /* \"@openzeppelin/contracts/utils/Address.sol\":4798:4805  success */\n      dup3\n        /* \"@openzeppelin/contracts/utils/Address.sol\":4793:5201  if (!success) {... */\n      tag_400\n      jumpi\n        /* \"@openzeppelin/contracts/utils/Address.sol\":4821:4840  _revert(returndata) */\n      tag_401\n        /* \"@openzeppelin/contracts/utils/Address.sol\":4829:4839  returndata */\n      dup3\n        /* \"@openzeppelin/contracts/utils/Address.sol\":4821:4828  _revert */\n      tag_402\n        /* \"@openzeppelin/contracts/utils/Address.sol\":4821:4840  _revert(returndata) */\n      jump\t// in\n    tag_401:\n        /* \"@openzeppelin/contracts/utils/Address.sol\":4793:5201  if (!success) {... */\n      jump(tag_403)\n    tag_400:\n        /* \"@openzeppelin/contracts/utils/Address.sol\":5066:5067  0 */\n      0x00\n        /* \"@openzeppelin/contracts/utils/Address.sol\":5045:5055  returndata */\n      dup3\n        /* \"@openzeppelin/contracts/utils/Address.sol\":5045:5062  returndata.length */\n      mload\n        /* \"@openzeppelin/contracts/utils/Address.sol\":5045:5067  returndata.length == 0 */\n      eq\n        /* \"@openzeppelin/contracts/utils/Address.sol\":5045:5094  returndata.length == 0 && target.code.length == 0 */\n      dup1\n      iszero\n      tag_404\n      jumpi\n      pop\n        /* \"@openzeppelin/contracts/utils/Address.sol\":5093:5094  0 */\n      0x00\n        /* \"@openzeppelin/contracts/utils/Address.sol\":5071:5077  target */\n      dup5\n        /* \"@openzeppelin/contracts/utils/Address.sol\":5071:5089  target.code.length */\n      0xffffffffffffffffffffffffffffffffffffffff\n      and\n      extcodesize\n        /* \"@openzeppelin/contracts/utils/Address.sol\":5071:5094  target.code.length == 0 */\n      eq\n        /* \"@openzeppelin/contracts/utils/Address.sol\":5045:5094  returndata.length == 0 && target.code.length == 0 */\n    tag_404:\n        /* \"@openzeppelin/contracts/utils/Address.sol\":5041:5160  if (returndata.length == 0 && target.code.length == 0) {... */\n      iszero\n      tag_405\n      jumpi\n        /* \"@openzeppelin/contracts/utils/Address.sol\":5138:5144  target */\n      dup4\n        /* \"@openzeppelin/contracts/utils/Address.sol\":5121:5145  AddressEmptyCode(target) */\n      mload(0x40)\n      0x9996b31500000000000000000000000000000000000000000000000000000000\n      dup2\n      mstore\n      0x04\n      add\n      tag_406\n      swap2\n      swap1\n      tag_74\n      jump\t// in\n    tag_406:\n      mload(0x40)\n      dup1\n      swap2\n      sub\n      swap1\n      revert\n        /* \"@openzeppelin/contracts/utils/Address.sol\":5041:5160  if (returndata.length == 0 && target.code.length == 0) {... */\n    tag_405:\n        /* \"@openzeppelin/contracts/utils/Address.sol\":5180:5190  returndata */\n      dup2\n        /* \"@openzeppelin/contracts/utils/Address.sol\":5173:5190  return returndata */\n      swap1\n      pop\n      jump(tag_399)\n        /* \"@openzeppelin/contracts/utils/Address.sol\":4793:5201  if (!success) {... */\n    tag_403:\n        /* \"@openzeppelin/contracts/utils/Address.sol\":4625:5207  function verifyCallResultFromTarget(... */\n    tag_399:\n      swap4\n      swap3\n      pop\n      pop\n      pop\n      jump\t// out\n        /* \"@openzeppelin/contracts/utils/Address.sol\":5743:6259  function _revert(bytes memory returndata) private pure {... */\n    tag_402:\n        /* \"@openzeppelin/contracts/utils/Address.sol\":5894:5895  0 */\n      0x00\n        /* \"@openzeppelin/contracts/utils/Address.sol\":5874:5884  returndata */\n      dup2\n        /* \"@openzeppelin/contracts/utils/Address.sol\":5874:5891  returndata.length */\n      mload\n        /* \"@openzeppelin/contracts/utils/Address.sol\":5874:5895  returndata.length > 0 */\n      gt\n        /* \"@openzeppelin/contracts/utils/Address.sol\":5870:6253  if (returndata.length > 0) {... */\n      iszero\n      tag_408\n      jumpi\n        /* \"@openzeppelin/contracts/utils/Address.sol\":6102:6112  returndata */\n      dup1\n        /* \"@openzeppelin/contracts/utils/Address.sol\":6096:6113  mload(returndata) */\n      mload\n        /* \"@openzeppelin/contracts/utils/Address.sol\":6158:6173  returndata_size */\n      dup1\n        /* \"@openzeppelin/contracts/utils/Address.sol\":6145:6155  returndata */\n      dup3\n        /* \"@openzeppelin/contracts/utils/Address.sol\":6141:6143  32 */\n      0x20\n        /* \"@openzeppelin/contracts/utils/Address.sol\":6137:6156  add(32, returndata) */\n      add\n        /* \"@openzeppelin/contracts/utils/Address.sol\":6130:6174  revert(add(32, returndata), returndata_size) */\n      revert\n        /* \"@openzeppelin/contracts/utils/Address.sol\":5870:6253  if (returndata.length > 0) {... */\n    tag_408:\n        /* \"@openzeppelin/contracts/utils/Address.sol\":6225:6242  FailedInnerCall() */\n      mload(0x40)\n      0x1425ea4200000000000000000000000000000000000000000000000000000000\n      dup2\n      mstore\n      0x04\n      add\n      mload(0x40)\n      dup1\n      swap2\n      sub\n      swap1\n      revert\n        /* \"#utility.yul\":7:84   */\n    tag_410:\n        /* \"#utility.yul\":44:51   */\n      0x00\n        /* \"#utility.yul\":73:78   */\n      dup2\n        /* \"#utility.yul\":62:78   */\n      swap1\n      pop\n        /* \"#utility.yul\":7:84   */\n      swap2\n      swap1\n      pop\n      jump\t// out\n        /* \"#utility.yul\":90:208   */\n    tag_411:\n        /* \"#utility.yul\":177:201   */\n      tag_449\n        /* \"#utility.yul\":195:200   */\n      dup2\n        /* \"#utility.yul\":177:201   */\n      tag_410\n      jump\t// in\n    tag_449:\n        /* \"#utility.yul\":172:175   */\n      dup3\n        /* \"#utility.yul\":165:202   */\n      mstore\n        /* \"#utility.yul\":90:208   */\n      pop\n      pop\n      jump\t// out\n        /* \"#utility.yul\":214:436   */\n    tag_39:\n        /* \"#utility.yul\":307:311   */\n      0x00\n        /* \"#utility.yul\":345:347   */\n      0x20\n        /* \"#utility.yul\":334:343   */\n      dup3\n        /* \"#utility.yul\":330:348   */\n      add\n        /* \"#utility.yul\":322:348   */\n      swap1\n      pop\n        /* \"#utility.yul\":358:429   */\n      tag_451\n        /* \"#utility.yul\":426:427   */\n      0x00\n        /* \"#utility.yul\":415:424   */\n      dup4\n        /* \"#utility.yul\":411:428   */\n      add\n        /* \"#utility.yul\":402:408   */\n      dup5\n        /* \"#utility.yul\":358:429   */\n      tag_411\n      jump\t// in\n    tag_451:\n        /* \"#utility.yul\":214:436   */\n      swap3\n      swap2\n      pop\n      pop\n      jump\t// out\n        /* \"#utility.yul\":442:541   */\n    tag_412:\n        /* \"#utility.yul\":494:500   */\n      0x00\n        /* \"#utility.yul\":528:533   */\n      dup2\n        /* \"#utility.yul\":522:534   */\n      mload\n        /* \"#utility.yul\":512:534   */\n      swap1\n      pop\n        /* \"#utility.yul\":442:541   */\n      swap2\n      swap1\n      pop\n      jump\t// out\n        /* \"#utility.yul\":547:716   */\n    tag_413:\n        /* \"#utility.yul\":631:642   */\n      0x00\n        /* \"#utility.yul\":665:671   */\n      dup3\n        /* \"#utility.yul\":660:663   */\n      dup3\n        /* \"#utility.yul\":653:672   */\n      mstore\n        /* \"#utility.yul\":705:709   */\n      0x20\n        /* \"#utility.yul\":700:703   */\n      dup3\n        /* \"#utility.yul\":696:710   */\n      add\n        /* \"#utility.yul\":681:710   */\n      swap1\n      pop\n        /* \"#utility.yul\":547:716   */\n      swap3\n      swap2\n      pop\n      pop\n      jump\t// out\n        /* \"#utility.yul\":722:861   */\n    tag_414:\n        /* \"#utility.yul\":811:817   */\n      dup3\n        /* \"#utility.yul\":806:809   */\n      dup2\n        /* \"#utility.yul\":801:804   */\n      dup4\n        /* \"#utility.yul\":795:818   */\n      mcopy\n        /* \"#utility.yul\":852:853   */\n      0x00\n        /* \"#utility.yul\":843:849   */\n      dup4\n        /* \"#utility.yul\":838:841   */\n      dup4\n        /* \"#utility.yul\":834:850   */\n      add\n        /* \"#utility.yul\":827:854   */\n      mstore\n        /* \"#utility.yul\":722:861   */\n      pop\n      pop\n      pop\n      jump\t// out\n        /* \"#utility.yul\":867:969   */\n    tag_415:\n        /* \"#utility.yul\":908:914   */\n      0x00\n        /* \"#utility.yul\":959:961   */\n      0x1f\n        /* \"#utility.yul\":955:962   */\n      not\n        /* \"#utility.yul\":950:952   */\n      0x1f\n        /* \"#utility.yul\":943:948   */\n      dup4\n        /* \"#utility.yul\":939:953   */\n      add\n        /* \"#utility.yul\":935:963   */\n      and\n        /* \"#utility.yul\":925:963   */\n      swap1\n      pop\n        /* \"#utility.yul\":867:969   */\n      swap2\n      swap1\n      pop\n      jump\t// out\n        /* \"#utility.yul\":975:1352   */\n    tag_416:\n        /* \"#utility.yul\":1063:1066   */\n      0x00\n        /* \"#utility.yul\":1091:1130   */\n      tag_457\n        /* \"#utility.yul\":1124:1129   */\n      dup3\n        /* \"#utility.yul\":1091:1130   */\n      tag_412\n      jump\t// in\n    tag_457:\n        /* \"#utility.yul\":1146:1217   */\n      tag_458\n        /* \"#utility.yul\":1210:1216   */\n      dup2\n        /* \"#utility.yul\":1205:1208   */\n      dup6\n        /* \"#utility.yul\":1146:1217   */\n      tag_413\n      jump\t// in\n    tag_458:\n        /* \"#utility.yul\":1139:1217   */\n      swap4\n      pop\n        /* \"#utility.yul\":1226:1291   */\n      tag_459\n        /* \"#utility.yul\":1284:1290   */\n      dup2\n        /* \"#utility.yul\":1279:1282   */\n      dup6\n        /* \"#utility.yul\":1272:1276   */\n      0x20\n        /* \"#utility.yul\":1265:1270   */\n      dup7\n        /* \"#utility.yul\":1261:1277   */\n      add\n        /* \"#utility.yul\":1226:1291   */\n      tag_414\n      jump\t// in\n    tag_459:\n        /* \"#utility.yul\":1316:1345   */\n      tag_460\n        /* \"#utility.yul\":1338:1344   */\n      dup2\n        /* \"#utility.yul\":1316:1345   */\n      tag_415\n      jump\t// in\n    tag_460:\n        /* \"#utility.yul\":1311:1314   */\n      dup5\n        /* \"#utility.yul\":1307:1346   */\n      add\n        /* \"#utility.yul\":1300:1346   */\n      swap2\n      pop\n        /* \"#utility.yul\":1067:1352   */\n      pop\n        /* \"#utility.yul\":975:1352   */\n      swap3\n      swap2\n      pop\n      pop\n      jump\t// out\n        /* \"#utility.yul\":1358:1671   */\n    tag_43:\n        /* \"#utility.yul\":1471:1475   */\n      0x00\n        /* \"#utility.yul\":1509:1511   */\n      0x20\n        /* \"#utility.yul\":1498:1507   */\n      dup3\n        /* \"#utility.yul\":1494:1512   */\n      add\n        /* \"#utility.yul\":1486:1512   */\n      swap1\n      pop\n        /* \"#utility.yul\":1558:1567   */\n      dup2\n        /* \"#utility.yul\":1552:1556   */\n      dup2\n        /* \"#utility.yul\":1548:1568   */\n      sub\n        /* \"#utility.yul\":1544:1545   */\n      0x00\n        /* \"#utility.yul\":1533:1542   */\n      dup4\n        /* \"#utility.yul\":1529:1546   */\n      add\n        /* \"#utility.yul\":1522:1569   */\n      mstore\n        /* \"#utility.yul\":1586:1664   */\n      tag_462\n        /* \"#utility.yul\":1659:1663   */\n      dup2\n        /* \"#utility.yul\":1650:1656   */\n      dup5\n        /* \"#utility.yul\":1586:1664   */\n      tag_416\n      jump\t// in\n    tag_462:\n        /* \"#utility.yul\":1578:1664   */\n      swap1\n      pop\n        /* \"#utility.yul\":1358:1671   */\n      swap3\n      swap2\n      pop\n      pop\n      jump\t// out\n        /* \"#utility.yul\":1758:1875   */\n    tag_418:\n        /* \"#utility.yul\":1867:1868   */\n      0x00\n        /* \"#utility.yul\":1864:1865   */\n      dup1\n        /* \"#utility.yul\":1857:1869   */\n      revert\n        /* \"#utility.yul\":2004:2126   */\n    tag_420:\n        /* \"#utility.yul\":2077:2101   */\n      tag_467\n        /* \"#utility.yul\":2095:2100   */\n      dup2\n        /* \"#utility.yul\":2077:2101   */\n      tag_410\n      jump\t// in\n    tag_467:\n        /* \"#utility.yul\":2070:2075   */\n      dup2\n        /* \"#utility.yul\":2067:2102   */\n      eq\n        /* \"#utility.yul\":2057:2120   */\n      tag_468\n      jumpi\n        /* \"#utility.yul\":2116:2117   */\n      0x00\n        /* \"#utility.yul\":2113:2114   */\n      dup1\n        /* \"#utility.yul\":2106:2118   */\n      revert\n        /* \"#utility.yul\":2057:2120   */\n    tag_468:\n        /* \"#utility.yul\":2004:2126   */\n      pop\n      jump\t// out\n        /* \"#utility.yul\":2132:2271   */\n    tag_421:\n        /* \"#utility.yul\":2178:2183   */\n      0x00\n        /* \"#utility.yul\":2216:2222   */\n      dup2\n        /* \"#utility.yul\":2203:2223   */\n      calldataload\n        /* \"#utility.yul\":2194:2223   */\n      swap1\n      pop\n        /* \"#utility.yul\":2232:2265   */\n      tag_470\n        /* \"#utility.yul\":2259:2264   */\n      dup2\n        /* \"#utility.yul\":2232:2265   */\n      tag_420\n      jump\t// in\n    tag_470:\n        /* \"#utility.yul\":2132:2271   */\n      swap3\n      swap2\n      pop\n      pop\n      jump\t// out\n        /* \"#utility.yul\":2277:2606   */\n    tag_46:\n        /* \"#utility.yul\":2336:2342   */\n      0x00\n        /* \"#utility.yul\":2385:2387   */\n      0x20\n        /* \"#utility.yul\":2373:2382   */\n      dup3\n        /* \"#utility.yul\":2364:2371   */\n      dup5\n        /* \"#utility.yul\":2360:2383   */\n      sub\n        /* \"#utility.yul\":2356:2388   */\n      slt\n        /* \"#utility.yul\":2353:2472   */\n      iszero\n      tag_472\n      jumpi\n        /* \"#utility.yul\":2391:2470   */\n      tag_473\n      tag_418\n      jump\t// in\n    tag_473:\n        /* \"#utility.yul\":2353:2472   */\n    tag_472:\n        /* \"#utility.yul\":2511:2512   */\n      0x00\n        /* \"#utility.yul\":2536:2589   */\n      tag_474\n        /* \"#utility.yul\":2581:2588   */\n      dup5\n        /* \"#utility.yul\":2572:2578   */\n      dup3\n        /* \"#utility.yul\":2561:2570   */\n      dup6\n        /* \"#utility.yul\":2557:2579   */\n      add\n        /* \"#utility.yul\":2536:2589   */\n      tag_421\n      jump\t// in\n    tag_474:\n        /* \"#utility.yul\":2526:2589   */\n      swap2\n      pop\n        /* \"#utility.yul\":2482:2599   */\n      pop\n        /* \"#utility.yul\":2277:2606   */\n      swap3\n      swap2\n      pop\n      pop\n      jump\t// out\n        /* \"#utility.yul\":2612:2738   */\n    tag_422:\n        /* \"#utility.yul\":2649:2656   */\n      0x00\n        /* \"#utility.yul\":2689:2731   */\n      0xffffffffffffffffffffffffffffffffffffffff\n        /* \"#utility.yul\":2682:2687   */\n      dup3\n        /* \"#utility.yul\":2678:2732   */\n      and\n        /* \"#utility.yul\":2667:2732   */\n      swap1\n      pop\n        /* \"#utility.yul\":2612:2738   */\n      swap2\n      swap1\n      pop\n      jump\t// out\n        /* \"#utility.yul\":2744:2840   */\n    tag_423:\n        /* \"#utility.yul\":2781:2788   */\n      0x00\n        /* \"#utility.yul\":2810:2834   */\n      tag_477\n        /* \"#utility.yul\":2828:2833   */\n      dup3\n        /* \"#utility.yul\":2810:2834   */\n      tag_422\n      jump\t// in\n    tag_477:\n        /* \"#utility.yul\":2799:2834   */\n      swap1\n      pop\n        /* \"#utility.yul\":2744:2840   */\n      swap2\n      swap1\n      pop\n      jump\t// out\n        /* \"#utility.yul\":2846:2968   */\n    tag_424:\n        /* \"#utility.yul\":2919:2943   */\n      tag_479\n        /* \"#utility.yul\":2937:2942   */\n      dup2\n        /* \"#utility.yul\":2919:2943   */\n      tag_423\n      jump\t// in\n    tag_479:\n        /* \"#utility.yul\":2912:2917   */\n      dup2\n        /* \"#utility.yul\":2909:2944   */\n      eq\n        /* \"#utility.yul\":2899:2962   */\n      tag_480\n      jumpi\n        /* \"#utility.yul\":2958:2959   */\n      0x00\n        /* \"#utility.yul\":2955:2956   */\n      dup1\n        /* \"#utility.yul\":2948:2960   */\n      revert\n        /* \"#utility.yul\":2899:2962   */\n    tag_480:\n        /* \"#utility.yul\":2846:2968   */\n      pop\n      jump\t// out\n        /* \"#utility.yul\":2974:3113   */\n    tag_425:\n        /* \"#utility.yul\":3020:3025   */\n      0x00\n        /* \"#utility.yul\":3058:3064   */\n      dup2\n        /* \"#utility.yul\":3045:3065   */\n      calldataload\n        /* \"#utility.yul\":3036:3065   */\n      swap1\n      pop\n        /* \"#utility.yul\":3074:3107   */\n      tag_482\n        /* \"#utility.yul\":3101:3106   */\n      dup2\n        /* \"#utility.yul\":3074:3107   */\n      tag_424\n      jump\t// in\n    tag_482:\n        /* \"#utility.yul\":2974:3113   */\n      swap3\n      swap2\n      pop\n      pop\n      jump\t// out\n        /* \"#utility.yul\":3119:3593   */\n    tag_51:\n        /* \"#utility.yul\":3187:3193   */\n      0x00\n        /* \"#utility.yul\":3195:3201   */\n      dup1\n        /* \"#utility.yul\":3244:3246   */\n      0x40\n        /* \"#utility.yul\":3232:3241   */\n      dup4\n        /* \"#utility.yul\":3223:3230   */\n      dup6\n        /* \"#utility.yul\":3219:3242   */\n      sub\n        /* \"#utility.yul\":3215:3247   */\n      slt\n        /* \"#utility.yul\":3212:3331   */\n      iszero\n      tag_484\n      jumpi\n        /* \"#utility.yul\":3250:3329   */\n      tag_485\n      tag_418\n      jump\t// in\n    tag_485:\n        /* \"#utility.yul\":3212:3331   */\n    tag_484:\n        /* \"#utility.yul\":3370:3371   */\n      0x00\n        /* \"#utility.yul\":3395:3448   */\n      tag_486\n        /* \"#utility.yul\":3440:3447   */\n      dup6\n        /* \"#utility.yul\":3431:3437   */\n      dup3\n        /* \"#utility.yul\":3420:3429   */\n      dup7\n        /* \"#utility.yul\":3416:3438   */\n      add\n        /* \"#utility.yul\":3395:3448   */\n      tag_425\n      jump\t// in\n    tag_486:\n        /* \"#utility.yul\":3385:3448   */\n      swap3\n      pop\n        /* \"#utility.yul\":3341:3458   */\n      pop\n        /* \"#utility.yul\":3497:3499   */\n      0x20\n        /* \"#utility.yul\":3523:3576   */\n      tag_487\n        /* \"#utility.yul\":3568:3575   */\n      dup6\n        /* \"#utility.yul\":3559:3565   */\n      dup3\n        /* \"#utility.yul\":3548:3557   */\n      dup7\n        /* \"#utility.yul\":3544:3566   */\n      add\n        /* \"#utility.yul\":3523:3576   */\n      tag_421\n      jump\t// in\n    tag_487:\n        /* \"#utility.yul\":3513:3576   */\n      swap2\n      pop\n        /* \"#utility.yul\":3468:3586   */\n      pop\n        /* \"#utility.yul\":3119:3593   */\n      swap3\n      pop\n      swap3\n      swap1\n      pop\n      jump\t// out\n        /* \"#utility.yul\":3599:3689   */\n    tag_426:\n        /* \"#utility.yul\":3633:3640   */\n      0x00\n        /* \"#utility.yul\":3676:3681   */\n      dup2\n        /* \"#utility.yul\":3669:3682   */\n      iszero\n        /* \"#utility.yul\":3662:3683   */\n      iszero\n        /* \"#utility.yul\":3651:3683   */\n      swap1\n      pop\n        /* \"#utility.yul\":3599:3689   */\n      swap2\n      swap1\n      pop\n      jump\t// out\n        /* \"#utility.yul\":3695:3804   */\n    tag_427:\n        /* \"#utility.yul\":3776:3797   */\n      tag_490\n        /* \"#utility.yul\":3791:3796   */\n      dup2\n        /* \"#utility.yul\":3776:3797   */\n      tag_426\n      jump\t// in\n    tag_490:\n        /* \"#utility.yul\":3771:3774   */\n      dup3\n        /* \"#utility.yul\":3764:3798   */\n      mstore\n        /* \"#utility.yul\":3695:3804   */\n      pop\n      pop\n      jump\t// out\n        /* \"#utility.yul\":3810:4020   */\n    tag_54:\n        /* \"#utility.yul\":3897:3901   */\n      0x00\n        /* \"#utility.yul\":3935:3937   */\n      0x20\n        /* \"#utility.yul\":3924:3933   */\n      dup3\n        /* \"#utility.yul\":3920:3938   */\n      add\n        /* \"#utility.yul\":3912:3938   */\n      swap1\n      pop\n        /* \"#utility.yul\":3948:4013   */\n      tag_492\n        /* \"#utility.yul\":4010:4011   */\n      0x00\n        /* \"#utility.yul\":3999:4008   */\n      dup4\n        /* \"#utility.yul\":3995:4012   */\n      add\n        /* \"#utility.yul\":3986:3992   */\n      dup5\n        /* \"#utility.yul\":3948:4013   */\n      tag_427\n      jump\t// in\n    tag_492:\n        /* \"#utility.yul\":3810:4020   */\n      swap3\n      swap2\n      pop\n      pop\n      jump\t// out\n        /* \"#utility.yul\":4026:4645   */\n    tag_64:\n        /* \"#utility.yul\":4103:4109   */\n      0x00\n        /* \"#utility.yul\":4111:4117   */\n      dup1\n        /* \"#utility.yul\":4119:4125   */\n      0x00\n        /* \"#utility.yul\":4168:4170   */\n      0x60\n        /* \"#utility.yul\":4156:4165   */\n      dup5\n        /* \"#utility.yul\":4147:4154   */\n      dup7\n        /* \"#utility.yul\":4143:4166   */\n      sub\n        /* \"#utility.yul\":4139:4171   */\n      slt\n        /* \"#utility.yul\":4136:4255   */\n      iszero\n      tag_494\n      jumpi\n        /* \"#utility.yul\":4174:4253   */\n      tag_495\n      tag_418\n      jump\t// in\n    tag_495:\n        /* \"#utility.yul\":4136:4255   */\n    tag_494:\n        /* \"#utility.yul\":4294:4295   */\n      0x00\n        /* \"#utility.yul\":4319:4372   */\n      tag_496\n        /* \"#utility.yul\":4364:4371   */\n      dup7\n        /* \"#utility.yul\":4355:4361   */\n      dup3\n        /* \"#utility.yul\":4344:4353   */\n      dup8\n        /* \"#utility.yul\":4340:4362   */\n      add\n        /* \"#utility.yul\":4319:4372   */\n      tag_425\n      jump\t// in\n    tag_496:\n        /* \"#utility.yul\":4309:4372   */\n      swap4\n      pop\n        /* \"#utility.yul\":4265:4382   */\n      pop\n        /* \"#utility.yul\":4421:4423   */\n      0x20\n        /* \"#utility.yul\":4447:4500   */\n      tag_497\n        /* \"#utility.yul\":4492:4499   */\n      dup7\n        /* \"#utility.yul\":4483:4489   */\n      dup3\n        /* \"#utility.yul\":4472:4481   */\n      dup8\n        /* \"#utility.yul\":4468:4490   */\n      add\n        /* \"#utility.yul\":4447:4500   */\n      tag_425\n      jump\t// in\n    tag_497:\n        /* \"#utility.yul\":4437:4500   */\n      swap3\n      pop\n        /* \"#utility.yul\":4392:4510   */\n      pop\n        /* \"#utility.yul\":4549:4551   */\n      0x40\n        /* \"#utility.yul\":4575:4628   */\n      tag_498\n        /* \"#utility.yul\":4620:4627   */\n      dup7\n        /* \"#utility.yul\":4611:4617   */\n      dup3\n        /* \"#utility.yul\":4600:4609   */\n      dup8\n        /* \"#utility.yul\":4596:4618   */\n      add\n        /* \"#utility.yul\":4575:4628   */\n      tag_421\n      jump\t// in\n    tag_498:\n        /* \"#utility.yul\":4565:4628   */\n      swap2\n      pop\n        /* \"#utility.yul\":4520:4638   */\n      pop\n        /* \"#utility.yul\":4026:4645   */\n      swap3\n      pop\n      swap3\n      pop\n      swap3\n      jump\t// out\n        /* \"#utility.yul\":4651:4737   */\n    tag_428:\n        /* \"#utility.yul\":4686:4693   */\n      0x00\n        /* \"#utility.yul\":4726:4730   */\n      0xff\n        /* \"#utility.yul\":4719:4724   */\n      dup3\n        /* \"#utility.yul\":4715:4731   */\n      and\n        /* \"#utility.yul\":4704:4731   */\n      swap1\n      pop\n        /* \"#utility.yul\":4651:4737   */\n      swap2\n      swap1\n      pop\n      jump\t// out\n        /* \"#utility.yul\":4743:4855   */\n    tag_429:\n        /* \"#utility.yul\":4826:4848   */\n      tag_501\n        /* \"#utility.yul\":4842:4847   */\n      dup2\n        /* \"#utility.yul\":4826:4848   */\n      tag_428\n      jump\t// in\n    tag_501:\n        /* \"#utility.yul\":4821:4824   */\n      dup3\n        /* \"#utility.yul\":4814:4849   */\n      mstore\n        /* \"#utility.yul\":4743:4855   */\n      pop\n      pop\n      jump\t// out\n        /* \"#utility.yul\":4861:5075   */\n    tag_70:\n        /* \"#utility.yul\":4950:4954   */\n      0x00\n        /* \"#utility.yul\":4988:4990   */\n      0x20\n        /* \"#utility.yul\":4977:4986   */\n      dup3\n        /* \"#utility.yul\":4973:4991   */\n      add\n        /* \"#utility.yul\":4965:4991   */\n      swap1\n      pop\n        /* \"#utility.yul\":5001:5068   */\n      tag_503\n        /* \"#utility.yul\":5065:5066   */\n      0x00\n        /* \"#utility.yul\":5054:5063   */\n      dup4\n        /* \"#utility.yul\":5050:5067   */\n      add\n        /* \"#utility.yul\":5041:5047   */\n      dup5\n        /* \"#utility.yul\":5001:5068   */\n      tag_429\n      jump\t// in\n    tag_503:\n        /* \"#utility.yul\":4861:5075   */\n      swap3\n      swap2\n      pop\n      pop\n      jump\t// out\n        /* \"#utility.yul\":5081:5199   */\n    tag_430:\n        /* \"#utility.yul\":5168:5192   */\n      tag_505\n        /* \"#utility.yul\":5186:5191   */\n      dup2\n        /* \"#utility.yul\":5168:5192   */\n      tag_423\n      jump\t// in\n    tag_505:\n        /* \"#utility.yul\":5163:5166   */\n      dup3\n        /* \"#utility.yul\":5156:5193   */\n      mstore\n        /* \"#utility.yul\":5081:5199   */\n      pop\n      pop\n      jump\t// out\n        /* \"#utility.yul\":5205:5427   */\n    tag_74:\n        /* \"#utility.yul\":5298:5302   */\n      0x00\n        /* \"#utility.yul\":5336:5338   */\n      0x20\n        /* \"#utility.yul\":5325:5334   */\n      dup3\n        /* \"#utility.yul\":5321:5339   */\n      add\n        /* \"#utility.yul\":5313:5339   */\n      swap1\n      pop\n        /* \"#utility.yul\":5349:5420   */\n      tag_507\n        /* \"#utility.yul\":5417:5418   */\n      0x00\n        /* \"#utility.yul\":5406:5415   */\n      dup4\n        /* \"#utility.yul\":5402:5419   */\n      add\n        /* \"#utility.yul\":5393:5399   */\n      dup5\n        /* \"#utility.yul\":5349:5420   */\n      tag_430\n      jump\t// in\n    tag_507:\n        /* \"#utility.yul\":5205:5427   */\n      swap3\n      swap2\n      pop\n      pop\n      jump\t// out\n        /* \"#utility.yul\":5433:5762   */\n    tag_77:\n        /* \"#utility.yul\":5492:5498   */\n      0x00\n        /* \"#utility.yul\":5541:5543   */\n      0x20\n        /* \"#utility.yul\":5529:5538   */\n      dup3\n        /* \"#utility.yul\":5520:5527   */\n      dup5\n        /* \"#utility.yul\":5516:5539   */\n      sub\n        /* \"#utility.yul\":5512:5544   */\n      slt\n        /* \"#utility.yul\":5509:5628   */\n      iszero\n      tag_509\n      jumpi\n        /* \"#utility.yul\":5547:5626   */\n      tag_510\n      tag_418\n      jump\t// in\n    tag_510:\n        /* \"#utility.yul\":5509:5628   */\n    tag_509:\n        /* \"#utility.yul\":5667:5668   */\n      0x00\n        /* \"#utility.yul\":5692:5745   */\n      tag_511\n        /* \"#utility.yul\":5737:5744   */\n      dup5\n        /* \"#utility.yul\":5728:5734   */\n      dup3\n        /* \"#utility.yul\":5717:5726   */\n      dup6\n        /* \"#utility.yul\":5713:5735   */\n      add\n        /* \"#utility.yul\":5692:5745   */\n      tag_425\n      jump\t// in\n    tag_511:\n        /* \"#utility.yul\":5682:5745   */\n      swap2\n      pop\n        /* \"#utility.yul\":5638:5755   */\n      pop\n        /* \"#utility.yul\":5433:5762   */\n      swap3\n      swap2\n      pop\n      pop\n      jump\t// out\n        /* \"#utility.yul\":5768:6242   */\n    tag_86:\n        /* \"#utility.yul\":5836:5842   */\n      0x00\n        /* \"#utility.yul\":5844:5850   */\n      dup1\n        /* \"#utility.yul\":5893:5895   */\n      0x40\n        /* \"#utility.yul\":5881:5890   */\n      dup4\n        /* \"#utility.yul\":5872:5879   */\n      dup6\n        /* \"#utility.yul\":5868:5891   */\n      sub\n        /* \"#utility.yul\":5864:5896   */\n      slt\n        /* \"#utility.yul\":5861:5980   */\n      iszero\n      tag_513\n      jumpi\n        /* \"#utility.yul\":5899:5978   */\n      tag_514\n      tag_418\n      jump\t// in\n    tag_514:\n        /* \"#utility.yul\":5861:5980   */\n    tag_513:\n        /* \"#utility.yul\":6019:6020   */\n      0x00\n        /* \"#utility.yul\":6044:6097   */\n      tag_515\n        /* \"#utility.yul\":6089:6096   */\n      dup6\n        /* \"#utility.yul\":6080:6086   */\n      dup3\n        /* \"#utility.yul\":6069:6078   */\n      dup7\n        /* \"#utility.yul\":6065:6087   */\n      add\n        /* \"#utility.yul\":6044:6097   */\n      tag_421\n      jump\t// in\n    tag_515:\n        /* \"#utility.yul\":6034:6097   */\n      swap3\n      pop\n        /* \"#utility.yul\":5990:6107   */\n      pop\n        /* \"#utility.yul\":6146:6148   */\n      0x20\n        /* \"#utility.yul\":6172:6225   */\n      tag_516\n        /* \"#utility.yul\":6217:6224   */\n      dup6\n        /* \"#utility.yul\":6208:6214   */\n      dup3\n        /* \"#utility.yul\":6197:6206   */\n      dup7\n        /* \"#utility.yul\":6193:6215   */\n      add\n        /* \"#utility.yul\":6172:6225   */\n      tag_425\n      jump\t// in\n    tag_516:\n        /* \"#utility.yul\":6162:6225   */\n      swap2\n      pop\n        /* \"#utility.yul\":6117:6235   */\n      pop\n        /* \"#utility.yul\":5768:6242   */\n      swap3\n      pop\n      swap3\n      swap1\n      pop\n      jump\t// out\n        /* \"#utility.yul\":6248:6867   */\n    tag_117:\n        /* \"#utility.yul\":6325:6331   */\n      0x00\n        /* \"#utility.yul\":6333:6339   */\n      dup1\n        /* \"#utility.yul\":6341:6347   */\n      0x00\n        /* \"#utility.yul\":6390:6392   */\n      0x60\n        /* \"#utility.yul\":6378:6387   */\n      dup5\n        /* \"#utility.yul\":6369:6376   */\n      dup7\n        /* \"#utility.yul\":6365:6388   */\n      sub\n        /* \"#utility.yul\":6361:6393   */\n      slt\n        /* \"#utility.yul\":6358:6477   */\n      iszero\n      tag_518\n      jumpi\n        /* \"#utility.yul\":6396:6475   */\n      tag_519\n      tag_418\n      jump\t// in\n    tag_519:\n        /* \"#utility.yul\":6358:6477   */\n    tag_518:\n        /* \"#utility.yul\":6516:6517   */\n      0x00\n        /* \"#utility.yul\":6541:6594   */\n      tag_520\n        /* \"#utility.yul\":6586:6593   */\n      dup7\n        /* \"#utility.yul\":6577:6583   */\n      dup3\n        /* \"#utility.yul\":6566:6575   */\n      dup8\n        /* \"#utility.yul\":6562:6584   */\n      add\n        /* \"#utility.yul\":6541:6594   */\n      tag_421\n      jump\t// in\n    tag_520:\n        /* \"#utility.yul\":6531:6594   */\n      swap4\n      pop\n        /* \"#utility.yul\":6487:6604   */\n      pop\n        /* \"#utility.yul\":6643:6645   */\n      0x20\n        /* \"#utility.yul\":6669:6722   */\n      tag_521\n        /* \"#utility.yul\":6714:6721   */\n      dup7\n        /* \"#utility.yul\":6705:6711   */\n      dup3\n        /* \"#utility.yul\":6694:6703   */\n      dup8\n        /* \"#utility.yul\":6690:6712   */\n      add\n        /* \"#utility.yul\":6669:6722   */\n      tag_425\n      jump\t// in\n    tag_521:\n        /* \"#utility.yul\":6659:6722   */\n      swap3\n      pop\n        /* \"#utility.yul\":6614:6732   */\n      pop\n        /* \"#utility.yul\":6771:6773   */\n      0x40\n        /* \"#utility.yul\":6797:6850   */\n      tag_522\n        /* \"#utility.yul\":6842:6849   */\n      dup7\n        /* \"#utility.yul\":6833:6839   */\n      dup3\n        /* \"#utility.yul\":6822:6831   */\n      dup8\n        /* \"#utility.yul\":6818:6840   */\n      add\n        /* \"#utility.yul\":6797:6850   */\n      tag_425\n      jump\t// in\n    tag_522:\n        /* \"#utility.yul\":6787:6850   */\n      swap2\n      pop\n        /* \"#utility.yul\":6742:6860   */\n      pop\n        /* \"#utility.yul\":6248:6867   */\n      swap3\n      pop\n      swap3\n      pop\n      swap3\n      jump\t// out\n        /* \"#utility.yul\":6873:7347   */\n    tag_142:\n        /* \"#utility.yul\":6941:6947   */\n      0x00\n        /* \"#utility.yul\":6949:6955   */\n      dup1\n        /* \"#utility.yul\":6998:7000   */\n      0x40\n        /* \"#utility.yul\":6986:6995   */\n      dup4\n        /* \"#utility.yul\":6977:6984   */\n      dup6\n        /* \"#utility.yul\":6973:6996   */\n      sub\n        /* \"#utility.yul\":6969:7001   */\n      slt\n        /* \"#utility.yul\":6966:7085   */\n      iszero\n      tag_524\n      jumpi\n        /* \"#utility.yul\":7004:7083   */\n      tag_525\n      tag_418\n      jump\t// in\n    tag_525:\n        /* \"#utility.yul\":6966:7085   */\n    tag_524:\n        /* \"#utility.yul\":7124:7125   */\n      0x00\n        /* \"#utility.yul\":7149:7202   */\n      tag_526\n        /* \"#utility.yul\":7194:7201   */\n      dup6\n        /* \"#utility.yul\":7185:7191   */\n      dup3\n        /* \"#utility.yul\":7174:7183   */\n      dup7\n        /* \"#utility.yul\":7170:7192   */\n      add\n        /* \"#utility.yul\":7149:7202   */\n      tag_425\n      jump\t// in\n    tag_526:\n        /* \"#utility.yul\":7139:7202   */\n      swap3\n      pop\n        /* \"#utility.yul\":7095:7212   */\n      pop\n        /* \"#utility.yul\":7251:7253   */\n      0x20\n        /* \"#utility.yul\":7277:7330   */\n      tag_527\n        /* \"#utility.yul\":7322:7329   */\n      dup6\n        /* \"#utility.yul\":7313:7319   */\n      dup3\n        /* \"#utility.yul\":7302:7311   */\n      dup7\n        /* \"#utility.yul\":7298:7320   */\n      add\n        /* \"#utility.yul\":7277:7330   */\n      tag_425\n      jump\t// in\n    tag_527:\n        /* \"#utility.yul\":7267:7330   */\n      swap2\n      pop\n        /* \"#utility.yul\":7222:7340   */\n      pop\n        /* \"#utility.yul\":6873:7347   */\n      swap3\n      pop\n      swap3\n      swap1\n      pop\n      jump\t// out\n        /* \"#utility.yul\":7353:7496   */\n    tag_431:\n        /* \"#utility.yul\":7410:7415   */\n      0x00\n        /* \"#utility.yul\":7441:7447   */\n      dup2\n        /* \"#utility.yul\":7435:7448   */\n      mload\n        /* \"#utility.yul\":7426:7448   */\n      swap1\n      pop\n        /* \"#utility.yul\":7457:7490   */\n      tag_529\n        /* \"#utility.yul\":7484:7489   */\n      dup2\n        /* \"#utility.yul\":7457:7490   */\n      tag_420\n      jump\t// in\n    tag_529:\n        /* \"#utility.yul\":7353:7496   */\n      swap3\n      swap2\n      pop\n      pop\n      jump\t// out\n        /* \"#utility.yul\":7502:7853   */\n    tag_154:\n        /* \"#utility.yul\":7572:7578   */\n      0x00\n        /* \"#utility.yul\":7621:7623   */\n      0x20\n        /* \"#utility.yul\":7609:7618   */\n      dup3\n        /* \"#utility.yul\":7600:7607   */\n      dup5\n        /* \"#utility.yul\":7596:7619   */\n      sub\n        /* \"#utility.yul\":7592:7624   */\n      slt\n        /* \"#utility.yul\":7589:7708   */\n      iszero\n      tag_531\n      jumpi\n        /* \"#utility.yul\":7627:7706   */\n      tag_532\n      tag_418\n      jump\t// in\n    tag_532:\n        /* \"#utility.yul\":7589:7708   */\n    tag_531:\n        /* \"#utility.yul\":7747:7748   */\n      0x00\n        /* \"#utility.yul\":7772:7836   */\n      tag_533\n        /* \"#utility.yul\":7828:7835   */\n      dup5\n        /* \"#utility.yul\":7819:7825   */\n      dup3\n        /* \"#utility.yul\":7808:7817   */\n      dup6\n        /* \"#utility.yul\":7804:7826   */\n      add\n        /* \"#utility.yul\":7772:7836   */\n      tag_431\n      jump\t// in\n    tag_533:\n        /* \"#utility.yul\":7762:7836   */\n      swap2\n      pop\n        /* \"#utility.yul\":7718:7846   */\n      pop\n        /* \"#utility.yul\":7502:7853   */\n      swap3\n      swap2\n      pop\n      pop\n      jump\t// out\n        /* \"#utility.yul\":7859:8039   */\n    tag_432:\n        /* \"#utility.yul\":7907:7984   */\n      0x4e487b7100000000000000000000000000000000000000000000000000000000\n        /* \"#utility.yul\":7904:7905   */\n      0x00\n        /* \"#utility.yul\":7897:7985   */\n      mstore\n        /* \"#utility.yul\":8004:8008   */\n      0x22\n        /* \"#utility.yul\":8001:8002   */\n      0x04\n        /* \"#utility.yul\":7994:8009   */\n      mstore\n        /* \"#utility.yul\":8028:8032   */\n      0x24\n        /* \"#utility.yul\":8025:8026   */\n      0x00\n        /* \"#utility.yul\":8018:8033   */\n      revert\n        /* \"#utility.yul\":8045:8365   */\n    tag_157:\n        /* \"#utility.yul\":8089:8095   */\n      0x00\n        /* \"#utility.yul\":8126:8127   */\n      0x02\n        /* \"#utility.yul\":8120:8124   */\n      dup3\n        /* \"#utility.yul\":8116:8128   */\n      div\n        /* \"#utility.yul\":8106:8128   */\n      swap1\n      pop\n        /* \"#utility.yul\":8173:8174   */\n      0x01\n        /* \"#utility.yul\":8167:8171   */\n      dup3\n        /* \"#utility.yul\":8163:8175   */\n      and\n        /* \"#utility.yul\":8194:8212   */\n      dup1\n        /* \"#utility.yul\":8184:8265   */\n      tag_536\n      jumpi\n        /* \"#utility.yul\":8250:8254   */\n      0x7f\n        /* \"#utility.yul\":8242:8248   */\n      dup3\n        /* \"#utility.yul\":8238:8255   */\n      and\n        /* \"#utility.yul\":8228:8255   */\n      swap2\n      pop\n        /* \"#utility.yul\":8184:8265   */\n    tag_536:\n        /* \"#utility.yul\":8312:8314   */\n      0x20\n        /* \"#utility.yul\":8304:8310   */\n      dup3\n        /* \"#utility.yul\":8301:8315   */\n      lt\n        /* \"#utility.yul\":8281:8299   */\n      dup2\n        /* \"#utility.yul\":8278:8316   */\n      sub\n        /* \"#utility.yul\":8275:8359   */\n      tag_537\n      jumpi\n        /* \"#utility.yul\":8331:8349   */\n      tag_538\n      tag_432\n      jump\t// in\n    tag_538:\n        /* \"#utility.yul\":8275:8359   */\n    tag_537:\n        /* \"#utility.yul\":8096:8365   */\n      pop\n        /* \"#utility.yul\":8045:8365   */\n      swap2\n      swap1\n      pop\n      jump\t// out\n        /* \"#utility.yul\":8371:8551   */\n    tag_433:\n        /* \"#utility.yul\":8419:8496   */\n      0x4e487b7100000000000000000000000000000000000000000000000000000000\n        /* \"#utility.yul\":8416:8417   */\n      0x00\n        /* \"#utility.yul\":8409:8497   */\n      mstore\n        /* \"#utility.yul\":8516:8520   */\n      0x11\n        /* \"#utility.yul\":8513:8514   */\n      0x04\n        /* \"#utility.yul\":8506:8521   */\n      mstore\n        /* \"#utility.yul\":8540:8544   */\n      0x24\n        /* \"#utility.yul\":8537:8538   */\n      0x00\n        /* \"#utility.yul\":8530:8545   */\n      revert\n        /* \"#utility.yul\":8557:8751   */\n    tag_175:\n        /* \"#utility.yul\":8597:8601   */\n      0x00\n        /* \"#utility.yul\":8617:8637   */\n      tag_541\n        /* \"#utility.yul\":8635:8636   */\n      dup3\n        /* \"#utility.yul\":8617:8637   */\n      tag_410\n      jump\t// in\n    tag_541:\n        /* \"#utility.yul\":8612:8637   */\n      swap2\n      pop\n        /* \"#utility.yul\":8651:8671   */\n      tag_542\n        /* \"#utility.yul\":8669:8670   */\n      dup4\n        /* \"#utility.yul\":8651:8671   */\n      tag_410\n      jump\t// in\n    tag_542:\n        /* \"#utility.yul\":8646:8671   */\n      swap3\n      pop\n        /* \"#utility.yul\":8695:8696   */\n      dup3\n        /* \"#utility.yul\":8692:8693   */\n      dup3\n        /* \"#utility.yul\":8688:8697   */\n      sub\n        /* \"#utility.yul\":8680:8697   */\n      swap1\n      pop\n        /* \"#utility.yul\":8719:8720   */\n      dup2\n        /* \"#utility.yul\":8713:8717   */\n      dup2\n        /* \"#utility.yul\":8710:8721   */\n      gt\n        /* \"#utility.yul\":8707:8744   */\n      iszero\n      tag_543\n      jumpi\n        /* \"#utility.yul\":8724:8742   */\n      tag_544\n      tag_433\n      jump\t// in\n    tag_544:\n        /* \"#utility.yul\":8707:8744   */\n    tag_543:\n        /* \"#utility.yul\":8557:8751   */\n      swap3\n      swap2\n      pop\n      pop\n      jump\t// out\n        /* \"#utility.yul\":8757:8945   */\n    tag_187:\n        /* \"#utility.yul\":8795:8798   */\n      0x00\n        /* \"#utility.yul\":8814:8832   */\n      tag_546\n        /* \"#utility.yul\":8830:8831   */\n      dup3\n        /* \"#utility.yul\":8814:8832   */\n      tag_428\n      jump\t// in\n    tag_546:\n        /* \"#utility.yul\":8809:8832   */\n      swap2\n      pop\n        /* \"#utility.yul\":8846:8864   */\n      tag_547\n        /* \"#utility.yul\":8862:8863   */\n      dup4\n        /* \"#utility.yul\":8846:8864   */\n      tag_428\n      jump\t// in\n    tag_547:\n        /* \"#utility.yul\":8841:8864   */\n      swap3\n      pop\n        /* \"#utility.yul\":8887:8888   */\n      dup3\n        /* \"#utility.yul\":8884:8885   */\n      dup3\n        /* \"#utility.yul\":8880:8889   */\n      add\n        /* \"#utility.yul\":8873:8889   */\n      swap1\n      pop\n        /* \"#utility.yul\":8910:8914   */\n      0xff\n        /* \"#utility.yul\":8905:8908   */\n      dup2\n        /* \"#utility.yul\":8902:8915   */\n      gt\n        /* \"#utility.yul\":8899:8938   */\n      iszero\n      tag_548\n      jumpi\n        /* \"#utility.yul\":8918:8936   */\n      tag_549\n      tag_433\n      jump\t// in\n    tag_549:\n        /* \"#utility.yul\":8899:8938   */\n    tag_548:\n        /* \"#utility.yul\":8757:8945   */\n      swap3\n      swap2\n      pop\n      pop\n      jump\t// out\n        /* \"#utility.yul\":8951:9142   */\n    tag_196:\n        /* \"#utility.yul\":8991:8994   */\n      0x00\n        /* \"#utility.yul\":9010:9030   */\n      tag_551\n        /* \"#utility.yul\":9028:9029   */\n      dup3\n        /* \"#utility.yul\":9010:9030   */\n      tag_410\n      jump\t// in\n    tag_551:\n        /* \"#utility.yul\":9005:9030   */\n      swap2\n      pop\n        /* \"#utility.yul\":9044:9064   */\n      tag_552\n        /* \"#utility.yul\":9062:9063   */\n      dup4\n        /* \"#utility.yul\":9044:9064   */\n      tag_410\n      jump\t// in\n    tag_552:\n        /* \"#utility.yul\":9039:9064   */\n      swap3\n      pop\n        /* \"#utility.yul\":9087:9088   */\n      dup3\n        /* \"#utility.yul\":9084:9085   */\n      dup3\n        /* \"#utility.yul\":9080:9089   */\n      add\n        /* \"#utility.yul\":9073:9089   */\n      swap1\n      pop\n        /* \"#utility.yul\":9108:9111   */\n      dup1\n        /* \"#utility.yul\":9105:9106   */\n      dup3\n        /* \"#utility.yul\":9102:9112   */\n      gt\n        /* \"#utility.yul\":9099:9135   */\n      iszero\n      tag_553\n      jumpi\n        /* \"#utility.yul\":9115:9133   */\n      tag_554\n      tag_433\n      jump\t// in\n    tag_554:\n        /* \"#utility.yul\":9099:9135   */\n    tag_553:\n        /* \"#utility.yul\":8951:9142   */\n      swap3\n      swap2\n      pop\n      pop\n      jump\t// out\n        /* \"#utility.yul\":9148:9590   */\n    tag_203:\n        /* \"#utility.yul\":9297:9301   */\n      0x00\n        /* \"#utility.yul\":9335:9337   */\n      0x60\n        /* \"#utility.yul\":9324:9333   */\n      dup3\n        /* \"#utility.yul\":9320:9338   */\n      add\n        /* \"#utility.yul\":9312:9338   */\n      swap1\n      pop\n        /* \"#utility.yul\":9348:9419   */\n      tag_556\n        /* \"#utility.yul\":9416:9417   */\n      0x00\n        /* \"#utility.yul\":9405:9414   */\n      dup4\n        /* \"#utility.yul\":9401:9418   */\n      add\n        /* \"#utility.yul\":9392:9398   */\n      dup7\n        /* \"#utility.yul\":9348:9419   */\n      tag_430\n      jump\t// in\n    tag_556:\n        /* \"#utility.yul\":9429:9501   */\n      tag_557\n        /* \"#utility.yul\":9497:9499   */\n      0x20\n        /* \"#utility.yul\":9486:9495   */\n      dup4\n        /* \"#utility.yul\":9482:9500   */\n      add\n        /* \"#utility.yul\":9473:9479   */\n      dup6\n        /* \"#utility.yul\":9429:9501   */\n      tag_411\n      jump\t// in\n    tag_557:\n        /* \"#utility.yul\":9511:9583   */\n      tag_558\n        /* \"#utility.yul\":9579:9581   */\n      0x40\n        /* \"#utility.yul\":9568:9577   */\n      dup4\n        /* \"#utility.yul\":9564:9582   */\n      add\n        /* \"#utility.yul\":9555:9561   */\n      dup5\n        /* \"#utility.yul\":9511:9583   */\n      tag_411\n      jump\t// in\n    tag_558:\n        /* \"#utility.yul\":9148:9590   */\n      swap5\n      swap4\n      pop\n      pop\n      pop\n      pop\n      jump\t// out\n        /* \"#utility.yul\":9596:9773   */\n    tag_434:\n        /* \"#utility.yul\":9736:9765   */\n      0x45786365656473206d617820776974686472617720616d6f756e740000000000\n        /* \"#utility.yul\":9732:9733   */\n      0x00\n        /* \"#utility.yul\":9724:9730   */\n      dup3\n        /* \"#utility.yul\":9720:9734   */\n      add\n        /* \"#utility.yul\":9713:9766   */\n      mstore\n        /* \"#utility.yul\":9596:9773   */\n      pop\n      jump\t// out\n        /* \"#utility.yul\":9779:10145   */\n    tag_435:\n        /* \"#utility.yul\":9921:9924   */\n      0x00\n        /* \"#utility.yul\":9942:10009   */\n      tag_561\n        /* \"#utility.yul\":10006:10008   */\n      0x1b\n        /* \"#utility.yul\":10001:10004   */\n      dup4\n        /* \"#utility.yul\":9942:10009   */\n      tag_413\n      jump\t// in\n    tag_561:\n        /* \"#utility.yul\":9935:10009   */\n      swap2\n      pop\n        /* \"#utility.yul\":10018:10111   */\n      tag_562\n        /* \"#utility.yul\":10107:10110   */\n      dup3\n        /* \"#utility.yul\":10018:10111   */\n      tag_434\n      jump\t// in\n    tag_562:\n        /* \"#utility.yul\":10136:10138   */\n      0x20\n        /* \"#utility.yul\":10131:10134   */\n      dup3\n        /* \"#utility.yul\":10127:10139   */\n      add\n        /* \"#utility.yul\":10120:10139   */\n      swap1\n      pop\n        /* \"#utility.yul\":9779:10145   */\n      swap2\n      swap1\n      pop\n      jump\t// out\n        /* \"#utility.yul\":10151:10570   */\n    tag_223:\n        /* \"#utility.yul\":10317:10321   */\n      0x00\n        /* \"#utility.yul\":10355:10357   */\n      0x20\n        /* \"#utility.yul\":10344:10353   */\n      dup3\n        /* \"#utility.yul\":10340:10358   */\n      add\n        /* \"#utility.yul\":10332:10358   */\n      swap1\n      pop\n        /* \"#utility.yul\":10404:10413   */\n      dup2\n        /* \"#utility.yul\":10398:10402   */\n      dup2\n        /* \"#utility.yul\":10394:10414   */\n      sub\n        /* \"#utility.yul\":10390:10391   */\n      0x00\n        /* \"#utility.yul\":10379:10388   */\n      dup4\n        /* \"#utility.yul\":10375:10392   */\n      add\n        /* \"#utility.yul\":10368:10415   */\n      mstore\n        /* \"#utility.yul\":10432:10563   */\n      tag_564\n        /* \"#utility.yul\":10558:10562   */\n      dup2\n        /* \"#utility.yul\":10432:10563   */\n      tag_435\n      jump\t// in\n    tag_564:\n        /* \"#utility.yul\":10424:10563   */\n      swap1\n      pop\n        /* \"#utility.yul\":10151:10570   */\n      swap2\n      swap1\n      pop\n      jump\t// out\n        /* \"#utility.yul\":10576:10796   */\n    tag_436:\n        /* \"#utility.yul\":10716:10750   */\n      0x43616e6e6f74207769746864726177206c6f636b656420636f6c6c6174657261\n        /* \"#utility.yul\":10712:10713   */\n      0x00\n        /* \"#utility.yul\":10704:10710   */\n      dup3\n        /* \"#utility.yul\":10700:10714   */\n      add\n        /* \"#utility.yul\":10693:10751   */\n      mstore\n        /* \"#utility.yul\":10785:10788   */\n      0x6c00000000000000000000000000000000000000000000000000000000000000\n        /* \"#utility.yul\":10780:10782   */\n      0x20\n        /* \"#utility.yul\":10772:10778   */\n      dup3\n        /* \"#utility.yul\":10768:10783   */\n      add\n        /* \"#utility.yul\":10761:10789   */\n      mstore\n        /* \"#utility.yul\":10576:10796   */\n      pop\n      jump\t// out\n        /* \"#utility.yul\":10802:11168   */\n    tag_437:\n        /* \"#utility.yul\":10944:10947   */\n      0x00\n        /* \"#utility.yul\":10965:11032   */\n      tag_567\n        /* \"#utility.yul\":11029:11031   */\n      0x21\n        /* \"#utility.yul\":11024:11027   */\n      dup4\n        /* \"#utility.yul\":10965:11032   */\n      tag_413\n      jump\t// in\n    tag_567:\n        /* \"#utility.yul\":10958:11032   */\n      swap2\n      pop\n        /* \"#utility.yul\":11041:11134   */\n      tag_568\n        /* \"#utility.yul\":11130:11133   */\n      dup3\n        /* \"#utility.yul\":11041:11134   */\n      tag_436\n      jump\t// in\n    tag_568:\n        /* \"#utility.yul\":11159:11161   */\n      0x40\n        /* \"#utility.yul\":11154:11157   */\n      dup3\n        /* \"#utility.yul\":11150:11162   */\n      add\n        /* \"#utility.yul\":11143:11162   */\n      swap1\n      pop\n        /* \"#utility.yul\":10802:11168   */\n      swap2\n      swap1\n      pop\n      jump\t// out\n        /* \"#utility.yul\":11174:11593   */\n    tag_226:\n        /* \"#utility.yul\":11340:11344   */\n      0x00\n        /* \"#utility.yul\":11378:11380   */\n      0x20\n        /* \"#utility.yul\":11367:11376   */\n      dup3\n        /* \"#utility.yul\":11363:11381   */\n      add\n        /* \"#utility.yul\":11355:11381   */\n      swap1\n      pop\n        /* \"#utility.yul\":11427:11436   */\n      dup2\n        /* \"#utility.yul\":11421:11425   */\n      dup2\n        /* \"#utility.yul\":11417:11437   */\n      sub\n        /* \"#utility.yul\":11413:11414   */\n      0x00\n        /* \"#utility.yul\":11402:11411   */\n      dup4\n        /* \"#utility.yul\":11398:11415   */\n      add\n        /* \"#utility.yul\":11391:11438   */\n      mstore\n        /* \"#utility.yul\":11455:11586   */\n      tag_570\n        /* \"#utility.yul\":11581:11585   */\n      dup2\n        /* \"#utility.yul\":11455:11586   */\n      tag_437\n      jump\t// in\n    tag_570:\n        /* \"#utility.yul\":11447:11586   */\n      swap1\n      pop\n        /* \"#utility.yul\":11174:11593   */\n      swap2\n      swap1\n      pop\n      jump\t// out\n        /* \"#utility.yul\":11599:11701   */\n    tag_438:\n        /* \"#utility.yul\":11641:11649   */\n      0x00\n        /* \"#utility.yul\":11688:11693   */\n      dup2\n        /* \"#utility.yul\":11685:11686   */\n      0x01\n        /* \"#utility.yul\":11681:11694   */\n      shr\n        /* \"#utility.yul\":11660:11694   */\n      swap1\n      pop\n        /* \"#utility.yul\":11599:11701   */\n      swap2\n      swap1\n      pop\n      jump\t// out\n        /* \"#utility.yul\":11707:12555   */\n    tag_439:\n        /* \"#utility.yul\":11768:11773   */\n      0x00\n        /* \"#utility.yul\":11775:11779   */\n      dup1\n        /* \"#utility.yul\":11799:11805   */\n      dup3\n        /* \"#utility.yul\":11790:11805   */\n      swap2\n      pop\n        /* \"#utility.yul\":11823:11828   */\n      dup4\n        /* \"#utility.yul\":11814:11828   */\n      swap1\n      pop\n        /* \"#utility.yul\":11837:12549   */\n    tag_573:\n        /* \"#utility.yul\":11858:11859   */\n      0x01\n        /* \"#utility.yul\":11848:11856   */\n      dup6\n        /* \"#utility.yul\":11845:11860   */\n      gt\n        /* \"#utility.yul\":11837:12549   */\n      iszero\n      tag_575\n      jumpi\n        /* \"#utility.yul\":11953:11957   */\n      dup1\n        /* \"#utility.yul\":11948:11951   */\n      dup7\n        /* \"#utility.yul\":11944:11958   */\n      div\n        /* \"#utility.yul\":11938:11942   */\n      dup2\n        /* \"#utility.yul\":11935:11959   */\n      gt\n        /* \"#utility.yul\":11932:11982   */\n      iszero\n      tag_576\n      jumpi\n        /* \"#utility.yul\":11962:11980   */\n      tag_577\n      tag_433\n      jump\t// in\n    tag_577:\n        /* \"#utility.yul\":11932:11982   */\n    tag_576:\n        /* \"#utility.yul\":12012:12013   */\n      0x01\n        /* \"#utility.yul\":12002:12010   */\n      dup6\n        /* \"#utility.yul\":11998:12014   */\n      and\n        /* \"#utility.yul\":11995:12446   */\n      iszero\n      tag_578\n      jumpi\n        /* \"#utility.yul\":12427:12431   */\n      dup1\n        /* \"#utility.yul\":12420:12425   */\n      dup3\n        /* \"#utility.yul\":12416:12432   */\n      mul\n        /* \"#utility.yul\":12407:12432   */\n      swap2\n      pop\n        /* \"#utility.yul\":11995:12446   */\n    tag_578:\n        /* \"#utility.yul\":12477:12481   */\n      dup1\n        /* \"#utility.yul\":12471:12475   */\n      dup2\n        /* \"#utility.yul\":12467:12482   */\n      mul\n        /* \"#utility.yul\":12459:12482   */\n      swap1\n      pop\n        /* \"#utility.yul\":12507:12539   */\n      tag_579\n        /* \"#utility.yul\":12530:12538   */\n      dup6\n        /* \"#utility.yul\":12507:12539   */\n      tag_438\n      jump\t// in\n    tag_579:\n        /* \"#utility.yul\":12495:12539   */\n      swap5\n      pop\n        /* \"#utility.yul\":11837:12549   */\n      jump(tag_573)\n    tag_575:\n        /* \"#utility.yul\":11707:12555   */\n      swap5\n      pop\n      swap5\n      swap3\n      pop\n      pop\n      pop\n      jump\t// out\n        /* \"#utility.yul\":12561:13634   */\n    tag_440:\n        /* \"#utility.yul\":12615:12620   */\n      0x00\n        /* \"#utility.yul\":12806:12814   */\n      dup3\n        /* \"#utility.yul\":12796:12836   */\n      tag_581\n      jumpi\n        /* \"#utility.yul\":12827:12828   */\n      0x01\n        /* \"#utility.yul\":12818:12828   */\n      swap1\n      pop\n        /* \"#utility.yul\":12829:12834   */\n      jump(tag_580)\n        /* \"#utility.yul\":12796:12836   */\n    tag_581:\n        /* \"#utility.yul\":12855:12859   */\n      dup2\n        /* \"#utility.yul\":12845:12881   */\n      tag_582\n      jumpi\n        /* \"#utility.yul\":12872:12873   */\n      0x00\n        /* \"#utility.yul\":12863:12873   */\n      swap1\n      pop\n        /* \"#utility.yul\":12874:12879   */\n      jump(tag_580)\n        /* \"#utility.yul\":12845:12881   */\n    tag_582:\n        /* \"#utility.yul\":12941:12945   */\n      dup2\n        /* \"#utility.yul\":12989:12990   */\n      0x01\n        /* \"#utility.yul\":12984:13011   */\n      dup2\n      eq\n      tag_584\n      jumpi\n        /* \"#utility.yul\":13025:13026   */\n      0x02\n        /* \"#utility.yul\":13020:13211   */\n      dup2\n      eq\n      tag_585\n      jumpi\n        /* \"#utility.yul\":12934:13211   */\n      jump(tag_583)\n        /* \"#utility.yul\":12984:13011   */\n    tag_584:\n        /* \"#utility.yul\":13002:13003   */\n      0x01\n        /* \"#utility.yul\":12993:13003   */\n      swap2\n      pop\n        /* \"#utility.yul\":13004:13009   */\n      pop\n      jump(tag_580)\n        /* \"#utility.yul\":13020:13211   */\n    tag_585:\n        /* \"#utility.yul\":13065:13068   */\n      0xff\n        /* \"#utility.yul\":13055:13063   */\n      dup5\n        /* \"#utility.yul\":13052:13069   */\n      gt\n        /* \"#utility.yul\":13049:13092   */\n      iszero\n      tag_586\n      jumpi\n        /* \"#utility.yul\":13072:13090   */\n      tag_587\n      tag_433\n      jump\t// in\n    tag_587:\n        /* \"#utility.yul\":13049:13092   */\n    tag_586:\n        /* \"#utility.yul\":13121:13129   */\n      dup4\n        /* \"#utility.yul\":13118:13119   */\n      0x02\n        /* \"#utility.yul\":13114:13130   */\n      exp\n        /* \"#utility.yul\":13105:13130   */\n      swap2\n      pop\n        /* \"#utility.yul\":13156:13159   */\n      dup5\n        /* \"#utility.yul\":13149:13154   */\n      dup3\n        /* \"#utility.yul\":13146:13160   */\n      gt\n        /* \"#utility.yul\":13143:13183   */\n      iszero\n      tag_588\n      jumpi\n        /* \"#utility.yul\":13163:13181   */\n      tag_589\n      tag_433\n      jump\t// in\n    tag_589:\n        /* \"#utility.yul\":13143:13183   */\n    tag_588:\n        /* \"#utility.yul\":13196:13201   */\n      pop\n      jump(tag_580)\n        /* \"#utility.yul\":12934:13211   */\n    tag_583:\n      pop\n        /* \"#utility.yul\":13320:13322   */\n      0x20\n        /* \"#utility.yul\":13310:13318   */\n      dup4\n        /* \"#utility.yul\":13307:13323   */\n      lt\n        /* \"#utility.yul\":13301:13304   */\n      0x0133\n        /* \"#utility.yul\":13295:13299   */\n      dup4\n        /* \"#utility.yul\":13292:13305   */\n      lt\n        /* \"#utility.yul\":13288:13324   */\n      and\n        /* \"#utility.yul\":13270:13272   */\n      0x4e\n        /* \"#utility.yul\":13260:13268   */\n      dup5\n        /* \"#utility.yul\":13257:13273   */\n      lt\n        /* \"#utility.yul\":13252:13254   */\n      0x0b\n        /* \"#utility.yul\":13246:13250   */\n      dup5\n        /* \"#utility.yul\":13243:13255   */\n      lt\n        /* \"#utility.yul\":13239:13274   */\n      and\n        /* \"#utility.yul\":13223:13334   */\n      or\n        /* \"#utility.yul\":13220:13466   */\n      iszero\n      tag_590\n      jumpi\n        /* \"#utility.yul\":13376:13384   */\n      dup3\n        /* \"#utility.yul\":13370:13374   */\n      dup3\n        /* \"#utility.yul\":13366:13385   */\n      exp\n        /* \"#utility.yul\":13357:13385   */\n      swap1\n      pop\n        /* \"#utility.yul\":13411:13414   */\n      dup4\n        /* \"#utility.yul\":13404:13409   */\n      dup2\n        /* \"#utility.yul\":13401:13415   */\n      gt\n        /* \"#utility.yul\":13398:13438   */\n      iszero\n      tag_591\n      jumpi\n        /* \"#utility.yul\":13418:13436   */\n      tag_592\n      tag_433\n      jump\t// in\n    tag_592:\n        /* \"#utility.yul\":13398:13438   */\n    tag_591:\n        /* \"#utility.yul\":13451:13456   */\n      jump(tag_580)\n        /* \"#utility.yul\":13220:13466   */\n    tag_590:\n        /* \"#utility.yul\":13491:13533   */\n      tag_593\n        /* \"#utility.yul\":13529:13532   */\n      dup5\n        /* \"#utility.yul\":13519:13527   */\n      dup5\n        /* \"#utility.yul\":13513:13517   */\n      dup5\n        /* \"#utility.yul\":13510:13511   */\n      0x01\n        /* \"#utility.yul\":13491:13533   */\n      tag_439\n      jump\t// in\n    tag_593:\n        /* \"#utility.yul\":13476:13533   */\n      swap3\n      pop\n      swap1\n      pop\n        /* \"#utility.yul\":13565:13569   */\n      dup2\n        /* \"#utility.yul\":13560:13563   */\n      dup5\n        /* \"#utility.yul\":13556:13570   */\n      div\n        /* \"#utility.yul\":13549:13554   */\n      dup2\n        /* \"#utility.yul\":13546:13571   */\n      gt\n        /* \"#utility.yul\":13543:13594   */\n      iszero\n      tag_594\n      jumpi\n        /* \"#utility.yul\":13574:13592   */\n      tag_595\n      tag_433\n      jump\t// in\n    tag_595:\n        /* \"#utility.yul\":13543:13594   */\n    tag_594:\n        /* \"#utility.yul\":13623:13627   */\n      dup2\n        /* \"#utility.yul\":13616:13621   */\n      dup2\n        /* \"#utility.yul\":13612:13628   */\n      mul\n        /* \"#utility.yul\":13603:13628   */\n      swap1\n      pop\n        /* \"#utility.yul\":12561:13634   */\n    tag_580:\n      swap4\n      swap3\n      pop\n      pop\n      pop\n      jump\t// out\n        /* \"#utility.yul\":13640:13921   */\n    tag_259:\n        /* \"#utility.yul\":13698:13703   */\n      0x00\n        /* \"#utility.yul\":13722:13745   */\n      tag_597\n        /* \"#utility.yul\":13740:13744   */\n      dup3\n        /* \"#utility.yul\":13722:13745   */\n      tag_410\n      jump\t// in\n    tag_597:\n        /* \"#utility.yul\":13714:13745   */\n      swap2\n      pop\n        /* \"#utility.yul\":13766:13791   */\n      tag_598\n        /* \"#utility.yul\":13782:13790   */\n      dup4\n        /* \"#utility.yul\":13766:13791   */\n      tag_428\n      jump\t// in\n    tag_598:\n        /* \"#utility.yul\":13754:13791   */\n      swap3\n      pop\n        /* \"#utility.yul\":13810:13914   */\n      tag_599\n        /* \"#utility.yul\":13847:13913   */\n      0xffffffffffffffffffffffffffffffffffffffffffffffffffffffffffffffff\n        /* \"#utility.yul\":13837:13845   */\n      dup5\n        /* \"#utility.yul\":13831:13835   */\n      dup5\n        /* \"#utility.yul\":13810:13914   */\n      tag_440\n      jump\t// in\n    tag_599:\n        /* \"#utility.yul\":13801:13914   */\n      swap1\n      pop\n        /* \"#utility.yul\":13640:13921   */\n      swap3\n      swap2\n      pop\n      pop\n      jump\t// out\n        /* \"#utility.yul\":13927:14259   */\n    tag_296:\n        /* \"#utility.yul\":14048:14052   */\n      0x00\n        /* \"#utility.yul\":14086:14088   */\n      0x40\n        /* \"#utility.yul\":14075:14084   */\n      dup3\n        /* \"#utility.yul\":14071:14089   */\n      add\n        /* \"#utility.yul\":14063:14089   */\n      swap1\n      pop\n        /* \"#utility.yul\":14099:14170   */\n      tag_601\n        /* \"#utility.yul\":14167:14168   */\n      0x00\n        /* \"#utility.yul\":14156:14165   */\n      dup4\n        /* \"#utility.yul\":14152:14169   */\n      add\n        /* \"#utility.yul\":14143:14149   */\n      dup6\n        /* \"#utility.yul\":14099:14170   */\n      tag_411\n      jump\t// in\n    tag_601:\n        /* \"#utility.yul\":14180:14252   */\n      tag_602\n        /* \"#utility.yul\":14248:14250   */\n      0x20\n        /* \"#utility.yul\":14237:14246   */\n      dup4\n        /* \"#utility.yul\":14233:14251   */\n      add\n        /* \"#utility.yul\":14224:14230   */\n      dup5\n        /* \"#utility.yul\":14180:14252   */\n      tag_411\n      jump\t// in\n    tag_602:\n        /* \"#utility.yul\":13927:14259   */\n      swap4\n      swap3\n      pop\n      pop\n      pop\n      jump\t// out\n        /* \"#utility.yul\":14265:14445   */\n    tag_331:\n        /* \"#utility.yul\":14313:14390   */\n      0x4e487b7100000000000000000000000000000000000000000000000000000000\n        /* \"#utility.yul\":14310:14311   */\n      0x00\n        /* \"#utility.yul\":14303:14391   */\n      mstore\n        /* \"#utility.yul\":14410:14414   */\n      0x12\n        /* \"#utility.yul\":14407:14408   */\n      0x04\n        /* \"#utility.yul\":14400:14415   */\n      mstore\n        /* \"#utility.yul\":14434:14438   */\n      0x24\n        /* \"#utility.yul\":14431:14432   */\n      0x00\n        /* \"#utility.yul\":14424:14439   */\n      revert\n        /* \"#utility.yul\":14451:14893   */\n    tag_353:\n        /* \"#utility.yul\":14600:14604   */\n      0x00\n        /* \"#utility.yul\":14638:14640   */\n      0x60\n        /* \"#utility.yul\":14627:14636   */\n      dup3\n        /* \"#utility.yul\":14623:14641   */\n      add\n        /* \"#utility.yul\":14615:14641   */\n      swap1\n      pop\n        /* \"#utility.yul\":14651:14722   */\n      tag_605\n        /* \"#utility.yul\":14719:14720   */\n      0x00\n        /* \"#utility.yul\":14708:14717   */\n      dup4\n        /* \"#utility.yul\":14704:14721   */\n      add\n        /* \"#utility.yul\":14695:14701   */\n      dup7\n        /* \"#utility.yul\":14651:14722   */\n      tag_430\n      jump\t// in\n    tag_605:\n        /* \"#utility.yul\":14732:14804   */\n      tag_606\n        /* \"#utility.yul\":14800:14802   */\n      0x20\n        /* \"#utility.yul\":14789:14798   */\n      dup4\n        /* \"#utility.yul\":14785:14803   */\n      add\n        /* \"#utility.yul\":14776:14782   */\n      dup6\n        /* \"#utility.yul\":14732:14804   */\n      tag_430\n      jump\t// in\n    tag_606:\n        /* \"#utility.yul\":14814:14886   */\n      tag_607\n        /* \"#utility.yul\":14882:14884   */\n      0x40\n        /* \"#utility.yul\":14871:14880   */\n      dup4\n        /* \"#utility.yul\":14867:14885   */\n      add\n        /* \"#utility.yul\":14858:14864   */\n      dup5\n        /* \"#utility.yul\":14814:14886   */\n      tag_411\n      jump\t// in\n    tag_607:\n        /* \"#utility.yul\":14451:14893   */\n      swap5\n      swap4\n      pop\n      pop\n      pop\n      pop\n      jump\t// out\n        /* \"#utility.yul\":14899:15231   */\n    tag_366:\n        /* \"#utility.yul\":15020:15024   */\n      0x00\n        /* \"#utility.yul\":15058:15060   */\n      0x40\n        /* \"#utility.yul\":15047:15056   */\n      dup3\n        /* \"#utility.yul\":15043:15061   */\n      add\n        /* \"#utility.yul\":15035:15061   */\n      swap1\n      pop\n        /* \"#utility.yul\":15071:15142   */\n      tag_609\n        /* \"#utility.yul\":15139:15140   */\n      0x00\n        /* \"#utility.yul\":15128:15137   */\n      dup4\n        /* \"#utility.yul\":15124:15141   */\n      add\n        /* \"#utility.yul\":15115:15121   */\n      dup6\n        /* \"#utility.yul\":15071:15142   */\n      tag_430\n      jump\t// in\n    tag_609:\n        /* \"#utility.yul\":15152:15224   */\n      tag_610\n        /* \"#utility.yul\":15220:15222   */\n      0x20\n        /* \"#utility.yul\":15209:15218   */\n      dup4\n        /* \"#utility.yul\":15205:15223   */\n      add\n        /* \"#utility.yul\":15196:15202   */\n      dup5\n        /* \"#utility.yul\":15152:15224   */\n      tag_411\n      jump\t// in\n    tag_610:\n        /* \"#utility.yul\":14899:15231   */\n      swap4\n      swap3\n      pop\n      pop\n      pop\n      jump\t// out\n        /* \"#utility.yul\":15237:15417   */\n    tag_375:\n        /* \"#utility.yul\":15285:15362   */\n      0x4e487b7100000000000000000000000000000000000000000000000000000000\n        /* \"#utility.yul\":15282:15283   */\n      0x00\n        /* \"#utility.yul\":15275:15363   */\n      mstore\n        /* \"#utility.yul\":15382:15386   */\n      0x21\n        /* \"#utility.yul\":15379:15380   */\n      0x04\n        /* \"#utility.yul\":15372:15387   */\n      mstore\n        /* \"#utility.yul\":15406:15410   */\n      0x24\n        /* \"#utility.yul\":15403:15404   */\n      0x00\n        /* \"#utility.yul\":15396:15411   */\n      revert\n        /* \"#utility.yul\":15423:15593   */\n    tag_377:\n        /* \"#utility.yul\":15453:15454   */\n      0x00\n        /* \"#utility.yul\":15470:15488   */\n      tag_613\n        /* \"#utility.yul\":15486:15487   */\n      dup3\n        /* \"#utility.yul\":15470:15488   */\n      tag_428\n      jump\t// in\n    tag_613:\n        /* \"#utility.yul\":15465:15488   */\n      swap2\n      pop\n        /* \"#utility.yul\":15502:15520   */\n      tag_614\n        /* \"#utility.yul\":15518:15519   */\n      dup4\n        /* \"#utility.yul\":15502:15520   */\n      tag_428\n      jump\t// in\n    tag_614:\n        /* \"#utility.yul\":15497:15520   */\n      swap3\n      pop\n        /* \"#utility.yul\":15539:15540   */\n      dup3\n        /* \"#utility.yul\":15529:15564   */\n      tag_615\n      jumpi\n        /* \"#utility.yul\":15544:15562   */\n      tag_616\n      tag_331\n      jump\t// in\n    tag_616:\n        /* \"#utility.yul\":15529:15564   */\n    tag_615:\n        /* \"#utility.yul\":15585:15586   */\n      dup3\n        /* \"#utility.yul\":15582:15583   */\n      dup3\n        /* \"#utility.yul\":15578:15587   */\n      mod\n        /* \"#utility.yul\":15573:15587   */\n      swap1\n      pop\n        /* \"#utility.yul\":15423:15593   */\n      swap3\n      swap2\n      pop\n      pop\n      jump\t// out\n        /* \"#utility.yul\":15599:15715   */\n    tag_441:\n        /* \"#utility.yul\":15669:15690   */\n      tag_618\n        /* \"#utility.yul\":15684:15689   */\n      dup2\n        /* \"#utility.yul\":15669:15690   */\n      tag_426\n      jump\t// in\n    tag_618:\n        /* \"#utility.yul\":15662:15667   */\n      dup2\n        /* \"#utility.yul\":15659:15691   */\n      eq\n        /* \"#utility.yul\":15649:15709   */\n      tag_619\n      jumpi\n        /* \"#utility.yul\":15705:15706   */\n      0x00\n        /* \"#utility.yul\":15702:15703   */\n      dup1\n        /* \"#utility.yul\":15695:15707   */\n      revert\n        /* \"#utility.yul\":15649:15709   */\n    tag_619:\n        /* \"#utility.yul\":15599:15715   */\n      pop\n      jump\t// out\n        /* \"#utility.yul\":15721:15858   */\n    tag_442:\n        /* \"#utility.yul\":15775:15780   */\n      0x00\n        /* \"#utility.yul\":15806:15812   */\n      dup2\n        /* \"#utility.yul\":15800:15813   */\n      mload\n        /* \"#utility.yul\":15791:15813   */\n      swap1\n      pop\n        /* \"#utility.yul\":15822:15852   */\n      tag_621\n        /* \"#utility.yul\":15846:15851   */\n      dup2\n        /* \"#utility.yul\":15822:15852   */\n      tag_441\n      jump\t// in\n    tag_621:\n        /* \"#utility.yul\":15721:15858   */\n      swap3\n      swap2\n      pop\n      pop\n      jump\t// out\n        /* \"#utility.yul\":15864:16209   */\n    tag_383:\n        /* \"#utility.yul\":15931:15937   */\n      0x00\n        /* \"#utility.yul\":15980:15982   */\n      0x20\n        /* \"#utility.yul\":15968:15977   */\n      dup3\n        /* \"#utility.yul\":15959:15966   */\n      dup5\n        /* \"#utility.yul\":15955:15978   */\n      sub\n        /* \"#utility.yul\":15951:15983   */\n      slt\n        /* \"#utility.yul\":15948:16067   */\n      iszero\n      tag_623\n      jumpi\n        /* \"#utility.yul\":15986:16065   */\n      tag_624\n      tag_418\n      jump\t// in\n    tag_624:\n        /* \"#utility.yul\":15948:16067   */\n    tag_623:\n        /* \"#utility.yul\":16106:16107   */\n      0x00\n        /* \"#utility.yul\":16131:16192   */\n      tag_625\n        /* \"#utility.yul\":16184:16191   */\n      dup5\n        /* \"#utility.yul\":16175:16181   */\n      dup3\n        /* \"#utility.yul\":16164:16173   */\n      dup6\n        /* \"#utility.yul\":16160:16182   */\n      add\n        /* \"#utility.yul\":16131:16192   */\n      tag_442\n      jump\t// in\n    tag_625:\n        /* \"#utility.yul\":16121:16192   */\n      swap2\n      pop\n        /* \"#utility.yul\":16077:16202   */\n      pop\n        /* \"#utility.yul\":15864:16209   */\n      swap3\n      swap2\n      pop\n      pop\n      jump\t// out\n        /* \"#utility.yul\":16215:16313   */\n    tag_443:\n        /* \"#utility.yul\":16266:16272   */\n      0x00\n        /* \"#utility.yul\":16300:16305   */\n      dup2\n        /* \"#utility.yul\":16294:16306   */\n      mload\n        /* \"#utility.yul\":16284:16306   */\n      swap1\n      pop\n        /* \"#utility.yul\":16215:16313   */\n      swap2\n      swap1\n      pop\n      jump\t// out\n        /* \"#utility.yul\":16319:16466   */\n    tag_444:\n        /* \"#utility.yul\":16420:16431   */\n      0x00\n        /* \"#utility.yul\":16457:16460   */\n      dup2\n        /* \"#utility.yul\":16442:16460   */\n      swap1\n      pop\n        /* \"#utility.yul\":16319:16466   */\n      swap3\n      swap2\n      pop\n      pop\n      jump\t// out\n        /* \"#utility.yul\":16472:16858   */\n    tag_445:\n        /* \"#utility.yul\":16576:16579   */\n      0x00\n        /* \"#utility.yul\":16604:16642   */\n      tag_629\n        /* \"#utility.yul\":16636:16641   */\n      dup3\n        /* \"#utility.yul\":16604:16642   */\n      tag_443\n      jump\t// in\n    tag_629:\n        /* \"#utility.yul\":16658:16746   */\n      tag_630\n        /* \"#utility.yul\":16739:16745   */\n      dup2\n        /* \"#utility.yul\":16734:16737   */\n      dup6\n        /* \"#utility.yul\":16658:16746   */\n      tag_444\n      jump\t// in\n    tag_630:\n        /* \"#utility.yul\":16651:16746   */\n      swap4\n      pop\n        /* \"#utility.yul\":16755:16820   */\n      tag_631\n        /* \"#utility.yul\":16813:16819   */\n      dup2\n        /* \"#utility.yul\":16808:16811   */\n      dup6\n        /* \"#utility.yul\":16801:16805   */\n      0x20\n        /* \"#utility.yul\":16794:16799   */\n      dup7\n        /* \"#utility.yul\":16790:16806   */\n      add\n        /* \"#utility.yul\":16755:16820   */\n      tag_414\n      jump\t// in\n    tag_631:\n        /* \"#utility.yul\":16845:16851   */\n      dup1\n        /* \"#utility.yul\":16840:16843   */\n      dup5\n        /* \"#utility.yul\":16836:16852   */\n      add\n        /* \"#utility.yul\":16829:16852   */\n      swap2\n      pop\n        /* \"#utility.yul\":16580:16858   */\n      pop\n        /* \"#utility.yul\":16472:16858   */\n      swap3\n      swap2\n      pop\n      pop\n      jump\t// out\n        /* \"#utility.yul\":16864:17135   */\n    tag_393:\n        /* \"#utility.yul\":16994:16997   */\n      0x00\n        /* \"#utility.yul\":17016:17109   */\n      tag_633\n        /* \"#utility.yul\":17105:17108   */\n      dup3\n        /* \"#utility.yul\":17096:17102   */\n      dup5\n        /* \"#utility.yul\":17016:17109   */\n      tag_445\n      jump\t// in\n    tag_633:\n        /* \"#utility.yul\":17009:17109   */\n      swap2\n      pop\n        /* \"#utility.yul\":17126:17129   */\n      dup2\n        /* \"#utility.yul\":17119:17129   */\n      swap1\n      pop\n        /* \"#utility.yul\":16864:17135   */\n      swap3\n      swap2\n      pop\n      pop\n      jump\t// out\n\n    auxdata: 0xa2646970667358221220d59a5cd3265cb00800220248f085c73f2003b7373affba19a4b309537e087b0d64736f6c634300081a0033\n}\n",
				"bytecode": {
					"linkReferences": {},
					"object": "60c060405234801561000f575f80fd5b50604051612dc4380380612dc483398181016040528101906100319190610294565b806040518060400160405280600d81526020017f4d795661756c74536861726573000000000000000000000000000000000000008152506040518060400160405280600381526020017f4d5653000000000000000000000000000000000000000000000000000000000081525081600390816100ad91906104f9565b5080600490816100bd91906104f9565b5050505f806100d18361012d60201b60201c565b91509150816100e15760126100e3565b805b60ff1660a08160ff16815250508273ffffffffffffffffffffffffffffffffffffffff1660808173ffffffffffffffffffffffffffffffffffffffff168152505050505050610685565b5f805f808473ffffffffffffffffffffffffffffffffffffffff1660405160240160405160208183030381529060405263313ce56760e01b6020820180517bffffffffffffffffffffffffffffffffffffffffffffffffffffffff83818316178352505050506040516101a0919061061a565b5f60405180830381855afa9150503d805f81146101d8576040519150601f19603f3d011682016040523d82523d5f602084013e6101dd565b606091505b50915091508180156101f157506020815110155b15610228575f8180602001905181019061020b919061065a565b905060ff801681116102265760018194509450505050610231565b505b5f809350935050505b915091565b5f80fd5b5f73ffffffffffffffffffffffffffffffffffffffff82169050919050565b5f6102638261023a565b9050919050565b61027381610259565b811461027d575f80fd5b50565b5f8151905061028e8161026a565b92915050565b5f602082840312156102a9576102a8610236565b5b5f6102b684828501610280565b91505092915050565b5f81519050919050565b7f4e487b71000000000000000000000000000000000000000000000000000000005f52604160045260245ffd5b7f4e487b71000000000000000000000000000000000000000000000000000000005f52602260045260245ffd5b5f600282049050600182168061033a57607f821691505b60208210810361034d5761034c6102f6565b5b50919050565b5f819050815f5260205f209050919050565b5f6020601f8301049050919050565b5f82821b905092915050565b5f600883026103af7fffffffffffffffffffffffffffffffffffffffffffffffffffffffffffffffff82610374565b6103b98683610374565b95508019841693508086168417925050509392505050565b5f819050919050565b5f819050919050565b5f6103fd6103f86103f3846103d1565b6103da565b6103d1565b9050919050565b5f819050919050565b610416836103e3565b61042a61042282610404565b848454610380565b825550505050565b5f90565b61043e610432565b61044981848461040d565b505050565b5b8181101561046c576104615f82610436565b60018101905061044f565b5050565b601f8211156104b15761048281610353565b61048b84610365565b8101602085101561049a578190505b6104ae6104a685610365565b83018261044e565b50505b505050565b5f82821c905092915050565b5f6104d15f19846008026104b6565b1980831691505092915050565b5f6104e983836104c2565b9150826002028217905092915050565b610502826102bf565b67ffffffffffffffff81111561051b5761051a6102c9565b5b6105258254610323565b610530828285610470565b5f60209050601f831160018114610561575f841561054f578287015190505b61055985826104de565b8655506105c0565b601f19841661056f86610353565b5f5b8281101561059657848901518255600182019150602085019450602081019050610571565b868310156105b357848901516105af601f8916826104c2565b8355505b6001600288020188555050505b505050505050565b5f81519050919050565b5f81905092915050565b8281835e5f83830152505050565b5f6105f4826105c8565b6105fe81856105d2565b935061060e8185602086016105dc565b80840191505092915050565b5f61062582846105ea565b915081905092915050565b610639816103d1565b8114610643575f80fd5b50565b5f8151905061065481610630565b92915050565b5f6020828403121561066f5761066e610236565b5b5f61067c84828501610646565b91505092915050565b60805160a0516127096106bb5f395f61085701525f8181610640015281816108880152818161115101526112bf01526127095ff3fe608060405234801561000f575f80fd5b50600436106101a7575f3560e01c806392bdf9ba116100f7578063ba08765211610095578063ce96cb771161006f578063ce96cb771461057d578063d905777e146105ad578063dd62ed3e146105dd578063ef8b30f71461060d576101a7565b8063ba087652146104ed578063c63d75b61461051d578063c6e6f5921461054d576101a7565b80639d76ea58116100d15780639d76ea581461043f578063a9059cbb1461045d578063b3d7f6b91461048d578063b460af94146104bd576101a7565b806392bdf9ba146103c157806394bf804d146103f157806395d89b4114610421576101a7565b806323b872dd11610164578063402d267d1161013e578063402d267d146103015780634cdad506146103315780636e553f651461036157806370a0823114610391576101a7565b806323b872dd14610295578063313ce567146102c557806338d52e0f146102e3576101a7565b806301e1d114146101ab57806306fdde03146101c957806307a2d13a146101e7578063095ea7b3146102175780630a28a4771461024757806318160ddd14610277575b5f80fd5b6101b361063d565b6040516101c09190611da0565b60405180910390f35b6101d16106db565b6040516101de9190611e29565b60405180910390f35b61020160048036038101906101fc9190611e77565b61076b565b60405161020e9190611da0565b60405180910390f35b610231600480360381019061022c9190611efc565b61077d565b60405161023e9190611f54565b60405180910390f35b610261600480360381019061025c9190611e77565b61079f565b60405161026e9190611da0565b60405180910390f35b61027f610815565b60405161028c9190611da0565b60405180910390f35b6102af60048036038101906102aa9190611f6d565b61081e565b6040516102bc9190611f54565b60405180910390f35b6102cd61084c565b6040516102da9190611fd8565b60405180910390f35b6102eb610885565b6040516102f89190612000565b60405180910390f35b61031b60048036038101906103169190612019565b6108ac565b6040516103289190611da0565b60405180910390f35b61034b60048036038101906103469190611e77565b6108d5565b6040516103589190611da0565b60405180910390f35b61037b60048036038101906103769190612044565b6108e7565b6040516103889190611da0565b60405180910390f35b6103ab60048036038101906103a69190612019565b6109a0565b6040516103b89190611da0565b60405180910390f35b6103db60048036038101906103d69190612019565b6109e5565b6040516103e89190611da0565b60405180910390f35b61040b60048036038101906104069190612044565b6109fa565b6040516104189190611da0565b60405180910390f35b610429610a7a565b6040516104369190611e29565b60405180910390f35b610447610b0a565b6040516104549190612000565b60405180910390f35b61047760048036038101906104729190611efc565b610b2f565b6040516104849190611f54565b60405180910390f35b6104a760048036038101906104a29190611e77565b610b51565b6040516104b49190611da0565b60405180910390f35b6104d760048036038101906104d29190612082565b610b64565b6040516104e49190611da0565b60405180910390f35b61050760048036038101906105029190612082565b610cea565b6040516105149190611da0565b60405180910390f35b61053760048036038101906105329190612019565b610d6c565b6040516105449190611da0565b60405180910390f35b61056760048036038101906105629190611e77565b610d95565b6040516105749190611da0565b60405180910390f35b61059760048036038101906105929190612019565b610da7565b6040516105a49190611da0565b60405180910390f35b6105c760048036038101906105c29190612019565b610e1d565b6040516105d49190611da0565b60405180910390f35b6105f760048036038101906105f291906120d2565b610e2e565b6040516106049190611da0565b60405180910390f35b61062760048036038101906106229190611e77565b610eb0565b6040516106349190611da0565b60405180910390f35b5f7f000000000000000000000000000000000000000000000000000000000000000073ffffffffffffffffffffffffffffffffffffffff166370a08231306040518263ffffffff1660e01b81526004016106979190612000565b602060405180830381865afa1580156106b2573d5f803e3d5ffd5b505050506040513d601f19601f820116820180604052508101906106d69190612124565b905090565b6060600380546106ea9061217c565b80601f01602080910402602001604051908101604052809291908181526020018280546107169061217c565b80156107615780601f1061073857610100808354040283529160200191610761565b820191905f5260205f20905b81548152906001019060200180831161074457829003601f168201915b5050505050905090565b5f610776825f610ec2565b9050919050565b5f80610787610f1a565b9050610794818585610f21565b600191505092915050565b5f806107aa83610f33565b90505f60055f3373ffffffffffffffffffffffffffffffffffffffff1673ffffffffffffffffffffffffffffffffffffffff1681526020019081526020015f205490508082111561080a57808261080191906121d9565b92505050610810565b5f925050505b919050565b5f600254905090565b5f80610828610f1a565b9050610835858285610f46565b610840858585610fd8565b60019150509392505050565b5f6108556110c8565b7f0000000000000000000000000000000000000000000000000000000000000000610880919061220c565b905090565b5f7f0000000000000000000000000000000000000000000000000000000000000000905090565b5f7fffffffffffffffffffffffffffffffffffffffffffffffffffffffffffffffff9050919050565b5f6108e0825f610ec2565b9050919050565b5f806108f384846110cc565b90508360055f8573ffffffffffffffffffffffffffffffffffffffff1673ffffffffffffffffffffffffffffffffffffffff1681526020019081526020015f205f8282546109419190612240565b925050819055508273ffffffffffffffffffffffffffffffffffffffff167f2251f6a4ed7fe619e9e8ce557d05a63dd484284f9c95c9ab334f6a7707cd08008560405161098e9190611da0565b60405180910390a28091505092915050565b5f805f8373ffffffffffffffffffffffffffffffffffffffff1673ffffffffffffffffffffffffffffffffffffffff1681526020019081526020015f20549050919050565b6005602052805f5260405f205f915090505481565b5f80610a0583610d6c565b905080841115610a50578284826040517f284ff667000000000000000000000000000000000000000000000000000000008152600401610a4793929190612273565b60405180910390fd5b5f610a5a85610b51565b9050610a6f610a67610f1a565b85838861114c565b809250505092915050565b606060048054610a899061217c565b80601f0160208091040260200160405190810160405280929190818152602001828054610ab59061217c565b8015610b005780601f10610ad757610100808354040283529160200191610b00565b820191905f5260205f20905b815481529060010190602001808311610ae357829003601f168201915b5050505050905090565b60065f9054906101000a900473ffffffffffffffffffffffffffffffffffffffff1681565b5f80610b39610f1a565b9050610b46818585610fd8565b600191505092915050565b5f610b5d826001610ec2565b9050919050565b5f610b6e82610da7565b841115610bb0576040517f08c379a0000000000000000000000000000000000000000000000000000000008152600401610ba7906122f2565b60405180910390fd5b60055f8373ffffffffffffffffffffffffffffffffffffffff1673ffffffffffffffffffffffffffffffffffffffff1681526020019081526020015f2054841115610c30576040517f08c379a0000000000000000000000000000000000000000000000000000000008152600401610c2790612380565b60405180910390fd5b5f610c3c8585856111ef565b90508460055f8573ffffffffffffffffffffffffffffffffffffffff1673ffffffffffffffffffffffffffffffffffffffff1681526020019081526020015f205f828254610c8a91906121d9565b925050819055508273ffffffffffffffffffffffffffffffffffffffff167fb4eaf47ecd4bc76248f192433e8067c96cb3e17aced42fbc47a512742fb7421686604051610cd79190611da0565b60405180910390a2809150509392505050565b5f80610cf583610e1d565b905080851115610d40578285826040517fb94abeec000000000000000000000000000000000000000000000000000000008152600401610d3793929190612273565b60405180910390fd5b5f610d4a866108d5565b9050610d60610d57610f1a565b8686848a611271565b80925050509392505050565b5f7fffffffffffffffffffffffffffffffffffffffffffffffffffffffffffffffff9050919050565b5f610da0825f61136a565b9050919050565b5f80610db2836113c2565b90505f60055f8573ffffffffffffffffffffffffffffffffffffffff1673ffffffffffffffffffffffffffffffffffffffff1681526020019081526020015f2054905080821115610e12578082610e0991906121d9565b92505050610e18565b5f925050505b919050565b5f610e27826109a0565b9050919050565b5f60015f8473ffffffffffffffffffffffffffffffffffffffff1673ffffffffffffffffffffffffffffffffffffffff1681526020019081526020015f205f8373ffffffffffffffffffffffffffffffffffffffff1673ffffffffffffffffffffffffffffffffffffffff1681526020019081526020015f2054905092915050565b5f610ebb825f61136a565b9050919050565b5f610f126001610ed061063d565b610eda9190612240565b610ee26110c8565b600a610eee91906124cd565b610ef6610815565b610f009190612240565b84866113dc909392919063ffffffff16565b905092915050565b5f33905090565b610f2e8383836001611431565b505050565b5f610f3f82600161136a565b9050919050565b5f610f518484610e2e565b90507fffffffffffffffffffffffffffffffffffffffffffffffffffffffffffffffff8114610fd25781811015610fc3578281836040517ffb8f41b2000000000000000000000000000000000000000000000000000000008152600401610fba93929190612273565b60405180910390fd5b610fd184848484035f611431565b5b50505050565b5f73ffffffffffffffffffffffffffffffffffffffff168373ffffffffffffffffffffffffffffffffffffffff1603611048575f6040517f96c6fd1e00000000000000000000000000000000000000000000000000000000815260040161103f9190612000565b60405180910390fd5b5f73ffffffffffffffffffffffffffffffffffffffff168273ffffffffffffffffffffffffffffffffffffffff16036110b8575f6040517fec442f050000000000000000000000000000000000000000000000000000000081526004016110af9190612000565b60405180910390fd5b6110c3838383611600565b505050565b5f90565b5f806110d7836108ac565b905080841115611122578284826040517f79012fb200000000000000000000000000000000000000000000000000000000815260040161111993929190612273565b60405180910390fd5b5f61112c85610eb0565b9050611141611139610f1a565b85878461114c565b809250505092915050565b6111787f0000000000000000000000000000000000000000000000000000000000000000853085611819565b611182838261189b565b8273ffffffffffffffffffffffffffffffffffffffff168473ffffffffffffffffffffffffffffffffffffffff167fdcbc1c05240f31ff3ad067ef1ee35ce4997762752e3a095284754544f4c709d784846040516111e1929190612517565b60405180910390a350505050565b5f806111fa83610da7565b905080851115611245578285826040517ffe9cceec00000000000000000000000000000000000000000000000000000000815260040161123c93929190612273565b60405180910390fd5b5f61124f8661079f565b905061126561125c610f1a565b86868985611271565b80925050509392505050565b8273ffffffffffffffffffffffffffffffffffffffff168573ffffffffffffffffffffffffffffffffffffffff16146112b0576112af838683610f46565b5b6112ba838261191a565b6112e57f00000000000000000000000000000000000000000000000000000000000000008584611999565b8273ffffffffffffffffffffffffffffffffffffffff168473ffffffffffffffffffffffffffffffffffffffff168673ffffffffffffffffffffffffffffffffffffffff167ffbde797d201c681b91056529119e0b02407c7bb96a4a2c75c01fc9667232c8db858560405161135b929190612517565b60405180910390a45050505050565b5f6113ba6113766110c8565b600a61138291906124cd565b61138a610815565b6113949190612240565b600161139e61063d565b6113a89190612240565b84866113dc909392919063ffffffff16565b905092915050565b5f6113d56113cf836109a0565b5f610ec2565b9050919050565b5f806113e9868686611a18565b90506113f483611b17565b801561141057505f848061140b5761140a61253e565b5b868809115b15611425576001816114229190612240565b90505b80915050949350505050565b5f73ffffffffffffffffffffffffffffffffffffffff168473ffffffffffffffffffffffffffffffffffffffff16036114a1575f6040517fe602df050000000000000000000000000000000000000000000000000000000081526004016114989190612000565b60405180910390fd5b5f73ffffffffffffffffffffffffffffffffffffffff168373ffffffffffffffffffffffffffffffffffffffff1603611511575f6040517f94280d620000000000000000000000000000000000000000000000000000000081526004016115089190612000565b60405180910390fd5b8160015f8673ffffffffffffffffffffffffffffffffffffffff1673ffffffffffffffffffffffffffffffffffffffff1681526020019081526020015f205f8573ffffffffffffffffffffffffffffffffffffffff1673ffffffffffffffffffffffffffffffffffffffff1681526020019081526020015f208190555080156115fa578273ffffffffffffffffffffffffffffffffffffffff168473ffffffffffffffffffffffffffffffffffffffff167f8c5be1e5ebec7d5bd14f71427d1e84f3dd0314c0f7b2291e5b200ac8c7c3b925846040516115f19190611da0565b60405180910390a35b50505050565b5f73ffffffffffffffffffffffffffffffffffffffff168373ffffffffffffffffffffffffffffffffffffffff1603611650578060025f8282546116449190612240565b9250508190555061171e565b5f805f8573ffffffffffffffffffffffffffffffffffffffff1673ffffffffffffffffffffffffffffffffffffffff1681526020019081526020015f20549050818110156116d9578381836040517fe450d38c0000000000000000000000000000000000000000000000000000000081526004016116d093929190612273565b60405180910390fd5b8181035f808673ffffffffffffffffffffffffffffffffffffffff1673ffffffffffffffffffffffffffffffffffffffff1681526020019081526020015f2081905550505b5f73ffffffffffffffffffffffffffffffffffffffff168273ffffffffffffffffffffffffffffffffffffffff1603611765578060025f82825403925050819055506117af565b805f808473ffffffffffffffffffffffffffffffffffffffff1673ffffffffffffffffffffffffffffffffffffffff1681526020019081526020015f205f82825401925050819055505b8173ffffffffffffffffffffffffffffffffffffffff168373ffffffffffffffffffffffffffffffffffffffff167fddf252ad1be2c89b69c2b068fc378daa952ba7f163c4a11628f55a4df523b3ef8360405161180c9190611da0565b60405180910390a3505050565b611895848573ffffffffffffffffffffffffffffffffffffffff166323b872dd86868660405160240161184e9392919061256b565b604051602081830303815290604052915060e01b6020820180517bffffffffffffffffffffffffffffffffffffffffffffffffffffffff8381831617835250505050611b44565b50505050565b5f73ffffffffffffffffffffffffffffffffffffffff168273ffffffffffffffffffffffffffffffffffffffff160361190b575f6040517fec442f050000000000000000000000000000000000000000000000000000000081526004016119029190612000565b60405180910390fd5b6119165f8383611600565b5050565b5f73ffffffffffffffffffffffffffffffffffffffff168273ffffffffffffffffffffffffffffffffffffffff160361198a575f6040517f96c6fd1e0000000000000000000000000000000000000000000000000000000081526004016119819190612000565b60405180910390fd5b611995825f83611600565b5050565b611a13838473ffffffffffffffffffffffffffffffffffffffff1663a9059cbb85856040516024016119cc9291906125a0565b604051602081830303815290604052915060e01b6020820180517bffffffffffffffffffffffffffffffffffffffffffffffffffffffff8381831617835250505050611b44565b505050565b5f8083850290505f8019858709828110838203039150505f8103611a5057838281611a4657611a4561253e565b5b0492505050611b10565b808411611a89576040517f227bc15300000000000000000000000000000000000000000000000000000000815260040160405180910390fd5b5f8486880990508281118203915080830392505f855f038616905080860495508084049350600181825f0304019050808302841793505f600287600302189050808702600203810290508087026002038102905080870260020381029050808702600203810290508087026002038102905080870260020381029050808502955050505050505b9392505050565b5f60016002836003811115611b2f57611b2e6125c7565b5b611b3991906125f4565b60ff16149050919050565b5f611b6e828473ffffffffffffffffffffffffffffffffffffffff16611bd990919063ffffffff16565b90505f815114158015611b92575080806020019051810190611b90919061264e565b155b15611bd457826040517f5274afe7000000000000000000000000000000000000000000000000000000008152600401611bcb9190612000565b60405180910390fd5b505050565b6060611be683835f611bee565b905092915050565b606081471015611c3557306040517fcd786059000000000000000000000000000000000000000000000000000000008152600401611c2c9190612000565b60405180910390fd5b5f808573ffffffffffffffffffffffffffffffffffffffff168486604051611c5d91906126bd565b5f6040518083038185875af1925050503d805f8114611c97576040519150601f19603f3d011682016040523d82523d5f602084013e611c9c565b606091505b5091509150611cac868383611cb7565b925050509392505050565b606082611ccc57611cc782611d44565b611d3c565b5f8251148015611cf257505f8473ffffffffffffffffffffffffffffffffffffffff163b145b15611d3457836040517f9996b315000000000000000000000000000000000000000000000000000000008152600401611d2b9190612000565b60405180910390fd5b819050611d3d565b5b9392505050565b5f81511115611d565780518082602001fd5b6040517f1425ea4200000000000000000000000000000000000000000000000000000000815260040160405180910390fd5b5f819050919050565b611d9a81611d88565b82525050565b5f602082019050611db35f830184611d91565b92915050565b5f81519050919050565b5f82825260208201905092915050565b8281835e5f83830152505050565b5f601f19601f8301169050919050565b5f611dfb82611db9565b611e058185611dc3565b9350611e15818560208601611dd3565b611e1e81611de1565b840191505092915050565b5f6020820190508181035f830152611e418184611df1565b905092915050565b5f80fd5b611e5681611d88565b8114611e60575f80fd5b50565b5f81359050611e7181611e4d565b92915050565b5f60208284031215611e8c57611e8b611e49565b5b5f611e9984828501611e63565b91505092915050565b5f73ffffffffffffffffffffffffffffffffffffffff82169050919050565b5f611ecb82611ea2565b9050919050565b611edb81611ec1565b8114611ee5575f80fd5b50565b5f81359050611ef681611ed2565b92915050565b5f8060408385031215611f1257611f11611e49565b5b5f611f1f85828601611ee8565b9250506020611f3085828601611e63565b9150509250929050565b5f8115159050919050565b611f4e81611f3a565b82525050565b5f602082019050611f675f830184611f45565b92915050565b5f805f60608486031215611f8457611f83611e49565b5b5f611f9186828701611ee8565b9350506020611fa286828701611ee8565b9250506040611fb386828701611e63565b9150509250925092565b5f60ff82169050919050565b611fd281611fbd565b82525050565b5f602082019050611feb5f830184611fc9565b92915050565b611ffa81611ec1565b82525050565b5f6020820190506120135f830184611ff1565b92915050565b5f6020828403121561202e5761202d611e49565b5b5f61203b84828501611ee8565b91505092915050565b5f806040838503121561205a57612059611e49565b5b5f61206785828601611e63565b925050602061207885828601611ee8565b9150509250929050565b5f805f6060848603121561209957612098611e49565b5b5f6120a686828701611e63565b93505060206120b786828701611ee8565b92505060406120c886828701611ee8565b9150509250925092565b5f80604083850312156120e8576120e7611e49565b5b5f6120f585828601611ee8565b925050602061210685828601611ee8565b9150509250929050565b5f8151905061211e81611e4d565b92915050565b5f6020828403121561213957612138611e49565b5b5f61214684828501612110565b91505092915050565b7f4e487b71000000000000000000000000000000000000000000000000000000005f52602260045260245ffd5b5f600282049050600182168061219357607f821691505b6020821081036121a6576121a561214f565b5b50919050565b7f4e487b71000000000000000000000000000000000000000000000000000000005f52601160045260245ffd5b5f6121e382611d88565b91506121ee83611d88565b9250828203905081811115612206576122056121ac565b5b92915050565b5f61221682611fbd565b915061222183611fbd565b9250828201905060ff81111561223a576122396121ac565b5b92915050565b5f61224a82611d88565b915061225583611d88565b925082820190508082111561226d5761226c6121ac565b5b92915050565b5f6060820190506122865f830186611ff1565b6122936020830185611d91565b6122a06040830184611d91565b949350505050565b7f45786365656473206d617820776974686472617720616d6f756e7400000000005f82015250565b5f6122dc601b83611dc3565b91506122e7826122a8565b602082019050919050565b5f6020820190508181035f830152612309816122d0565b9050919050565b7f43616e6e6f74207769746864726177206c6f636b656420636f6c6c61746572615f8201527f6c00000000000000000000000000000000000000000000000000000000000000602082015250565b5f61236a602183611dc3565b915061237582612310565b604082019050919050565b5f6020820190508181035f8301526123978161235e565b9050919050565b5f8160011c9050919050565b5f808291508390505b60018511156123f3578086048111156123cf576123ce6121ac565b5b60018516156123de5780820291505b80810290506123ec8561239e565b94506123b3565b94509492505050565b5f8261240b57600190506124c6565b81612418575f90506124c6565b816001811461242e576002811461243857612467565b60019150506124c6565b60ff84111561244a576124496121ac565b5b8360020a915084821115612461576124606121ac565b5b506124c6565b5060208310610133831016604e8410600b841016171561249c5782820a905083811115612497576124966121ac565b5b6124c6565b6124a984848460016123aa565b925090508184048111156124c0576124bf6121ac565b5b81810290505b9392505050565b5f6124d782611d88565b91506124e283611fbd565b925061250f7fffffffffffffffffffffffffffffffffffffffffffffffffffffffffffffffff84846123fc565b905092915050565b5f60408201905061252a5f830185611d91565b6125376020830184611d91565b9392505050565b7f4e487b71000000000000000000000000000000000000000000000000000000005f52601260045260245ffd5b5f60608201905061257e5f830186611ff1565b61258b6020830185611ff1565b6125986040830184611d91565b949350505050565b5f6040820190506125b35f830185611ff1565b6125c06020830184611d91565b9392505050565b7f4e487b71000000000000000000000000000000000000000000000000000000005f52602160045260245ffd5b5f6125fe82611fbd565b915061260983611fbd565b9250826126195761261861253e565b5b828206905092915050565b61262d81611f3a565b8114612637575f80fd5b50565b5f8151905061264881612624565b92915050565b5f6020828403121561266357612662611e49565b5b5f6126708482850161263a565b91505092915050565b5f81519050919050565b5f81905092915050565b5f61269782612679565b6126a18185612683565b93506126b1818560208601611dd3565b80840191505092915050565b5f6126c8828461268d565b91508190509291505056fea2646970667358221220d59a5cd3265cb00800220248f085c73f2003b7373affba19a4b309537e087b0d64736f6c634300081a0033",
					"opcodes": "PUSH1 0xC0 PUSH1 0x40 MSTORE CALLVALUE DUP1 ISZERO PUSH2 0xF JUMPI PUSH0 DUP1 REVERT JUMPDEST POP PUSH1 0x40 MLOAD PUSH2 0x2DC4 CODESIZE SUB DUP1 PUSH2 0x2DC4 DUP4 CODECOPY DUP2 DUP2 ADD PUSH1 0x40 MSTORE DUP2 ADD SWAP1 PUSH2 0x31 SWAP2 SWAP1 PUSH2 0x294 JUMP JUMPDEST DUP1 PUSH1 0x40 MLOAD DUP1 PUSH1 0x40 ADD PUSH1 0x40 MSTORE DUP1 PUSH1 0xD DUP2 MSTORE PUSH1 0x20 ADD PUSH32 0x4D795661756C7453686172657300000000000000000000000000000000000000 DUP2 MSTORE POP PUSH1 0x40 MLOAD DUP1 PUSH1 0x40 ADD PUSH1 0x40 MSTORE DUP1 PUSH1 0x3 DUP2 MSTORE PUSH1 0x20 ADD PUSH32 0x4D56530000000000000000000000000000000000000000000000000000000000 DUP2 MSTORE POP DUP2 PUSH1 0x3 SWAP1 DUP2 PUSH2 0xAD SWAP2 SWAP1 PUSH2 0x4F9 JUMP JUMPDEST POP DUP1 PUSH1 0x4 SWAP1 DUP2 PUSH2 0xBD SWAP2 SWAP1 PUSH2 0x4F9 JUMP JUMPDEST POP POP POP PUSH0 DUP1 PUSH2 0xD1 DUP4 PUSH2 0x12D PUSH1 0x20 SHL PUSH1 0x20 SHR JUMP JUMPDEST SWAP2 POP SWAP2 POP DUP2 PUSH2 0xE1 JUMPI PUSH1 0x12 PUSH2 0xE3 JUMP JUMPDEST DUP1 JUMPDEST PUSH1 0xFF AND PUSH1 0xA0 DUP2 PUSH1 0xFF AND DUP2 MSTORE POP POP DUP3 PUSH20 0xFFFFFFFFFFFFFFFFFFFFFFFFFFFFFFFFFFFFFFFF AND PUSH1 0x80 DUP2 PUSH20 0xFFFFFFFFFFFFFFFFFFFFFFFFFFFFFFFFFFFFFFFF AND DUP2 MSTORE POP POP POP POP POP POP PUSH2 0x685 JUMP JUMPDEST PUSH0 DUP1 PUSH0 DUP1 DUP5 PUSH20 0xFFFFFFFFFFFFFFFFFFFFFFFFFFFFFFFFFFFFFFFF AND PUSH1 0x40 MLOAD PUSH1 0x24 ADD PUSH1 0x40 MLOAD PUSH1 0x20 DUP2 DUP4 SUB SUB DUP2 MSTORE SWAP1 PUSH1 0x40 MSTORE PUSH4 0x313CE567 PUSH1 0xE0 SHL PUSH1 0x20 DUP3 ADD DUP1 MLOAD PUSH28 0xFFFFFFFFFFFFFFFFFFFFFFFFFFFFFFFFFFFFFFFFFFFFFFFFFFFFFFFF DUP4 DUP2 DUP4 AND OR DUP4 MSTORE POP POP POP POP PUSH1 0x40 MLOAD PUSH2 0x1A0 SWAP2 SWAP1 PUSH2 0x61A JUMP JUMPDEST PUSH0 PUSH1 0x40 MLOAD DUP1 DUP4 SUB DUP2 DUP6 GAS STATICCALL SWAP2 POP POP RETURNDATASIZE DUP1 PUSH0 DUP2 EQ PUSH2 0x1D8 JUMPI PUSH1 0x40 MLOAD SWAP2 POP PUSH1 0x1F NOT PUSH1 0x3F RETURNDATASIZE ADD AND DUP3 ADD PUSH1 0x40 MSTORE RETURNDATASIZE DUP3 MSTORE RETURNDATASIZE PUSH0 PUSH1 0x20 DUP5 ADD RETURNDATACOPY PUSH2 0x1DD JUMP JUMPDEST PUSH1 0x60 SWAP2 POP JUMPDEST POP SWAP2 POP SWAP2 POP DUP2 DUP1 ISZERO PUSH2 0x1F1 JUMPI POP PUSH1 0x20 DUP2 MLOAD LT ISZERO JUMPDEST ISZERO PUSH2 0x228 JUMPI PUSH0 DUP2 DUP1 PUSH1 0x20 ADD SWAP1 MLOAD DUP2 ADD SWAP1 PUSH2 0x20B SWAP2 SWAP1 PUSH2 0x65A JUMP JUMPDEST SWAP1 POP PUSH1 0xFF DUP1 AND DUP2 GT PUSH2 0x226 JUMPI PUSH1 0x1 DUP2 SWAP5 POP SWAP5 POP POP POP POP PUSH2 0x231 JUMP JUMPDEST POP JUMPDEST PUSH0 DUP1 SWAP4 POP SWAP4 POP POP POP JUMPDEST SWAP2 POP SWAP2 JUMP JUMPDEST PUSH0 DUP1 REVERT JUMPDEST PUSH0 PUSH20 0xFFFFFFFFFFFFFFFFFFFFFFFFFFFFFFFFFFFFFFFF DUP3 AND SWAP1 POP SWAP2 SWAP1 POP JUMP JUMPDEST PUSH0 PUSH2 0x263 DUP3 PUSH2 0x23A JUMP JUMPDEST SWAP1 POP SWAP2 SWAP1 POP JUMP JUMPDEST PUSH2 0x273 DUP2 PUSH2 0x259 JUMP JUMPDEST DUP2 EQ PUSH2 0x27D JUMPI PUSH0 DUP1 REVERT JUMPDEST POP JUMP JUMPDEST PUSH0 DUP2 MLOAD SWAP1 POP PUSH2 0x28E DUP2 PUSH2 0x26A JUMP JUMPDEST SWAP3 SWAP2 POP POP JUMP JUMPDEST PUSH0 PUSH1 0x20 DUP3 DUP5 SUB SLT ISZERO PUSH2 0x2A9 JUMPI PUSH2 0x2A8 PUSH2 0x236 JUMP JUMPDEST JUMPDEST PUSH0 PUSH2 0x2B6 DUP5 DUP3 DUP6 ADD PUSH2 0x280 JUMP JUMPDEST SWAP2 POP POP SWAP3 SWAP2 POP POP JUMP JUMPDEST PUSH0 DUP2 MLOAD SWAP1 POP SWAP2 SWAP1 POP JUMP JUMPDEST PUSH32 0x4E487B7100000000000000000000000000000000000000000000000000000000 PUSH0 MSTORE PUSH1 0x41 PUSH1 0x4 MSTORE PUSH1 0x24 PUSH0 REVERT JUMPDEST PUSH32 0x4E487B7100000000000000000000000000000000000000000000000000000000 PUSH0 MSTORE PUSH1 0x22 PUSH1 0x4 MSTORE PUSH1 0x24 PUSH0 REVERT JUMPDEST PUSH0 PUSH1 0x2 DUP3 DIV SWAP1 POP PUSH1 0x1 DUP3 AND DUP1 PUSH2 0x33A JUMPI PUSH1 0x7F DUP3 AND SWAP2 POP JUMPDEST PUSH1 0x20 DUP3 LT DUP2 SUB PUSH2 0x34D JUMPI PUSH2 0x34C PUSH2 0x2F6 JUMP JUMPDEST JUMPDEST POP SWAP2 SWAP1 POP JUMP JUMPDEST PUSH0 DUP2 SWAP1 POP DUP2 PUSH0 MSTORE PUSH1 0x20 PUSH0 KECCAK256 SWAP1 POP SWAP2 SWAP1 POP JUMP JUMPDEST PUSH0 PUSH1 0x20 PUSH1 0x1F DUP4 ADD DIV SWAP1 POP SWAP2 SWAP1 POP JUMP JUMPDEST PUSH0 DUP3 DUP3 SHL SWAP1 POP SWAP3 SWAP2 POP POP JUMP JUMPDEST PUSH0 PUSH1 0x8 DUP4 MUL PUSH2 0x3AF PUSH32 0xFFFFFFFFFFFFFFFFFFFFFFFFFFFFFFFFFFFFFFFFFFFFFFFFFFFFFFFFFFFFFFFF DUP3 PUSH2 0x374 JUMP JUMPDEST PUSH2 0x3B9 DUP7 DUP4 PUSH2 0x374 JUMP JUMPDEST SWAP6 POP DUP1 NOT DUP5 AND SWAP4 POP DUP1 DUP7 AND DUP5 OR SWAP3 POP POP POP SWAP4 SWAP3 POP POP POP JUMP JUMPDEST PUSH0 DUP2 SWAP1 POP SWAP2 SWAP1 POP JUMP JUMPDEST PUSH0 DUP2 SWAP1 POP SWAP2 SWAP1 POP JUMP JUMPDEST PUSH0 PUSH2 0x3FD PUSH2 0x3F8 PUSH2 0x3F3 DUP5 PUSH2 0x3D1 JUMP JUMPDEST PUSH2 0x3DA JUMP JUMPDEST PUSH2 0x3D1 JUMP JUMPDEST SWAP1 POP SWAP2 SWAP1 POP JUMP JUMPDEST PUSH0 DUP2 SWAP1 POP SWAP2 SWAP1 POP JUMP JUMPDEST PUSH2 0x416 DUP4 PUSH2 0x3E3 JUMP JUMPDEST PUSH2 0x42A PUSH2 0x422 DUP3 PUSH2 0x404 JUMP JUMPDEST DUP5 DUP5 SLOAD PUSH2 0x380 JUMP JUMPDEST DUP3 SSTORE POP POP POP POP JUMP JUMPDEST PUSH0 SWAP1 JUMP JUMPDEST PUSH2 0x43E PUSH2 0x432 JUMP JUMPDEST PUSH2 0x449 DUP2 DUP5 DUP5 PUSH2 0x40D JUMP JUMPDEST POP POP POP JUMP JUMPDEST JUMPDEST DUP2 DUP2 LT ISZERO PUSH2 0x46C JUMPI PUSH2 0x461 PUSH0 DUP3 PUSH2 0x436 JUMP JUMPDEST PUSH1 0x1 DUP2 ADD SWAP1 POP PUSH2 0x44F JUMP JUMPDEST POP POP JUMP JUMPDEST PUSH1 0x1F DUP3 GT ISZERO PUSH2 0x4B1 JUMPI PUSH2 0x482 DUP2 PUSH2 0x353 JUMP JUMPDEST PUSH2 0x48B DUP5 PUSH2 0x365 JUMP JUMPDEST DUP2 ADD PUSH1 0x20 DUP6 LT ISZERO PUSH2 0x49A JUMPI DUP2 SWAP1 POP JUMPDEST PUSH2 0x4AE PUSH2 0x4A6 DUP6 PUSH2 0x365 JUMP JUMPDEST DUP4 ADD DUP3 PUSH2 0x44E JUMP JUMPDEST POP POP JUMPDEST POP POP POP JUMP JUMPDEST PUSH0 DUP3 DUP3 SHR SWAP1 POP SWAP3 SWAP2 POP POP JUMP JUMPDEST PUSH0 PUSH2 0x4D1 PUSH0 NOT DUP5 PUSH1 0x8 MUL PUSH2 0x4B6 JUMP JUMPDEST NOT DUP1 DUP4 AND SWAP2 POP POP SWAP3 SWAP2 POP POP JUMP JUMPDEST PUSH0 PUSH2 0x4E9 DUP4 DUP4 PUSH2 0x4C2 JUMP JUMPDEST SWAP2 POP DUP3 PUSH1 0x2 MUL DUP3 OR SWAP1 POP SWAP3 SWAP2 POP POP JUMP JUMPDEST PUSH2 0x502 DUP3 PUSH2 0x2BF JUMP JUMPDEST PUSH8 0xFFFFFFFFFFFFFFFF DUP2 GT ISZERO PUSH2 0x51B JUMPI PUSH2 0x51A PUSH2 0x2C9 JUMP JUMPDEST JUMPDEST PUSH2 0x525 DUP3 SLOAD PUSH2 0x323 JUMP JUMPDEST PUSH2 0x530 DUP3 DUP3 DUP6 PUSH2 0x470 JUMP JUMPDEST PUSH0 PUSH1 0x20 SWAP1 POP PUSH1 0x1F DUP4 GT PUSH1 0x1 DUP2 EQ PUSH2 0x561 JUMPI PUSH0 DUP5 ISZERO PUSH2 0x54F JUMPI DUP3 DUP8 ADD MLOAD SWAP1 POP JUMPDEST PUSH2 0x559 DUP6 DUP3 PUSH2 0x4DE JUMP JUMPDEST DUP7 SSTORE POP PUSH2 0x5C0 JUMP JUMPDEST PUSH1 0x1F NOT DUP5 AND PUSH2 0x56F DUP7 PUSH2 0x353 JUMP JUMPDEST PUSH0 JUMPDEST DUP3 DUP2 LT ISZERO PUSH2 0x596 JUMPI DUP5 DUP10 ADD MLOAD DUP3 SSTORE PUSH1 0x1 DUP3 ADD SWAP2 POP PUSH1 0x20 DUP6 ADD SWAP5 POP PUSH1 0x20 DUP2 ADD SWAP1 POP PUSH2 0x571 JUMP JUMPDEST DUP7 DUP4 LT ISZERO PUSH2 0x5B3 JUMPI DUP5 DUP10 ADD MLOAD PUSH2 0x5AF PUSH1 0x1F DUP10 AND DUP3 PUSH2 0x4C2 JUMP JUMPDEST DUP4 SSTORE POP JUMPDEST PUSH1 0x1 PUSH1 0x2 DUP9 MUL ADD DUP9 SSTORE POP POP POP JUMPDEST POP POP POP POP POP POP JUMP JUMPDEST PUSH0 DUP2 MLOAD SWAP1 POP SWAP2 SWAP1 POP JUMP JUMPDEST PUSH0 DUP2 SWAP1 POP SWAP3 SWAP2 POP POP JUMP JUMPDEST DUP3 DUP2 DUP4 MCOPY PUSH0 DUP4 DUP4 ADD MSTORE POP POP POP JUMP JUMPDEST PUSH0 PUSH2 0x5F4 DUP3 PUSH2 0x5C8 JUMP JUMPDEST PUSH2 0x5FE DUP2 DUP6 PUSH2 0x5D2 JUMP JUMPDEST SWAP4 POP PUSH2 0x60E DUP2 DUP6 PUSH1 0x20 DUP7 ADD PUSH2 0x5DC JUMP JUMPDEST DUP1 DUP5 ADD SWAP2 POP POP SWAP3 SWAP2 POP POP JUMP JUMPDEST PUSH0 PUSH2 0x625 DUP3 DUP5 PUSH2 0x5EA JUMP JUMPDEST SWAP2 POP DUP2 SWAP1 POP SWAP3 SWAP2 POP POP JUMP JUMPDEST PUSH2 0x639 DUP2 PUSH2 0x3D1 JUMP JUMPDEST DUP2 EQ PUSH2 0x643 JUMPI PUSH0 DUP1 REVERT JUMPDEST POP JUMP JUMPDEST PUSH0 DUP2 MLOAD SWAP1 POP PUSH2 0x654 DUP2 PUSH2 0x630 JUMP JUMPDEST SWAP3 SWAP2 POP POP JUMP JUMPDEST PUSH0 PUSH1 0x20 DUP3 DUP5 SUB SLT ISZERO PUSH2 0x66F JUMPI PUSH2 0x66E PUSH2 0x236 JUMP JUMPDEST JUMPDEST PUSH0 PUSH2 0x67C DUP5 DUP3 DUP6 ADD PUSH2 0x646 JUMP JUMPDEST SWAP2 POP POP SWAP3 SWAP2 POP POP JUMP JUMPDEST PUSH1 0x80 MLOAD PUSH1 0xA0 MLOAD PUSH2 0x2709 PUSH2 0x6BB PUSH0 CODECOPY PUSH0 PUSH2 0x857 ADD MSTORE PUSH0 DUP2 DUP2 PUSH2 0x640 ADD MSTORE DUP2 DUP2 PUSH2 0x888 ADD MSTORE DUP2 DUP2 PUSH2 0x1151 ADD MSTORE PUSH2 0x12BF ADD MSTORE PUSH2 0x2709 PUSH0 RETURN INVALID PUSH1 0x80 PUSH1 0x40 MSTORE CALLVALUE DUP1 ISZERO PUSH2 0xF JUMPI PUSH0 DUP1 REVERT JUMPDEST POP PUSH1 0x4 CALLDATASIZE LT PUSH2 0x1A7 JUMPI PUSH0 CALLDATALOAD PUSH1 0xE0 SHR DUP1 PUSH4 0x92BDF9BA GT PUSH2 0xF7 JUMPI DUP1 PUSH4 0xBA087652 GT PUSH2 0x95 JUMPI DUP1 PUSH4 0xCE96CB77 GT PUSH2 0x6F JUMPI DUP1 PUSH4 0xCE96CB77 EQ PUSH2 0x57D JUMPI DUP1 PUSH4 0xD905777E EQ PUSH2 0x5AD JUMPI DUP1 PUSH4 0xDD62ED3E EQ PUSH2 0x5DD JUMPI DUP1 PUSH4 0xEF8B30F7 EQ PUSH2 0x60D JUMPI PUSH2 0x1A7 JUMP JUMPDEST DUP1 PUSH4 0xBA087652 EQ PUSH2 0x4ED JUMPI DUP1 PUSH4 0xC63D75B6 EQ PUSH2 0x51D JUMPI DUP1 PUSH4 0xC6E6F592 EQ PUSH2 0x54D JUMPI PUSH2 0x1A7 JUMP JUMPDEST DUP1 PUSH4 0x9D76EA58 GT PUSH2 0xD1 JUMPI DUP1 PUSH4 0x9D76EA58 EQ PUSH2 0x43F JUMPI DUP1 PUSH4 0xA9059CBB EQ PUSH2 0x45D JUMPI DUP1 PUSH4 0xB3D7F6B9 EQ PUSH2 0x48D JUMPI DUP1 PUSH4 0xB460AF94 EQ PUSH2 0x4BD JUMPI PUSH2 0x1A7 JUMP JUMPDEST DUP1 PUSH4 0x92BDF9BA EQ PUSH2 0x3C1 JUMPI DUP1 PUSH4 0x94BF804D EQ PUSH2 0x3F1 JUMPI DUP1 PUSH4 0x95D89B41 EQ PUSH2 0x421 JUMPI PUSH2 0x1A7 JUMP JUMPDEST DUP1 PUSH4 0x23B872DD GT PUSH2 0x164 JUMPI DUP1 PUSH4 0x402D267D GT PUSH2 0x13E JUMPI DUP1 PUSH4 0x402D267D EQ PUSH2 0x301 JUMPI DUP1 PUSH4 0x4CDAD506 EQ PUSH2 0x331 JUMPI DUP1 PUSH4 0x6E553F65 EQ PUSH2 0x361 JUMPI DUP1 PUSH4 0x70A08231 EQ PUSH2 0x391 JUMPI PUSH2 0x1A7 JUMP JUMPDEST DUP1 PUSH4 0x23B872DD EQ PUSH2 0x295 JUMPI DUP1 PUSH4 0x313CE567 EQ PUSH2 0x2C5 JUMPI DUP1 PUSH4 0x38D52E0F EQ PUSH2 0x2E3 JUMPI PUSH2 0x1A7 JUMP JUMPDEST DUP1 PUSH4 0x1E1D114 EQ PUSH2 0x1AB JUMPI DUP1 PUSH4 0x6FDDE03 EQ PUSH2 0x1C9 JUMPI DUP1 PUSH4 0x7A2D13A EQ PUSH2 0x1E7 JUMPI DUP1 PUSH4 0x95EA7B3 EQ PUSH2 0x217 JUMPI DUP1 PUSH4 0xA28A477 EQ PUSH2 0x247 JUMPI DUP1 PUSH4 0x18160DDD EQ PUSH2 0x277 JUMPI JUMPDEST PUSH0 DUP1 REVERT JUMPDEST PUSH2 0x1B3 PUSH2 0x63D JUMP JUMPDEST PUSH1 0x40 MLOAD PUSH2 0x1C0 SWAP2 SWAP1 PUSH2 0x1DA0 JUMP JUMPDEST PUSH1 0x40 MLOAD DUP1 SWAP2 SUB SWAP1 RETURN JUMPDEST PUSH2 0x1D1 PUSH2 0x6DB JUMP JUMPDEST PUSH1 0x40 MLOAD PUSH2 0x1DE SWAP2 SWAP1 PUSH2 0x1E29 JUMP JUMPDEST PUSH1 0x40 MLOAD DUP1 SWAP2 SUB SWAP1 RETURN JUMPDEST PUSH2 0x201 PUSH1 0x4 DUP1 CALLDATASIZE SUB DUP2 ADD SWAP1 PUSH2 0x1FC SWAP2 SWAP1 PUSH2 0x1E77 JUMP JUMPDEST PUSH2 0x76B JUMP JUMPDEST PUSH1 0x40 MLOAD PUSH2 0x20E SWAP2 SWAP1 PUSH2 0x1DA0 JUMP JUMPDEST PUSH1 0x40 MLOAD DUP1 SWAP2 SUB SWAP1 RETURN JUMPDEST PUSH2 0x231 PUSH1 0x4 DUP1 CALLDATASIZE SUB DUP2 ADD SWAP1 PUSH2 0x22C SWAP2 SWAP1 PUSH2 0x1EFC JUMP JUMPDEST PUSH2 0x77D JUMP JUMPDEST PUSH1 0x40 MLOAD PUSH2 0x23E SWAP2 SWAP1 PUSH2 0x1F54 JUMP JUMPDEST PUSH1 0x40 MLOAD DUP1 SWAP2 SUB SWAP1 RETURN JUMPDEST PUSH2 0x261 PUSH1 0x4 DUP1 CALLDATASIZE SUB DUP2 ADD SWAP1 PUSH2 0x25C SWAP2 SWAP1 PUSH2 0x1E77 JUMP JUMPDEST PUSH2 0x79F JUMP JUMPDEST PUSH1 0x40 MLOAD PUSH2 0x26E SWAP2 SWAP1 PUSH2 0x1DA0 JUMP JUMPDEST PUSH1 0x40 MLOAD DUP1 SWAP2 SUB SWAP1 RETURN JUMPDEST PUSH2 0x27F PUSH2 0x815 JUMP JUMPDEST PUSH1 0x40 MLOAD PUSH2 0x28C SWAP2 SWAP1 PUSH2 0x1DA0 JUMP JUMPDEST PUSH1 0x40 MLOAD DUP1 SWAP2 SUB SWAP1 RETURN JUMPDEST PUSH2 0x2AF PUSH1 0x4 DUP1 CALLDATASIZE SUB DUP2 ADD SWAP1 PUSH2 0x2AA SWAP2 SWAP1 PUSH2 0x1F6D JUMP JUMPDEST PUSH2 0x81E JUMP JUMPDEST PUSH1 0x40 MLOAD PUSH2 0x2BC SWAP2 SWAP1 PUSH2 0x1F54 JUMP JUMPDEST PUSH1 0x40 MLOAD DUP1 SWAP2 SUB SWAP1 RETURN JUMPDEST PUSH2 0x2CD PUSH2 0x84C JUMP JUMPDEST PUSH1 0x40 MLOAD PUSH2 0x2DA SWAP2 SWAP1 PUSH2 0x1FD8 JUMP JUMPDEST PUSH1 0x40 MLOAD DUP1 SWAP2 SUB SWAP1 RETURN JUMPDEST PUSH2 0x2EB PUSH2 0x885 JUMP JUMPDEST PUSH1 0x40 MLOAD PUSH2 0x2F8 SWAP2 SWAP1 PUSH2 0x2000 JUMP JUMPDEST PUSH1 0x40 MLOAD DUP1 SWAP2 SUB SWAP1 RETURN JUMPDEST PUSH2 0x31B PUSH1 0x4 DUP1 CALLDATASIZE SUB DUP2 ADD SWAP1 PUSH2 0x316 SWAP2 SWAP1 PUSH2 0x2019 JUMP JUMPDEST PUSH2 0x8AC JUMP JUMPDEST PUSH1 0x40 MLOAD PUSH2 0x328 SWAP2 SWAP1 PUSH2 0x1DA0 JUMP JUMPDEST PUSH1 0x40 MLOAD DUP1 SWAP2 SUB SWAP1 RETURN JUMPDEST PUSH2 0x34B PUSH1 0x4 DUP1 CALLDATASIZE SUB DUP2 ADD SWAP1 PUSH2 0x346 SWAP2 SWAP1 PUSH2 0x1E77 JUMP JUMPDEST PUSH2 0x8D5 JUMP JUMPDEST PUSH1 0x40 MLOAD PUSH2 0x358 SWAP2 SWAP1 PUSH2 0x1DA0 JUMP JUMPDEST PUSH1 0x40 MLOAD DUP1 SWAP2 SUB SWAP1 RETURN JUMPDEST PUSH2 0x37B PUSH1 0x4 DUP1 CALLDATASIZE SUB DUP2 ADD SWAP1 PUSH2 0x376 SWAP2 SWAP1 PUSH2 0x2044 JUMP JUMPDEST PUSH2 0x8E7 JUMP JUMPDEST PUSH1 0x40 MLOAD PUSH2 0x388 SWAP2 SWAP1 PUSH2 0x1DA0 JUMP JUMPDEST PUSH1 0x40 MLOAD DUP1 SWAP2 SUB SWAP1 RETURN JUMPDEST PUSH2 0x3AB PUSH1 0x4 DUP1 CALLDATASIZE SUB DUP2 ADD SWAP1 PUSH2 0x3A6 SWAP2 SWAP1 PUSH2 0x2019 JUMP JUMPDEST PUSH2 0x9A0 JUMP JUMPDEST PUSH1 0x40 MLOAD PUSH2 0x3B8 SWAP2 SWAP1 PUSH2 0x1DA0 JUMP JUMPDEST PUSH1 0x40 MLOAD DUP1 SWAP2 SUB SWAP1 RETURN JUMPDEST PUSH2 0x3DB PUSH1 0x4 DUP1 CALLDATASIZE SUB DUP2 ADD SWAP1 PUSH2 0x3D6 SWAP2 SWAP1 PUSH2 0x2019 JUMP JUMPDEST PUSH2 0x9E5 JUMP JUMPDEST PUSH1 0x40 MLOAD PUSH2 0x3E8 SWAP2 SWAP1 PUSH2 0x1DA0 JUMP JUMPDEST PUSH1 0x40 MLOAD DUP1 SWAP2 SUB SWAP1 RETURN JUMPDEST PUSH2 0x40B PUSH1 0x4 DUP1 CALLDATASIZE SUB DUP2 ADD SWAP1 PUSH2 0x406 SWAP2 SWAP1 PUSH2 0x2044 JUMP JUMPDEST PUSH2 0x9FA JUMP JUMPDEST PUSH1 0x40 MLOAD PUSH2 0x418 SWAP2 SWAP1 PUSH2 0x1DA0 JUMP JUMPDEST PUSH1 0x40 MLOAD DUP1 SWAP2 SUB SWAP1 RETURN JUMPDEST PUSH2 0x429 PUSH2 0xA7A JUMP JUMPDEST PUSH1 0x40 MLOAD PUSH2 0x436 SWAP2 SWAP1 PUSH2 0x1E29 JUMP JUMPDEST PUSH1 0x40 MLOAD DUP1 SWAP2 SUB SWAP1 RETURN JUMPDEST PUSH2 0x447 PUSH2 0xB0A JUMP JUMPDEST PUSH1 0x40 MLOAD PUSH2 0x454 SWAP2 SWAP1 PUSH2 0x2000 JUMP JUMPDEST PUSH1 0x40 MLOAD DUP1 SWAP2 SUB SWAP1 RETURN JUMPDEST PUSH2 0x477 PUSH1 0x4 DUP1 CALLDATASIZE SUB DUP2 ADD SWAP1 PUSH2 0x472 SWAP2 SWAP1 PUSH2 0x1EFC JUMP JUMPDEST PUSH2 0xB2F JUMP JUMPDEST PUSH1 0x40 MLOAD PUSH2 0x484 SWAP2 SWAP1 PUSH2 0x1F54 JUMP JUMPDEST PUSH1 0x40 MLOAD DUP1 SWAP2 SUB SWAP1 RETURN JUMPDEST PUSH2 0x4A7 PUSH1 0x4 DUP1 CALLDATASIZE SUB DUP2 ADD SWAP1 PUSH2 0x4A2 SWAP2 SWAP1 PUSH2 0x1E77 JUMP JUMPDEST PUSH2 0xB51 JUMP JUMPDEST PUSH1 0x40 MLOAD PUSH2 0x4B4 SWAP2 SWAP1 PUSH2 0x1DA0 JUMP JUMPDEST PUSH1 0x40 MLOAD DUP1 SWAP2 SUB SWAP1 RETURN JUMPDEST PUSH2 0x4D7 PUSH1 0x4 DUP1 CALLDATASIZE SUB DUP2 ADD SWAP1 PUSH2 0x4D2 SWAP2 SWAP1 PUSH2 0x2082 JUMP JUMPDEST PUSH2 0xB64 JUMP JUMPDEST PUSH1 0x40 MLOAD PUSH2 0x4E4 SWAP2 SWAP1 PUSH2 0x1DA0 JUMP JUMPDEST PUSH1 0x40 MLOAD DUP1 SWAP2 SUB SWAP1 RETURN JUMPDEST PUSH2 0x507 PUSH1 0x4 DUP1 CALLDATASIZE SUB DUP2 ADD SWAP1 PUSH2 0x502 SWAP2 SWAP1 PUSH2 0x2082 JUMP JUMPDEST PUSH2 0xCEA JUMP JUMPDEST PUSH1 0x40 MLOAD PUSH2 0x514 SWAP2 SWAP1 PUSH2 0x1DA0 JUMP JUMPDEST PUSH1 0x40 MLOAD DUP1 SWAP2 SUB SWAP1 RETURN JUMPDEST PUSH2 0x537 PUSH1 0x4 DUP1 CALLDATASIZE SUB DUP2 ADD SWAP1 PUSH2 0x532 SWAP2 SWAP1 PUSH2 0x2019 JUMP JUMPDEST PUSH2 0xD6C JUMP JUMPDEST PUSH1 0x40 MLOAD PUSH2 0x544 SWAP2 SWAP1 PUSH2 0x1DA0 JUMP JUMPDEST PUSH1 0x40 MLOAD DUP1 SWAP2 SUB SWAP1 RETURN JUMPDEST PUSH2 0x567 PUSH1 0x4 DUP1 CALLDATASIZE SUB DUP2 ADD SWAP1 PUSH2 0x562 SWAP2 SWAP1 PUSH2 0x1E77 JUMP JUMPDEST PUSH2 0xD95 JUMP JUMPDEST PUSH1 0x40 MLOAD PUSH2 0x574 SWAP2 SWAP1 PUSH2 0x1DA0 JUMP JUMPDEST PUSH1 0x40 MLOAD DUP1 SWAP2 SUB SWAP1 RETURN JUMPDEST PUSH2 0x597 PUSH1 0x4 DUP1 CALLDATASIZE SUB DUP2 ADD SWAP1 PUSH2 0x592 SWAP2 SWAP1 PUSH2 0x2019 JUMP JUMPDEST PUSH2 0xDA7 JUMP JUMPDEST PUSH1 0x40 MLOAD PUSH2 0x5A4 SWAP2 SWAP1 PUSH2 0x1DA0 JUMP JUMPDEST PUSH1 0x40 MLOAD DUP1 SWAP2 SUB SWAP1 RETURN JUMPDEST PUSH2 0x5C7 PUSH1 0x4 DUP1 CALLDATASIZE SUB DUP2 ADD SWAP1 PUSH2 0x5C2 SWAP2 SWAP1 PUSH2 0x2019 JUMP JUMPDEST PUSH2 0xE1D JUMP JUMPDEST PUSH1 0x40 MLOAD PUSH2 0x5D4 SWAP2 SWAP1 PUSH2 0x1DA0 JUMP JUMPDEST PUSH1 0x40 MLOAD DUP1 SWAP2 SUB SWAP1 RETURN JUMPDEST PUSH2 0x5F7 PUSH1 0x4 DUP1 CALLDATASIZE SUB DUP2 ADD SWAP1 PUSH2 0x5F2 SWAP2 SWAP1 PUSH2 0x20D2 JUMP JUMPDEST PUSH2 0xE2E JUMP JUMPDEST PUSH1 0x40 MLOAD PUSH2 0x604 SWAP2 SWAP1 PUSH2 0x1DA0 JUMP JUMPDEST PUSH1 0x40 MLOAD DUP1 SWAP2 SUB SWAP1 RETURN JUMPDEST PUSH2 0x627 PUSH1 0x4 DUP1 CALLDATASIZE SUB DUP2 ADD SWAP1 PUSH2 0x622 SWAP2 SWAP1 PUSH2 0x1E77 JUMP JUMPDEST PUSH2 0xEB0 JUMP JUMPDEST PUSH1 0x40 MLOAD PUSH2 0x634 SWAP2 SWAP1 PUSH2 0x1DA0 JUMP JUMPDEST PUSH1 0x40 MLOAD DUP1 SWAP2 SUB SWAP1 RETURN JUMPDEST PUSH0 PUSH32 0x0 PUSH20 0xFFFFFFFFFFFFFFFFFFFFFFFFFFFFFFFFFFFFFFFF AND PUSH4 0x70A08231 ADDRESS PUSH1 0x40 MLOAD DUP3 PUSH4 0xFFFFFFFF AND PUSH1 0xE0 SHL DUP2 MSTORE PUSH1 0x4 ADD PUSH2 0x697 SWAP2 SWAP1 PUSH2 0x2000 JUMP JUMPDEST PUSH1 0x20 PUSH1 0x40 MLOAD DUP1 DUP4 SUB DUP2 DUP7 GAS STATICCALL ISZERO DUP1 ISZERO PUSH2 0x6B2 JUMPI RETURNDATASIZE PUSH0 DUP1 RETURNDATACOPY RETURNDATASIZE PUSH0 REVERT JUMPDEST POP POP POP POP PUSH1 0x40 MLOAD RETURNDATASIZE PUSH1 0x1F NOT PUSH1 0x1F DUP3 ADD AND DUP3 ADD DUP1 PUSH1 0x40 MSTORE POP DUP2 ADD SWAP1 PUSH2 0x6D6 SWAP2 SWAP1 PUSH2 0x2124 JUMP JUMPDEST SWAP1 POP SWAP1 JUMP JUMPDEST PUSH1 0x60 PUSH1 0x3 DUP1 SLOAD PUSH2 0x6EA SWAP1 PUSH2 0x217C JUMP JUMPDEST DUP1 PUSH1 0x1F ADD PUSH1 0x20 DUP1 SWAP2 DIV MUL PUSH1 0x20 ADD PUSH1 0x40 MLOAD SWAP1 DUP2 ADD PUSH1 0x40 MSTORE DUP1 SWAP3 SWAP2 SWAP1 DUP2 DUP2 MSTORE PUSH1 0x20 ADD DUP3 DUP1 SLOAD PUSH2 0x716 SWAP1 PUSH2 0x217C JUMP JUMPDEST DUP1 ISZERO PUSH2 0x761 JUMPI DUP1 PUSH1 0x1F LT PUSH2 0x738 JUMPI PUSH2 0x100 DUP1 DUP4 SLOAD DIV MUL DUP4 MSTORE SWAP2 PUSH1 0x20 ADD SWAP2 PUSH2 0x761 JUMP JUMPDEST DUP3 ADD SWAP2 SWAP1 PUSH0 MSTORE PUSH1 0x20 PUSH0 KECCAK256 SWAP1 JUMPDEST DUP2 SLOAD DUP2 MSTORE SWAP1 PUSH1 0x1 ADD SWAP1 PUSH1 0x20 ADD DUP1 DUP4 GT PUSH2 0x744 JUMPI DUP3 SWAP1 SUB PUSH1 0x1F AND DUP3 ADD SWAP2 JUMPDEST POP POP POP POP POP SWAP1 POP SWAP1 JUMP JUMPDEST PUSH0 PUSH2 0x776 DUP3 PUSH0 PUSH2 0xEC2 JUMP JUMPDEST SWAP1 POP SWAP2 SWAP1 POP JUMP JUMPDEST PUSH0 DUP1 PUSH2 0x787 PUSH2 0xF1A JUMP JUMPDEST SWAP1 POP PUSH2 0x794 DUP2 DUP6 DUP6 PUSH2 0xF21 JUMP JUMPDEST PUSH1 0x1 SWAP2 POP POP SWAP3 SWAP2 POP POP JUMP JUMPDEST PUSH0 DUP1 PUSH2 0x7AA DUP4 PUSH2 0xF33 JUMP JUMPDEST SWAP1 POP PUSH0 PUSH1 0x5 PUSH0 CALLER PUSH20 0xFFFFFFFFFFFFFFFFFFFFFFFFFFFFFFFFFFFFFFFF AND PUSH20 0xFFFFFFFFFFFFFFFFFFFFFFFFFFFFFFFFFFFFFFFF AND DUP2 MSTORE PUSH1 0x20 ADD SWAP1 DUP2 MSTORE PUSH1 0x20 ADD PUSH0 KECCAK256 SLOAD SWAP1 POP DUP1 DUP3 GT ISZERO PUSH2 0x80A JUMPI DUP1 DUP3 PUSH2 0x801 SWAP2 SWAP1 PUSH2 0x21D9 JUMP JUMPDEST SWAP3 POP POP POP PUSH2 0x810 JUMP JUMPDEST PUSH0 SWAP3 POP POP POP JUMPDEST SWAP2 SWAP1 POP JUMP JUMPDEST PUSH0 PUSH1 0x2 SLOAD SWAP1 POP SWAP1 JUMP JUMPDEST PUSH0 DUP1 PUSH2 0x828 PUSH2 0xF1A JUMP JUMPDEST SWAP1 POP PUSH2 0x835 DUP6 DUP3 DUP6 PUSH2 0xF46 JUMP JUMPDEST PUSH2 0x840 DUP6 DUP6 DUP6 PUSH2 0xFD8 JUMP JUMPDEST PUSH1 0x1 SWAP2 POP POP SWAP4 SWAP3 POP POP POP JUMP JUMPDEST PUSH0 PUSH2 0x855 PUSH2 0x10C8 JUMP JUMPDEST PUSH32 0x0 PUSH2 0x880 SWAP2 SWAP1 PUSH2 0x220C JUMP JUMPDEST SWAP1 POP SWAP1 JUMP JUMPDEST PUSH0 PUSH32 0x0 SWAP1 POP SWAP1 JUMP JUMPDEST PUSH0 PUSH32 0xFFFFFFFFFFFFFFFFFFFFFFFFFFFFFFFFFFFFFFFFFFFFFFFFFFFFFFFFFFFFFFFF SWAP1 POP SWAP2 SWAP1 POP JUMP JUMPDEST PUSH0 PUSH2 0x8E0 DUP3 PUSH0 PUSH2 0xEC2 JUMP JUMPDEST SWAP1 POP SWAP2 SWAP1 POP JUMP JUMPDEST PUSH0 DUP1 PUSH2 0x8F3 DUP5 DUP5 PUSH2 0x10CC JUMP JUMPDEST SWAP1 POP DUP4 PUSH1 0x5 PUSH0 DUP6 PUSH20 0xFFFFFFFFFFFFFFFFFFFFFFFFFFFFFFFFFFFFFFFF AND PUSH20 0xFFFFFFFFFFFFFFFFFFFFFFFFFFFFFFFFFFFFFFFF AND DUP2 MSTORE PUSH1 0x20 ADD SWAP1 DUP2 MSTORE PUSH1 0x20 ADD PUSH0 KECCAK256 PUSH0 DUP3 DUP3 SLOAD PUSH2 0x941 SWAP2 SWAP1 PUSH2 0x2240 JUMP JUMPDEST SWAP3 POP POP DUP2 SWAP1 SSTORE POP DUP3 PUSH20 0xFFFFFFFFFFFFFFFFFFFFFFFFFFFFFFFFFFFFFFFF AND PUSH32 0x2251F6A4ED7FE619E9E8CE557D05A63DD484284F9C95C9AB334F6A7707CD0800 DUP6 PUSH1 0x40 MLOAD PUSH2 0x98E SWAP2 SWAP1 PUSH2 0x1DA0 JUMP JUMPDEST PUSH1 0x40 MLOAD DUP1 SWAP2 SUB SWAP1 LOG2 DUP1 SWAP2 POP POP SWAP3 SWAP2 POP POP JUMP JUMPDEST PUSH0 DUP1 PUSH0 DUP4 PUSH20 0xFFFFFFFFFFFFFFFFFFFFFFFFFFFFFFFFFFFFFFFF AND PUSH20 0xFFFFFFFFFFFFFFFFFFFFFFFFFFFFFFFFFFFFFFFF AND DUP2 MSTORE PUSH1 0x20 ADD SWAP1 DUP2 MSTORE PUSH1 0x20 ADD PUSH0 KECCAK256 SLOAD SWAP1 POP SWAP2 SWAP1 POP JUMP JUMPDEST PUSH1 0x5 PUSH1 0x20 MSTORE DUP1 PUSH0 MSTORE PUSH1 0x40 PUSH0 KECCAK256 PUSH0 SWAP2 POP SWAP1 POP SLOAD DUP2 JUMP JUMPDEST PUSH0 DUP1 PUSH2 0xA05 DUP4 PUSH2 0xD6C JUMP JUMPDEST SWAP1 POP DUP1 DUP5 GT ISZERO PUSH2 0xA50 JUMPI DUP3 DUP5 DUP3 PUSH1 0x40 MLOAD PUSH32 0x284FF66700000000000000000000000000000000000000000000000000000000 DUP2 MSTORE PUSH1 0x4 ADD PUSH2 0xA47 SWAP4 SWAP3 SWAP2 SWAP1 PUSH2 0x2273 JUMP JUMPDEST PUSH1 0x40 MLOAD DUP1 SWAP2 SUB SWAP1 REVERT JUMPDEST PUSH0 PUSH2 0xA5A DUP6 PUSH2 0xB51 JUMP JUMPDEST SWAP1 POP PUSH2 0xA6F PUSH2 0xA67 PUSH2 0xF1A JUMP JUMPDEST DUP6 DUP4 DUP9 PUSH2 0x114C JUMP JUMPDEST DUP1 SWAP3 POP POP POP SWAP3 SWAP2 POP POP JUMP JUMPDEST PUSH1 0x60 PUSH1 0x4 DUP1 SLOAD PUSH2 0xA89 SWAP1 PUSH2 0x217C JUMP JUMPDEST DUP1 PUSH1 0x1F ADD PUSH1 0x20 DUP1 SWAP2 DIV MUL PUSH1 0x20 ADD PUSH1 0x40 MLOAD SWAP1 DUP2 ADD PUSH1 0x40 MSTORE DUP1 SWAP3 SWAP2 SWAP1 DUP2 DUP2 MSTORE PUSH1 0x20 ADD DUP3 DUP1 SLOAD PUSH2 0xAB5 SWAP1 PUSH2 0x217C JUMP JUMPDEST DUP1 ISZERO PUSH2 0xB00 JUMPI DUP1 PUSH1 0x1F LT PUSH2 0xAD7 JUMPI PUSH2 0x100 DUP1 DUP4 SLOAD DIV MUL DUP4 MSTORE SWAP2 PUSH1 0x20 ADD SWAP2 PUSH2 0xB00 JUMP JUMPDEST DUP3 ADD SWAP2 SWAP1 PUSH0 MSTORE PUSH1 0x20 PUSH0 KECCAK256 SWAP1 JUMPDEST DUP2 SLOAD DUP2 MSTORE SWAP1 PUSH1 0x1 ADD SWAP1 PUSH1 0x20 ADD DUP1 DUP4 GT PUSH2 0xAE3 JUMPI DUP3 SWAP1 SUB PUSH1 0x1F AND DUP3 ADD SWAP2 JUMPDEST POP POP POP POP POP SWAP1 POP SWAP1 JUMP JUMPDEST PUSH1 0x6 PUSH0 SWAP1 SLOAD SWAP1 PUSH2 0x100 EXP SWAP1 DIV PUSH20 0xFFFFFFFFFFFFFFFFFFFFFFFFFFFFFFFFFFFFFFFF AND DUP2 JUMP JUMPDEST PUSH0 DUP1 PUSH2 0xB39 PUSH2 0xF1A JUMP JUMPDEST SWAP1 POP PUSH2 0xB46 DUP2 DUP6 DUP6 PUSH2 0xFD8 JUMP JUMPDEST PUSH1 0x1 SWAP2 POP POP SWAP3 SWAP2 POP POP JUMP JUMPDEST PUSH0 PUSH2 0xB5D DUP3 PUSH1 0x1 PUSH2 0xEC2 JUMP JUMPDEST SWAP1 POP SWAP2 SWAP1 POP JUMP JUMPDEST PUSH0 PUSH2 0xB6E DUP3 PUSH2 0xDA7 JUMP JUMPDEST DUP5 GT ISZERO PUSH2 0xBB0 JUMPI PUSH1 0x40 MLOAD PUSH32 0x8C379A000000000000000000000000000000000000000000000000000000000 DUP2 MSTORE PUSH1 0x4 ADD PUSH2 0xBA7 SWAP1 PUSH2 0x22F2 JUMP JUMPDEST PUSH1 0x40 MLOAD DUP1 SWAP2 SUB SWAP1 REVERT JUMPDEST PUSH1 0x5 PUSH0 DUP4 PUSH20 0xFFFFFFFFFFFFFFFFFFFFFFFFFFFFFFFFFFFFFFFF AND PUSH20 0xFFFFFFFFFFFFFFFFFFFFFFFFFFFFFFFFFFFFFFFF AND DUP2 MSTORE PUSH1 0x20 ADD SWAP1 DUP2 MSTORE PUSH1 0x20 ADD PUSH0 KECCAK256 SLOAD DUP5 GT ISZERO PUSH2 0xC30 JUMPI PUSH1 0x40 MLOAD PUSH32 0x8C379A000000000000000000000000000000000000000000000000000000000 DUP2 MSTORE PUSH1 0x4 ADD PUSH2 0xC27 SWAP1 PUSH2 0x2380 JUMP JUMPDEST PUSH1 0x40 MLOAD DUP1 SWAP2 SUB SWAP1 REVERT JUMPDEST PUSH0 PUSH2 0xC3C DUP6 DUP6 DUP6 PUSH2 0x11EF JUMP JUMPDEST SWAP1 POP DUP5 PUSH1 0x5 PUSH0 DUP6 PUSH20 0xFFFFFFFFFFFFFFFFFFFFFFFFFFFFFFFFFFFFFFFF AND PUSH20 0xFFFFFFFFFFFFFFFFFFFFFFFFFFFFFFFFFFFFFFFF AND DUP2 MSTORE PUSH1 0x20 ADD SWAP1 DUP2 MSTORE PUSH1 0x20 ADD PUSH0 KECCAK256 PUSH0 DUP3 DUP3 SLOAD PUSH2 0xC8A SWAP2 SWAP1 PUSH2 0x21D9 JUMP JUMPDEST SWAP3 POP POP DUP2 SWAP1 SSTORE POP DUP3 PUSH20 0xFFFFFFFFFFFFFFFFFFFFFFFFFFFFFFFFFFFFFFFF AND PUSH32 0xB4EAF47ECD4BC76248F192433E8067C96CB3E17ACED42FBC47A512742FB74216 DUP7 PUSH1 0x40 MLOAD PUSH2 0xCD7 SWAP2 SWAP1 PUSH2 0x1DA0 JUMP JUMPDEST PUSH1 0x40 MLOAD DUP1 SWAP2 SUB SWAP1 LOG2 DUP1 SWAP2 POP POP SWAP4 SWAP3 POP POP POP JUMP JUMPDEST PUSH0 DUP1 PUSH2 0xCF5 DUP4 PUSH2 0xE1D JUMP JUMPDEST SWAP1 POP DUP1 DUP6 GT ISZERO PUSH2 0xD40 JUMPI DUP3 DUP6 DUP3 PUSH1 0x40 MLOAD PUSH32 0xB94ABEEC00000000000000000000000000000000000000000000000000000000 DUP2 MSTORE PUSH1 0x4 ADD PUSH2 0xD37 SWAP4 SWAP3 SWAP2 SWAP1 PUSH2 0x2273 JUMP JUMPDEST PUSH1 0x40 MLOAD DUP1 SWAP2 SUB SWAP1 REVERT JUMPDEST PUSH0 PUSH2 0xD4A DUP7 PUSH2 0x8D5 JUMP JUMPDEST SWAP1 POP PUSH2 0xD60 PUSH2 0xD57 PUSH2 0xF1A JUMP JUMPDEST DUP7 DUP7 DUP5 DUP11 PUSH2 0x1271 JUMP JUMPDEST DUP1 SWAP3 POP POP POP SWAP4 SWAP3 POP POP POP JUMP JUMPDEST PUSH0 PUSH32 0xFFFFFFFFFFFFFFFFFFFFFFFFFFFFFFFFFFFFFFFFFFFFFFFFFFFFFFFFFFFFFFFF SWAP1 POP SWAP2 SWAP1 POP JUMP JUMPDEST PUSH0 PUSH2 0xDA0 DUP3 PUSH0 PUSH2 0x136A JUMP JUMPDEST SWAP1 POP SWAP2 SWAP1 POP JUMP JUMPDEST PUSH0 DUP1 PUSH2 0xDB2 DUP4 PUSH2 0x13C2 JUMP JUMPDEST SWAP1 POP PUSH0 PUSH1 0x5 PUSH0 DUP6 PUSH20 0xFFFFFFFFFFFFFFFFFFFFFFFFFFFFFFFFFFFFFFFF AND PUSH20 0xFFFFFFFFFFFFFFFFFFFFFFFFFFFFFFFFFFFFFFFF AND DUP2 MSTORE PUSH1 0x20 ADD SWAP1 DUP2 MSTORE PUSH1 0x20 ADD PUSH0 KECCAK256 SLOAD SWAP1 POP DUP1 DUP3 GT ISZERO PUSH2 0xE12 JUMPI DUP1 DUP3 PUSH2 0xE09 SWAP2 SWAP1 PUSH2 0x21D9 JUMP JUMPDEST SWAP3 POP POP POP PUSH2 0xE18 JUMP JUMPDEST PUSH0 SWAP3 POP POP POP JUMPDEST SWAP2 SWAP1 POP JUMP JUMPDEST PUSH0 PUSH2 0xE27 DUP3 PUSH2 0x9A0 JUMP JUMPDEST SWAP1 POP SWAP2 SWAP1 POP JUMP JUMPDEST PUSH0 PUSH1 0x1 PUSH0 DUP5 PUSH20 0xFFFFFFFFFFFFFFFFFFFFFFFFFFFFFFFFFFFFFFFF AND PUSH20 0xFFFFFFFFFFFFFFFFFFFFFFFFFFFFFFFFFFFFFFFF AND DUP2 MSTORE PUSH1 0x20 ADD SWAP1 DUP2 MSTORE PUSH1 0x20 ADD PUSH0 KECCAK256 PUSH0 DUP4 PUSH20 0xFFFFFFFFFFFFFFFFFFFFFFFFFFFFFFFFFFFFFFFF AND PUSH20 0xFFFFFFFFFFFFFFFFFFFFFFFFFFFFFFFFFFFFFFFF AND DUP2 MSTORE PUSH1 0x20 ADD SWAP1 DUP2 MSTORE PUSH1 0x20 ADD PUSH0 KECCAK256 SLOAD SWAP1 POP SWAP3 SWAP2 POP POP JUMP JUMPDEST PUSH0 PUSH2 0xEBB DUP3 PUSH0 PUSH2 0x136A JUMP JUMPDEST SWAP1 POP SWAP2 SWAP1 POP JUMP JUMPDEST PUSH0 PUSH2 0xF12 PUSH1 0x1 PUSH2 0xED0 PUSH2 0x63D JUMP JUMPDEST PUSH2 0xEDA SWAP2 SWAP1 PUSH2 0x2240 JUMP JUMPDEST PUSH2 0xEE2 PUSH2 0x10C8 JUMP JUMPDEST PUSH1 0xA PUSH2 0xEEE SWAP2 SWAP1 PUSH2 0x24CD JUMP JUMPDEST PUSH2 0xEF6 PUSH2 0x815 JUMP JUMPDEST PUSH2 0xF00 SWAP2 SWAP1 PUSH2 0x2240 JUMP JUMPDEST DUP5 DUP7 PUSH2 0x13DC SWAP1 SWAP4 SWAP3 SWAP2 SWAP1 PUSH4 0xFFFFFFFF AND JUMP JUMPDEST SWAP1 POP SWAP3 SWAP2 POP POP JUMP JUMPDEST PUSH0 CALLER SWAP1 POP SWAP1 JUMP JUMPDEST PUSH2 0xF2E DUP4 DUP4 DUP4 PUSH1 0x1 PUSH2 0x1431 JUMP JUMPDEST POP POP POP JUMP JUMPDEST PUSH0 PUSH2 0xF3F DUP3 PUSH1 0x1 PUSH2 0x136A JUMP JUMPDEST SWAP1 POP SWAP2 SWAP1 POP JUMP JUMPDEST PUSH0 PUSH2 0xF51 DUP5 DUP5 PUSH2 0xE2E JUMP JUMPDEST SWAP1 POP PUSH32 0xFFFFFFFFFFFFFFFFFFFFFFFFFFFFFFFFFFFFFFFFFFFFFFFFFFFFFFFFFFFFFFFF DUP2 EQ PUSH2 0xFD2 JUMPI DUP2 DUP2 LT ISZERO PUSH2 0xFC3 JUMPI DUP3 DUP2 DUP4 PUSH1 0x40 MLOAD PUSH32 0xFB8F41B200000000000000000000000000000000000000000000000000000000 DUP2 MSTORE PUSH1 0x4 ADD PUSH2 0xFBA SWAP4 SWAP3 SWAP2 SWAP1 PUSH2 0x2273 JUMP JUMPDEST PUSH1 0x40 MLOAD DUP1 SWAP2 SUB SWAP1 REVERT JUMPDEST PUSH2 0xFD1 DUP5 DUP5 DUP5 DUP5 SUB PUSH0 PUSH2 0x1431 JUMP JUMPDEST JUMPDEST POP POP POP POP JUMP JUMPDEST PUSH0 PUSH20 0xFFFFFFFFFFFFFFFFFFFFFFFFFFFFFFFFFFFFFFFF AND DUP4 PUSH20 0xFFFFFFFFFFFFFFFFFFFFFFFFFFFFFFFFFFFFFFFF AND SUB PUSH2 0x1048 JUMPI PUSH0 PUSH1 0x40 MLOAD PUSH32 0x96C6FD1E00000000000000000000000000000000000000000000000000000000 DUP2 MSTORE PUSH1 0x4 ADD PUSH2 0x103F SWAP2 SWAP1 PUSH2 0x2000 JUMP JUMPDEST PUSH1 0x40 MLOAD DUP1 SWAP2 SUB SWAP1 REVERT JUMPDEST PUSH0 PUSH20 0xFFFFFFFFFFFFFFFFFFFFFFFFFFFFFFFFFFFFFFFF AND DUP3 PUSH20 0xFFFFFFFFFFFFFFFFFFFFFFFFFFFFFFFFFFFFFFFF AND SUB PUSH2 0x10B8 JUMPI PUSH0 PUSH1 0x40 MLOAD PUSH32 0xEC442F0500000000000000000000000000000000000000000000000000000000 DUP2 MSTORE PUSH1 0x4 ADD PUSH2 0x10AF SWAP2 SWAP1 PUSH2 0x2000 JUMP JUMPDEST PUSH1 0x40 MLOAD DUP1 SWAP2 SUB SWAP1 REVERT JUMPDEST PUSH2 0x10C3 DUP4 DUP4 DUP4 PUSH2 0x1600 JUMP JUMPDEST POP POP POP JUMP JUMPDEST PUSH0 SWAP1 JUMP JUMPDEST PUSH0 DUP1 PUSH2 0x10D7 DUP4 PUSH2 0x8AC JUMP JUMPDEST SWAP1 POP DUP1 DUP5 GT ISZERO PUSH2 0x1122 JUMPI DUP3 DUP5 DUP3 PUSH1 0x40 MLOAD PUSH32 0x79012FB200000000000000000000000000000000000000000000000000000000 DUP2 MSTORE PUSH1 0x4 ADD PUSH2 0x1119 SWAP4 SWAP3 SWAP2 SWAP1 PUSH2 0x2273 JUMP JUMPDEST PUSH1 0x40 MLOAD DUP1 SWAP2 SUB SWAP1 REVERT JUMPDEST PUSH0 PUSH2 0x112C DUP6 PUSH2 0xEB0 JUMP JUMPDEST SWAP1 POP PUSH2 0x1141 PUSH2 0x1139 PUSH2 0xF1A JUMP JUMPDEST DUP6 DUP8 DUP5 PUSH2 0x114C JUMP JUMPDEST DUP1 SWAP3 POP POP POP SWAP3 SWAP2 POP POP JUMP JUMPDEST PUSH2 0x1178 PUSH32 0x0 DUP6 ADDRESS DUP6 PUSH2 0x1819 JUMP JUMPDEST PUSH2 0x1182 DUP4 DUP3 PUSH2 0x189B JUMP JUMPDEST DUP3 PUSH20 0xFFFFFFFFFFFFFFFFFFFFFFFFFFFFFFFFFFFFFFFF AND DUP5 PUSH20 0xFFFFFFFFFFFFFFFFFFFFFFFFFFFFFFFFFFFFFFFF AND PUSH32 0xDCBC1C05240F31FF3AD067EF1EE35CE4997762752E3A095284754544F4C709D7 DUP5 DUP5 PUSH1 0x40 MLOAD PUSH2 0x11E1 SWAP3 SWAP2 SWAP1 PUSH2 0x2517 JUMP JUMPDEST PUSH1 0x40 MLOAD DUP1 SWAP2 SUB SWAP1 LOG3 POP POP POP POP JUMP JUMPDEST PUSH0 DUP1 PUSH2 0x11FA DUP4 PUSH2 0xDA7 JUMP JUMPDEST SWAP1 POP DUP1 DUP6 GT ISZERO PUSH2 0x1245 JUMPI DUP3 DUP6 DUP3 PUSH1 0x40 MLOAD PUSH32 0xFE9CCEEC00000000000000000000000000000000000000000000000000000000 DUP2 MSTORE PUSH1 0x4 ADD PUSH2 0x123C SWAP4 SWAP3 SWAP2 SWAP1 PUSH2 0x2273 JUMP JUMPDEST PUSH1 0x40 MLOAD DUP1 SWAP2 SUB SWAP1 REVERT JUMPDEST PUSH0 PUSH2 0x124F DUP7 PUSH2 0x79F JUMP JUMPDEST SWAP1 POP PUSH2 0x1265 PUSH2 0x125C PUSH2 0xF1A JUMP JUMPDEST DUP7 DUP7 DUP10 DUP6 PUSH2 0x1271 JUMP JUMPDEST DUP1 SWAP3 POP POP POP SWAP4 SWAP3 POP POP POP JUMP JUMPDEST DUP3 PUSH20 0xFFFFFFFFFFFFFFFFFFFFFFFFFFFFFFFFFFFFFFFF AND DUP6 PUSH20 0xFFFFFFFFFFFFFFFFFFFFFFFFFFFFFFFFFFFFFFFF AND EQ PUSH2 0x12B0 JUMPI PUSH2 0x12AF DUP4 DUP7 DUP4 PUSH2 0xF46 JUMP JUMPDEST JUMPDEST PUSH2 0x12BA DUP4 DUP3 PUSH2 0x191A JUMP JUMPDEST PUSH2 0x12E5 PUSH32 0x0 DUP6 DUP5 PUSH2 0x1999 JUMP JUMPDEST DUP3 PUSH20 0xFFFFFFFFFFFFFFFFFFFFFFFFFFFFFFFFFFFFFFFF AND DUP5 PUSH20 0xFFFFFFFFFFFFFFFFFFFFFFFFFFFFFFFFFFFFFFFF AND DUP7 PUSH20 0xFFFFFFFFFFFFFFFFFFFFFFFFFFFFFFFFFFFFFFFF AND PUSH32 0xFBDE797D201C681B91056529119E0B02407C7BB96A4A2C75C01FC9667232C8DB DUP6 DUP6 PUSH1 0x40 MLOAD PUSH2 0x135B SWAP3 SWAP2 SWAP1 PUSH2 0x2517 JUMP JUMPDEST PUSH1 0x40 MLOAD DUP1 SWAP2 SUB SWAP1 LOG4 POP POP POP POP POP JUMP JUMPDEST PUSH0 PUSH2 0x13BA PUSH2 0x1376 PUSH2 0x10C8 JUMP JUMPDEST PUSH1 0xA PUSH2 0x1382 SWAP2 SWAP1 PUSH2 0x24CD JUMP JUMPDEST PUSH2 0x138A PUSH2 0x815 JUMP JUMPDEST PUSH2 0x1394 SWAP2 SWAP1 PUSH2 0x2240 JUMP JUMPDEST PUSH1 0x1 PUSH2 0x139E PUSH2 0x63D JUMP JUMPDEST PUSH2 0x13A8 SWAP2 SWAP1 PUSH2 0x2240 JUMP JUMPDEST DUP5 DUP7 PUSH2 0x13DC SWAP1 SWAP4 SWAP3 SWAP2 SWAP1 PUSH4 0xFFFFFFFF AND JUMP JUMPDEST SWAP1 POP SWAP3 SWAP2 POP POP JUMP JUMPDEST PUSH0 PUSH2 0x13D5 PUSH2 0x13CF DUP4 PUSH2 0x9A0 JUMP JUMPDEST PUSH0 PUSH2 0xEC2 JUMP JUMPDEST SWAP1 POP SWAP2 SWAP1 POP JUMP JUMPDEST PUSH0 DUP1 PUSH2 0x13E9 DUP7 DUP7 DUP7 PUSH2 0x1A18 JUMP JUMPDEST SWAP1 POP PUSH2 0x13F4 DUP4 PUSH2 0x1B17 JUMP JUMPDEST DUP1 ISZERO PUSH2 0x1410 JUMPI POP PUSH0 DUP5 DUP1 PUSH2 0x140B JUMPI PUSH2 0x140A PUSH2 0x253E JUMP JUMPDEST JUMPDEST DUP7 DUP9 MULMOD GT JUMPDEST ISZERO PUSH2 0x1425 JUMPI PUSH1 0x1 DUP2 PUSH2 0x1422 SWAP2 SWAP1 PUSH2 0x2240 JUMP JUMPDEST SWAP1 POP JUMPDEST DUP1 SWAP2 POP POP SWAP5 SWAP4 POP POP POP POP JUMP JUMPDEST PUSH0 PUSH20 0xFFFFFFFFFFFFFFFFFFFFFFFFFFFFFFFFFFFFFFFF AND DUP5 PUSH20 0xFFFFFFFFFFFFFFFFFFFFFFFFFFFFFFFFFFFFFFFF AND SUB PUSH2 0x14A1 JUMPI PUSH0 PUSH1 0x40 MLOAD PUSH32 0xE602DF0500000000000000000000000000000000000000000000000000000000 DUP2 MSTORE PUSH1 0x4 ADD PUSH2 0x1498 SWAP2 SWAP1 PUSH2 0x2000 JUMP JUMPDEST PUSH1 0x40 MLOAD DUP1 SWAP2 SUB SWAP1 REVERT JUMPDEST PUSH0 PUSH20 0xFFFFFFFFFFFFFFFFFFFFFFFFFFFFFFFFFFFFFFFF AND DUP4 PUSH20 0xFFFFFFFFFFFFFFFFFFFFFFFFFFFFFFFFFFFFFFFF AND SUB PUSH2 0x1511 JUMPI PUSH0 PUSH1 0x40 MLOAD PUSH32 0x94280D6200000000000000000000000000000000000000000000000000000000 DUP2 MSTORE PUSH1 0x4 ADD PUSH2 0x1508 SWAP2 SWAP1 PUSH2 0x2000 JUMP JUMPDEST PUSH1 0x40 MLOAD DUP1 SWAP2 SUB SWAP1 REVERT JUMPDEST DUP2 PUSH1 0x1 PUSH0 DUP7 PUSH20 0xFFFFFFFFFFFFFFFFFFFFFFFFFFFFFFFFFFFFFFFF AND PUSH20 0xFFFFFFFFFFFFFFFFFFFFFFFFFFFFFFFFFFFFFFFF AND DUP2 MSTORE PUSH1 0x20 ADD SWAP1 DUP2 MSTORE PUSH1 0x20 ADD PUSH0 KECCAK256 PUSH0 DUP6 PUSH20 0xFFFFFFFFFFFFFFFFFFFFFFFFFFFFFFFFFFFFFFFF AND PUSH20 0xFFFFFFFFFFFFFFFFFFFFFFFFFFFFFFFFFFFFFFFF AND DUP2 MSTORE PUSH1 0x20 ADD SWAP1 DUP2 MSTORE PUSH1 0x20 ADD PUSH0 KECCAK256 DUP2 SWAP1 SSTORE POP DUP1 ISZERO PUSH2 0x15FA JUMPI DUP3 PUSH20 0xFFFFFFFFFFFFFFFFFFFFFFFFFFFFFFFFFFFFFFFF AND DUP5 PUSH20 0xFFFFFFFFFFFFFFFFFFFFFFFFFFFFFFFFFFFFFFFF AND PUSH32 0x8C5BE1E5EBEC7D5BD14F71427D1E84F3DD0314C0F7B2291E5B200AC8C7C3B925 DUP5 PUSH1 0x40 MLOAD PUSH2 0x15F1 SWAP2 SWAP1 PUSH2 0x1DA0 JUMP JUMPDEST PUSH1 0x40 MLOAD DUP1 SWAP2 SUB SWAP1 LOG3 JUMPDEST POP POP POP POP JUMP JUMPDEST PUSH0 PUSH20 0xFFFFFFFFFFFFFFFFFFFFFFFFFFFFFFFFFFFFFFFF AND DUP4 PUSH20 0xFFFFFFFFFFFFFFFFFFFFFFFFFFFFFFFFFFFFFFFF AND SUB PUSH2 0x1650 JUMPI DUP1 PUSH1 0x2 PUSH0 DUP3 DUP3 SLOAD PUSH2 0x1644 SWAP2 SWAP1 PUSH2 0x2240 JUMP JUMPDEST SWAP3 POP POP DUP2 SWAP1 SSTORE POP PUSH2 0x171E JUMP JUMPDEST PUSH0 DUP1 PUSH0 DUP6 PUSH20 0xFFFFFFFFFFFFFFFFFFFFFFFFFFFFFFFFFFFFFFFF AND PUSH20 0xFFFFFFFFFFFFFFFFFFFFFFFFFFFFFFFFFFFFFFFF AND DUP2 MSTORE PUSH1 0x20 ADD SWAP1 DUP2 MSTORE PUSH1 0x20 ADD PUSH0 KECCAK256 SLOAD SWAP1 POP DUP2 DUP2 LT ISZERO PUSH2 0x16D9 JUMPI DUP4 DUP2 DUP4 PUSH1 0x40 MLOAD PUSH32 0xE450D38C00000000000000000000000000000000000000000000000000000000 DUP2 MSTORE PUSH1 0x4 ADD PUSH2 0x16D0 SWAP4 SWAP3 SWAP2 SWAP1 PUSH2 0x2273 JUMP JUMPDEST PUSH1 0x40 MLOAD DUP1 SWAP2 SUB SWAP1 REVERT JUMPDEST DUP2 DUP2 SUB PUSH0 DUP1 DUP7 PUSH20 0xFFFFFFFFFFFFFFFFFFFFFFFFFFFFFFFFFFFFFFFF AND PUSH20 0xFFFFFFFFFFFFFFFFFFFFFFFFFFFFFFFFFFFFFFFF AND DUP2 MSTORE PUSH1 0x20 ADD SWAP1 DUP2 MSTORE PUSH1 0x20 ADD PUSH0 KECCAK256 DUP2 SWAP1 SSTORE POP POP JUMPDEST PUSH0 PUSH20 0xFFFFFFFFFFFFFFFFFFFFFFFFFFFFFFFFFFFFFFFF AND DUP3 PUSH20 0xFFFFFFFFFFFFFFFFFFFFFFFFFFFFFFFFFFFFFFFF AND SUB PUSH2 0x1765 JUMPI DUP1 PUSH1 0x2 PUSH0 DUP3 DUP3 SLOAD SUB SWAP3 POP POP DUP2 SWAP1 SSTORE POP PUSH2 0x17AF JUMP JUMPDEST DUP1 PUSH0 DUP1 DUP5 PUSH20 0xFFFFFFFFFFFFFFFFFFFFFFFFFFFFFFFFFFFFFFFF AND PUSH20 0xFFFFFFFFFFFFFFFFFFFFFFFFFFFFFFFFFFFFFFFF AND DUP2 MSTORE PUSH1 0x20 ADD SWAP1 DUP2 MSTORE PUSH1 0x20 ADD PUSH0 KECCAK256 PUSH0 DUP3 DUP3 SLOAD ADD SWAP3 POP POP DUP2 SWAP1 SSTORE POP JUMPDEST DUP2 PUSH20 0xFFFFFFFFFFFFFFFFFFFFFFFFFFFFFFFFFFFFFFFF AND DUP4 PUSH20 0xFFFFFFFFFFFFFFFFFFFFFFFFFFFFFFFFFFFFFFFF AND PUSH32 0xDDF252AD1BE2C89B69C2B068FC378DAA952BA7F163C4A11628F55A4DF523B3EF DUP4 PUSH1 0x40 MLOAD PUSH2 0x180C SWAP2 SWAP1 PUSH2 0x1DA0 JUMP JUMPDEST PUSH1 0x40 MLOAD DUP1 SWAP2 SUB SWAP1 LOG3 POP POP POP JUMP JUMPDEST PUSH2 0x1895 DUP5 DUP6 PUSH20 0xFFFFFFFFFFFFFFFFFFFFFFFFFFFFFFFFFFFFFFFF AND PUSH4 0x23B872DD DUP7 DUP7 DUP7 PUSH1 0x40 MLOAD PUSH1 0x24 ADD PUSH2 0x184E SWAP4 SWAP3 SWAP2 SWAP1 PUSH2 0x256B JUMP JUMPDEST PUSH1 0x40 MLOAD PUSH1 0x20 DUP2 DUP4 SUB SUB DUP2 MSTORE SWAP1 PUSH1 0x40 MSTORE SWAP2 POP PUSH1 0xE0 SHL PUSH1 0x20 DUP3 ADD DUP1 MLOAD PUSH28 0xFFFFFFFFFFFFFFFFFFFFFFFFFFFFFFFFFFFFFFFFFFFFFFFFFFFFFFFF DUP4 DUP2 DUP4 AND OR DUP4 MSTORE POP POP POP POP PUSH2 0x1B44 JUMP JUMPDEST POP POP POP POP JUMP JUMPDEST PUSH0 PUSH20 0xFFFFFFFFFFFFFFFFFFFFFFFFFFFFFFFFFFFFFFFF AND DUP3 PUSH20 0xFFFFFFFFFFFFFFFFFFFFFFFFFFFFFFFFFFFFFFFF AND SUB PUSH2 0x190B JUMPI PUSH0 PUSH1 0x40 MLOAD PUSH32 0xEC442F0500000000000000000000000000000000000000000000000000000000 DUP2 MSTORE PUSH1 0x4 ADD PUSH2 0x1902 SWAP2 SWAP1 PUSH2 0x2000 JUMP JUMPDEST PUSH1 0x40 MLOAD DUP1 SWAP2 SUB SWAP1 REVERT JUMPDEST PUSH2 0x1916 PUSH0 DUP4 DUP4 PUSH2 0x1600 JUMP JUMPDEST POP POP JUMP JUMPDEST PUSH0 PUSH20 0xFFFFFFFFFFFFFFFFFFFFFFFFFFFFFFFFFFFFFFFF AND DUP3 PUSH20 0xFFFFFFFFFFFFFFFFFFFFFFFFFFFFFFFFFFFFFFFF AND SUB PUSH2 0x198A JUMPI PUSH0 PUSH1 0x40 MLOAD PUSH32 0x96C6FD1E00000000000000000000000000000000000000000000000000000000 DUP2 MSTORE PUSH1 0x4 ADD PUSH2 0x1981 SWAP2 SWAP1 PUSH2 0x2000 JUMP JUMPDEST PUSH1 0x40 MLOAD DUP1 SWAP2 SUB SWAP1 REVERT JUMPDEST PUSH2 0x1995 DUP3 PUSH0 DUP4 PUSH2 0x1600 JUMP JUMPDEST POP POP JUMP JUMPDEST PUSH2 0x1A13 DUP4 DUP5 PUSH20 0xFFFFFFFFFFFFFFFFFFFFFFFFFFFFFFFFFFFFFFFF AND PUSH4 0xA9059CBB DUP6 DUP6 PUSH1 0x40 MLOAD PUSH1 0x24 ADD PUSH2 0x19CC SWAP3 SWAP2 SWAP1 PUSH2 0x25A0 JUMP JUMPDEST PUSH1 0x40 MLOAD PUSH1 0x20 DUP2 DUP4 SUB SUB DUP2 MSTORE SWAP1 PUSH1 0x40 MSTORE SWAP2 POP PUSH1 0xE0 SHL PUSH1 0x20 DUP3 ADD DUP1 MLOAD PUSH28 0xFFFFFFFFFFFFFFFFFFFFFFFFFFFFFFFFFFFFFFFFFFFFFFFFFFFFFFFF DUP4 DUP2 DUP4 AND OR DUP4 MSTORE POP POP POP POP PUSH2 0x1B44 JUMP JUMPDEST POP POP POP JUMP JUMPDEST PUSH0 DUP1 DUP4 DUP6 MUL SWAP1 POP PUSH0 DUP1 NOT DUP6 DUP8 MULMOD DUP3 DUP2 LT DUP4 DUP3 SUB SUB SWAP2 POP POP PUSH0 DUP2 SUB PUSH2 0x1A50 JUMPI DUP4 DUP3 DUP2 PUSH2 0x1A46 JUMPI PUSH2 0x1A45 PUSH2 0x253E JUMP JUMPDEST JUMPDEST DIV SWAP3 POP POP POP PUSH2 0x1B10 JUMP JUMPDEST DUP1 DUP5 GT PUSH2 0x1A89 JUMPI PUSH1 0x40 MLOAD PUSH32 0x227BC15300000000000000000000000000000000000000000000000000000000 DUP2 MSTORE PUSH1 0x4 ADD PUSH1 0x40 MLOAD DUP1 SWAP2 SUB SWAP1 REVERT JUMPDEST PUSH0 DUP5 DUP7 DUP9 MULMOD SWAP1 POP DUP3 DUP2 GT DUP3 SUB SWAP2 POP DUP1 DUP4 SUB SWAP3 POP PUSH0 DUP6 PUSH0 SUB DUP7 AND SWAP1 POP DUP1 DUP7 DIV SWAP6 POP DUP1 DUP5 DIV SWAP4 POP PUSH1 0x1 DUP2 DUP3 PUSH0 SUB DIV ADD SWAP1 POP DUP1 DUP4 MUL DUP5 OR SWAP4 POP PUSH0 PUSH1 0x2 DUP8 PUSH1 0x3 MUL XOR SWAP1 POP DUP1 DUP8 MUL PUSH1 0x2 SUB DUP2 MUL SWAP1 POP DUP1 DUP8 MUL PUSH1 0x2 SUB DUP2 MUL SWAP1 POP DUP1 DUP8 MUL PUSH1 0x2 SUB DUP2 MUL SWAP1 POP DUP1 DUP8 MUL PUSH1 0x2 SUB DUP2 MUL SWAP1 POP DUP1 DUP8 MUL PUSH1 0x2 SUB DUP2 MUL SWAP1 POP DUP1 DUP8 MUL PUSH1 0x2 SUB DUP2 MUL SWAP1 POP DUP1 DUP6 MUL SWAP6 POP POP POP POP POP POP JUMPDEST SWAP4 SWAP3 POP POP POP JUMP JUMPDEST PUSH0 PUSH1 0x1 PUSH1 0x2 DUP4 PUSH1 0x3 DUP2 GT ISZERO PUSH2 0x1B2F JUMPI PUSH2 0x1B2E PUSH2 0x25C7 JUMP JUMPDEST JUMPDEST PUSH2 0x1B39 SWAP2 SWAP1 PUSH2 0x25F4 JUMP JUMPDEST PUSH1 0xFF AND EQ SWAP1 POP SWAP2 SWAP1 POP JUMP JUMPDEST PUSH0 PUSH2 0x1B6E DUP3 DUP5 PUSH20 0xFFFFFFFFFFFFFFFFFFFFFFFFFFFFFFFFFFFFFFFF AND PUSH2 0x1BD9 SWAP1 SWAP2 SWAP1 PUSH4 0xFFFFFFFF AND JUMP JUMPDEST SWAP1 POP PUSH0 DUP2 MLOAD EQ ISZERO DUP1 ISZERO PUSH2 0x1B92 JUMPI POP DUP1 DUP1 PUSH1 0x20 ADD SWAP1 MLOAD DUP2 ADD SWAP1 PUSH2 0x1B90 SWAP2 SWAP1 PUSH2 0x264E JUMP JUMPDEST ISZERO JUMPDEST ISZERO PUSH2 0x1BD4 JUMPI DUP3 PUSH1 0x40 MLOAD PUSH32 0x5274AFE700000000000000000000000000000000000000000000000000000000 DUP2 MSTORE PUSH1 0x4 ADD PUSH2 0x1BCB SWAP2 SWAP1 PUSH2 0x2000 JUMP JUMPDEST PUSH1 0x40 MLOAD DUP1 SWAP2 SUB SWAP1 REVERT JUMPDEST POP POP POP JUMP JUMPDEST PUSH1 0x60 PUSH2 0x1BE6 DUP4 DUP4 PUSH0 PUSH2 0x1BEE JUMP JUMPDEST SWAP1 POP SWAP3 SWAP2 POP POP JUMP JUMPDEST PUSH1 0x60 DUP2 SELFBALANCE LT ISZERO PUSH2 0x1C35 JUMPI ADDRESS PUSH1 0x40 MLOAD PUSH32 0xCD78605900000000000000000000000000000000000000000000000000000000 DUP2 MSTORE PUSH1 0x4 ADD PUSH2 0x1C2C SWAP2 SWAP1 PUSH2 0x2000 JUMP JUMPDEST PUSH1 0x40 MLOAD DUP1 SWAP2 SUB SWAP1 REVERT JUMPDEST PUSH0 DUP1 DUP6 PUSH20 0xFFFFFFFFFFFFFFFFFFFFFFFFFFFFFFFFFFFFFFFF AND DUP5 DUP7 PUSH1 0x40 MLOAD PUSH2 0x1C5D SWAP2 SWAP1 PUSH2 0x26BD JUMP JUMPDEST PUSH0 PUSH1 0x40 MLOAD DUP1 DUP4 SUB DUP2 DUP6 DUP8 GAS CALL SWAP3 POP POP POP RETURNDATASIZE DUP1 PUSH0 DUP2 EQ PUSH2 0x1C97 JUMPI PUSH1 0x40 MLOAD SWAP2 POP PUSH1 0x1F NOT PUSH1 0x3F RETURNDATASIZE ADD AND DUP3 ADD PUSH1 0x40 MSTORE RETURNDATASIZE DUP3 MSTORE RETURNDATASIZE PUSH0 PUSH1 0x20 DUP5 ADD RETURNDATACOPY PUSH2 0x1C9C JUMP JUMPDEST PUSH1 0x60 SWAP2 POP JUMPDEST POP SWAP2 POP SWAP2 POP PUSH2 0x1CAC DUP7 DUP4 DUP4 PUSH2 0x1CB7 JUMP JUMPDEST SWAP3 POP POP POP SWAP4 SWAP3 POP POP POP JUMP JUMPDEST PUSH1 0x60 DUP3 PUSH2 0x1CCC JUMPI PUSH2 0x1CC7 DUP3 PUSH2 0x1D44 JUMP JUMPDEST PUSH2 0x1D3C JUMP JUMPDEST PUSH0 DUP3 MLOAD EQ DUP1 ISZERO PUSH2 0x1CF2 JUMPI POP PUSH0 DUP5 PUSH20 0xFFFFFFFFFFFFFFFFFFFFFFFFFFFFFFFFFFFFFFFF AND EXTCODESIZE EQ JUMPDEST ISZERO PUSH2 0x1D34 JUMPI DUP4 PUSH1 0x40 MLOAD PUSH32 0x9996B31500000000000000000000000000000000000000000000000000000000 DUP2 MSTORE PUSH1 0x4 ADD PUSH2 0x1D2B SWAP2 SWAP1 PUSH2 0x2000 JUMP JUMPDEST PUSH1 0x40 MLOAD DUP1 SWAP2 SUB SWAP1 REVERT JUMPDEST DUP2 SWAP1 POP PUSH2 0x1D3D JUMP JUMPDEST JUMPDEST SWAP4 SWAP3 POP POP POP JUMP JUMPDEST PUSH0 DUP2 MLOAD GT ISZERO PUSH2 0x1D56 JUMPI DUP1 MLOAD DUP1 DUP3 PUSH1 0x20 ADD REVERT JUMPDEST PUSH1 0x40 MLOAD PUSH32 0x1425EA4200000000000000000000000000000000000000000000000000000000 DUP2 MSTORE PUSH1 0x4 ADD PUSH1 0x40 MLOAD DUP1 SWAP2 SUB SWAP1 REVERT JUMPDEST PUSH0 DUP2 SWAP1 POP SWAP2 SWAP1 POP JUMP JUMPDEST PUSH2 0x1D9A DUP2 PUSH2 0x1D88 JUMP JUMPDEST DUP3 MSTORE POP POP JUMP JUMPDEST PUSH0 PUSH1 0x20 DUP3 ADD SWAP1 POP PUSH2 0x1DB3 PUSH0 DUP4 ADD DUP5 PUSH2 0x1D91 JUMP JUMPDEST SWAP3 SWAP2 POP POP JUMP JUMPDEST PUSH0 DUP2 MLOAD SWAP1 POP SWAP2 SWAP1 POP JUMP JUMPDEST PUSH0 DUP3 DUP3 MSTORE PUSH1 0x20 DUP3 ADD SWAP1 POP SWAP3 SWAP2 POP POP JUMP JUMPDEST DUP3 DUP2 DUP4 MCOPY PUSH0 DUP4 DUP4 ADD MSTORE POP POP POP JUMP JUMPDEST PUSH0 PUSH1 0x1F NOT PUSH1 0x1F DUP4 ADD AND SWAP1 POP SWAP2 SWAP1 POP JUMP JUMPDEST PUSH0 PUSH2 0x1DFB DUP3 PUSH2 0x1DB9 JUMP JUMPDEST PUSH2 0x1E05 DUP2 DUP6 PUSH2 0x1DC3 JUMP JUMPDEST SWAP4 POP PUSH2 0x1E15 DUP2 DUP6 PUSH1 0x20 DUP7 ADD PUSH2 0x1DD3 JUMP JUMPDEST PUSH2 0x1E1E DUP2 PUSH2 0x1DE1 JUMP JUMPDEST DUP5 ADD SWAP2 POP POP SWAP3 SWAP2 POP POP JUMP JUMPDEST PUSH0 PUSH1 0x20 DUP3 ADD SWAP1 POP DUP2 DUP2 SUB PUSH0 DUP4 ADD MSTORE PUSH2 0x1E41 DUP2 DUP5 PUSH2 0x1DF1 JUMP JUMPDEST SWAP1 POP SWAP3 SWAP2 POP POP JUMP JUMPDEST PUSH0 DUP1 REVERT JUMPDEST PUSH2 0x1E56 DUP2 PUSH2 0x1D88 JUMP JUMPDEST DUP2 EQ PUSH2 0x1E60 JUMPI PUSH0 DUP1 REVERT JUMPDEST POP JUMP JUMPDEST PUSH0 DUP2 CALLDATALOAD SWAP1 POP PUSH2 0x1E71 DUP2 PUSH2 0x1E4D JUMP JUMPDEST SWAP3 SWAP2 POP POP JUMP JUMPDEST PUSH0 PUSH1 0x20 DUP3 DUP5 SUB SLT ISZERO PUSH2 0x1E8C JUMPI PUSH2 0x1E8B PUSH2 0x1E49 JUMP JUMPDEST JUMPDEST PUSH0 PUSH2 0x1E99 DUP5 DUP3 DUP6 ADD PUSH2 0x1E63 JUMP JUMPDEST SWAP2 POP POP SWAP3 SWAP2 POP POP JUMP JUMPDEST PUSH0 PUSH20 0xFFFFFFFFFFFFFFFFFFFFFFFFFFFFFFFFFFFFFFFF DUP3 AND SWAP1 POP SWAP2 SWAP1 POP JUMP JUMPDEST PUSH0 PUSH2 0x1ECB DUP3 PUSH2 0x1EA2 JUMP JUMPDEST SWAP1 POP SWAP2 SWAP1 POP JUMP JUMPDEST PUSH2 0x1EDB DUP2 PUSH2 0x1EC1 JUMP JUMPDEST DUP2 EQ PUSH2 0x1EE5 JUMPI PUSH0 DUP1 REVERT JUMPDEST POP JUMP JUMPDEST PUSH0 DUP2 CALLDATALOAD SWAP1 POP PUSH2 0x1EF6 DUP2 PUSH2 0x1ED2 JUMP JUMPDEST SWAP3 SWAP2 POP POP JUMP JUMPDEST PUSH0 DUP1 PUSH1 0x40 DUP4 DUP6 SUB SLT ISZERO PUSH2 0x1F12 JUMPI PUSH2 0x1F11 PUSH2 0x1E49 JUMP JUMPDEST JUMPDEST PUSH0 PUSH2 0x1F1F DUP6 DUP3 DUP7 ADD PUSH2 0x1EE8 JUMP JUMPDEST SWAP3 POP POP PUSH1 0x20 PUSH2 0x1F30 DUP6 DUP3 DUP7 ADD PUSH2 0x1E63 JUMP JUMPDEST SWAP2 POP POP SWAP3 POP SWAP3 SWAP1 POP JUMP JUMPDEST PUSH0 DUP2 ISZERO ISZERO SWAP1 POP SWAP2 SWAP1 POP JUMP JUMPDEST PUSH2 0x1F4E DUP2 PUSH2 0x1F3A JUMP JUMPDEST DUP3 MSTORE POP POP JUMP JUMPDEST PUSH0 PUSH1 0x20 DUP3 ADD SWAP1 POP PUSH2 0x1F67 PUSH0 DUP4 ADD DUP5 PUSH2 0x1F45 JUMP JUMPDEST SWAP3 SWAP2 POP POP JUMP JUMPDEST PUSH0 DUP1 PUSH0 PUSH1 0x60 DUP5 DUP7 SUB SLT ISZERO PUSH2 0x1F84 JUMPI PUSH2 0x1F83 PUSH2 0x1E49 JUMP JUMPDEST JUMPDEST PUSH0 PUSH2 0x1F91 DUP7 DUP3 DUP8 ADD PUSH2 0x1EE8 JUMP JUMPDEST SWAP4 POP POP PUSH1 0x20 PUSH2 0x1FA2 DUP7 DUP3 DUP8 ADD PUSH2 0x1EE8 JUMP JUMPDEST SWAP3 POP POP PUSH1 0x40 PUSH2 0x1FB3 DUP7 DUP3 DUP8 ADD PUSH2 0x1E63 JUMP JUMPDEST SWAP2 POP POP SWAP3 POP SWAP3 POP SWAP3 JUMP JUMPDEST PUSH0 PUSH1 0xFF DUP3 AND SWAP1 POP SWAP2 SWAP1 POP JUMP JUMPDEST PUSH2 0x1FD2 DUP2 PUSH2 0x1FBD JUMP JUMPDEST DUP3 MSTORE POP POP JUMP JUMPDEST PUSH0 PUSH1 0x20 DUP3 ADD SWAP1 POP PUSH2 0x1FEB PUSH0 DUP4 ADD DUP5 PUSH2 0x1FC9 JUMP JUMPDEST SWAP3 SWAP2 POP POP JUMP JUMPDEST PUSH2 0x1FFA DUP2 PUSH2 0x1EC1 JUMP JUMPDEST DUP3 MSTORE POP POP JUMP JUMPDEST PUSH0 PUSH1 0x20 DUP3 ADD SWAP1 POP PUSH2 0x2013 PUSH0 DUP4 ADD DUP5 PUSH2 0x1FF1 JUMP JUMPDEST SWAP3 SWAP2 POP POP JUMP JUMPDEST PUSH0 PUSH1 0x20 DUP3 DUP5 SUB SLT ISZERO PUSH2 0x202E JUMPI PUSH2 0x202D PUSH2 0x1E49 JUMP JUMPDEST JUMPDEST PUSH0 PUSH2 0x203B DUP5 DUP3 DUP6 ADD PUSH2 0x1EE8 JUMP JUMPDEST SWAP2 POP POP SWAP3 SWAP2 POP POP JUMP JUMPDEST PUSH0 DUP1 PUSH1 0x40 DUP4 DUP6 SUB SLT ISZERO PUSH2 0x205A JUMPI PUSH2 0x2059 PUSH2 0x1E49 JUMP JUMPDEST JUMPDEST PUSH0 PUSH2 0x2067 DUP6 DUP3 DUP7 ADD PUSH2 0x1E63 JUMP JUMPDEST SWAP3 POP POP PUSH1 0x20 PUSH2 0x2078 DUP6 DUP3 DUP7 ADD PUSH2 0x1EE8 JUMP JUMPDEST SWAP2 POP POP SWAP3 POP SWAP3 SWAP1 POP JUMP JUMPDEST PUSH0 DUP1 PUSH0 PUSH1 0x60 DUP5 DUP7 SUB SLT ISZERO PUSH2 0x2099 JUMPI PUSH2 0x2098 PUSH2 0x1E49 JUMP JUMPDEST JUMPDEST PUSH0 PUSH2 0x20A6 DUP7 DUP3 DUP8 ADD PUSH2 0x1E63 JUMP JUMPDEST SWAP4 POP POP PUSH1 0x20 PUSH2 0x20B7 DUP7 DUP3 DUP8 ADD PUSH2 0x1EE8 JUMP JUMPDEST SWAP3 POP POP PUSH1 0x40 PUSH2 0x20C8 DUP7 DUP3 DUP8 ADD PUSH2 0x1EE8 JUMP JUMPDEST SWAP2 POP POP SWAP3 POP SWAP3 POP SWAP3 JUMP JUMPDEST PUSH0 DUP1 PUSH1 0x40 DUP4 DUP6 SUB SLT ISZERO PUSH2 0x20E8 JUMPI PUSH2 0x20E7 PUSH2 0x1E49 JUMP JUMPDEST JUMPDEST PUSH0 PUSH2 0x20F5 DUP6 DUP3 DUP7 ADD PUSH2 0x1EE8 JUMP JUMPDEST SWAP3 POP POP PUSH1 0x20 PUSH2 0x2106 DUP6 DUP3 DUP7 ADD PUSH2 0x1EE8 JUMP JUMPDEST SWAP2 POP POP SWAP3 POP SWAP3 SWAP1 POP JUMP JUMPDEST PUSH0 DUP2 MLOAD SWAP1 POP PUSH2 0x211E DUP2 PUSH2 0x1E4D JUMP JUMPDEST SWAP3 SWAP2 POP POP JUMP JUMPDEST PUSH0 PUSH1 0x20 DUP3 DUP5 SUB SLT ISZERO PUSH2 0x2139 JUMPI PUSH2 0x2138 PUSH2 0x1E49 JUMP JUMPDEST JUMPDEST PUSH0 PUSH2 0x2146 DUP5 DUP3 DUP6 ADD PUSH2 0x2110 JUMP JUMPDEST SWAP2 POP POP SWAP3 SWAP2 POP POP JUMP JUMPDEST PUSH32 0x4E487B7100000000000000000000000000000000000000000000000000000000 PUSH0 MSTORE PUSH1 0x22 PUSH1 0x4 MSTORE PUSH1 0x24 PUSH0 REVERT JUMPDEST PUSH0 PUSH1 0x2 DUP3 DIV SWAP1 POP PUSH1 0x1 DUP3 AND DUP1 PUSH2 0x2193 JUMPI PUSH1 0x7F DUP3 AND SWAP2 POP JUMPDEST PUSH1 0x20 DUP3 LT DUP2 SUB PUSH2 0x21A6 JUMPI PUSH2 0x21A5 PUSH2 0x214F JUMP JUMPDEST JUMPDEST POP SWAP2 SWAP1 POP JUMP JUMPDEST PUSH32 0x4E487B7100000000000000000000000000000000000000000000000000000000 PUSH0 MSTORE PUSH1 0x11 PUSH1 0x4 MSTORE PUSH1 0x24 PUSH0 REVERT JUMPDEST PUSH0 PUSH2 0x21E3 DUP3 PUSH2 0x1D88 JUMP JUMPDEST SWAP2 POP PUSH2 0x21EE DUP4 PUSH2 0x1D88 JUMP JUMPDEST SWAP3 POP DUP3 DUP3 SUB SWAP1 POP DUP2 DUP2 GT ISZERO PUSH2 0x2206 JUMPI PUSH2 0x2205 PUSH2 0x21AC JUMP JUMPDEST JUMPDEST SWAP3 SWAP2 POP POP JUMP JUMPDEST PUSH0 PUSH2 0x2216 DUP3 PUSH2 0x1FBD JUMP JUMPDEST SWAP2 POP PUSH2 0x2221 DUP4 PUSH2 0x1FBD JUMP JUMPDEST SWAP3 POP DUP3 DUP3 ADD SWAP1 POP PUSH1 0xFF DUP2 GT ISZERO PUSH2 0x223A JUMPI PUSH2 0x2239 PUSH2 0x21AC JUMP JUMPDEST JUMPDEST SWAP3 SWAP2 POP POP JUMP JUMPDEST PUSH0 PUSH2 0x224A DUP3 PUSH2 0x1D88 JUMP JUMPDEST SWAP2 POP PUSH2 0x2255 DUP4 PUSH2 0x1D88 JUMP JUMPDEST SWAP3 POP DUP3 DUP3 ADD SWAP1 POP DUP1 DUP3 GT ISZERO PUSH2 0x226D JUMPI PUSH2 0x226C PUSH2 0x21AC JUMP JUMPDEST JUMPDEST SWAP3 SWAP2 POP POP JUMP JUMPDEST PUSH0 PUSH1 0x60 DUP3 ADD SWAP1 POP PUSH2 0x2286 PUSH0 DUP4 ADD DUP7 PUSH2 0x1FF1 JUMP JUMPDEST PUSH2 0x2293 PUSH1 0x20 DUP4 ADD DUP6 PUSH2 0x1D91 JUMP JUMPDEST PUSH2 0x22A0 PUSH1 0x40 DUP4 ADD DUP5 PUSH2 0x1D91 JUMP JUMPDEST SWAP5 SWAP4 POP POP POP POP JUMP JUMPDEST PUSH32 0x45786365656473206D617820776974686472617720616D6F756E740000000000 PUSH0 DUP3 ADD MSTORE POP JUMP JUMPDEST PUSH0 PUSH2 0x22DC PUSH1 0x1B DUP4 PUSH2 0x1DC3 JUMP JUMPDEST SWAP2 POP PUSH2 0x22E7 DUP3 PUSH2 0x22A8 JUMP JUMPDEST PUSH1 0x20 DUP3 ADD SWAP1 POP SWAP2 SWAP1 POP JUMP JUMPDEST PUSH0 PUSH1 0x20 DUP3 ADD SWAP1 POP DUP2 DUP2 SUB PUSH0 DUP4 ADD MSTORE PUSH2 0x2309 DUP2 PUSH2 0x22D0 JUMP JUMPDEST SWAP1 POP SWAP2 SWAP1 POP JUMP JUMPDEST PUSH32 0x43616E6E6F74207769746864726177206C6F636B656420636F6C6C6174657261 PUSH0 DUP3 ADD MSTORE PUSH32 0x6C00000000000000000000000000000000000000000000000000000000000000 PUSH1 0x20 DUP3 ADD MSTORE POP JUMP JUMPDEST PUSH0 PUSH2 0x236A PUSH1 0x21 DUP4 PUSH2 0x1DC3 JUMP JUMPDEST SWAP2 POP PUSH2 0x2375 DUP3 PUSH2 0x2310 JUMP JUMPDEST PUSH1 0x40 DUP3 ADD SWAP1 POP SWAP2 SWAP1 POP JUMP JUMPDEST PUSH0 PUSH1 0x20 DUP3 ADD SWAP1 POP DUP2 DUP2 SUB PUSH0 DUP4 ADD MSTORE PUSH2 0x2397 DUP2 PUSH2 0x235E JUMP JUMPDEST SWAP1 POP SWAP2 SWAP1 POP JUMP JUMPDEST PUSH0 DUP2 PUSH1 0x1 SHR SWAP1 POP SWAP2 SWAP1 POP JUMP JUMPDEST PUSH0 DUP1 DUP3 SWAP2 POP DUP4 SWAP1 POP JUMPDEST PUSH1 0x1 DUP6 GT ISZERO PUSH2 0x23F3 JUMPI DUP1 DUP7 DIV DUP2 GT ISZERO PUSH2 0x23CF JUMPI PUSH2 0x23CE PUSH2 0x21AC JUMP JUMPDEST JUMPDEST PUSH1 0x1 DUP6 AND ISZERO PUSH2 0x23DE JUMPI DUP1 DUP3 MUL SWAP2 POP JUMPDEST DUP1 DUP2 MUL SWAP1 POP PUSH2 0x23EC DUP6 PUSH2 0x239E JUMP JUMPDEST SWAP5 POP PUSH2 0x23B3 JUMP JUMPDEST SWAP5 POP SWAP5 SWAP3 POP POP POP JUMP JUMPDEST PUSH0 DUP3 PUSH2 0x240B JUMPI PUSH1 0x1 SWAP1 POP PUSH2 0x24C6 JUMP JUMPDEST DUP2 PUSH2 0x2418 JUMPI PUSH0 SWAP1 POP PUSH2 0x24C6 JUMP JUMPDEST DUP2 PUSH1 0x1 DUP2 EQ PUSH2 0x242E JUMPI PUSH1 0x2 DUP2 EQ PUSH2 0x2438 JUMPI PUSH2 0x2467 JUMP JUMPDEST PUSH1 0x1 SWAP2 POP POP PUSH2 0x24C6 JUMP JUMPDEST PUSH1 0xFF DUP5 GT ISZERO PUSH2 0x244A JUMPI PUSH2 0x2449 PUSH2 0x21AC JUMP JUMPDEST JUMPDEST DUP4 PUSH1 0x2 EXP SWAP2 POP DUP5 DUP3 GT ISZERO PUSH2 0x2461 JUMPI PUSH2 0x2460 PUSH2 0x21AC JUMP JUMPDEST JUMPDEST POP PUSH2 0x24C6 JUMP JUMPDEST POP PUSH1 0x20 DUP4 LT PUSH2 0x133 DUP4 LT AND PUSH1 0x4E DUP5 LT PUSH1 0xB DUP5 LT AND OR ISZERO PUSH2 0x249C JUMPI DUP3 DUP3 EXP SWAP1 POP DUP4 DUP2 GT ISZERO PUSH2 0x2497 JUMPI PUSH2 0x2496 PUSH2 0x21AC JUMP JUMPDEST JUMPDEST PUSH2 0x24C6 JUMP JUMPDEST PUSH2 0x24A9 DUP5 DUP5 DUP5 PUSH1 0x1 PUSH2 0x23AA JUMP JUMPDEST SWAP3 POP SWAP1 POP DUP2 DUP5 DIV DUP2 GT ISZERO PUSH2 0x24C0 JUMPI PUSH2 0x24BF PUSH2 0x21AC JUMP JUMPDEST JUMPDEST DUP2 DUP2 MUL SWAP1 POP JUMPDEST SWAP4 SWAP3 POP POP POP JUMP JUMPDEST PUSH0 PUSH2 0x24D7 DUP3 PUSH2 0x1D88 JUMP JUMPDEST SWAP2 POP PUSH2 0x24E2 DUP4 PUSH2 0x1FBD JUMP JUMPDEST SWAP3 POP PUSH2 0x250F PUSH32 0xFFFFFFFFFFFFFFFFFFFFFFFFFFFFFFFFFFFFFFFFFFFFFFFFFFFFFFFFFFFFFFFF DUP5 DUP5 PUSH2 0x23FC JUMP JUMPDEST SWAP1 POP SWAP3 SWAP2 POP POP JUMP JUMPDEST PUSH0 PUSH1 0x40 DUP3 ADD SWAP1 POP PUSH2 0x252A PUSH0 DUP4 ADD DUP6 PUSH2 0x1D91 JUMP JUMPDEST PUSH2 0x2537 PUSH1 0x20 DUP4 ADD DUP5 PUSH2 0x1D91 JUMP JUMPDEST SWAP4 SWAP3 POP POP POP JUMP JUMPDEST PUSH32 0x4E487B7100000000000000000000000000000000000000000000000000000000 PUSH0 MSTORE PUSH1 0x12 PUSH1 0x4 MSTORE PUSH1 0x24 PUSH0 REVERT JUMPDEST PUSH0 PUSH1 0x60 DUP3 ADD SWAP1 POP PUSH2 0x257E PUSH0 DUP4 ADD DUP7 PUSH2 0x1FF1 JUMP JUMPDEST PUSH2 0x258B PUSH1 0x20 DUP4 ADD DUP6 PUSH2 0x1FF1 JUMP JUMPDEST PUSH2 0x2598 PUSH1 0x40 DUP4 ADD DUP5 PUSH2 0x1D91 JUMP JUMPDEST SWAP5 SWAP4 POP POP POP POP JUMP JUMPDEST PUSH0 PUSH1 0x40 DUP3 ADD SWAP1 POP PUSH2 0x25B3 PUSH0 DUP4 ADD DUP6 PUSH2 0x1FF1 JUMP JUMPDEST PUSH2 0x25C0 PUSH1 0x20 DUP4 ADD DUP5 PUSH2 0x1D91 JUMP JUMPDEST SWAP4 SWAP3 POP POP POP JUMP JUMPDEST PUSH32 0x4E487B7100000000000000000000000000000000000000000000000000000000 PUSH0 MSTORE PUSH1 0x21 PUSH1 0x4 MSTORE PUSH1 0x24 PUSH0 REVERT JUMPDEST PUSH0 PUSH2 0x25FE DUP3 PUSH2 0x1FBD JUMP JUMPDEST SWAP2 POP PUSH2 0x2609 DUP4 PUSH2 0x1FBD JUMP JUMPDEST SWAP3 POP DUP3 PUSH2 0x2619 JUMPI PUSH2 0x2618 PUSH2 0x253E JUMP JUMPDEST JUMPDEST DUP3 DUP3 MOD SWAP1 POP SWAP3 SWAP2 POP POP JUMP JUMPDEST PUSH2 0x262D DUP2 PUSH2 0x1F3A JUMP JUMPDEST DUP2 EQ PUSH2 0x2637 JUMPI PUSH0 DUP1 REVERT JUMPDEST POP JUMP JUMPDEST PUSH0 DUP2 MLOAD SWAP1 POP PUSH2 0x2648 DUP2 PUSH2 0x2624 JUMP JUMPDEST SWAP3 SWAP2 POP POP JUMP JUMPDEST PUSH0 PUSH1 0x20 DUP3 DUP5 SUB SLT ISZERO PUSH2 0x2663 JUMPI PUSH2 0x2662 PUSH2 0x1E49 JUMP JUMPDEST JUMPDEST PUSH0 PUSH2 0x2670 DUP5 DUP3 DUP6 ADD PUSH2 0x263A JUMP JUMPDEST SWAP2 POP POP SWAP3 SWAP2 POP POP JUMP JUMPDEST PUSH0 DUP2 MLOAD SWAP1 POP SWAP2 SWAP1 POP JUMP JUMPDEST PUSH0 DUP2 SWAP1 POP SWAP3 SWAP2 POP POP JUMP JUMPDEST PUSH0 PUSH2 0x2697 DUP3 PUSH2 0x2679 JUMP JUMPDEST PUSH2 0x26A1 DUP2 DUP6 PUSH2 0x2683 JUMP JUMPDEST SWAP4 POP PUSH2 0x26B1 DUP2 DUP6 PUSH1 0x20 DUP7 ADD PUSH2 0x1DD3 JUMP JUMPDEST DUP1 DUP5 ADD SWAP2 POP POP SWAP3 SWAP2 POP POP JUMP JUMPDEST PUSH0 PUSH2 0x26C8 DUP3 DUP5 PUSH2 0x268D JUMP JUMPDEST SWAP2 POP DUP2 SWAP1 POP SWAP3 SWAP2 POP POP JUMP INVALID LOG2 PUSH5 0x6970667358 0x22 SLT KECCAK256 0xD5 SWAP11 TLOAD 0xD3 0x26 TLOAD 0xB0 ADDMOD STOP 0x22 MUL BASEFEE CREATE DUP6 0xC7 EXTCODEHASH KECCAK256 SUB 0xB7 CALLDATACOPY GASPRICE SELFDESTRUCT 0xBA NOT LOG4 0xB3 MULMOD MSTORE8 PUSH31 0x87B0D64736F6C634300081A00330000000000000000000000000000000000 "
				},
				"gasEstimates": {
					"creation": {
						"codeDepositCost": "1998600",
						"executionCost": "infinite",
						"totalCost": "infinite"
					},
					"external": {
						"allowance(address,address)": "infinite",
						"approve(address,uint256)": "infinite",
						"asset()": "infinite",
						"balanceOf(address)": "2940",
						"convertToAssets(uint256)": "infinite",
						"convertToShares(uint256)": "infinite",
						"decimals()": "infinite",
						"deposit(uint256,address)": "infinite",
						"lockedCollateral(address)": "2848",
						"maxDeposit(address)": "686",
						"maxMint(address)": "708",
						"maxRedeem(address)": "2937",
						"maxWithdraw(address)": "infinite",
						"mint(uint256,address)": "infinite",
						"name()": "infinite",
						"previewDeposit(uint256)": "infinite",
						"previewMint(uint256)": "infinite",
						"previewRedeem(uint256)": "infinite",
						"previewWithdraw(uint256)": "infinite",
						"redeem(uint256,address,address)": "infinite",
						"symbol()": "infinite",
						"tokenAddress()": "2553",
						"totalAssets()": "infinite",
						"totalSupply()": "2566",
						"transfer(address,uint256)": "infinite",
						"transferFrom(address,address,uint256)": "infinite",
						"withdraw(uint256,address,address)": "infinite"
					}
				},
				"methodIdentifiers": {
					"allowance(address,address)": "dd62ed3e",
					"approve(address,uint256)": "095ea7b3",
					"asset()": "38d52e0f",
					"balanceOf(address)": "70a08231",
					"convertToAssets(uint256)": "07a2d13a",
					"convertToShares(uint256)": "c6e6f592",
					"decimals()": "313ce567",
					"deposit(uint256,address)": "6e553f65",
					"lockedCollateral(address)": "92bdf9ba",
					"maxDeposit(address)": "402d267d",
					"maxMint(address)": "c63d75b6",
					"maxRedeem(address)": "d905777e",
					"maxWithdraw(address)": "ce96cb77",
					"mint(uint256,address)": "94bf804d",
					"name()": "06fdde03",
					"previewDeposit(uint256)": "ef8b30f7",
					"previewMint(uint256)": "b3d7f6b9",
					"previewRedeem(uint256)": "4cdad506",
					"previewWithdraw(uint256)": "0a28a477",
					"redeem(uint256,address,address)": "ba087652",
					"symbol()": "95d89b41",
					"tokenAddress()": "9d76ea58",
					"totalAssets()": "01e1d114",
					"totalSupply()": "18160ddd",
					"transfer(address,uint256)": "a9059cbb",
					"transferFrom(address,address,uint256)": "23b872dd",
					"withdraw(uint256,address,address)": "b460af94"
				}
			},
			"storageLayout": {
				"storage": [
					{
						"astId": 329,
						"contract": "contracts/Vault.sol:LiquidityVault",
						"label": "_balances",
						"offset": 0,
						"slot": "0",
						"type": "t_mapping(t_address,t_uint256)"
					},
					{
						"astId": 335,
						"contract": "contracts/Vault.sol:LiquidityVault",
						"label": "_allowances",
						"offset": 0,
						"slot": "1",
						"type": "t_mapping(t_address,t_mapping(t_address,t_uint256))"
					},
					{
						"astId": 337,
						"contract": "contracts/Vault.sol:LiquidityVault",
						"label": "_totalSupply",
						"offset": 0,
						"slot": "2",
						"type": "t_uint256"
					},
					{
						"astId": 339,
						"contract": "contracts/Vault.sol:LiquidityVault",
						"label": "_name",
						"offset": 0,
						"slot": "3",
						"type": "t_string_storage"
					},
					{
						"astId": 341,
						"contract": "contracts/Vault.sol:LiquidityVault",
						"label": "_symbol",
						"offset": 0,
						"slot": "4",
						"type": "t_string_storage"
					},
					{
						"astId": 3283,
						"contract": "contracts/Vault.sol:LiquidityVault",
						"label": "lockedCollateral",
						"offset": 0,
						"slot": "5",
						"type": "t_mapping(t_address,t_uint256)"
					},
					{
						"astId": 3285,
						"contract": "contracts/Vault.sol:LiquidityVault",
						"label": "tokenAddress",
						"offset": 0,
						"slot": "6",
						"type": "t_address"
					}
				],
				"types": {
					"t_address": {
						"encoding": "inplace",
						"label": "address",
						"numberOfBytes": "20"
					},
					"t_mapping(t_address,t_mapping(t_address,t_uint256))": {
						"encoding": "mapping",
						"key": "t_address",
						"label": "mapping(address => mapping(address => uint256))",
						"numberOfBytes": "32",
						"value": "t_mapping(t_address,t_uint256)"
					},
					"t_mapping(t_address,t_uint256)": {
						"encoding": "mapping",
						"key": "t_address",
						"label": "mapping(address => uint256)",
						"numberOfBytes": "32",
						"value": "t_uint256"
					},
					"t_string_storage": {
						"encoding": "bytes",
						"label": "string",
						"numberOfBytes": "32"
					},
					"t_uint256": {
						"encoding": "inplace",
						"label": "uint256",
						"numberOfBytes": "32"
					}
				}
			},
			"userdoc": {
				"kind": "user",
				"methods": {},
				"version": 1
			}
		}
	}
}